{
  "address": "0x36e08a1a7d067d5bbcd969e3257c6742a5749d51",
  "abi": [
    {
      "inputs": [
        {
          "internalType": "string",
          "name": "baseURI",
          "type": "string"
        }
      ],
      "stateMutability": "nonpayable",
      "type": "constructor"
    },
    {
      "anonymous": false,
      "inputs": [
        {
          "indexed": true,
          "internalType": "address",
          "name": "owner",
          "type": "address"
        },
        {
          "indexed": true,
          "internalType": "address",
          "name": "approved",
          "type": "address"
        },
        {
          "indexed": true,
          "internalType": "uint256",
          "name": "tokenId",
          "type": "uint256"
        }
      ],
      "name": "Approval",
      "type": "event"
    },
    {
      "anonymous": false,
      "inputs": [
        {
          "indexed": true,
          "internalType": "address",
          "name": "owner",
          "type": "address"
        },
        {
          "indexed": true,
          "internalType": "address",
          "name": "operator",
          "type": "address"
        },
        {
          "indexed": false,
          "internalType": "bool",
          "name": "approved",
          "type": "bool"
        }
      ],
      "name": "ApprovalForAll",
      "type": "event"
    },
    {
      "anonymous": false,
      "inputs": [
        {
          "indexed": true,
          "internalType": "bytes32",
          "name": "role",
          "type": "bytes32"
        },
        {
          "indexed": true,
          "internalType": "bytes32",
          "name": "previousAdminRole",
          "type": "bytes32"
        },
        {
          "indexed": true,
          "internalType": "bytes32",
          "name": "newAdminRole",
          "type": "bytes32"
        }
      ],
      "name": "RoleAdminChanged",
      "type": "event"
    },
    {
      "anonymous": false,
      "inputs": [
        {
          "indexed": true,
          "internalType": "bytes32",
          "name": "role",
          "type": "bytes32"
        },
        {
          "indexed": true,
          "internalType": "address",
          "name": "account",
          "type": "address"
        },
        {
          "indexed": true,
          "internalType": "address",
          "name": "sender",
          "type": "address"
        }
      ],
      "name": "RoleGranted",
      "type": "event"
    },
    {
      "anonymous": false,
      "inputs": [
        {
          "indexed": true,
          "internalType": "bytes32",
          "name": "role",
          "type": "bytes32"
        },
        {
          "indexed": true,
          "internalType": "address",
          "name": "account",
          "type": "address"
        },
        {
          "indexed": true,
          "internalType": "address",
          "name": "sender",
          "type": "address"
        }
      ],
      "name": "RoleRevoked",
      "type": "event"
    },
    {
      "anonymous": false,
      "inputs": [
        {
          "indexed": true,
          "internalType": "address",
          "name": "from",
          "type": "address"
        },
        {
          "indexed": true,
          "internalType": "address",
          "name": "to",
          "type": "address"
        },
        {
          "indexed": true,
          "internalType": "uint256",
          "name": "tokenId",
          "type": "uint256"
        }
      ],
      "name": "Transfer",
      "type": "event"
    },
    {
      "inputs": [],
      "name": "DEFAULT_ADMIN_ROLE",
      "outputs": [
        {
          "internalType": "bytes32",
          "name": "",
          "type": "bytes32"
        }
      ],
      "stateMutability": "view",
      "type": "function"
    },
    {
      "inputs": [],
      "name": "MAX_TOKENS",
      "outputs": [
        {
          "internalType": "uint256",
          "name": "",
          "type": "uint256"
        }
      ],
      "stateMutability": "view",
      "type": "function"
    },
    {
      "inputs": [],
      "name": "MINTER_ROLE",
      "outputs": [
        {
          "internalType": "bytes32",
          "name": "",
          "type": "bytes32"
        }
      ],
      "stateMutability": "view",
      "type": "function"
    },
    {
      "inputs": [
        {
          "internalType": "address",
          "name": "to",
          "type": "address"
        },
        {
          "internalType": "uint256",
          "name": "tokenId",
          "type": "uint256"
        }
      ],
      "name": "approve",
      "outputs": [],
      "stateMutability": "nonpayable",
      "type": "function"
    },
    {
      "inputs": [
        {
          "internalType": "address",
          "name": "owner",
          "type": "address"
        }
      ],
      "name": "balanceOf",
      "outputs": [
        {
          "internalType": "uint256",
          "name": "",
          "type": "uint256"
        }
      ],
      "stateMutability": "view",
      "type": "function"
    },
    {
      "inputs": [
        {
          "internalType": "uint256",
          "name": "tokenId",
          "type": "uint256"
        }
      ],
      "name": "getApproved",
      "outputs": [
        {
          "internalType": "address",
          "name": "",
          "type": "address"
        }
      ],
      "stateMutability": "view",
      "type": "function"
    },
    {
      "inputs": [
        {
          "internalType": "bytes32",
          "name": "role",
          "type": "bytes32"
        }
      ],
      "name": "getRoleAdmin",
      "outputs": [
        {
          "internalType": "bytes32",
          "name": "",
          "type": "bytes32"
        }
      ],
      "stateMutability": "view",
      "type": "function"
    },
    {
      "inputs": [
        {
          "internalType": "bytes32",
          "name": "role",
          "type": "bytes32"
        },
        {
          "internalType": "address",
          "name": "account",
          "type": "address"
        }
      ],
      "name": "grantRole",
      "outputs": [],
      "stateMutability": "nonpayable",
      "type": "function"
    },
    {
      "inputs": [
        {
          "internalType": "bytes32",
          "name": "role",
          "type": "bytes32"
        },
        {
          "internalType": "address",
          "name": "account",
          "type": "address"
        }
      ],
      "name": "hasRole",
      "outputs": [
        {
          "internalType": "bool",
          "name": "",
          "type": "bool"
        }
      ],
      "stateMutability": "view",
      "type": "function"
    },
    {
      "inputs": [
        {
          "internalType": "address",
          "name": "owner",
          "type": "address"
        },
        {
          "internalType": "address",
          "name": "operator",
          "type": "address"
        }
      ],
      "name": "isApprovedForAll",
      "outputs": [
        {
          "internalType": "bool",
          "name": "",
          "type": "bool"
        }
      ],
      "stateMutability": "view",
      "type": "function"
    },
    {
      "inputs": [
        {
          "internalType": "uint256",
          "name": "quantity",
          "type": "uint256"
        }
      ],
      "name": "mint",
      "outputs": [],
      "stateMutability": "nonpayable",
      "type": "function"
    },
    {
      "inputs": [],
      "name": "name",
      "outputs": [
        {
          "internalType": "string",
          "name": "",
          "type": "string"
        }
      ],
      "stateMutability": "view",
      "type": "function"
    },
    {
      "inputs": [
        {
          "internalType": "uint256",
          "name": "tokenId",
          "type": "uint256"
        }
      ],
      "name": "ownerOf",
      "outputs": [
        {
          "internalType": "address",
          "name": "",
          "type": "address"
        }
      ],
      "stateMutability": "view",
      "type": "function"
    },
    {
      "inputs": [
        {
          "internalType": "bytes32",
          "name": "role",
          "type": "bytes32"
        },
        {
          "internalType": "address",
          "name": "account",
          "type": "address"
        }
      ],
      "name": "renounceRole",
      "outputs": [],
      "stateMutability": "nonpayable",
      "type": "function"
    },
    {
      "inputs": [
        {
          "internalType": "bytes32",
          "name": "role",
          "type": "bytes32"
        },
        {
          "internalType": "address",
          "name": "account",
          "type": "address"
        }
      ],
      "name": "revokeRole",
      "outputs": [],
      "stateMutability": "nonpayable",
      "type": "function"
    },
    {
      "inputs": [
        {
          "internalType": "address",
          "name": "from",
          "type": "address"
        },
        {
          "internalType": "address",
          "name": "to",
          "type": "address"
        },
        {
          "internalType": "uint256",
          "name": "tokenId",
          "type": "uint256"
        }
      ],
      "name": "safeTransferFrom",
      "outputs": [],
      "stateMutability": "nonpayable",
      "type": "function"
    },
    {
      "inputs": [
        {
          "internalType": "address",
          "name": "from",
          "type": "address"
        },
        {
          "internalType": "address",
          "name": "to",
          "type": "address"
        },
        {
          "internalType": "uint256",
          "name": "tokenId",
          "type": "uint256"
        },
        {
          "internalType": "bytes",
          "name": "_data",
          "type": "bytes"
        }
      ],
      "name": "safeTransferFrom",
      "outputs": [],
      "stateMutability": "nonpayable",
      "type": "function"
    },
    {
      "inputs": [
        {
          "internalType": "address",
          "name": "operator",
          "type": "address"
        },
        {
          "internalType": "bool",
          "name": "approved",
          "type": "bool"
        }
      ],
      "name": "setApprovalForAll",
      "outputs": [],
      "stateMutability": "nonpayable",
      "type": "function"
    },
    {
      "inputs": [
        {
          "internalType": "string",
          "name": "baseURI",
          "type": "string"
        }
      ],
      "name": "setBaseURI",
      "outputs": [],
      "stateMutability": "nonpayable",
      "type": "function"
    },
    {
      "inputs": [
        {
          "internalType": "bytes4",
          "name": "interfaceId",
          "type": "bytes4"
        }
      ],
      "name": "supportsInterface",
      "outputs": [
        {
          "internalType": "bool",
          "name": "",
          "type": "bool"
        }
      ],
      "stateMutability": "view",
      "type": "function"
    },
    {
      "inputs": [],
      "name": "symbol",
      "outputs": [
        {
          "internalType": "string",
          "name": "",
          "type": "string"
        }
      ],
      "stateMutability": "view",
      "type": "function"
    },
    {
      "inputs": [
        {
          "internalType": "uint256",
          "name": "tokenId",
          "type": "uint256"
        }
      ],
      "name": "tokenURI",
      "outputs": [
        {
          "internalType": "string",
          "name": "",
          "type": "string"
        }
      ],
      "stateMutability": "view",
      "type": "function"
    },
    {
      "inputs": [],
      "name": "totalSupply",
      "outputs": [
        {
          "internalType": "uint256",
          "name": "",
          "type": "uint256"
        }
      ],
      "stateMutability": "view",
      "type": "function"
    },
    {
      "inputs": [
        {
          "internalType": "address",
          "name": "from",
          "type": "address"
        },
        {
          "internalType": "address",
          "name": "to",
          "type": "address"
        },
        {
          "internalType": "uint256",
          "name": "tokenId",
          "type": "uint256"
        }
      ],
      "name": "transferFrom",
      "outputs": [],
      "stateMutability": "nonpayable",
      "type": "function"
    }
  ],
  "transactionHash": "0x0a58175171772f0e629cfb53c0aa1b06753ffdd40039ac9075d8de3c83d7bd91",
  "args": [
    "ipfs://bafybeicjhy2wb3yssw56f22m373myvle3nlxha5tnk57tlxhpke7gplryu"
  ],
  "numDeployments": 1,
  "solcInputHash": "fd01bcf9a7e1c86ab88268ec46b30863",
  "bytecode": "0x608060405260405180602001604052806000815250600790805190602001906200002b929190620002af565b503480156200003957600080fd5b5060405162003c6138038062003c6183398181016040528101906200005f9190620003d1565b6040518060400160405280600f81526020017f4a616d3320436f6c6c656374696f6e00000000000000000000000000000000008152506040518060400160405280600481526020017f4a414d33000000000000000000000000000000000000000000000000000000008152508160009080519060200190620000e3929190620002af565b508060019080519060200190620000fc929190620002af565b505050806007908051906020019062000117929190620002af565b506200012d6000801b336200013460201b60201c565b5062000586565b6200014682826200014a60201b60201c565b5050565b6200015c82826200023c60201b60201c565b620002385760016006600084815260200190815260200160002060000160008373ffffffffffffffffffffffffffffffffffffffff1673ffffffffffffffffffffffffffffffffffffffff16815260200190815260200160002060006101000a81548160ff021916908315150217905550620001dd620002a760201b60201c565b73ffffffffffffffffffffffffffffffffffffffff168173ffffffffffffffffffffffffffffffffffffffff16837f2f8788117e7eff1d82e926ec794901d17c78024a50270940304540a733656f0d60405160405180910390a45b5050565b60006006600084815260200190815260200160002060000160008373ffffffffffffffffffffffffffffffffffffffff1673ffffffffffffffffffffffffffffffffffffffff16815260200190815260200160002060009054906101000a900460ff16905092915050565b600033905090565b828054620002bd90620004ab565b90600052602060002090601f016020900481019282620002e157600085556200032d565b82601f10620002fc57805160ff19168380011785556200032d565b828001600101855582156200032d579182015b828111156200032c5782518255916020019190600101906200030f565b5b5090506200033c919062000340565b5090565b5b808211156200035b57600081600090555060010162000341565b5090565b60006200037662000370846200043f565b62000416565b9050828152602081018484840111156200038f57600080fd5b6200039c84828562000475565b509392505050565b600082601f830112620003b657600080fd5b8151620003c88482602086016200035f565b91505092915050565b600060208284031215620003e457600080fd5b600082015167ffffffffffffffff811115620003ff57600080fd5b6200040d84828501620003a4565b91505092915050565b60006200042262000435565b9050620004308282620004e1565b919050565b6000604051905090565b600067ffffffffffffffff8211156200045d576200045c62000546565b5b620004688262000575565b9050602081019050919050565b60005b838110156200049557808201518184015260208101905062000478565b83811115620004a5576000848401525b50505050565b60006002820490506001821680620004c457607f821691505b60208210811415620004db57620004da62000517565b5b50919050565b620004ec8262000575565b810181811067ffffffffffffffff821117156200050e576200050d62000546565b5b80604052505050565b7f4e487b7100000000000000000000000000000000000000000000000000000000600052602260045260246000fd5b7f4e487b7100000000000000000000000000000000000000000000000000000000600052604160045260246000fd5b6000601f19601f8301169050919050565b6136cb80620005966000396000f3fe608060405234801561001057600080fd5b50600436106101585760003560e01c806370a08231116100c3578063b88d4fde1161007c578063b88d4fde146103d5578063c87b56dd146103f1578063d539139314610421578063d547741f1461043f578063e985e9c51461045b578063f47c84c51461048b57610158565b806370a082311461030157806391d148541461033157806395d89b4114610361578063a0712d681461037f578063a217fddf1461039b578063a22cb465146103b957610158565b8063248a9ca311610115578063248a9ca3146102315780632f2ff15d1461026157806336568abe1461027d57806342842e0e1461029957806355f804b3146102b55780636352211e146102d157610158565b806301ffc9a71461015d57806306fdde031461018d578063081812fc146101ab578063095ea7b3146101db57806318160ddd146101f757806323b872dd14610215575b600080fd5b61017760048036038101906101729190612550565b6104a9565b6040516101849190612a49565b60405180910390f35b6101956104bb565b6040516101a29190612a7f565b60405180910390f35b6101c560048036038101906101c091906125e3565b61054d565b6040516101d291906129e2565b60405180910390f35b6101f560048036038101906101f091906124af565b6105d2565b005b6101ff6106ea565b60405161020c9190612cc1565b60405180910390f35b61022f600480360381019061022a91906123a9565b6106f0565b005b61024b600480360381019061024691906124eb565b610750565b6040516102589190612a64565b60405180910390f35b61027b60048036038101906102769190612514565b610770565b005b61029760048036038101906102929190612514565b610799565b005b6102b360048036038101906102ae91906123a9565b61081c565b005b6102cf60048036038101906102ca91906125a2565b61083c565b005b6102eb60048036038101906102e691906125e3565b610856565b6040516102f891906129e2565b60405180910390f35b61031b60048036038101906103169190612344565b610908565b6040516103289190612cc1565b60405180910390f35b61034b60048036038101906103469190612514565b6109c0565b6040516103589190612a49565b60405180910390f35b610369610a2b565b6040516103769190612a7f565b60405180910390f35b610399600480360381019061039491906125e3565b610abd565b005b6103a3610b96565b6040516103b09190612a64565b60405180910390f35b6103d360048036038101906103ce9190612473565b610b9d565b005b6103ef60048036038101906103ea91906123f8565b610bb3565b005b61040b600480360381019061040691906125e3565b610c15565b6040516104189190612a7f565b60405180910390f35b610429610cbc565b6040516104369190612a64565b60405180910390f35b61045960048036038101906104549190612514565b610ce0565b005b6104756004803603810190610470919061236d565b610d09565b6040516104829190612a49565b60405180910390f35b610493610d9d565b6040516104a09190612cc1565b60405180910390f35b60006104b482610da2565b9050919050565b6060600080546104ca90612fa5565b80601f01602080910402602001604051908101604052809291908181526020018280546104f690612fa5565b80156105435780601f1061051857610100808354040283529160200191610543565b820191906000526020600020905b81548152906001019060200180831161052657829003601f168201915b5050505050905090565b600061055882610e1c565b610597576040517f08c379a000000000000000000000000000000000000000000000000000000000815260040161058e90612c21565b60405180910390fd5b6004600083815260200190815260200160002060009054906101000a900473ffffffffffffffffffffffffffffffffffffffff169050919050565b60006105dd82610856565b90508073ffffffffffffffffffffffffffffffffffffffff168373ffffffffffffffffffffffffffffffffffffffff16141561064e576040517f08c379a000000000000000000000000000000000000000000000000000000000815260040161064590612c61565b60405180910390fd5b8073ffffffffffffffffffffffffffffffffffffffff1661066d610e88565b73ffffffffffffffffffffffffffffffffffffffff16148061069c575061069b81610696610e88565b610d09565b5b6106db576040517f08c379a00000000000000000000000000000000000000000000000000000000081526004016106d290612b81565b60405180910390fd5b6106e58383610e90565b505050565b60085481565b6107016106fb610e88565b82610f49565b610740576040517f08c379a000000000000000000000000000000000000000000000000000000000815260040161073790612c81565b60405180910390fd5b61074b838383611027565b505050565b600060066000838152602001908152602001600020600101549050919050565b61077982610750565b61078a81610785610e88565b61128e565b610794838361132b565b505050565b6107a1610e88565b73ffffffffffffffffffffffffffffffffffffffff168173ffffffffffffffffffffffffffffffffffffffff161461080e576040517f08c379a000000000000000000000000000000000000000000000000000000000815260040161080590612ca1565b60405180910390fd5b610818828261140c565b5050565b61083783838360405180602001604052806000815250610bb3565b505050565b8060079080519060200190610852929190612153565b5050565b6000806002600084815260200190815260200160002060009054906101000a900473ffffffffffffffffffffffffffffffffffffffff169050600073ffffffffffffffffffffffffffffffffffffffff168173ffffffffffffffffffffffffffffffffffffffff1614156108ff576040517f08c379a00000000000000000000000000000000000000000000000000000000081526004016108f690612bc1565b60405180910390fd5b80915050919050565b60008073ffffffffffffffffffffffffffffffffffffffff168273ffffffffffffffffffffffffffffffffffffffff161415610979576040517f08c379a000000000000000000000000000000000000000000000000000000000815260040161097090612ba1565b60405180910390fd5b600360008373ffffffffffffffffffffffffffffffffffffffff1673ffffffffffffffffffffffffffffffffffffffff168152602001908152602001600020549050919050565b60006006600084815260200190815260200160002060000160008373ffffffffffffffffffffffffffffffffffffffff1673ffffffffffffffffffffffffffffffffffffffff16815260200190815260200160002060009054906101000a900460ff16905092915050565b606060018054610a3a90612fa5565b80601f0160208091040260200160405190810160405280929190818152602001828054610a6690612fa5565b8015610ab35780601f10610a8857610100808354040283529160200191610ab3565b820191906000526020600020905b815481529060010190602001808311610a9657829003601f168201915b5050505050905090565b7f9f2df0fed2c77648de5860a4cc508cd0818c85b8b8a1ab4ceeef8d981c8956a6610aef81610aea610e88565b61128e565b600282600854610aff9190612da6565b1115610b40576040517f08c379a0000000000000000000000000000000000000000000000000000000008152600401610b3790612be1565b60405180910390fd5b60005b82811015610b91576000600854905060026008541015610b7d57610b6733826114ee565b6001600854610b769190612da6565b6008819055505b508080610b8990613008565b915050610b43565b505050565b6000801b81565b610baf610ba8610e88565b838361150c565b5050565b610bc4610bbe610e88565b83610f49565b610c03576040517f08c379a0000000000000000000000000000000000000000000000000000000008152600401610bfa90612c81565b60405180910390fd5b610c0f84848484611679565b50505050565b6060610c2082610e1c565b610c5f576040517f08c379a0000000000000000000000000000000000000000000000000000000008152600401610c5690612c41565b60405180910390fd5b6000610c696116d5565b90506000815111610c895760405180602001604052806000815250610cb4565b80610c9384611767565b604051602001610ca4929190612984565b6040516020818303038152906040525b915050919050565b7f9f2df0fed2c77648de5860a4cc508cd0818c85b8b8a1ab4ceeef8d981c8956a681565b610ce982610750565b610cfa81610cf5610e88565b61128e565b610d04838361140c565b505050565b6000600560008473ffffffffffffffffffffffffffffffffffffffff1673ffffffffffffffffffffffffffffffffffffffff16815260200190815260200160002060008373ffffffffffffffffffffffffffffffffffffffff1673ffffffffffffffffffffffffffffffffffffffff16815260200190815260200160002060009054906101000a900460ff16905092915050565b600281565b60007f7965db0b000000000000000000000000000000000000000000000000000000007bffffffffffffffffffffffffffffffffffffffffffffffffffffffff1916827bffffffffffffffffffffffffffffffffffffffffffffffffffffffff19161480610e155750610e1482611914565b5b9050919050565b60008073ffffffffffffffffffffffffffffffffffffffff166002600084815260200190815260200160002060009054906101000a900473ffffffffffffffffffffffffffffffffffffffff1673ffffffffffffffffffffffffffffffffffffffff1614159050919050565b600033905090565b816004600083815260200190815260200160002060006101000a81548173ffffffffffffffffffffffffffffffffffffffff021916908373ffffffffffffffffffffffffffffffffffffffff160217905550808273ffffffffffffffffffffffffffffffffffffffff16610f0383610856565b73ffffffffffffffffffffffffffffffffffffffff167f8c5be1e5ebec7d5bd14f71427d1e84f3dd0314c0f7b2291e5b200ac8c7c3b92560405160405180910390a45050565b6000610f5482610e1c565b610f93576040517f08c379a0000000000000000000000000000000000000000000000000000000008152600401610f8a90612b61565b60405180910390fd5b6000610f9e83610856565b90508073ffffffffffffffffffffffffffffffffffffffff168473ffffffffffffffffffffffffffffffffffffffff16148061100d57508373ffffffffffffffffffffffffffffffffffffffff16610ff58461054d565b73ffffffffffffffffffffffffffffffffffffffff16145b8061101e575061101d8185610d09565b5b91505092915050565b8273ffffffffffffffffffffffffffffffffffffffff1661104782610856565b73ffffffffffffffffffffffffffffffffffffffff161461109d576040517f08c379a000000000000000000000000000000000000000000000000000000000815260040161109490612ae1565b60405180910390fd5b600073ffffffffffffffffffffffffffffffffffffffff168273ffffffffffffffffffffffffffffffffffffffff16141561110d576040517f08c379a000000000000000000000000000000000000000000000000000000000815260040161110490612b21565b60405180910390fd5b6111188383836119f6565b611123600082610e90565b6001600360008573ffffffffffffffffffffffffffffffffffffffff1673ffffffffffffffffffffffffffffffffffffffff16815260200190815260200160002060008282546111739190612e87565b925050819055506001600360008473ffffffffffffffffffffffffffffffffffffffff1673ffffffffffffffffffffffffffffffffffffffff16815260200190815260200160002060008282546111ca9190612da6565b92505081905550816002600083815260200190815260200160002060006101000a81548173ffffffffffffffffffffffffffffffffffffffff021916908373ffffffffffffffffffffffffffffffffffffffff160217905550808273ffffffffffffffffffffffffffffffffffffffff168473ffffffffffffffffffffffffffffffffffffffff167fddf252ad1be2c89b69c2b068fc378daa952ba7f163c4a11628f55a4df523b3ef60405160405180910390a46112898383836119fb565b505050565b61129882826109c0565b611327576112bd8173ffffffffffffffffffffffffffffffffffffffff166014611a00565b6112cb8360001c6020611a00565b6040516020016112dc9291906129a8565b6040516020818303038152906040526040517f08c379a000000000000000000000000000000000000000000000000000000000815260040161131e9190612a7f565b60405180910390fd5b5050565b61133582826109c0565b6114085760016006600084815260200190815260200160002060000160008373ffffffffffffffffffffffffffffffffffffffff1673ffffffffffffffffffffffffffffffffffffffff16815260200190815260200160002060006101000a81548160ff0219169083151502179055506113ad610e88565b73ffffffffffffffffffffffffffffffffffffffff168173ffffffffffffffffffffffffffffffffffffffff16837f2f8788117e7eff1d82e926ec794901d17c78024a50270940304540a733656f0d60405160405180910390a45b5050565b61141682826109c0565b156114ea5760006006600084815260200190815260200160002060000160008373ffffffffffffffffffffffffffffffffffffffff1673ffffffffffffffffffffffffffffffffffffffff16815260200190815260200160002060006101000a81548160ff02191690831515021790555061148f610e88565b73ffffffffffffffffffffffffffffffffffffffff168173ffffffffffffffffffffffffffffffffffffffff16837ff6391f5c32d9c69d2a47ea670b442974b53935d1edc7fd64eb21e047a839171b60405160405180910390a45b5050565b611508828260405180602001604052806000815250611cfa565b5050565b8173ffffffffffffffffffffffffffffffffffffffff168373ffffffffffffffffffffffffffffffffffffffff16141561157b576040517f08c379a000000000000000000000000000000000000000000000000000000000815260040161157290612b41565b60405180910390fd5b80600560008573ffffffffffffffffffffffffffffffffffffffff1673ffffffffffffffffffffffffffffffffffffffff16815260200190815260200160002060008473ffffffffffffffffffffffffffffffffffffffff1673ffffffffffffffffffffffffffffffffffffffff16815260200190815260200160002060006101000a81548160ff0219169083151502179055508173ffffffffffffffffffffffffffffffffffffffff168373ffffffffffffffffffffffffffffffffffffffff167f17307eab39ab6107e8899845ad3d59bd9653f200f220920489ca2b5937696c318360405161166c9190612a49565b60405180910390a3505050565b611684848484611027565b61169084848484611d55565b6116cf576040517f08c379a00000000000000000000000000000000000000000000000000000000081526004016116c690612ac1565b60405180910390fd5b50505050565b6060600780546116e490612fa5565b80601f016020809104026020016040519081016040528092919081815260200182805461171090612fa5565b801561175d5780601f106117325761010080835404028352916020019161175d565b820191906000526020600020905b81548152906001019060200180831161174057829003601f168201915b5050505050905090565b606060008214156117af576040518060400160405280600181526020017f3000000000000000000000000000000000000000000000000000000000000000815250905061190f565b600082905060005b600082146117e15780806117ca90613008565b915050600a826117da9190612dfc565b91506117b7565b60008167ffffffffffffffff811115611823577f4e487b7100000000000000000000000000000000000000000000000000000000600052604160045260246000fd5b6040519080825280601f01601f1916602001820160405280156118555781602001600182028036833780820191505090505b5090505b600085146119085760018261186e9190612e87565b9150600a8561187d9190613051565b60306118899190612da6565b60f81b8183815181106118c5577f4e487b7100000000000000000000000000000000000000000000000000000000600052603260045260246000fd5b60200101907effffffffffffffffffffffffffffffffffffffffffffffffffffffffffffff1916908160001a905350600a856119019190612dfc565b9450611859565b8093505050505b919050565b60007f80ac58cd000000000000000000000000000000000000000000000000000000007bffffffffffffffffffffffffffffffffffffffffffffffffffffffff1916827bffffffffffffffffffffffffffffffffffffffffffffffffffffffff191614806119df57507f5b5e139f000000000000000000000000000000000000000000000000000000007bffffffffffffffffffffffffffffffffffffffffffffffffffffffff1916827bffffffffffffffffffffffffffffffffffffffffffffffffffffffff1916145b806119ef57506119ee82611eec565b5b9050919050565b505050565b505050565b606060006002836002611a139190612e2d565b611a1d9190612da6565b67ffffffffffffffff811115611a5c577f4e487b7100000000000000000000000000000000000000000000000000000000600052604160045260246000fd5b6040519080825280601f01601f191660200182016040528015611a8e5781602001600182028036833780820191505090505b5090507f300000000000000000000000000000000000000000000000000000000000000081600081518110611aec577f4e487b7100000000000000000000000000000000000000000000000000000000600052603260045260246000fd5b60200101907effffffffffffffffffffffffffffffffffffffffffffffffffffffffffffff1916908160001a9053507f780000000000000000000000000000000000000000000000000000000000000081600181518110611b76577f4e487b7100000000000000000000000000000000000000000000000000000000600052603260045260246000fd5b60200101907effffffffffffffffffffffffffffffffffffffffffffffffffffffffffffff1916908160001a90535060006001846002611bb69190612e2d565b611bc09190612da6565b90505b6001811115611cac577f3031323334353637383961626364656600000000000000000000000000000000600f861660108110611c28577f4e487b7100000000000000000000000000000000000000000000000000000000600052603260045260246000fd5b1a60f81b828281518110611c65577f4e487b7100000000000000000000000000000000000000000000000000000000600052603260045260246000fd5b60200101907effffffffffffffffffffffffffffffffffffffffffffffffffffffffffffff1916908160001a905350600485901c945080611ca590612f7b565b9050611bc3565b5060008414611cf0576040517f08c379a0000000000000000000000000000000000000000000000000000000008152600401611ce790612aa1565b60405180910390fd5b8091505092915050565b611d048383611f56565b611d116000848484611d55565b611d50576040517f08c379a0000000000000000000000000000000000000000000000000000000008152600401611d4790612ac1565b60405180910390fd5b505050565b6000611d768473ffffffffffffffffffffffffffffffffffffffff16612130565b15611edf578373ffffffffffffffffffffffffffffffffffffffff1663150b7a02611d9f610e88565b8786866040518563ffffffff1660e01b8152600401611dc194939291906129fd565b602060405180830381600087803b158015611ddb57600080fd5b505af1925050508015611e0c57506040513d601f19601f82011682018060405250810190611e099190612579565b60015b611e8f573d8060008114611e3c576040519150601f19603f3d011682016040523d82523d6000602084013e611e41565b606091505b50600081511415611e87576040517f08c379a0000000000000000000000000000000000000000000000000000000008152600401611e7e90612ac1565b60405180910390fd5b805181602001fd5b63150b7a0260e01b7bffffffffffffffffffffffffffffffffffffffffffffffffffffffff1916817bffffffffffffffffffffffffffffffffffffffffffffffffffffffff191614915050611ee4565b600190505b949350505050565b60007f01ffc9a7000000000000000000000000000000000000000000000000000000007bffffffffffffffffffffffffffffffffffffffffffffffffffffffff1916827bffffffffffffffffffffffffffffffffffffffffffffffffffffffff1916149050919050565b600073ffffffffffffffffffffffffffffffffffffffff168273ffffffffffffffffffffffffffffffffffffffff161415611fc6576040517f08c379a0000000000000000000000000000000000000000000000000000000008152600401611fbd90612c01565b60405180910390fd5b611fcf81610e1c565b1561200f576040517f08c379a000000000000000000000000000000000000000000000000000000000815260040161200690612b01565b60405180910390fd5b61201b600083836119f6565b6001600360008473ffffffffffffffffffffffffffffffffffffffff1673ffffffffffffffffffffffffffffffffffffffff168152602001908152602001600020600082825461206b9190612da6565b92505081905550816002600083815260200190815260200160002060006101000a81548173ffffffffffffffffffffffffffffffffffffffff021916908373ffffffffffffffffffffffffffffffffffffffff160217905550808273ffffffffffffffffffffffffffffffffffffffff16600073ffffffffffffffffffffffffffffffffffffffff167fddf252ad1be2c89b69c2b068fc378daa952ba7f163c4a11628f55a4df523b3ef60405160405180910390a461212c600083836119fb565b5050565b6000808273ffffffffffffffffffffffffffffffffffffffff163b119050919050565b82805461215f90612fa5565b90600052602060002090601f01602090048101928261218157600085556121c8565b82601f1061219a57805160ff19168380011785556121c8565b828001600101855582156121c8579182015b828111156121c75782518255916020019190600101906121ac565b5b5090506121d591906121d9565b5090565b5b808211156121f25760008160009055506001016121da565b5090565b600061220961220484612d01565b612cdc565b90508281526020810184848401111561222157600080fd5b61222c848285612f39565b509392505050565b600061224761224284612d32565b612cdc565b90508281526020810184848401111561225f57600080fd5b61226a848285612f39565b509392505050565b60008135905061228181613622565b92915050565b60008135905061229681613639565b92915050565b6000813590506122ab81613650565b92915050565b6000813590506122c081613667565b92915050565b6000815190506122d581613667565b92915050565b600082601f8301126122ec57600080fd5b81356122fc8482602086016121f6565b91505092915050565b600082601f83011261231657600080fd5b8135612326848260208601612234565b91505092915050565b60008135905061233e8161367e565b92915050565b60006020828403121561235657600080fd5b600061236484828501612272565b91505092915050565b6000806040838503121561238057600080fd5b600061238e85828601612272565b925050602061239f85828601612272565b9150509250929050565b6000806000606084860312156123be57600080fd5b60006123cc86828701612272565b93505060206123dd86828701612272565b92505060406123ee8682870161232f565b9150509250925092565b6000806000806080858703121561240e57600080fd5b600061241c87828801612272565b945050602061242d87828801612272565b935050604061243e8782880161232f565b925050606085013567ffffffffffffffff81111561245b57600080fd5b612467878288016122db565b91505092959194509250565b6000806040838503121561248657600080fd5b600061249485828601612272565b92505060206124a585828601612287565b9150509250929050565b600080604083850312156124c257600080fd5b60006124d085828601612272565b92505060206124e18582860161232f565b9150509250929050565b6000602082840312156124fd57600080fd5b600061250b8482850161229c565b91505092915050565b6000806040838503121561252757600080fd5b60006125358582860161229c565b925050602061254685828601612272565b9150509250929050565b60006020828403121561256257600080fd5b6000612570848285016122b1565b91505092915050565b60006020828403121561258b57600080fd5b6000612599848285016122c6565b91505092915050565b6000602082840312156125b457600080fd5b600082013567ffffffffffffffff8111156125ce57600080fd5b6125da84828501612305565b91505092915050565b6000602082840312156125f557600080fd5b60006126038482850161232f565b91505092915050565b61261581612ebb565b82525050565b61262481612ecd565b82525050565b61263381612ed9565b82525050565b600061264482612d63565b61264e8185612d79565b935061265e818560208601612f48565b6126678161313e565b840191505092915050565b600061267d82612d6e565b6126878185612d8a565b9350612697818560208601612f48565b6126a08161313e565b840191505092915050565b60006126b682612d6e565b6126c08185612d9b565b93506126d0818560208601612f48565b80840191505092915050565b60006126e9602083612d8a565b91506126f48261314f565b602082019050919050565b600061270c603283612d8a565b915061271782613178565b604082019050919050565b600061272f602583612d8a565b915061273a826131c7565b604082019050919050565b6000612752601c83612d8a565b915061275d82613216565b602082019050919050565b6000612775602483612d8a565b91506127808261323f565b604082019050919050565b6000612798601983612d8a565b91506127a38261328e565b602082019050919050565b60006127bb602c83612d8a565b91506127c6826132b7565b604082019050919050565b60006127de603883612d8a565b91506127e982613306565b604082019050919050565b6000612801602a83612d8a565b915061280c82613355565b604082019050919050565b6000612824602983612d8a565b915061282f826133a4565b604082019050919050565b6000612847602083612d8a565b9150612852826133f3565b602082019050919050565b600061286a602083612d8a565b91506128758261341c565b602082019050919050565b600061288d602c83612d8a565b915061289882613445565b604082019050919050565b60006128b0602f83612d8a565b91506128bb82613494565b604082019050919050565b60006128d3602183612d8a565b91506128de826134e3565b604082019050919050565b60006128f6603183612d8a565b915061290182613532565b604082019050919050565b6000612919601783612d9b565b915061292482613581565b601782019050919050565b600061293c601183612d9b565b9150612947826135aa565b601182019050919050565b600061295f602f83612d8a565b915061296a826135d3565b604082019050919050565b61297e81612f2f565b82525050565b600061299082856126ab565b915061299c82846126ab565b91508190509392505050565b60006129b38261290c565b91506129bf82856126ab565b91506129ca8261292f565b91506129d682846126ab565b91508190509392505050565b60006020820190506129f7600083018461260c565b92915050565b6000608082019050612a12600083018761260c565b612a1f602083018661260c565b612a2c6040830185612975565b8181036060830152612a3e8184612639565b905095945050505050565b6000602082019050612a5e600083018461261b565b92915050565b6000602082019050612a79600083018461262a565b92915050565b60006020820190508181036000830152612a998184612672565b905092915050565b60006020820190508181036000830152612aba816126dc565b9050919050565b60006020820190508181036000830152612ada816126ff565b9050919050565b60006020820190508181036000830152612afa81612722565b9050919050565b60006020820190508181036000830152612b1a81612745565b9050919050565b60006020820190508181036000830152612b3a81612768565b9050919050565b60006020820190508181036000830152612b5a8161278b565b9050919050565b60006020820190508181036000830152612b7a816127ae565b9050919050565b60006020820190508181036000830152612b9a816127d1565b9050919050565b60006020820190508181036000830152612bba816127f4565b9050919050565b60006020820190508181036000830152612bda81612817565b9050919050565b60006020820190508181036000830152612bfa8161283a565b9050919050565b60006020820190508181036000830152612c1a8161285d565b9050919050565b60006020820190508181036000830152612c3a81612880565b9050919050565b60006020820190508181036000830152612c5a816128a3565b9050919050565b60006020820190508181036000830152612c7a816128c6565b9050919050565b60006020820190508181036000830152612c9a816128e9565b9050919050565b60006020820190508181036000830152612cba81612952565b9050919050565b6000602082019050612cd66000830184612975565b92915050565b6000612ce6612cf7565b9050612cf28282612fd7565b919050565b6000604051905090565b600067ffffffffffffffff821115612d1c57612d1b61310f565b5b612d258261313e565b9050602081019050919050565b600067ffffffffffffffff821115612d4d57612d4c61310f565b5b612d568261313e565b9050602081019050919050565b600081519050919050565b600081519050919050565b600082825260208201905092915050565b600082825260208201905092915050565b600081905092915050565b6000612db182612f2f565b9150612dbc83612f2f565b9250827fffffffffffffffffffffffffffffffffffffffffffffffffffffffffffffffff03821115612df157612df0613082565b5b828201905092915050565b6000612e0782612f2f565b9150612e1283612f2f565b925082612e2257612e216130b1565b5b828204905092915050565b6000612e3882612f2f565b9150612e4383612f2f565b9250817fffffffffffffffffffffffffffffffffffffffffffffffffffffffffffffffff0483118215151615612e7c57612e7b613082565b5b828202905092915050565b6000612e9282612f2f565b9150612e9d83612f2f565b925082821015612eb057612eaf613082565b5b828203905092915050565b6000612ec682612f0f565b9050919050565b60008115159050919050565b6000819050919050565b60007fffffffff0000000000000000000000000000000000000000000000000000000082169050919050565b600073ffffffffffffffffffffffffffffffffffffffff82169050919050565b6000819050919050565b82818337600083830152505050565b60005b83811015612f66578082015181840152602081019050612f4b565b83811115612f75576000848401525b50505050565b6000612f8682612f2f565b91506000821415612f9a57612f99613082565b5b600182039050919050565b60006002820490506001821680612fbd57607f821691505b60208210811415612fd157612fd06130e0565b5b50919050565b612fe08261313e565b810181811067ffffffffffffffff82111715612fff57612ffe61310f565b5b80604052505050565b600061301382612f2f565b91507fffffffffffffffffffffffffffffffffffffffffffffffffffffffffffffffff82141561304657613045613082565b5b600182019050919050565b600061305c82612f2f565b915061306783612f2f565b925082613077576130766130b1565b5b828206905092915050565b7f4e487b7100000000000000000000000000000000000000000000000000000000600052601160045260246000fd5b7f4e487b7100000000000000000000000000000000000000000000000000000000600052601260045260246000fd5b7f4e487b7100000000000000000000000000000000000000000000000000000000600052602260045260246000fd5b7f4e487b7100000000000000000000000000000000000000000000000000000000600052604160045260246000fd5b6000601f19601f8301169050919050565b7f537472696e67733a20686578206c656e67746820696e73756666696369656e74600082015250565b7f4552433732313a207472616e7366657220746f206e6f6e20455243373231526560008201527f63656976657220696d706c656d656e7465720000000000000000000000000000602082015250565b7f4552433732313a207472616e736665722066726f6d20696e636f72726563742060008201527f6f776e6572000000000000000000000000000000000000000000000000000000602082015250565b7f4552433732313a20746f6b656e20616c7265616479206d696e74656400000000600082015250565b7f4552433732313a207472616e7366657220746f20746865207a65726f2061646460008201527f7265737300000000000000000000000000000000000000000000000000000000602082015250565b7f4552433732313a20617070726f766520746f2063616c6c657200000000000000600082015250565b7f4552433732313a206f70657261746f7220717565727920666f72206e6f6e657860008201527f697374656e7420746f6b656e0000000000000000000000000000000000000000602082015250565b7f4552433732313a20617070726f76652063616c6c6572206973206e6f74206f7760008201527f6e6572206e6f7220617070726f76656420666f7220616c6c0000000000000000602082015250565b7f4552433732313a2062616c616e636520717565727920666f7220746865207a6560008201527f726f206164647265737300000000000000000000000000000000000000000000602082015250565b7f4552433732313a206f776e657220717565727920666f72206e6f6e657869737460008201527f656e7420746f6b656e0000000000000000000000000000000000000000000000602082015250565b7f507572636861736520776f756c6420657863656564206d617820737570706c79600082015250565b7f4552433732313a206d696e7420746f20746865207a65726f2061646472657373600082015250565b7f4552433732313a20617070726f76656420717565727920666f72206e6f6e657860008201527f697374656e7420746f6b656e0000000000000000000000000000000000000000602082015250565b7f4552433732314d657461646174613a2055524920717565727920666f72206e6f60008201527f6e6578697374656e7420746f6b656e0000000000000000000000000000000000602082015250565b7f4552433732313a20617070726f76616c20746f2063757272656e74206f776e6560008201527f7200000000000000000000000000000000000000000000000000000000000000602082015250565b7f4552433732313a207472616e736665722063616c6c6572206973206e6f74206f60008201527f776e6572206e6f7220617070726f766564000000000000000000000000000000602082015250565b7f416363657373436f6e74726f6c3a206163636f756e7420000000000000000000600082015250565b7f206973206d697373696e6720726f6c6520000000000000000000000000000000600082015250565b7f416363657373436f6e74726f6c3a2063616e206f6e6c792072656e6f756e636560008201527f20726f6c657320666f722073656c660000000000000000000000000000000000602082015250565b61362b81612ebb565b811461363657600080fd5b50565b61364281612ecd565b811461364d57600080fd5b50565b61365981612ed9565b811461366457600080fd5b50565b61367081612ee3565b811461367b57600080fd5b50565b61368781612f2f565b811461369257600080fd5b5056fea26469706673582212206c7e0bfcb2669e6b6afb82e8716d39db1bb607de2f33148d7ca68d22e67469a264736f6c63430008040033",
  "devdoc": {
    "kind": "dev",
    "methods": {
      "approve(address,uint256)": {
        "details": "See {IERC721-approve}."
      },
      "balanceOf(address)": {
        "details": "See {IERC721-balanceOf}."
      },
      "getApproved(uint256)": {
        "details": "See {IERC721-getApproved}."
      },
      "getRoleAdmin(bytes32)": {
        "details": "Returns the admin role that controls `role`. See {grantRole} and {revokeRole}. To change a role's admin, use {_setRoleAdmin}."
      },
      "grantRole(bytes32,address)": {
        "details": "Grants `role` to `account`. If `account` had not been already granted `role`, emits a {RoleGranted} event. Requirements: - the caller must have ``role``'s admin role."
      },
      "hasRole(bytes32,address)": {
        "details": "Returns `true` if `account` has been granted `role`."
      },
      "isApprovedForAll(address,address)": {
        "details": "See {IERC721-isApprovedForAll}."
      },
      "name()": {
        "details": "See {IERC721Metadata-name}."
      },
      "ownerOf(uint256)": {
        "details": "See {IERC721-ownerOf}."
      },
      "renounceRole(bytes32,address)": {
        "details": "Revokes `role` from the calling account. Roles are often managed via {grantRole} and {revokeRole}: this function's purpose is to provide a mechanism for accounts to lose their privileges if they are compromised (such as when a trusted device is misplaced). If the calling account had been revoked `role`, emits a {RoleRevoked} event. Requirements: - the caller must be `account`."
      },
      "revokeRole(bytes32,address)": {
        "details": "Revokes `role` from `account`. If `account` had been granted `role`, emits a {RoleRevoked} event. Requirements: - the caller must have ``role``'s admin role."
      },
      "safeTransferFrom(address,address,uint256)": {
        "details": "See {IERC721-safeTransferFrom}."
      },
      "safeTransferFrom(address,address,uint256,bytes)": {
        "details": "See {IERC721-safeTransferFrom}."
      },
      "setApprovalForAll(address,bool)": {
        "details": "See {IERC721-setApprovalForAll}."
      },
      "symbol()": {
        "details": "See {IERC721Metadata-symbol}."
      },
      "tokenURI(uint256)": {
        "details": "See {IERC721Metadata-tokenURI}."
      },
      "transferFrom(address,address,uint256)": {
        "details": "See {IERC721-transferFrom}."
      }
    },
    "version": 1
  },
  "userdoc": {
    "kind": "user",
    "methods": {},
    "version": 1
  },
  "storageLayout": {
    "storage": [
      {
        "astId": 407,
        "contract": "contracts/Collectible.sol:Collectible",
        "label": "_name",
        "offset": 0,
        "slot": "0",
        "type": "t_string_storage"
      },
      {
        "astId": 409,
        "contract": "contracts/Collectible.sol:Collectible",
        "label": "_symbol",
        "offset": 0,
        "slot": "1",
        "type": "t_string_storage"
      },
      {
        "astId": 413,
        "contract": "contracts/Collectible.sol:Collectible",
        "label": "_owners",
        "offset": 0,
        "slot": "2",
        "type": "t_mapping(t_uint256,t_address)"
      },
      {
        "astId": 417,
        "contract": "contracts/Collectible.sol:Collectible",
        "label": "_balances",
        "offset": 0,
        "slot": "3",
        "type": "t_mapping(t_address,t_uint256)"
      },
      {
        "astId": 421,
        "contract": "contracts/Collectible.sol:Collectible",
        "label": "_tokenApprovals",
        "offset": 0,
        "slot": "4",
        "type": "t_mapping(t_uint256,t_address)"
      },
      {
        "astId": 427,
        "contract": "contracts/Collectible.sol:Collectible",
        "label": "_operatorApprovals",
        "offset": 0,
        "slot": "5",
        "type": "t_mapping(t_address,t_mapping(t_address,t_bool))"
      },
      {
        "astId": 24,
        "contract": "contracts/Collectible.sol:Collectible",
        "label": "_roles",
        "offset": 0,
        "slot": "6",
        "type": "t_mapping(t_bytes32,t_struct(RoleData)19_storage)"
      },
      {
        "astId": 2456,
        "contract": "contracts/Collectible.sol:Collectible",
        "label": "_baseURIValue",
        "offset": 0,
        "slot": "7",
        "type": "t_string_storage"
      },
      {
        "astId": 2458,
        "contract": "contracts/Collectible.sol:Collectible",
        "label": "totalSupply",
        "offset": 0,
        "slot": "8",
        "type": "t_uint256"
      }
    ],
    "types": {
      "t_address": {
        "encoding": "inplace",
        "label": "address",
        "numberOfBytes": "20"
      },
      "t_bool": {
        "encoding": "inplace",
        "label": "bool",
        "numberOfBytes": "1"
      },
      "t_bytes32": {
        "encoding": "inplace",
        "label": "bytes32",
        "numberOfBytes": "32"
      },
      "t_mapping(t_address,t_bool)": {
        "encoding": "mapping",
        "key": "t_address",
        "label": "mapping(address => bool)",
        "numberOfBytes": "32",
        "value": "t_bool"
      },
      "t_mapping(t_address,t_mapping(t_address,t_bool))": {
        "encoding": "mapping",
        "key": "t_address",
        "label": "mapping(address => mapping(address => bool))",
        "numberOfBytes": "32",
        "value": "t_mapping(t_address,t_bool)"
      },
      "t_mapping(t_address,t_uint256)": {
        "encoding": "mapping",
        "key": "t_address",
        "label": "mapping(address => uint256)",
        "numberOfBytes": "32",
        "value": "t_uint256"
      },
      "t_mapping(t_bytes32,t_struct(RoleData)19_storage)": {
        "encoding": "mapping",
        "key": "t_bytes32",
        "label": "mapping(bytes32 => struct AccessControl.RoleData)",
        "numberOfBytes": "32",
        "value": "t_struct(RoleData)19_storage"
      },
      "t_mapping(t_uint256,t_address)": {
        "encoding": "mapping",
        "key": "t_uint256",
        "label": "mapping(uint256 => address)",
        "numberOfBytes": "32",
        "value": "t_address"
      },
      "t_string_storage": {
        "encoding": "bytes",
        "label": "string",
        "numberOfBytes": "32"
      },
      "t_struct(RoleData)19_storage": {
        "encoding": "inplace",
        "label": "struct AccessControl.RoleData",
        "members": [
          {
            "astId": 16,
            "contract": "contracts/Collectible.sol:Collectible",
            "label": "members",
            "offset": 0,
            "slot": "0",
            "type": "t_mapping(t_address,t_bool)"
          },
          {
            "astId": 18,
            "contract": "contracts/Collectible.sol:Collectible",
            "label": "adminRole",
            "offset": 0,
            "slot": "1",
            "type": "t_bytes32"
          }
        ],
        "numberOfBytes": "64"
      },
      "t_uint256": {
        "encoding": "inplace",
        "label": "uint256",
        "numberOfBytes": "32"
      }
    }
  }
}