{
  "address": "0x53227b87A4A9F5ccc6195A7Aa5904cb62D82F99c",
  "abi": [
    {
      "inputs": [],
      "stateMutability": "nonpayable",
      "type": "constructor"
    },
    {
      "anonymous": false,
      "inputs": [
        {
          "indexed": true,
          "internalType": "address",
          "name": "owner",
          "type": "address"
        },
        {
          "indexed": true,
          "internalType": "address",
          "name": "approved",
          "type": "address"
        },
        {
          "indexed": true,
          "internalType": "uint256",
          "name": "tokenId",
          "type": "uint256"
        }
      ],
      "name": "Approval",
      "type": "event"
    },
    {
      "anonymous": false,
      "inputs": [
        {
          "indexed": true,
          "internalType": "address",
          "name": "owner",
          "type": "address"
        },
        {
          "indexed": true,
          "internalType": "address",
          "name": "operator",
          "type": "address"
        },
        {
          "indexed": false,
          "internalType": "bool",
          "name": "approved",
          "type": "bool"
        }
      ],
      "name": "ApprovalForAll",
      "type": "event"
    },
    {
      "anonymous": false,
      "inputs": [
        {
          "indexed": true,
          "internalType": "bytes32",
          "name": "role",
          "type": "bytes32"
        },
        {
          "indexed": true,
          "internalType": "bytes32",
          "name": "previousAdminRole",
          "type": "bytes32"
        },
        {
          "indexed": true,
          "internalType": "bytes32",
          "name": "newAdminRole",
          "type": "bytes32"
        }
      ],
      "name": "RoleAdminChanged",
      "type": "event"
    },
    {
      "anonymous": false,
      "inputs": [
        {
          "indexed": true,
          "internalType": "bytes32",
          "name": "role",
          "type": "bytes32"
        },
        {
          "indexed": true,
          "internalType": "address",
          "name": "account",
          "type": "address"
        },
        {
          "indexed": true,
          "internalType": "address",
          "name": "sender",
          "type": "address"
        }
      ],
      "name": "RoleGranted",
      "type": "event"
    },
    {
      "anonymous": false,
      "inputs": [
        {
          "indexed": true,
          "internalType": "bytes32",
          "name": "role",
          "type": "bytes32"
        },
        {
          "indexed": true,
          "internalType": "address",
          "name": "account",
          "type": "address"
        },
        {
          "indexed": true,
          "internalType": "address",
          "name": "sender",
          "type": "address"
        }
      ],
      "name": "RoleRevoked",
      "type": "event"
    },
    {
      "anonymous": false,
      "inputs": [
        {
          "indexed": true,
          "internalType": "address",
          "name": "from",
          "type": "address"
        },
        {
          "indexed": true,
          "internalType": "address",
          "name": "to",
          "type": "address"
        },
        {
          "indexed": true,
          "internalType": "uint256",
          "name": "tokenId",
          "type": "uint256"
        }
      ],
      "name": "Transfer",
      "type": "event"
    },
    {
      "inputs": [],
      "name": "DEFAULT_ADMIN_ROLE",
      "outputs": [
        {
          "internalType": "bytes32",
          "name": "",
          "type": "bytes32"
        }
      ],
      "stateMutability": "view",
      "type": "function"
    },
    {
      "inputs": [],
      "name": "MAX_TOKENS",
      "outputs": [
        {
          "internalType": "uint256",
          "name": "",
          "type": "uint256"
        }
      ],
      "stateMutability": "view",
      "type": "function"
    },
    {
      "inputs": [],
      "name": "MINTER_ROLE",
      "outputs": [
        {
          "internalType": "bytes32",
          "name": "",
          "type": "bytes32"
        }
      ],
      "stateMutability": "view",
      "type": "function"
    },
    {
      "inputs": [
        {
          "internalType": "address",
          "name": "to",
          "type": "address"
        },
        {
          "internalType": "uint256",
          "name": "tokenId",
          "type": "uint256"
        }
      ],
      "name": "approve",
      "outputs": [],
      "stateMutability": "nonpayable",
      "type": "function"
    },
    {
      "inputs": [
        {
          "internalType": "address",
          "name": "owner",
          "type": "address"
        }
      ],
      "name": "balanceOf",
      "outputs": [
        {
          "internalType": "uint256",
          "name": "",
          "type": "uint256"
        }
      ],
      "stateMutability": "view",
      "type": "function"
    },
    {
      "inputs": [
        {
          "internalType": "uint256",
          "name": "tokenId",
          "type": "uint256"
        }
      ],
      "name": "getApproved",
      "outputs": [
        {
          "internalType": "address",
          "name": "",
          "type": "address"
        }
      ],
      "stateMutability": "view",
      "type": "function"
    },
    {
      "inputs": [
        {
          "internalType": "bytes32",
          "name": "role",
          "type": "bytes32"
        }
      ],
      "name": "getRoleAdmin",
      "outputs": [
        {
          "internalType": "bytes32",
          "name": "",
          "type": "bytes32"
        }
      ],
      "stateMutability": "view",
      "type": "function"
    },
    {
      "inputs": [
        {
          "internalType": "bytes32",
          "name": "role",
          "type": "bytes32"
        },
        {
          "internalType": "address",
          "name": "account",
          "type": "address"
        }
      ],
      "name": "grantRole",
      "outputs": [],
      "stateMutability": "nonpayable",
      "type": "function"
    },
    {
      "inputs": [
        {
          "internalType": "bytes32",
          "name": "role",
          "type": "bytes32"
        },
        {
          "internalType": "address",
          "name": "account",
          "type": "address"
        }
      ],
      "name": "hasRole",
      "outputs": [
        {
          "internalType": "bool",
          "name": "",
          "type": "bool"
        }
      ],
      "stateMutability": "view",
      "type": "function"
    },
    {
      "inputs": [
        {
          "internalType": "address",
          "name": "owner",
          "type": "address"
        },
        {
          "internalType": "address",
          "name": "operator",
          "type": "address"
        }
      ],
      "name": "isApprovedForAll",
      "outputs": [
        {
          "internalType": "bool",
          "name": "",
          "type": "bool"
        }
      ],
      "stateMutability": "view",
      "type": "function"
    },
    {
      "inputs": [
        {
          "components": [
            {
              "internalType": "uint256",
              "name": "id",
              "type": "uint256"
            },
            {
              "internalType": "string",
              "name": "metadataUrl",
              "type": "string"
            }
          ],
          "internalType": "struct CollectibleERC721URIStorage.TokenData[]",
          "name": "_tokensData",
          "type": "tuple[]"
        }
      ],
      "name": "mint",
      "outputs": [],
      "stateMutability": "nonpayable",
      "type": "function"
    },
    {
      "inputs": [],
      "name": "name",
      "outputs": [
        {
          "internalType": "string",
          "name": "",
          "type": "string"
        }
      ],
      "stateMutability": "view",
      "type": "function"
    },
    {
      "inputs": [
        {
          "internalType": "uint256",
          "name": "tokenId",
          "type": "uint256"
        }
      ],
      "name": "ownerOf",
      "outputs": [
        {
          "internalType": "address",
          "name": "",
          "type": "address"
        }
      ],
      "stateMutability": "view",
      "type": "function"
    },
    {
      "inputs": [
        {
          "internalType": "bytes32",
          "name": "role",
          "type": "bytes32"
        },
        {
          "internalType": "address",
          "name": "account",
          "type": "address"
        }
      ],
      "name": "renounceRole",
      "outputs": [],
      "stateMutability": "nonpayable",
      "type": "function"
    },
    {
      "inputs": [
        {
          "internalType": "bytes32",
          "name": "role",
          "type": "bytes32"
        },
        {
          "internalType": "address",
          "name": "account",
          "type": "address"
        }
      ],
      "name": "revokeRole",
      "outputs": [],
      "stateMutability": "nonpayable",
      "type": "function"
    },
    {
      "inputs": [
        {
          "internalType": "address",
          "name": "from",
          "type": "address"
        },
        {
          "internalType": "address",
          "name": "to",
          "type": "address"
        },
        {
          "internalType": "uint256",
          "name": "tokenId",
          "type": "uint256"
        }
      ],
      "name": "safeTransferFrom",
      "outputs": [],
      "stateMutability": "nonpayable",
      "type": "function"
    },
    {
      "inputs": [
        {
          "internalType": "address",
          "name": "from",
          "type": "address"
        },
        {
          "internalType": "address",
          "name": "to",
          "type": "address"
        },
        {
          "internalType": "uint256",
          "name": "tokenId",
          "type": "uint256"
        },
        {
          "internalType": "bytes",
          "name": "_data",
          "type": "bytes"
        }
      ],
      "name": "safeTransferFrom",
      "outputs": [],
      "stateMutability": "nonpayable",
      "type": "function"
    },
    {
      "inputs": [
        {
          "internalType": "address",
          "name": "operator",
          "type": "address"
        },
        {
          "internalType": "bool",
          "name": "approved",
          "type": "bool"
        }
      ],
      "name": "setApprovalForAll",
      "outputs": [],
      "stateMutability": "nonpayable",
      "type": "function"
    },
    {
      "inputs": [
        {
          "internalType": "bytes4",
          "name": "interfaceId",
          "type": "bytes4"
        }
      ],
      "name": "supportsInterface",
      "outputs": [
        {
          "internalType": "bool",
          "name": "",
          "type": "bool"
        }
      ],
      "stateMutability": "view",
      "type": "function"
    },
    {
      "inputs": [],
      "name": "symbol",
      "outputs": [
        {
          "internalType": "string",
          "name": "",
          "type": "string"
        }
      ],
      "stateMutability": "view",
      "type": "function"
    },
    {
      "inputs": [
        {
          "internalType": "uint256",
          "name": "tokenId",
          "type": "uint256"
        }
      ],
      "name": "tokenURI",
      "outputs": [
        {
          "internalType": "string",
          "name": "",
          "type": "string"
        }
      ],
      "stateMutability": "view",
      "type": "function"
    },
    {
      "inputs": [],
      "name": "totalSupply",
      "outputs": [
        {
          "internalType": "uint256",
          "name": "",
          "type": "uint256"
        }
      ],
      "stateMutability": "view",
      "type": "function"
    },
    {
      "inputs": [
        {
          "internalType": "address",
          "name": "from",
          "type": "address"
        },
        {
          "internalType": "address",
          "name": "to",
          "type": "address"
        },
        {
          "internalType": "uint256",
          "name": "tokenId",
          "type": "uint256"
        }
      ],
      "name": "transferFrom",
      "outputs": [],
      "stateMutability": "nonpayable",
      "type": "function"
    }
  ],
  "transactionHash": "0x8db07fd2683d07ab4104caa3ef988c4981f4c779ce69a32ca8ddabe620283747",
  "args": [],
  "numDeployments": 1,
  "solcInputHash": "fd01bcf9a7e1c86ab88268ec46b30863",
  "bytecode": "0x60806040523480156200001157600080fd5b506040518060400160405280600f81526020017f4a616d3320436f6c6c656374696f6e00000000000000000000000000000000008152506040518060400160405280600481526020017f4a414d330000000000000000000000000000000000000000000000000000000081525081600090805190602001906200009692919062000250565b508060019080519060200190620000af92919062000250565b505050620000c76000801b33620000d560201b60201c565b600060088190555062000365565b620000e78282620000eb60201b60201c565b5050565b620000fd8282620001dd60201b60201c565b620001d95760016007600084815260200190815260200160002060000160008373ffffffffffffffffffffffffffffffffffffffff1673ffffffffffffffffffffffffffffffffffffffff16815260200190815260200160002060006101000a81548160ff0219169083151502179055506200017e6200024860201b60201c565b73ffffffffffffffffffffffffffffffffffffffff168173ffffffffffffffffffffffffffffffffffffffff16837f2f8788117e7eff1d82e926ec794901d17c78024a50270940304540a733656f0d60405160405180910390a45b5050565b60006007600084815260200190815260200160002060000160008373ffffffffffffffffffffffffffffffffffffffff1673ffffffffffffffffffffffffffffffffffffffff16815260200190815260200160002060009054906101000a900460ff16905092915050565b600033905090565b8280546200025e9062000300565b90600052602060002090601f016020900481019282620002825760008555620002ce565b82601f106200029d57805160ff1916838001178555620002ce565b82800160010185558215620002ce579182015b82811115620002cd578251825591602001919060010190620002b0565b5b509050620002dd9190620002e1565b5090565b5b80821115620002fc576000816000905550600101620002e2565b5090565b600060028204905060018216806200031957607f821691505b6020821081141562000330576200032f62000336565b5b50919050565b7f4e487b7100000000000000000000000000000000000000000000000000000000600052602260045260246000fd5b613b0980620003756000396000f3fe608060405234801561001057600080fd5b506004361061014d5760003560e01c80636352211e116100c3578063b88d4fde1161007c578063b88d4fde146103ae578063c87b56dd146103ca578063d5391393146103fa578063d547741f14610418578063e985e9c514610434578063f47c84c5146104645761014d565b80636352211e146102c657806370a08231146102f657806391d148541461032657806395d89b4114610356578063a217fddf14610374578063a22cb465146103925761014d565b806323b872dd1161011557806323b872dd1461020a578063248a9ca3146102265780632f2ff15d1461025657806336568abe146102725780633aee2c4d1461028e57806342842e0e146102aa5761014d565b806301ffc9a71461015257806306fdde0314610182578063081812fc146101a0578063095ea7b3146101d057806318160ddd146101ec575b600080fd5b61016c6004803603810190610167919061287f565b610482565b6040516101799190612d7d565b60405180910390f35b61018a610494565b6040516101979190612db3565b60405180910390f35b6101ba60048036038101906101b591906128d1565b610526565b6040516101c79190612d16565b60405180910390f35b6101ea60048036038101906101e5919061279d565b6105ab565b005b6101f46106c3565b6040516102019190613035565b60405180910390f35b610224600480360381019061021f9190612697565b6106c9565b005b610240600480360381019061023b919061281a565b610729565b60405161024d9190612d98565b60405180910390f35b610270600480360381019061026b9190612843565b610749565b005b61028c60048036038101906102879190612843565b610772565b005b6102a860048036038101906102a391906127d9565b6107f5565b005b6102c460048036038101906102bf9190612697565b61099e565b005b6102e060048036038101906102db91906128d1565b6109be565b6040516102ed9190612d16565b60405180910390f35b610310600480360381019061030b9190612632565b610a70565b60405161031d9190613035565b60405180910390f35b610340600480360381019061033b9190612843565b610b28565b60405161034d9190612d7d565b60405180910390f35b61035e610b93565b60405161036b9190612db3565b60405180910390f35b61037c610c25565b6040516103899190612d98565b60405180910390f35b6103ac60048036038101906103a79190612761565b610c2c565b005b6103c860048036038101906103c391906126e6565b610c42565b005b6103e460048036038101906103df91906128d1565b610ca4565b6040516103f19190612db3565b60405180910390f35b610402610df6565b60405161040f9190612d98565b60405180910390f35b610432600480360381019061042d9190612843565b610e1a565b005b61044e6004803603810190610449919061265b565b610e43565b60405161045b9190612d7d565b60405180910390f35b61046c610ed7565b6040516104799190613035565b60405180910390f35b600061048d82610edc565b9050919050565b6060600080546104a390613345565b80601f01602080910402602001604051908101604052809291908181526020018280546104cf90613345565b801561051c5780601f106104f15761010080835404028352916020019161051c565b820191906000526020600020905b8154815290600101906020018083116104ff57829003601f168201915b5050505050905090565b600061053182610f56565b610570576040517f08c379a000000000000000000000000000000000000000000000000000000000815260040161056790612f95565b60405180910390fd5b6004600083815260200190815260200160002060009054906101000a900473ffffffffffffffffffffffffffffffffffffffff169050919050565b60006105b6826109be565b90508073ffffffffffffffffffffffffffffffffffffffff168373ffffffffffffffffffffffffffffffffffffffff161415610627576040517f08c379a000000000000000000000000000000000000000000000000000000000815260040161061e90612fd5565b60405180910390fd5b8073ffffffffffffffffffffffffffffffffffffffff16610646610fc2565b73ffffffffffffffffffffffffffffffffffffffff16148061067557506106748161066f610fc2565b610e43565b5b6106b4576040517f08c379a00000000000000000000000000000000000000000000000000000000081526004016106ab90612eb5565b60405180910390fd5b6106be8383610fca565b505050565b60085481565b6106da6106d4610fc2565b82611083565b610719576040517f08c379a000000000000000000000000000000000000000000000000000000000815260040161071090612ff5565b60405180910390fd5b610724838383611161565b505050565b600060076000838152602001908152602001600020600101549050919050565b61075282610729565b6107638161075e610fc2565b6113c8565b61076d8383611465565b505050565b61077a610fc2565b73ffffffffffffffffffffffffffffffffffffffff168173ffffffffffffffffffffffffffffffffffffffff16146107e7576040517f08c379a00000000000000000000000000000000000000000000000000000000081526004016107de90613015565b60405180910390fd5b6107f18282611546565b5050565b7f9f2df0fed2c77648de5860a4cc508cd0818c85b8b8a1ab4ceeef8d981c8956a661082781610822610fc2565b6113c8565b600282516008546108389190613146565b1115610879576040517f08c379a000000000000000000000000000000000000000000000000000000000815260040161087090612f35565b60405180910390fd5b60005b82518110156109995760026008541015610986576108de338483815181106108cd577f4e487b7100000000000000000000000000000000000000000000000000000000600052603260045260246000fd5b602002602001015160000151611628565b61097083828151811061091a577f4e487b7100000000000000000000000000000000000000000000000000000000600052603260045260246000fd5b60200260200101516000015184838151811061095f577f4e487b7100000000000000000000000000000000000000000000000000000000600052603260045260246000fd5b602002602001015160200151611646565b600160085461097f9190613146565b6008819055505b8080610991906133a8565b91505061087c565b505050565b6109b983838360405180602001604052806000815250610c42565b505050565b6000806002600084815260200190815260200160002060009054906101000a900473ffffffffffffffffffffffffffffffffffffffff169050600073ffffffffffffffffffffffffffffffffffffffff168173ffffffffffffffffffffffffffffffffffffffff161415610a67576040517f08c379a0000000000000000000000000000000000000000000000000000000008152600401610a5e90612ef5565b60405180910390fd5b80915050919050565b60008073ffffffffffffffffffffffffffffffffffffffff168273ffffffffffffffffffffffffffffffffffffffff161415610ae1576040517f08c379a0000000000000000000000000000000000000000000000000000000008152600401610ad890612ed5565b60405180910390fd5b600360008373ffffffffffffffffffffffffffffffffffffffff1673ffffffffffffffffffffffffffffffffffffffff168152602001908152602001600020549050919050565b60006007600084815260200190815260200160002060000160008373ffffffffffffffffffffffffffffffffffffffff1673ffffffffffffffffffffffffffffffffffffffff16815260200190815260200160002060009054906101000a900460ff16905092915050565b606060018054610ba290613345565b80601f0160208091040260200160405190810160405280929190818152602001828054610bce90613345565b8015610c1b5780601f10610bf057610100808354040283529160200191610c1b565b820191906000526020600020905b815481529060010190602001808311610bfe57829003601f168201915b5050505050905090565b6000801b81565b610c3e610c37610fc2565b83836116ba565b5050565b610c53610c4d610fc2565b83611083565b610c92576040517f08c379a0000000000000000000000000000000000000000000000000000000008152600401610c8990612ff5565b60405180910390fd5b610c9e84848484611827565b50505050565b6060610caf82610f56565b610cee576040517f08c379a0000000000000000000000000000000000000000000000000000000008152600401610ce590612f75565b60405180910390fd5b6000600660008481526020019081526020016000208054610d0e90613345565b80601f0160208091040260200160405190810160405280929190818152602001828054610d3a90613345565b8015610d875780601f10610d5c57610100808354040283529160200191610d87565b820191906000526020600020905b815481529060010190602001808311610d6a57829003601f168201915b505050505090506000610d98611883565b9050600081511415610dae578192505050610df1565b600082511115610de3578082604051602001610dcb929190612cb8565b60405160208183030381529060405292505050610df1565b610dec8461189a565b925050505b919050565b7f9f2df0fed2c77648de5860a4cc508cd0818c85b8b8a1ab4ceeef8d981c8956a681565b610e2382610729565b610e3481610e2f610fc2565b6113c8565b610e3e8383611546565b505050565b6000600560008473ffffffffffffffffffffffffffffffffffffffff1673ffffffffffffffffffffffffffffffffffffffff16815260200190815260200160002060008373ffffffffffffffffffffffffffffffffffffffff1673ffffffffffffffffffffffffffffffffffffffff16815260200190815260200160002060009054906101000a900460ff16905092915050565b600281565b60007f7965db0b000000000000000000000000000000000000000000000000000000007bffffffffffffffffffffffffffffffffffffffffffffffffffffffff1916827bffffffffffffffffffffffffffffffffffffffffffffffffffffffff19161480610f4f5750610f4e82611941565b5b9050919050565b60008073ffffffffffffffffffffffffffffffffffffffff166002600084815260200190815260200160002060009054906101000a900473ffffffffffffffffffffffffffffffffffffffff1673ffffffffffffffffffffffffffffffffffffffff1614159050919050565b600033905090565b816004600083815260200190815260200160002060006101000a81548173ffffffffffffffffffffffffffffffffffffffff021916908373ffffffffffffffffffffffffffffffffffffffff160217905550808273ffffffffffffffffffffffffffffffffffffffff1661103d836109be565b73ffffffffffffffffffffffffffffffffffffffff167f8c5be1e5ebec7d5bd14f71427d1e84f3dd0314c0f7b2291e5b200ac8c7c3b92560405160405180910390a45050565b600061108e82610f56565b6110cd576040517f08c379a00000000000000000000000000000000000000000000000000000000081526004016110c490612e95565b60405180910390fd5b60006110d8836109be565b90508073ffffffffffffffffffffffffffffffffffffffff168473ffffffffffffffffffffffffffffffffffffffff16148061114757508373ffffffffffffffffffffffffffffffffffffffff1661112f84610526565b73ffffffffffffffffffffffffffffffffffffffff16145b8061115857506111578185610e43565b5b91505092915050565b8273ffffffffffffffffffffffffffffffffffffffff16611181826109be565b73ffffffffffffffffffffffffffffffffffffffff16146111d7576040517f08c379a00000000000000000000000000000000000000000000000000000000081526004016111ce90612e15565b60405180910390fd5b600073ffffffffffffffffffffffffffffffffffffffff168273ffffffffffffffffffffffffffffffffffffffff161415611247576040517f08c379a000000000000000000000000000000000000000000000000000000000815260040161123e90612e55565b60405180910390fd5b611252838383611a23565b61125d600082610fca565b6001600360008573ffffffffffffffffffffffffffffffffffffffff1673ffffffffffffffffffffffffffffffffffffffff16815260200190815260200160002060008282546112ad9190613227565b925050819055506001600360008473ffffffffffffffffffffffffffffffffffffffff1673ffffffffffffffffffffffffffffffffffffffff16815260200190815260200160002060008282546113049190613146565b92505081905550816002600083815260200190815260200160002060006101000a81548173ffffffffffffffffffffffffffffffffffffffff021916908373ffffffffffffffffffffffffffffffffffffffff160217905550808273ffffffffffffffffffffffffffffffffffffffff168473ffffffffffffffffffffffffffffffffffffffff167fddf252ad1be2c89b69c2b068fc378daa952ba7f163c4a11628f55a4df523b3ef60405160405180910390a46113c3838383611a28565b505050565b6113d28282610b28565b611461576113f78173ffffffffffffffffffffffffffffffffffffffff166014611a2d565b6114058360001c6020611a2d565b604051602001611416929190612cdc565b6040516020818303038152906040526040517f08c379a00000000000000000000000000000000000000000000000000000000081526004016114589190612db3565b60405180910390fd5b5050565b61146f8282610b28565b6115425760016007600084815260200190815260200160002060000160008373ffffffffffffffffffffffffffffffffffffffff1673ffffffffffffffffffffffffffffffffffffffff16815260200190815260200160002060006101000a81548160ff0219169083151502179055506114e7610fc2565b73ffffffffffffffffffffffffffffffffffffffff168173ffffffffffffffffffffffffffffffffffffffff16837f2f8788117e7eff1d82e926ec794901d17c78024a50270940304540a733656f0d60405160405180910390a45b5050565b6115508282610b28565b156116245760006007600084815260200190815260200160002060000160008373ffffffffffffffffffffffffffffffffffffffff1673ffffffffffffffffffffffffffffffffffffffff16815260200190815260200160002060006101000a81548160ff0219169083151502179055506115c9610fc2565b73ffffffffffffffffffffffffffffffffffffffff168173ffffffffffffffffffffffffffffffffffffffff16837ff6391f5c32d9c69d2a47ea670b442974b53935d1edc7fd64eb21e047a839171b60405160405180910390a45b5050565b611642828260405180602001604052806000815250611d27565b5050565b61164f82610f56565b61168e576040517f08c379a000000000000000000000000000000000000000000000000000000000815260040161168590612f15565b60405180910390fd5b806006600084815260200190815260200160002090805190602001906116b592919061232d565b505050565b8173ffffffffffffffffffffffffffffffffffffffff168373ffffffffffffffffffffffffffffffffffffffff161415611729576040517f08c379a000000000000000000000000000000000000000000000000000000000815260040161172090612e75565b60405180910390fd5b80600560008573ffffffffffffffffffffffffffffffffffffffff1673ffffffffffffffffffffffffffffffffffffffff16815260200190815260200160002060008473ffffffffffffffffffffffffffffffffffffffff1673ffffffffffffffffffffffffffffffffffffffff16815260200190815260200160002060006101000a81548160ff0219169083151502179055508173ffffffffffffffffffffffffffffffffffffffff168373ffffffffffffffffffffffffffffffffffffffff167f17307eab39ab6107e8899845ad3d59bd9653f200f220920489ca2b5937696c318360405161181a9190612d7d565b60405180910390a3505050565b611832848484611161565b61183e84848484611d82565b61187d576040517f08c379a000000000000000000000000000000000000000000000000000000000815260040161187490612df5565b60405180910390fd5b50505050565b606060405180602001604052806000815250905090565b60606118a582610f56565b6118e4576040517f08c379a00000000000000000000000000000000000000000000000000000000081526004016118db90612fb5565b60405180910390fd5b60006118ee611883565b9050600081511161190e5760405180602001604052806000815250611939565b8061191884611f19565b604051602001611929929190612cb8565b6040516020818303038152906040525b915050919050565b60007f80ac58cd000000000000000000000000000000000000000000000000000000007bffffffffffffffffffffffffffffffffffffffffffffffffffffffff1916827bffffffffffffffffffffffffffffffffffffffffffffffffffffffff19161480611a0c57507f5b5e139f000000000000000000000000000000000000000000000000000000007bffffffffffffffffffffffffffffffffffffffffffffffffffffffff1916827bffffffffffffffffffffffffffffffffffffffffffffffffffffffff1916145b80611a1c5750611a1b826120c6565b5b9050919050565b505050565b505050565b606060006002836002611a4091906131cd565b611a4a9190613146565b67ffffffffffffffff811115611a89577f4e487b7100000000000000000000000000000000000000000000000000000000600052604160045260246000fd5b6040519080825280601f01601f191660200182016040528015611abb5781602001600182028036833780820191505090505b5090507f300000000000000000000000000000000000000000000000000000000000000081600081518110611b19577f4e487b7100000000000000000000000000000000000000000000000000000000600052603260045260246000fd5b60200101907effffffffffffffffffffffffffffffffffffffffffffffffffffffffffffff1916908160001a9053507f780000000000000000000000000000000000000000000000000000000000000081600181518110611ba3577f4e487b7100000000000000000000000000000000000000000000000000000000600052603260045260246000fd5b60200101907effffffffffffffffffffffffffffffffffffffffffffffffffffffffffffff1916908160001a90535060006001846002611be391906131cd565b611bed9190613146565b90505b6001811115611cd9577f3031323334353637383961626364656600000000000000000000000000000000600f861660108110611c55577f4e487b7100000000000000000000000000000000000000000000000000000000600052603260045260246000fd5b1a60f81b828281518110611c92577f4e487b7100000000000000000000000000000000000000000000000000000000600052603260045260246000fd5b60200101907effffffffffffffffffffffffffffffffffffffffffffffffffffffffffffff1916908160001a905350600485901c945080611cd29061331b565b9050611bf0565b5060008414611d1d576040517f08c379a0000000000000000000000000000000000000000000000000000000008152600401611d1490612dd5565b60405180910390fd5b8091505092915050565b611d318383612130565b611d3e6000848484611d82565b611d7d576040517f08c379a0000000000000000000000000000000000000000000000000000000008152600401611d7490612df5565b60405180910390fd5b505050565b6000611da38473ffffffffffffffffffffffffffffffffffffffff1661230a565b15611f0c578373ffffffffffffffffffffffffffffffffffffffff1663150b7a02611dcc610fc2565b8786866040518563ffffffff1660e01b8152600401611dee9493929190612d31565b602060405180830381600087803b158015611e0857600080fd5b505af1925050508015611e3957506040513d601f19601f82011682018060405250810190611e3691906128a8565b60015b611ebc573d8060008114611e69576040519150601f19603f3d011682016040523d82523d6000602084013e611e6e565b606091505b50600081511415611eb4576040517f08c379a0000000000000000000000000000000000000000000000000000000008152600401611eab90612df5565b60405180910390fd5b805181602001fd5b63150b7a0260e01b7bffffffffffffffffffffffffffffffffffffffffffffffffffffffff1916817bffffffffffffffffffffffffffffffffffffffffffffffffffffffff191614915050611f11565b600190505b949350505050565b60606000821415611f61576040518060400160405280600181526020017f300000000000000000000000000000000000000000000000000000000000000081525090506120c1565b600082905060005b60008214611f93578080611f7c906133a8565b915050600a82611f8c919061319c565b9150611f69565b60008167ffffffffffffffff811115611fd5577f4e487b7100000000000000000000000000000000000000000000000000000000600052604160045260246000fd5b6040519080825280601f01601f1916602001820160405280156120075781602001600182028036833780820191505090505b5090505b600085146120ba576001826120209190613227565b9150600a8561202f91906133f1565b603061203b9190613146565b60f81b818381518110612077577f4e487b7100000000000000000000000000000000000000000000000000000000600052603260045260246000fd5b60200101907effffffffffffffffffffffffffffffffffffffffffffffffffffffffffffff1916908160001a905350600a856120b3919061319c565b945061200b565b8093505050505b919050565b60007f01ffc9a7000000000000000000000000000000000000000000000000000000007bffffffffffffffffffffffffffffffffffffffffffffffffffffffff1916827bffffffffffffffffffffffffffffffffffffffffffffffffffffffff1916149050919050565b600073ffffffffffffffffffffffffffffffffffffffff168273ffffffffffffffffffffffffffffffffffffffff1614156121a0576040517f08c379a000000000000000000000000000000000000000000000000000000000815260040161219790612f55565b60405180910390fd5b6121a981610f56565b156121e9576040517f08c379a00000000000000000000000000000000000000000000000000000000081526004016121e090612e35565b60405180910390fd5b6121f560008383611a23565b6001600360008473ffffffffffffffffffffffffffffffffffffffff1673ffffffffffffffffffffffffffffffffffffffff16815260200190815260200160002060008282546122459190613146565b92505081905550816002600083815260200190815260200160002060006101000a81548173ffffffffffffffffffffffffffffffffffffffff021916908373ffffffffffffffffffffffffffffffffffffffff160217905550808273ffffffffffffffffffffffffffffffffffffffff16600073ffffffffffffffffffffffffffffffffffffffff167fddf252ad1be2c89b69c2b068fc378daa952ba7f163c4a11628f55a4df523b3ef60405160405180910390a461230660008383611a28565b5050565b6000808273ffffffffffffffffffffffffffffffffffffffff163b119050919050565b82805461233990613345565b90600052602060002090601f01602090048101928261235b57600085556123a2565b82601f1061237457805160ff19168380011785556123a2565b828001600101855582156123a2579182015b828111156123a1578251825591602001919060010190612386565b5b5090506123af91906123b3565b5090565b5b808211156123cc5760008160009055506001016123b4565b5090565b60006123e36123de84613075565b613050565b9050808382526020820190508285602086028201111561240257600080fd5b60005b8581101561244c57813567ffffffffffffffff81111561242457600080fd5b80860161243189826125b9565b85526020850194506020840193505050600181019050612405565b5050509392505050565b6000612469612464846130a1565b613050565b90508281526020810184848401111561248157600080fd5b61248c8482856132d9565b509392505050565b60006124a76124a2846130d2565b613050565b9050828152602081018484840111156124bf57600080fd5b6124ca8482856132d9565b509392505050565b6000813590506124e181613a60565b92915050565b600082601f8301126124f857600080fd5b81356125088482602086016123d0565b91505092915050565b60008135905061252081613a77565b92915050565b60008135905061253581613a8e565b92915050565b60008135905061254a81613aa5565b92915050565b60008151905061255f81613aa5565b92915050565b600082601f83011261257657600080fd5b8135612586848260208601612456565b91505092915050565b600082601f8301126125a057600080fd5b81356125b0848260208601612494565b91505092915050565b6000604082840312156125cb57600080fd5b6125d56040613050565b905060006125e58482850161261d565b600083015250602082013567ffffffffffffffff81111561260557600080fd5b6126118482850161258f565b60208301525092915050565b60008135905061262c81613abc565b92915050565b60006020828403121561264457600080fd5b6000612652848285016124d2565b91505092915050565b6000806040838503121561266e57600080fd5b600061267c858286016124d2565b925050602061268d858286016124d2565b9150509250929050565b6000806000606084860312156126ac57600080fd5b60006126ba868287016124d2565b93505060206126cb868287016124d2565b92505060406126dc8682870161261d565b9150509250925092565b600080600080608085870312156126fc57600080fd5b600061270a878288016124d2565b945050602061271b878288016124d2565b935050604061272c8782880161261d565b925050606085013567ffffffffffffffff81111561274957600080fd5b61275587828801612565565b91505092959194509250565b6000806040838503121561277457600080fd5b6000612782858286016124d2565b925050602061279385828601612511565b9150509250929050565b600080604083850312156127b057600080fd5b60006127be858286016124d2565b92505060206127cf8582860161261d565b9150509250929050565b6000602082840312156127eb57600080fd5b600082013567ffffffffffffffff81111561280557600080fd5b612811848285016124e7565b91505092915050565b60006020828403121561282c57600080fd5b600061283a84828501612526565b91505092915050565b6000806040838503121561285657600080fd5b600061286485828601612526565b9250506020612875858286016124d2565b9150509250929050565b60006020828403121561289157600080fd5b600061289f8482850161253b565b91505092915050565b6000602082840312156128ba57600080fd5b60006128c884828501612550565b91505092915050565b6000602082840312156128e357600080fd5b60006128f18482850161261d565b91505092915050565b6129038161325b565b82525050565b6129128161326d565b82525050565b61292181613279565b82525050565b600061293282613103565b61293c8185613119565b935061294c8185602086016132e8565b612955816134de565b840191505092915050565b600061296b8261310e565b612975818561312a565b93506129858185602086016132e8565b61298e816134de565b840191505092915050565b60006129a48261310e565b6129ae818561313b565b93506129be8185602086016132e8565b80840191505092915050565b60006129d760208361312a565b91506129e2826134ef565b602082019050919050565b60006129fa60328361312a565b9150612a0582613518565b604082019050919050565b6000612a1d60258361312a565b9150612a2882613567565b604082019050919050565b6000612a40601c8361312a565b9150612a4b826135b6565b602082019050919050565b6000612a6360248361312a565b9150612a6e826135df565b604082019050919050565b6000612a8660198361312a565b9150612a918261362e565b602082019050919050565b6000612aa9602c8361312a565b9150612ab482613657565b604082019050919050565b6000612acc60388361312a565b9150612ad7826136a6565b604082019050919050565b6000612aef602a8361312a565b9150612afa826136f5565b604082019050919050565b6000612b1260298361312a565b9150612b1d82613744565b604082019050919050565b6000612b35602e8361312a565b9150612b4082613793565b604082019050919050565b6000612b5860208361312a565b9150612b63826137e2565b602082019050919050565b6000612b7b60208361312a565b9150612b868261380b565b602082019050919050565b6000612b9e60318361312a565b9150612ba982613834565b604082019050919050565b6000612bc1602c8361312a565b9150612bcc82613883565b604082019050919050565b6000612be4602f8361312a565b9150612bef826138d2565b604082019050919050565b6000612c0760218361312a565b9150612c1282613921565b604082019050919050565b6000612c2a60318361312a565b9150612c3582613970565b604082019050919050565b6000612c4d60178361313b565b9150612c58826139bf565b601782019050919050565b6000612c7060118361313b565b9150612c7b826139e8565b601182019050919050565b6000612c93602f8361312a565b9150612c9e82613a11565b604082019050919050565b612cb2816132cf565b82525050565b6000612cc48285612999565b9150612cd08284612999565b91508190509392505050565b6000612ce782612c40565b9150612cf38285612999565b9150612cfe82612c63565b9150612d0a8284612999565b91508190509392505050565b6000602082019050612d2b60008301846128fa565b92915050565b6000608082019050612d4660008301876128fa565b612d5360208301866128fa565b612d606040830185612ca9565b8181036060830152612d728184612927565b905095945050505050565b6000602082019050612d926000830184612909565b92915050565b6000602082019050612dad6000830184612918565b92915050565b60006020820190508181036000830152612dcd8184612960565b905092915050565b60006020820190508181036000830152612dee816129ca565b9050919050565b60006020820190508181036000830152612e0e816129ed565b9050919050565b60006020820190508181036000830152612e2e81612a10565b9050919050565b60006020820190508181036000830152612e4e81612a33565b9050919050565b60006020820190508181036000830152612e6e81612a56565b9050919050565b60006020820190508181036000830152612e8e81612a79565b9050919050565b60006020820190508181036000830152612eae81612a9c565b9050919050565b60006020820190508181036000830152612ece81612abf565b9050919050565b60006020820190508181036000830152612eee81612ae2565b9050919050565b60006020820190508181036000830152612f0e81612b05565b9050919050565b60006020820190508181036000830152612f2e81612b28565b9050919050565b60006020820190508181036000830152612f4e81612b4b565b9050919050565b60006020820190508181036000830152612f6e81612b6e565b9050919050565b60006020820190508181036000830152612f8e81612b91565b9050919050565b60006020820190508181036000830152612fae81612bb4565b9050919050565b60006020820190508181036000830152612fce81612bd7565b9050919050565b60006020820190508181036000830152612fee81612bfa565b9050919050565b6000602082019050818103600083015261300e81612c1d565b9050919050565b6000602082019050818103600083015261302e81612c86565b9050919050565b600060208201905061304a6000830184612ca9565b92915050565b600061305a61306b565b90506130668282613377565b919050565b6000604051905090565b600067ffffffffffffffff8211156130905761308f6134af565b5b602082029050602081019050919050565b600067ffffffffffffffff8211156130bc576130bb6134af565b5b6130c5826134de565b9050602081019050919050565b600067ffffffffffffffff8211156130ed576130ec6134af565b5b6130f6826134de565b9050602081019050919050565b600081519050919050565b600081519050919050565b600082825260208201905092915050565b600082825260208201905092915050565b600081905092915050565b6000613151826132cf565b915061315c836132cf565b9250827fffffffffffffffffffffffffffffffffffffffffffffffffffffffffffffffff0382111561319157613190613422565b5b828201905092915050565b60006131a7826132cf565b91506131b2836132cf565b9250826131c2576131c1613451565b5b828204905092915050565b60006131d8826132cf565b91506131e3836132cf565b9250817fffffffffffffffffffffffffffffffffffffffffffffffffffffffffffffffff048311821515161561321c5761321b613422565b5b828202905092915050565b6000613232826132cf565b915061323d836132cf565b9250828210156132505761324f613422565b5b828203905092915050565b6000613266826132af565b9050919050565b60008115159050919050565b6000819050919050565b60007fffffffff0000000000000000000000000000000000000000000000000000000082169050919050565b600073ffffffffffffffffffffffffffffffffffffffff82169050919050565b6000819050919050565b82818337600083830152505050565b60005b838110156133065780820151818401526020810190506132eb565b83811115613315576000848401525b50505050565b6000613326826132cf565b9150600082141561333a57613339613422565b5b600182039050919050565b6000600282049050600182168061335d57607f821691505b6020821081141561337157613370613480565b5b50919050565b613380826134de565b810181811067ffffffffffffffff8211171561339f5761339e6134af565b5b80604052505050565b60006133b3826132cf565b91507fffffffffffffffffffffffffffffffffffffffffffffffffffffffffffffffff8214156133e6576133e5613422565b5b600182019050919050565b60006133fc826132cf565b9150613407836132cf565b92508261341757613416613451565b5b828206905092915050565b7f4e487b7100000000000000000000000000000000000000000000000000000000600052601160045260246000fd5b7f4e487b7100000000000000000000000000000000000000000000000000000000600052601260045260246000fd5b7f4e487b7100000000000000000000000000000000000000000000000000000000600052602260045260246000fd5b7f4e487b7100000000000000000000000000000000000000000000000000000000600052604160045260246000fd5b6000601f19601f8301169050919050565b7f537472696e67733a20686578206c656e67746820696e73756666696369656e74600082015250565b7f4552433732313a207472616e7366657220746f206e6f6e20455243373231526560008201527f63656976657220696d706c656d656e7465720000000000000000000000000000602082015250565b7f4552433732313a207472616e736665722066726f6d20696e636f72726563742060008201527f6f776e6572000000000000000000000000000000000000000000000000000000602082015250565b7f4552433732313a20746f6b656e20616c7265616479206d696e74656400000000600082015250565b7f4552433732313a207472616e7366657220746f20746865207a65726f2061646460008201527f7265737300000000000000000000000000000000000000000000000000000000602082015250565b7f4552433732313a20617070726f766520746f2063616c6c657200000000000000600082015250565b7f4552433732313a206f70657261746f7220717565727920666f72206e6f6e657860008201527f697374656e7420746f6b656e0000000000000000000000000000000000000000602082015250565b7f4552433732313a20617070726f76652063616c6c6572206973206e6f74206f7760008201527f6e6572206e6f7220617070726f76656420666f7220616c6c0000000000000000602082015250565b7f4552433732313a2062616c616e636520717565727920666f7220746865207a6560008201527f726f206164647265737300000000000000000000000000000000000000000000602082015250565b7f4552433732313a206f776e657220717565727920666f72206e6f6e657869737460008201527f656e7420746f6b656e0000000000000000000000000000000000000000000000602082015250565b7f45524337323155524953746f726167653a2055524920736574206f66206e6f6e60008201527f6578697374656e7420746f6b656e000000000000000000000000000000000000602082015250565b7f507572636861736520776f756c6420657863656564206d617820737570706c79600082015250565b7f4552433732313a206d696e7420746f20746865207a65726f2061646472657373600082015250565b7f45524337323155524953746f726167653a2055524920717565727920666f722060008201527f6e6f6e6578697374656e7420746f6b656e000000000000000000000000000000602082015250565b7f4552433732313a20617070726f76656420717565727920666f72206e6f6e657860008201527f697374656e7420746f6b656e0000000000000000000000000000000000000000602082015250565b7f4552433732314d657461646174613a2055524920717565727920666f72206e6f60008201527f6e6578697374656e7420746f6b656e0000000000000000000000000000000000602082015250565b7f4552433732313a20617070726f76616c20746f2063757272656e74206f776e6560008201527f7200000000000000000000000000000000000000000000000000000000000000602082015250565b7f4552433732313a207472616e736665722063616c6c6572206973206e6f74206f60008201527f776e6572206e6f7220617070726f766564000000000000000000000000000000602082015250565b7f416363657373436f6e74726f6c3a206163636f756e7420000000000000000000600082015250565b7f206973206d697373696e6720726f6c6520000000000000000000000000000000600082015250565b7f416363657373436f6e74726f6c3a2063616e206f6e6c792072656e6f756e636560008201527f20726f6c657320666f722073656c660000000000000000000000000000000000602082015250565b613a698161325b565b8114613a7457600080fd5b50565b613a808161326d565b8114613a8b57600080fd5b50565b613a9781613279565b8114613aa257600080fd5b50565b613aae81613283565b8114613ab957600080fd5b50565b613ac5816132cf565b8114613ad057600080fd5b5056fea2646970667358221220d00870a82fe7574864f1352f19c5990d6054e4d0ef5923d848f31dfb5f8af05a64736f6c63430008040033",
  "devdoc": {
    "kind": "dev",
    "methods": {
      "approve(address,uint256)": {
        "details": "See {IERC721-approve}."
      },
      "balanceOf(address)": {
        "details": "See {IERC721-balanceOf}."
      },
      "getApproved(uint256)": {
        "details": "See {IERC721-getApproved}."
      },
      "getRoleAdmin(bytes32)": {
        "details": "Returns the admin role that controls `role`. See {grantRole} and {revokeRole}. To change a role's admin, use {_setRoleAdmin}."
      },
      "grantRole(bytes32,address)": {
        "details": "Grants `role` to `account`. If `account` had not been already granted `role`, emits a {RoleGranted} event. Requirements: - the caller must have ``role``'s admin role."
      },
      "hasRole(bytes32,address)": {
        "details": "Returns `true` if `account` has been granted `role`."
      },
      "isApprovedForAll(address,address)": {
        "details": "See {IERC721-isApprovedForAll}."
      },
      "name()": {
        "details": "See {IERC721Metadata-name}."
      },
      "ownerOf(uint256)": {
        "details": "See {IERC721-ownerOf}."
      },
      "renounceRole(bytes32,address)": {
        "details": "Revokes `role` from the calling account. Roles are often managed via {grantRole} and {revokeRole}: this function's purpose is to provide a mechanism for accounts to lose their privileges if they are compromised (such as when a trusted device is misplaced). If the calling account had been revoked `role`, emits a {RoleRevoked} event. Requirements: - the caller must be `account`."
      },
      "revokeRole(bytes32,address)": {
        "details": "Revokes `role` from `account`. If `account` had been granted `role`, emits a {RoleRevoked} event. Requirements: - the caller must have ``role``'s admin role."
      },
      "safeTransferFrom(address,address,uint256)": {
        "details": "See {IERC721-safeTransferFrom}."
      },
      "safeTransferFrom(address,address,uint256,bytes)": {
        "details": "See {IERC721-safeTransferFrom}."
      },
      "setApprovalForAll(address,bool)": {
        "details": "See {IERC721-setApprovalForAll}."
      },
      "symbol()": {
        "details": "See {IERC721Metadata-symbol}."
      },
      "tokenURI(uint256)": {
        "details": "See {IERC721Metadata-tokenURI}."
      },
      "transferFrom(address,address,uint256)": {
        "details": "See {IERC721-transferFrom}."
      }
    },
    "version": 1
  },
  "userdoc": {
    "kind": "user",
    "methods": {},
    "version": 1
  },
  "storageLayout": {
    "storage": [
      {
        "astId": 407,
        "contract": "contracts/CollectibleERC721URIStorage.sol:CollectibleERC721URIStorage",
        "label": "_name",
        "offset": 0,
        "slot": "0",
        "type": "t_string_storage"
      },
      {
        "astId": 409,
        "contract": "contracts/CollectibleERC721URIStorage.sol:CollectibleERC721URIStorage",
        "label": "_symbol",
        "offset": 0,
        "slot": "1",
        "type": "t_string_storage"
      },
      {
        "astId": 413,
        "contract": "contracts/CollectibleERC721URIStorage.sol:CollectibleERC721URIStorage",
        "label": "_owners",
        "offset": 0,
        "slot": "2",
        "type": "t_mapping(t_uint256,t_address)"
      },
      {
        "astId": 417,
        "contract": "contracts/CollectibleERC721URIStorage.sol:CollectibleERC721URIStorage",
        "label": "_balances",
        "offset": 0,
        "slot": "3",
        "type": "t_mapping(t_address,t_uint256)"
      },
      {
        "astId": 421,
        "contract": "contracts/CollectibleERC721URIStorage.sol:CollectibleERC721URIStorage",
        "label": "_tokenApprovals",
        "offset": 0,
        "slot": "4",
        "type": "t_mapping(t_uint256,t_address)"
      },
      {
        "astId": 427,
        "contract": "contracts/CollectibleERC721URIStorage.sol:CollectibleERC721URIStorage",
        "label": "_operatorApprovals",
        "offset": 0,
        "slot": "5",
        "type": "t_mapping(t_address,t_mapping(t_address,t_bool))"
      },
      {
        "astId": 1394,
        "contract": "contracts/CollectibleERC721URIStorage.sol:CollectibleERC721URIStorage",
        "label": "_tokenURIs",
        "offset": 0,
        "slot": "6",
        "type": "t_mapping(t_uint256,t_string_storage)"
      },
      {
        "astId": 24,
        "contract": "contracts/CollectibleERC721URIStorage.sol:CollectibleERC721URIStorage",
        "label": "_roles",
        "offset": 0,
        "slot": "7",
        "type": "t_mapping(t_bytes32,t_struct(RoleData)19_storage)"
      },
      {
        "astId": 2690,
        "contract": "contracts/CollectibleERC721URIStorage.sol:CollectibleERC721URIStorage",
        "label": "totalSupply",
        "offset": 0,
        "slot": "8",
        "type": "t_uint256"
      }
    ],
    "types": {
      "t_address": {
        "encoding": "inplace",
        "label": "address",
        "numberOfBytes": "20"
      },
      "t_bool": {
        "encoding": "inplace",
        "label": "bool",
        "numberOfBytes": "1"
      },
      "t_bytes32": {
        "encoding": "inplace",
        "label": "bytes32",
        "numberOfBytes": "32"
      },
      "t_mapping(t_address,t_bool)": {
        "encoding": "mapping",
        "key": "t_address",
        "label": "mapping(address => bool)",
        "numberOfBytes": "32",
        "value": "t_bool"
      },
      "t_mapping(t_address,t_mapping(t_address,t_bool))": {
        "encoding": "mapping",
        "key": "t_address",
        "label": "mapping(address => mapping(address => bool))",
        "numberOfBytes": "32",
        "value": "t_mapping(t_address,t_bool)"
      },
      "t_mapping(t_address,t_uint256)": {
        "encoding": "mapping",
        "key": "t_address",
        "label": "mapping(address => uint256)",
        "numberOfBytes": "32",
        "value": "t_uint256"
      },
      "t_mapping(t_bytes32,t_struct(RoleData)19_storage)": {
        "encoding": "mapping",
        "key": "t_bytes32",
        "label": "mapping(bytes32 => struct AccessControl.RoleData)",
        "numberOfBytes": "32",
        "value": "t_struct(RoleData)19_storage"
      },
      "t_mapping(t_uint256,t_address)": {
        "encoding": "mapping",
        "key": "t_uint256",
        "label": "mapping(uint256 => address)",
        "numberOfBytes": "32",
        "value": "t_address"
      },
      "t_mapping(t_uint256,t_string_storage)": {
        "encoding": "mapping",
        "key": "t_uint256",
        "label": "mapping(uint256 => string)",
        "numberOfBytes": "32",
        "value": "t_string_storage"
      },
      "t_string_storage": {
        "encoding": "bytes",
        "label": "string",
        "numberOfBytes": "32"
      },
      "t_struct(RoleData)19_storage": {
        "encoding": "inplace",
        "label": "struct AccessControl.RoleData",
        "members": [
          {
            "astId": 16,
            "contract": "contracts/CollectibleERC721URIStorage.sol:CollectibleERC721URIStorage",
            "label": "members",
            "offset": 0,
            "slot": "0",
            "type": "t_mapping(t_address,t_bool)"
          },
          {
            "astId": 18,
            "contract": "contracts/CollectibleERC721URIStorage.sol:CollectibleERC721URIStorage",
            "label": "adminRole",
            "offset": 0,
            "slot": "1",
            "type": "t_bytes32"
          }
        ],
        "numberOfBytes": "64"
      },
      "t_uint256": {
        "encoding": "inplace",
        "label": "uint256",
        "numberOfBytes": "32"
      }
    }
  }
}