{
  "address": "0x5F24a028E165f65129B631CFB5BA083960404F28",
  "abi": [
    {
      "inputs": [
        {
          "internalType": "string",
          "name": "baseURI",
          "type": "string"
        },
        {
          "internalType": "uint256",
          "name": "maxTokens",
          "type": "uint256"
        }
      ],
      "stateMutability": "nonpayable",
      "type": "constructor"
    },
    {
      "inputs": [],
      "name": "ApprovalCallerNotOwnerNorApproved",
      "type": "error"
    },
    {
      "inputs": [],
      "name": "ApprovalQueryForNonexistentToken",
      "type": "error"
    },
    {
      "inputs": [],
      "name": "ApprovalToCurrentOwner",
      "type": "error"
    },
    {
      "inputs": [],
      "name": "ApproveToCaller",
      "type": "error"
    },
    {
      "inputs": [],
      "name": "BalanceQueryForZeroAddress",
      "type": "error"
    },
    {
      "inputs": [],
      "name": "MintToZeroAddress",
      "type": "error"
    },
    {
      "inputs": [],
      "name": "MintZeroQuantity",
      "type": "error"
    },
    {
      "inputs": [],
      "name": "OwnerQueryForNonexistentToken",
      "type": "error"
    },
    {
      "inputs": [],
      "name": "TransferCallerNotOwnerNorApproved",
      "type": "error"
    },
    {
      "inputs": [],
      "name": "TransferFromIncorrectOwner",
      "type": "error"
    },
    {
      "inputs": [],
      "name": "TransferToNonERC721ReceiverImplementer",
      "type": "error"
    },
    {
      "inputs": [],
      "name": "TransferToZeroAddress",
      "type": "error"
    },
    {
      "inputs": [],
      "name": "URIQueryForNonexistentToken",
      "type": "error"
    },
    {
      "anonymous": false,
      "inputs": [
        {
          "indexed": true,
          "internalType": "address",
          "name": "owner",
          "type": "address"
        },
        {
          "indexed": true,
          "internalType": "address",
          "name": "approved",
          "type": "address"
        },
        {
          "indexed": true,
          "internalType": "uint256",
          "name": "tokenId",
          "type": "uint256"
        }
      ],
      "name": "Approval",
      "type": "event"
    },
    {
      "anonymous": false,
      "inputs": [
        {
          "indexed": true,
          "internalType": "address",
          "name": "owner",
          "type": "address"
        },
        {
          "indexed": true,
          "internalType": "address",
          "name": "operator",
          "type": "address"
        },
        {
          "indexed": false,
          "internalType": "bool",
          "name": "approved",
          "type": "bool"
        }
      ],
      "name": "ApprovalForAll",
      "type": "event"
    },
    {
      "anonymous": false,
      "inputs": [
        {
          "indexed": true,
          "internalType": "bytes32",
          "name": "role",
          "type": "bytes32"
        },
        {
          "indexed": true,
          "internalType": "bytes32",
          "name": "previousAdminRole",
          "type": "bytes32"
        },
        {
          "indexed": true,
          "internalType": "bytes32",
          "name": "newAdminRole",
          "type": "bytes32"
        }
      ],
      "name": "RoleAdminChanged",
      "type": "event"
    },
    {
      "anonymous": false,
      "inputs": [
        {
          "indexed": true,
          "internalType": "bytes32",
          "name": "role",
          "type": "bytes32"
        },
        {
          "indexed": true,
          "internalType": "address",
          "name": "account",
          "type": "address"
        },
        {
          "indexed": true,
          "internalType": "address",
          "name": "sender",
          "type": "address"
        }
      ],
      "name": "RoleGranted",
      "type": "event"
    },
    {
      "anonymous": false,
      "inputs": [
        {
          "indexed": true,
          "internalType": "bytes32",
          "name": "role",
          "type": "bytes32"
        },
        {
          "indexed": true,
          "internalType": "address",
          "name": "account",
          "type": "address"
        },
        {
          "indexed": true,
          "internalType": "address",
          "name": "sender",
          "type": "address"
        }
      ],
      "name": "RoleRevoked",
      "type": "event"
    },
    {
      "anonymous": false,
      "inputs": [
        {
          "indexed": true,
          "internalType": "address",
          "name": "from",
          "type": "address"
        },
        {
          "indexed": true,
          "internalType": "address",
          "name": "to",
          "type": "address"
        },
        {
          "indexed": true,
          "internalType": "uint256",
          "name": "tokenId",
          "type": "uint256"
        }
      ],
      "name": "Transfer",
      "type": "event"
    },
    {
      "inputs": [],
      "name": "DEFAULT_ADMIN_ROLE",
      "outputs": [
        {
          "internalType": "bytes32",
          "name": "",
          "type": "bytes32"
        }
      ],
      "stateMutability": "view",
      "type": "function"
    },
    {
      "inputs": [],
      "name": "MINTER_ROLE",
      "outputs": [
        {
          "internalType": "bytes32",
          "name": "",
          "type": "bytes32"
        }
      ],
      "stateMutability": "view",
      "type": "function"
    },
    {
      "inputs": [
        {
          "internalType": "address",
          "name": "to",
          "type": "address"
        },
        {
          "internalType": "uint256",
          "name": "tokenId",
          "type": "uint256"
        }
      ],
      "name": "approve",
      "outputs": [],
      "stateMutability": "nonpayable",
      "type": "function"
    },
    {
      "inputs": [
        {
          "internalType": "address",
          "name": "owner",
          "type": "address"
        }
      ],
      "name": "balanceOf",
      "outputs": [
        {
          "internalType": "uint256",
          "name": "",
          "type": "uint256"
        }
      ],
      "stateMutability": "view",
      "type": "function"
    },
    {
      "inputs": [
        {
          "internalType": "uint256",
          "name": "tokenId",
          "type": "uint256"
        }
      ],
      "name": "getApproved",
      "outputs": [
        {
          "internalType": "address",
          "name": "",
          "type": "address"
        }
      ],
      "stateMutability": "view",
      "type": "function"
    },
    {
      "inputs": [
        {
          "internalType": "bytes32",
          "name": "role",
          "type": "bytes32"
        }
      ],
      "name": "getRoleAdmin",
      "outputs": [
        {
          "internalType": "bytes32",
          "name": "",
          "type": "bytes32"
        }
      ],
      "stateMutability": "view",
      "type": "function"
    },
    {
      "inputs": [
        {
          "internalType": "bytes32",
          "name": "role",
          "type": "bytes32"
        },
        {
          "internalType": "address",
          "name": "account",
          "type": "address"
        }
      ],
      "name": "grantRole",
      "outputs": [],
      "stateMutability": "nonpayable",
      "type": "function"
    },
    {
      "inputs": [
        {
          "internalType": "bytes32",
          "name": "role",
          "type": "bytes32"
        },
        {
          "internalType": "address",
          "name": "account",
          "type": "address"
        }
      ],
      "name": "hasRole",
      "outputs": [
        {
          "internalType": "bool",
          "name": "",
          "type": "bool"
        }
      ],
      "stateMutability": "view",
      "type": "function"
    },
    {
      "inputs": [
        {
          "internalType": "address",
          "name": "owner",
          "type": "address"
        },
        {
          "internalType": "address",
          "name": "operator",
          "type": "address"
        }
      ],
      "name": "isApprovedForAll",
      "outputs": [
        {
          "internalType": "bool",
          "name": "",
          "type": "bool"
        }
      ],
      "stateMutability": "view",
      "type": "function"
    },
    {
      "inputs": [],
      "name": "maxSupply",
      "outputs": [
        {
          "internalType": "uint256",
          "name": "",
          "type": "uint256"
        }
      ],
      "stateMutability": "view",
      "type": "function"
    },
    {
      "inputs": [
        {
          "internalType": "uint256",
          "name": "quantity",
          "type": "uint256"
        }
      ],
      "name": "mint",
      "outputs": [],
      "stateMutability": "payable",
      "type": "function"
    },
    {
      "inputs": [],
      "name": "name",
      "outputs": [
        {
          "internalType": "string",
          "name": "",
          "type": "string"
        }
      ],
      "stateMutability": "view",
      "type": "function"
    },
    {
      "inputs": [
        {
          "internalType": "uint256",
          "name": "tokenId",
          "type": "uint256"
        }
      ],
      "name": "ownerOf",
      "outputs": [
        {
          "internalType": "address",
          "name": "",
          "type": "address"
        }
      ],
      "stateMutability": "view",
      "type": "function"
    },
    {
      "inputs": [
        {
          "internalType": "bytes32",
          "name": "role",
          "type": "bytes32"
        },
        {
          "internalType": "address",
          "name": "account",
          "type": "address"
        }
      ],
      "name": "renounceRole",
      "outputs": [],
      "stateMutability": "nonpayable",
      "type": "function"
    },
    {
      "inputs": [
        {
          "internalType": "bytes32",
          "name": "role",
          "type": "bytes32"
        },
        {
          "internalType": "address",
          "name": "account",
          "type": "address"
        }
      ],
      "name": "revokeRole",
      "outputs": [],
      "stateMutability": "nonpayable",
      "type": "function"
    },
    {
      "inputs": [
        {
          "internalType": "address",
          "name": "from",
          "type": "address"
        },
        {
          "internalType": "address",
          "name": "to",
          "type": "address"
        },
        {
          "internalType": "uint256",
          "name": "tokenId",
          "type": "uint256"
        }
      ],
      "name": "safeTransferFrom",
      "outputs": [],
      "stateMutability": "nonpayable",
      "type": "function"
    },
    {
      "inputs": [
        {
          "internalType": "address",
          "name": "from",
          "type": "address"
        },
        {
          "internalType": "address",
          "name": "to",
          "type": "address"
        },
        {
          "internalType": "uint256",
          "name": "tokenId",
          "type": "uint256"
        },
        {
          "internalType": "bytes",
          "name": "_data",
          "type": "bytes"
        }
      ],
      "name": "safeTransferFrom",
      "outputs": [],
      "stateMutability": "nonpayable",
      "type": "function"
    },
    {
      "inputs": [
        {
          "internalType": "address",
          "name": "operator",
          "type": "address"
        },
        {
          "internalType": "bool",
          "name": "approved",
          "type": "bool"
        }
      ],
      "name": "setApprovalForAll",
      "outputs": [],
      "stateMutability": "nonpayable",
      "type": "function"
    },
    {
      "inputs": [
        {
          "internalType": "string",
          "name": "baseURI",
          "type": "string"
        }
      ],
      "name": "setBaseURI",
      "outputs": [],
      "stateMutability": "nonpayable",
      "type": "function"
    },
    {
      "inputs": [
        {
          "internalType": "bytes4",
          "name": "interfaceId",
          "type": "bytes4"
        }
      ],
      "name": "supportsInterface",
      "outputs": [
        {
          "internalType": "bool",
          "name": "",
          "type": "bool"
        }
      ],
      "stateMutability": "view",
      "type": "function"
    },
    {
      "inputs": [],
      "name": "symbol",
      "outputs": [
        {
          "internalType": "string",
          "name": "",
          "type": "string"
        }
      ],
      "stateMutability": "view",
      "type": "function"
    },
    {
      "inputs": [
        {
          "internalType": "uint256",
          "name": "tokenId",
          "type": "uint256"
        }
      ],
      "name": "tokenURI",
      "outputs": [
        {
          "internalType": "string",
          "name": "",
          "type": "string"
        }
      ],
      "stateMutability": "view",
      "type": "function"
    },
    {
      "inputs": [],
      "name": "totalSupply",
      "outputs": [
        {
          "internalType": "uint256",
          "name": "",
          "type": "uint256"
        }
      ],
      "stateMutability": "view",
      "type": "function"
    },
    {
      "inputs": [
        {
          "internalType": "address",
          "name": "from",
          "type": "address"
        },
        {
          "internalType": "address",
          "name": "to",
          "type": "address"
        },
        {
          "internalType": "uint256",
          "name": "tokenId",
          "type": "uint256"
        }
      ],
      "name": "transferFrom",
      "outputs": [],
      "stateMutability": "nonpayable",
      "type": "function"
    }
  ],
  "transactionHash": "0x714a690909167e4772dd92415efca3f0021cdd80caf15e7190a42f33dcbb4eb0",
  "args": [
    "ipfs://bafybeiexk35logx4qjqpvkvoi5q7zji34ulh42gb4wxwmmh5ofxr2fwsre/",
    25
  ],
  "numDeployments": 1,
  "solcInputHash": "a963b3e39ee6a94836ebf37581ec8f63",
  "bytecode": "0x608060405260405180602001604052806000815250600990805190602001906200002b929190620002d2565b503480156200003957600080fd5b5060405162003acd38038062003acd83398181016040528101906200005f91906200040b565b6040518060400160405280600881526020017f4f70656e204172740000000000000000000000000000000000000000000000008152506040518060400160405280600581526020017f4f504152540000000000000000000000000000000000000000000000000000008152508160029080519060200190620000e3929190620002d2565b508060039080519060200190620000fc929190620002d2565b506200010d6200015260201b60201c565b600081905550505081600990805190602001906200012d929190620002d2565b50620001436000801b336200015760201b60201c565b80600a819055505050620005f9565b600090565b6200016982826200016d60201b60201c565b5050565b6200017f82826200025f60201b60201c565b6200025b5760016008600084815260200190815260200160002060000160008373ffffffffffffffffffffffffffffffffffffffff1673ffffffffffffffffffffffffffffffffffffffff16815260200190815260200160002060006101000a81548160ff02191690831515021790555062000200620002ca60201b60201c565b73ffffffffffffffffffffffffffffffffffffffff168173ffffffffffffffffffffffffffffffffffffffff16837f2f8788117e7eff1d82e926ec794901d17c78024a50270940304540a733656f0d60405160405180910390a45b5050565b60006008600084815260200190815260200160002060000160008373ffffffffffffffffffffffffffffffffffffffff1673ffffffffffffffffffffffffffffffffffffffff16815260200190815260200160002060009054906101000a900460ff16905092915050565b600033905090565b828054620002e09062000504565b90600052602060002090601f01602090048101928262000304576000855562000350565b82601f106200031f57805160ff191683800117855562000350565b8280016001018555821562000350579182015b828111156200034f57825182559160200191906001019062000332565b5b5090506200035f919062000363565b5090565b5b808211156200037e57600081600090555060010162000364565b5090565b60006200039962000393846200048e565b62000465565b905082815260208101848484011115620003b257600080fd5b620003bf848285620004ce565b509392505050565b600082601f830112620003d957600080fd5b8151620003eb84826020860162000382565b91505092915050565b6000815190506200040581620005df565b92915050565b600080604083850312156200041f57600080fd5b600083015167ffffffffffffffff8111156200043a57600080fd5b6200044885828601620003c7565b92505060206200045b85828601620003f4565b9150509250929050565b60006200047162000484565b90506200047f82826200053a565b919050565b6000604051905090565b600067ffffffffffffffff821115620004ac57620004ab6200059f565b5b620004b782620005ce565b9050602081019050919050565b6000819050919050565b60005b83811015620004ee578082015181840152602081019050620004d1565b83811115620004fe576000848401525b50505050565b600060028204905060018216806200051d57607f821691505b6020821081141562000534576200053362000570565b5b50919050565b6200054582620005ce565b810181811067ffffffffffffffff821117156200056757620005666200059f565b5b80604052505050565b7f4e487b7100000000000000000000000000000000000000000000000000000000600052602260045260246000fd5b7f4e487b7100000000000000000000000000000000000000000000000000000000600052604160045260246000fd5b6000601f19601f8301169050919050565b620005ea81620004c4565b8114620005f657600080fd5b50565b6134c480620006096000396000f3fe60806040526004361061014b5760003560e01c806370a08231116100b6578063b88d4fde1161006f578063b88d4fde146104a5578063c87b56dd146104ce578063d53913931461050b578063d547741f14610536578063d5abeb011461055f578063e985e9c51461058a5761014b565b806370a082311461039057806391d14854146103cd57806395d89b411461040a578063a0712d6814610435578063a217fddf14610451578063a22cb4651461047c5761014b565b8063248a9ca311610108578063248a9ca3146102725780632f2ff15d146102af57806336568abe146102d857806342842e0e1461030157806355f804b31461032a5780636352211e146103535761014b565b806301ffc9a71461015057806306fdde031461018d578063081812fc146101b8578063095ea7b3146101f557806318160ddd1461021e57806323b872dd14610249575b600080fd5b34801561015c57600080fd5b5061017760048036038101906101729190612ad3565b6105c7565b6040516101849190612de2565b60405180910390f35b34801561019957600080fd5b506101a26105d9565b6040516101af9190612e18565b60405180910390f35b3480156101c457600080fd5b506101df60048036038101906101da9190612b66565b61066b565b6040516101ec9190612d7b565b60405180910390f35b34801561020157600080fd5b5061021c60048036038101906102179190612a32565b6106e7565b005b34801561022a57600080fd5b506102336107f2565b6040516102409190612e9a565b60405180910390f35b34801561025557600080fd5b50610270600480360381019061026b919061292c565b610809565b005b34801561027e57600080fd5b5061029960048036038101906102949190612a6e565b610819565b6040516102a69190612dfd565b60405180910390f35b3480156102bb57600080fd5b506102d660048036038101906102d19190612a97565b610839565b005b3480156102e457600080fd5b506102ff60048036038101906102fa9190612a97565b610862565b005b34801561030d57600080fd5b506103286004803603810190610323919061292c565b6108e5565b005b34801561033657600080fd5b50610351600480360381019061034c9190612b25565b610905565b005b34801561035f57600080fd5b5061037a60048036038101906103759190612b66565b61091f565b6040516103879190612d7b565b60405180910390f35b34801561039c57600080fd5b506103b760048036038101906103b291906128c7565b610935565b6040516103c49190612e9a565b60405180910390f35b3480156103d957600080fd5b506103f460048036038101906103ef9190612a97565b610a05565b6040516104019190612de2565b60405180910390f35b34801561041657600080fd5b5061041f610a70565b60405161042c9190612e18565b60405180910390f35b61044f600480360381019061044a9190612b66565b610b02565b005b34801561045d57600080fd5b50610466610b99565b6040516104739190612dfd565b60405180910390f35b34801561048857600080fd5b506104a3600480360381019061049e91906129f6565b610ba0565b005b3480156104b157600080fd5b506104cc60048036038101906104c7919061297b565b610d18565b005b3480156104da57600080fd5b506104f560048036038101906104f09190612b66565b610d94565b6040516105029190612e18565b60405180910390f35b34801561051757600080fd5b50610520610e33565b60405161052d9190612dfd565b60405180910390f35b34801561054257600080fd5b5061055d60048036038101906105589190612a97565b610e57565b005b34801561056b57600080fd5b50610574610e80565b6040516105819190612e9a565b60405180910390f35b34801561059657600080fd5b506105b160048036038101906105ac91906128f0565b610e86565b6040516105be9190612de2565b60405180910390f35b60006105d282610f1a565b9050919050565b6060600280546105e89061317e565b80601f01602080910402602001604051908101604052809291908181526020018280546106149061317e565b80156106615780601f1061063657610100808354040283529160200191610661565b820191906000526020600020905b81548152906001019060200180831161064457829003601f168201915b5050505050905090565b600061067682610f94565b6106ac576040517fcf4700e400000000000000000000000000000000000000000000000000000000815260040160405180910390fd5b6006600083815260200190815260200160002060009054906101000a900473ffffffffffffffffffffffffffffffffffffffff169050919050565b60006106f28261091f565b90508073ffffffffffffffffffffffffffffffffffffffff168373ffffffffffffffffffffffffffffffffffffffff16141561075a576040517f943f7b8c00000000000000000000000000000000000000000000000000000000815260040160405180910390fd5b8073ffffffffffffffffffffffffffffffffffffffff16610779610fe2565b73ffffffffffffffffffffffffffffffffffffffff16141580156107ab57506107a9816107a4610fe2565b610e86565b155b156107e2576040517fcfb3b94200000000000000000000000000000000000000000000000000000000815260040160405180910390fd5b6107ed838383610fea565b505050565b60006107fc61109c565b6001546000540303905090565b6108148383836110a1565b505050565b600060086000838152602001908152602001600020600101549050919050565b61084282610819565b6108538161084e610fe2565b611592565b61085d838361162f565b505050565b61086a610fe2565b73ffffffffffffffffffffffffffffffffffffffff168173ffffffffffffffffffffffffffffffffffffffff16146108d7576040517f08c379a00000000000000000000000000000000000000000000000000000000081526004016108ce90612e7a565b60405180910390fd5b6108e18282611710565b5050565b61090083838360405180602001604052806000815250610d18565b505050565b806009908051906020019061091b929190612693565b5050565b600061092a826117f2565b600001519050919050565b60008073ffffffffffffffffffffffffffffffffffffffff168273ffffffffffffffffffffffffffffffffffffffff16141561099d576040517f8f4eb60400000000000000000000000000000000000000000000000000000000815260040160405180910390fd5b600560008373ffffffffffffffffffffffffffffffffffffffff1673ffffffffffffffffffffffffffffffffffffffff16815260200190815260200160002060000160009054906101000a900467ffffffffffffffff1667ffffffffffffffff169050919050565b60006008600084815260200190815260200160002060000160008373ffffffffffffffffffffffffffffffffffffffff1673ffffffffffffffffffffffffffffffffffffffff16815260200190815260200160002060009054906101000a900460ff16905092915050565b606060038054610a7f9061317e565b80601f0160208091040260200160405190810160405280929190818152602001828054610aab9061317e565b8015610af85780601f10610acd57610100808354040283529160200191610af8565b820191906000526020600020905b815481529060010190602001808311610adb57829003601f168201915b5050505050905090565b7f9f2df0fed2c77648de5860a4cc508cd0818c85b8b8a1ab4ceeef8d981c8956a6610b3481610b2f610fe2565b611592565b600a5482610b406107f2565b610b4a9190612f7f565b1115610b8b576040517f08c379a0000000000000000000000000000000000000000000000000000000008152600401610b8290612e5a565b60405180910390fd5b610b953383611a81565b5050565b6000801b81565b610ba8610fe2565b73ffffffffffffffffffffffffffffffffffffffff168273ffffffffffffffffffffffffffffffffffffffff161415610c0d576040517fb06307db00000000000000000000000000000000000000000000000000000000815260040160405180910390fd5b8060076000610c1a610fe2565b73ffffffffffffffffffffffffffffffffffffffff1673ffffffffffffffffffffffffffffffffffffffff16815260200190815260200160002060008473ffffffffffffffffffffffffffffffffffffffff1673ffffffffffffffffffffffffffffffffffffffff16815260200190815260200160002060006101000a81548160ff0219169083151502179055508173ffffffffffffffffffffffffffffffffffffffff16610cc7610fe2565b73ffffffffffffffffffffffffffffffffffffffff167f17307eab39ab6107e8899845ad3d59bd9653f200f220920489ca2b5937696c3183604051610d0c9190612de2565b60405180910390a35050565b610d238484846110a1565b610d428373ffffffffffffffffffffffffffffffffffffffff16611a9f565b8015610d575750610d5584848484611ac2565b155b15610d8e576040517fd1a57ed600000000000000000000000000000000000000000000000000000000815260040160405180910390fd5b50505050565b6060610d9f82610f94565b610dd5576040517fa14c4b5000000000000000000000000000000000000000000000000000000000815260040160405180910390fd5b6000610ddf611c22565b9050600081511415610e005760405180602001604052806000815250610e2b565b80610e0a84611cb4565b604051602001610e1b929190612d1d565b6040516020818303038152906040525b915050919050565b7f9f2df0fed2c77648de5860a4cc508cd0818c85b8b8a1ab4ceeef8d981c8956a681565b610e6082610819565b610e7181610e6c610fe2565b611592565b610e7b8383611710565b505050565b600a5481565b6000600760008473ffffffffffffffffffffffffffffffffffffffff1673ffffffffffffffffffffffffffffffffffffffff16815260200190815260200160002060008373ffffffffffffffffffffffffffffffffffffffff1673ffffffffffffffffffffffffffffffffffffffff16815260200190815260200160002060009054906101000a900460ff16905092915050565b60007f7965db0b000000000000000000000000000000000000000000000000000000007bffffffffffffffffffffffffffffffffffffffffffffffffffffffff1916827bffffffffffffffffffffffffffffffffffffffffffffffffffffffff19161480610f8d5750610f8c82611e61565b5b9050919050565b600081610f9f61109c565b11158015610fae575060005482105b8015610fdb575060046000838152602001908152602001600020600001601c9054906101000a900460ff16155b9050919050565b600033905090565b826006600084815260200190815260200160002060006101000a81548173ffffffffffffffffffffffffffffffffffffffff021916908373ffffffffffffffffffffffffffffffffffffffff160217905550818373ffffffffffffffffffffffffffffffffffffffff168273ffffffffffffffffffffffffffffffffffffffff167f8c5be1e5ebec7d5bd14f71427d1e84f3dd0314c0f7b2291e5b200ac8c7c3b92560405160405180910390a4505050565b600090565b60006110ac826117f2565b90506000816000015173ffffffffffffffffffffffffffffffffffffffff166110d3610fe2565b73ffffffffffffffffffffffffffffffffffffffff16148061110657506111058260000151611100610fe2565b610e86565b5b8061114b5750611114610fe2565b73ffffffffffffffffffffffffffffffffffffffff166111338461066b565b73ffffffffffffffffffffffffffffffffffffffff16145b905080611184576040517f59c896be00000000000000000000000000000000000000000000000000000000815260040160405180910390fd5b8473ffffffffffffffffffffffffffffffffffffffff16826000015173ffffffffffffffffffffffffffffffffffffffff16146111ed576040517fa114810000000000000000000000000000000000000000000000000000000000815260040160405180910390fd5b600073ffffffffffffffffffffffffffffffffffffffff168473ffffffffffffffffffffffffffffffffffffffff161415611254576040517fea553b3400000000000000000000000000000000000000000000000000000000815260040160405180910390fd5b6112618585856001611f43565b6112716000848460000151610fea565b6001600560008773ffffffffffffffffffffffffffffffffffffffff1673ffffffffffffffffffffffffffffffffffffffff16815260200190815260200160002060000160008282829054906101000a900467ffffffffffffffff160392506101000a81548167ffffffffffffffff021916908367ffffffffffffffff1602179055506001600560008673ffffffffffffffffffffffffffffffffffffffff1673ffffffffffffffffffffffffffffffffffffffff16815260200190815260200160002060000160008282829054906101000a900467ffffffffffffffff160192506101000a81548167ffffffffffffffff021916908367ffffffffffffffff160217905550836004600085815260200190815260200160002060000160006101000a81548173ffffffffffffffffffffffffffffffffffffffff021916908373ffffffffffffffffffffffffffffffffffffffff160217905550426004600085815260200190815260200160002060000160146101000a81548167ffffffffffffffff021916908367ffffffffffffffff1602179055506000600184019050600073ffffffffffffffffffffffffffffffffffffffff166004600083815260200190815260200160002060000160009054906101000a900473ffffffffffffffffffffffffffffffffffffffff1673ffffffffffffffffffffffffffffffffffffffff161415611522576000548110156115215782600001516004600083815260200190815260200160002060000160006101000a81548173ffffffffffffffffffffffffffffffffffffffff021916908373ffffffffffffffffffffffffffffffffffffffff16021790555082602001516004600083815260200190815260200160002060000160146101000a81548167ffffffffffffffff021916908367ffffffffffffffff1602179055505b5b50828473ffffffffffffffffffffffffffffffffffffffff168673ffffffffffffffffffffffffffffffffffffffff167fddf252ad1be2c89b69c2b068fc378daa952ba7f163c4a11628f55a4df523b3ef60405160405180910390a461158b8585856001611f49565b5050505050565b61159c8282610a05565b61162b576115c18173ffffffffffffffffffffffffffffffffffffffff166014611f4f565b6115cf8360001c6020611f4f565b6040516020016115e0929190612d41565b6040516020818303038152906040526040517f08c379a00000000000000000000000000000000000000000000000000000000081526004016116229190612e18565b60405180910390fd5b5050565b6116398282610a05565b61170c5760016008600084815260200190815260200160002060000160008373ffffffffffffffffffffffffffffffffffffffff1673ffffffffffffffffffffffffffffffffffffffff16815260200190815260200160002060006101000a81548160ff0219169083151502179055506116b1610fe2565b73ffffffffffffffffffffffffffffffffffffffff168173ffffffffffffffffffffffffffffffffffffffff16837f2f8788117e7eff1d82e926ec794901d17c78024a50270940304540a733656f0d60405160405180910390a45b5050565b61171a8282610a05565b156117ee5760006008600084815260200190815260200160002060000160008373ffffffffffffffffffffffffffffffffffffffff1673ffffffffffffffffffffffffffffffffffffffff16815260200190815260200160002060006101000a81548160ff021916908315150217905550611793610fe2565b73ffffffffffffffffffffffffffffffffffffffff168173ffffffffffffffffffffffffffffffffffffffff16837ff6391f5c32d9c69d2a47ea670b442974b53935d1edc7fd64eb21e047a839171b60405160405180910390a45b5050565b6117fa612719565b60008290508061180861109c565b11158015611817575060005481105b15611a4a576000600460008381526020019081526020016000206040518060600160405290816000820160009054906101000a900473ffffffffffffffffffffffffffffffffffffffff1673ffffffffffffffffffffffffffffffffffffffff1673ffffffffffffffffffffffffffffffffffffffff1681526020016000820160149054906101000a900467ffffffffffffffff1667ffffffffffffffff1667ffffffffffffffff16815260200160008201601c9054906101000a900460ff16151515158152505090508060400151611a4857600073ffffffffffffffffffffffffffffffffffffffff16816000015173ffffffffffffffffffffffffffffffffffffffff161461192c578092505050611a7c565b5b600115611a4757818060019003925050600460008381526020019081526020016000206040518060600160405290816000820160009054906101000a900473ffffffffffffffffffffffffffffffffffffffff1673ffffffffffffffffffffffffffffffffffffffff1673ffffffffffffffffffffffffffffffffffffffff1681526020016000820160149054906101000a900467ffffffffffffffff1667ffffffffffffffff1667ffffffffffffffff16815260200160008201601c9054906101000a900460ff1615151515815250509050600073ffffffffffffffffffffffffffffffffffffffff16816000015173ffffffffffffffffffffffffffffffffffffffff1614611a42578092505050611a7c565b61192d565b5b505b6040517fdf2d9b4200000000000000000000000000000000000000000000000000000000815260040160405180910390fd5b919050565b611a9b828260405180602001604052806000815250612249565b5050565b6000808273ffffffffffffffffffffffffffffffffffffffff163b119050919050565b60008373ffffffffffffffffffffffffffffffffffffffff1663150b7a02611ae8610fe2565b8786866040518563ffffffff1660e01b8152600401611b0a9493929190612d96565b602060405180830381600087803b158015611b2457600080fd5b505af1925050508015611b5557506040513d601f19601f82011682018060405250810190611b529190612afc565b60015b611bcf573d8060008114611b85576040519150601f19603f3d011682016040523d82523d6000602084013e611b8a565b606091505b50600081511415611bc7576040517fd1a57ed600000000000000000000000000000000000000000000000000000000815260040160405180910390fd5b805181602001fd5b63150b7a0260e01b7bffffffffffffffffffffffffffffffffffffffffffffffffffffffff1916817bffffffffffffffffffffffffffffffffffffffffffffffffffffffff191614915050949350505050565b606060098054611c319061317e565b80601f0160208091040260200160405190810160405280929190818152602001828054611c5d9061317e565b8015611caa5780601f10611c7f57610100808354040283529160200191611caa565b820191906000526020600020905b815481529060010190602001808311611c8d57829003601f168201915b5050505050905090565b60606000821415611cfc576040518060400160405280600181526020017f30000000000000000000000000000000000000000000000000000000000000008152509050611e5c565b600082905060005b60008214611d2e578080611d17906131e1565b915050600a82611d279190612fd5565b9150611d04565b60008167ffffffffffffffff811115611d70577f4e487b7100000000000000000000000000000000000000000000000000000000600052604160045260246000fd5b6040519080825280601f01601f191660200182016040528015611da25781602001600182028036833780820191505090505b5090505b60008514611e5557600182611dbb9190613060565b9150600a85611dca919061322a565b6030611dd69190612f7f565b60f81b818381518110611e12577f4e487b7100000000000000000000000000000000000000000000000000000000600052603260045260246000fd5b60200101907effffffffffffffffffffffffffffffffffffffffffffffffffffffffffffff1916908160001a905350600a85611e4e9190612fd5565b9450611da6565b8093505050505b919050565b60007f80ac58cd000000000000000000000000000000000000000000000000000000007bffffffffffffffffffffffffffffffffffffffffffffffffffffffff1916827bffffffffffffffffffffffffffffffffffffffffffffffffffffffff19161480611f2c57507f5b5e139f000000000000000000000000000000000000000000000000000000007bffffffffffffffffffffffffffffffffffffffffffffffffffffffff1916827bffffffffffffffffffffffffffffffffffffffffffffffffffffffff1916145b80611f3c5750611f3b8261225b565b5b9050919050565b50505050565b50505050565b606060006002836002611f629190613006565b611f6c9190612f7f565b67ffffffffffffffff811115611fab577f4e487b7100000000000000000000000000000000000000000000000000000000600052604160045260246000fd5b6040519080825280601f01601f191660200182016040528015611fdd5781602001600182028036833780820191505090505b5090507f30000000000000000000000000000000000000000000000000000000000000008160008151811061203b577f4e487b7100000000000000000000000000000000000000000000000000000000600052603260045260246000fd5b60200101907effffffffffffffffffffffffffffffffffffffffffffffffffffffffffffff1916908160001a9053507f7800000000000000000000000000000000000000000000000000000000000000816001815181106120c5577f4e487b7100000000000000000000000000000000000000000000000000000000600052603260045260246000fd5b60200101907effffffffffffffffffffffffffffffffffffffffffffffffffffffffffffff1916908160001a905350600060018460026121059190613006565b61210f9190612f7f565b90505b60018111156121fb577f3031323334353637383961626364656600000000000000000000000000000000600f861660108110612177577f4e487b7100000000000000000000000000000000000000000000000000000000600052603260045260246000fd5b1a60f81b8282815181106121b4577f4e487b7100000000000000000000000000000000000000000000000000000000600052603260045260246000fd5b60200101907effffffffffffffffffffffffffffffffffffffffffffffffffffffffffffff1916908160001a905350600485901c9450806121f490613154565b9050612112565b506000841461223f576040517f08c379a000000000000000000000000000000000000000000000000000000000815260040161223690612e3a565b60405180910390fd5b8091505092915050565b61225683838360016122c5565b505050565b60007f01ffc9a7000000000000000000000000000000000000000000000000000000007bffffffffffffffffffffffffffffffffffffffffffffffffffffffff1916827bffffffffffffffffffffffffffffffffffffffffffffffffffffffff1916149050919050565b600080549050600073ffffffffffffffffffffffffffffffffffffffff168573ffffffffffffffffffffffffffffffffffffffff161415612332576040517f2e07630000000000000000000000000000000000000000000000000000000000815260040160405180910390fd5b600084141561236d576040517fb562e8dd00000000000000000000000000000000000000000000000000000000815260040160405180910390fd5b61237a6000868387611f43565b83600560008773ffffffffffffffffffffffffffffffffffffffff1673ffffffffffffffffffffffffffffffffffffffff16815260200190815260200160002060000160008282829054906101000a900467ffffffffffffffff160192506101000a81548167ffffffffffffffff021916908367ffffffffffffffff16021790555083600560008773ffffffffffffffffffffffffffffffffffffffff1673ffffffffffffffffffffffffffffffffffffffff16815260200190815260200160002060000160088282829054906101000a900467ffffffffffffffff160192506101000a81548167ffffffffffffffff021916908367ffffffffffffffff160217905550846004600083815260200190815260200160002060000160006101000a81548173ffffffffffffffffffffffffffffffffffffffff021916908373ffffffffffffffffffffffffffffffffffffffff160217905550426004600083815260200190815260200160002060000160146101000a81548167ffffffffffffffff021916908367ffffffffffffffff16021790555060008190506000858201905083801561254457506125438773ffffffffffffffffffffffffffffffffffffffff16611a9f565b5b1561260a575b818773ffffffffffffffffffffffffffffffffffffffff16600073ffffffffffffffffffffffffffffffffffffffff167fddf252ad1be2c89b69c2b068fc378daa952ba7f163c4a11628f55a4df523b3ef60405160405180910390a46125b96000888480600101955088611ac2565b6125ef576040517fd1a57ed600000000000000000000000000000000000000000000000000000000815260040160405180910390fd5b8082141561254a57826000541461260557600080fd5b612676565b5b818060010192508773ffffffffffffffffffffffffffffffffffffffff16600073ffffffffffffffffffffffffffffffffffffffff167fddf252ad1be2c89b69c2b068fc378daa952ba7f163c4a11628f55a4df523b3ef60405160405180910390a48082141561260b575b81600081905550505061268c6000868387611f49565b5050505050565b82805461269f9061317e565b90600052602060002090601f0160209004810192826126c15760008555612708565b82601f106126da57805160ff1916838001178555612708565b82800160010185558215612708579182015b828111156127075782518255916020019190600101906126ec565b5b509050612715919061275c565b5090565b6040518060600160405280600073ffffffffffffffffffffffffffffffffffffffff168152602001600067ffffffffffffffff1681526020016000151581525090565b5b8082111561277557600081600090555060010161275d565b5090565b600061278c61278784612eda565b612eb5565b9050828152602081018484840111156127a457600080fd5b6127af848285613112565b509392505050565b60006127ca6127c584612f0b565b612eb5565b9050828152602081018484840111156127e257600080fd5b6127ed848285613112565b509392505050565b6000813590506128048161341b565b92915050565b60008135905061281981613432565b92915050565b60008135905061282e81613449565b92915050565b60008135905061284381613460565b92915050565b60008151905061285881613460565b92915050565b600082601f83011261286f57600080fd5b813561287f848260208601612779565b91505092915050565b600082601f83011261289957600080fd5b81356128a98482602086016127b7565b91505092915050565b6000813590506128c181613477565b92915050565b6000602082840312156128d957600080fd5b60006128e7848285016127f5565b91505092915050565b6000806040838503121561290357600080fd5b6000612911858286016127f5565b9250506020612922858286016127f5565b9150509250929050565b60008060006060848603121561294157600080fd5b600061294f868287016127f5565b9350506020612960868287016127f5565b9250506040612971868287016128b2565b9150509250925092565b6000806000806080858703121561299157600080fd5b600061299f878288016127f5565b94505060206129b0878288016127f5565b93505060406129c1878288016128b2565b925050606085013567ffffffffffffffff8111156129de57600080fd5b6129ea8782880161285e565b91505092959194509250565b60008060408385031215612a0957600080fd5b6000612a17858286016127f5565b9250506020612a288582860161280a565b9150509250929050565b60008060408385031215612a4557600080fd5b6000612a53858286016127f5565b9250506020612a64858286016128b2565b9150509250929050565b600060208284031215612a8057600080fd5b6000612a8e8482850161281f565b91505092915050565b60008060408385031215612aaa57600080fd5b6000612ab88582860161281f565b9250506020612ac9858286016127f5565b9150509250929050565b600060208284031215612ae557600080fd5b6000612af384828501612834565b91505092915050565b600060208284031215612b0e57600080fd5b6000612b1c84828501612849565b91505092915050565b600060208284031215612b3757600080fd5b600082013567ffffffffffffffff811115612b5157600080fd5b612b5d84828501612888565b91505092915050565b600060208284031215612b7857600080fd5b6000612b86848285016128b2565b91505092915050565b612b9881613094565b82525050565b612ba7816130a6565b82525050565b612bb6816130b2565b82525050565b6000612bc782612f3c565b612bd18185612f52565b9350612be1818560208601613121565b612bea81613317565b840191505092915050565b6000612c0082612f47565b612c0a8185612f63565b9350612c1a818560208601613121565b612c2381613317565b840191505092915050565b6000612c3982612f47565b612c438185612f74565b9350612c53818560208601613121565b80840191505092915050565b6000612c6c602083612f63565b9150612c7782613328565b602082019050919050565b6000612c8f602083612f63565b9150612c9a82613351565b602082019050919050565b6000612cb2601783612f74565b9150612cbd8261337a565b601782019050919050565b6000612cd5601183612f74565b9150612ce0826133a3565b601182019050919050565b6000612cf8602f83612f63565b9150612d03826133cc565b604082019050919050565b612d1781613108565b82525050565b6000612d298285612c2e565b9150612d358284612c2e565b91508190509392505050565b6000612d4c82612ca5565b9150612d588285612c2e565b9150612d6382612cc8565b9150612d6f8284612c2e565b91508190509392505050565b6000602082019050612d906000830184612b8f565b92915050565b6000608082019050612dab6000830187612b8f565b612db86020830186612b8f565b612dc56040830185612d0e565b8181036060830152612dd78184612bbc565b905095945050505050565b6000602082019050612df76000830184612b9e565b92915050565b6000602082019050612e126000830184612bad565b92915050565b60006020820190508181036000830152612e328184612bf5565b905092915050565b60006020820190508181036000830152612e5381612c5f565b9050919050565b60006020820190508181036000830152612e7381612c82565b9050919050565b60006020820190508181036000830152612e9381612ceb565b9050919050565b6000602082019050612eaf6000830184612d0e565b92915050565b6000612ebf612ed0565b9050612ecb82826131b0565b919050565b6000604051905090565b600067ffffffffffffffff821115612ef557612ef46132e8565b5b612efe82613317565b9050602081019050919050565b600067ffffffffffffffff821115612f2657612f256132e8565b5b612f2f82613317565b9050602081019050919050565b600081519050919050565b600081519050919050565b600082825260208201905092915050565b600082825260208201905092915050565b600081905092915050565b6000612f8a82613108565b9150612f9583613108565b9250827fffffffffffffffffffffffffffffffffffffffffffffffffffffffffffffffff03821115612fca57612fc961325b565b5b828201905092915050565b6000612fe082613108565b9150612feb83613108565b925082612ffb57612ffa61328a565b5b828204905092915050565b600061301182613108565b915061301c83613108565b9250817fffffffffffffffffffffffffffffffffffffffffffffffffffffffffffffffff04831182151516156130555761305461325b565b5b828202905092915050565b600061306b82613108565b915061307683613108565b9250828210156130895761308861325b565b5b828203905092915050565b600061309f826130e8565b9050919050565b60008115159050919050565b6000819050919050565b60007fffffffff0000000000000000000000000000000000000000000000000000000082169050919050565b600073ffffffffffffffffffffffffffffffffffffffff82169050919050565b6000819050919050565b82818337600083830152505050565b60005b8381101561313f578082015181840152602081019050613124565b8381111561314e576000848401525b50505050565b600061315f82613108565b915060008214156131735761317261325b565b5b600182039050919050565b6000600282049050600182168061319657607f821691505b602082108114156131aa576131a96132b9565b5b50919050565b6131b982613317565b810181811067ffffffffffffffff821117156131d8576131d76132e8565b5b80604052505050565b60006131ec82613108565b91507fffffffffffffffffffffffffffffffffffffffffffffffffffffffffffffffff82141561321f5761321e61325b565b5b600182019050919050565b600061323582613108565b915061324083613108565b9250826132505761324f61328a565b5b828206905092915050565b7f4e487b7100000000000000000000000000000000000000000000000000000000600052601160045260246000fd5b7f4e487b7100000000000000000000000000000000000000000000000000000000600052601260045260246000fd5b7f4e487b7100000000000000000000000000000000000000000000000000000000600052602260045260246000fd5b7f4e487b7100000000000000000000000000000000000000000000000000000000600052604160045260246000fd5b6000601f19601f8301169050919050565b7f537472696e67733a20686578206c656e67746820696e73756666696369656e74600082015250565b7f507572636861736520776f756c6420657863656564206d617820737570706c79600082015250565b7f416363657373436f6e74726f6c3a206163636f756e7420000000000000000000600082015250565b7f206973206d697373696e6720726f6c6520000000000000000000000000000000600082015250565b7f416363657373436f6e74726f6c3a2063616e206f6e6c792072656e6f756e636560008201527f20726f6c657320666f722073656c660000000000000000000000000000000000602082015250565b61342481613094565b811461342f57600080fd5b50565b61343b816130a6565b811461344657600080fd5b50565b613452816130b2565b811461345d57600080fd5b50565b613469816130bc565b811461347457600080fd5b50565b61348081613108565b811461348b57600080fd5b5056fea26469706673582212208aaf80bdcb98c24de3d8a6ad742697593a60fd8a89a364994211864938532d9064736f6c63430008040033",
  "devdoc": {
    "kind": "dev",
    "methods": {
      "approve(address,uint256)": {
        "details": "See {IERC721-approve}."
      },
      "balanceOf(address)": {
        "details": "See {IERC721-balanceOf}."
      },
      "getApproved(uint256)": {
        "details": "See {IERC721-getApproved}."
      },
      "getRoleAdmin(bytes32)": {
        "details": "Returns the admin role that controls `role`. See {grantRole} and {revokeRole}. To change a role's admin, use {_setRoleAdmin}."
      },
      "grantRole(bytes32,address)": {
        "details": "Grants `role` to `account`. If `account` had not been already granted `role`, emits a {RoleGranted} event. Requirements: - the caller must have ``role``'s admin role."
      },
      "hasRole(bytes32,address)": {
        "details": "Returns `true` if `account` has been granted `role`."
      },
      "isApprovedForAll(address,address)": {
        "details": "See {IERC721-isApprovedForAll}."
      },
      "name()": {
        "details": "See {IERC721Metadata-name}."
      },
      "ownerOf(uint256)": {
        "details": "See {IERC721-ownerOf}."
      },
      "renounceRole(bytes32,address)": {
        "details": "Revokes `role` from the calling account. Roles are often managed via {grantRole} and {revokeRole}: this function's purpose is to provide a mechanism for accounts to lose their privileges if they are compromised (such as when a trusted device is misplaced). If the calling account had been revoked `role`, emits a {RoleRevoked} event. Requirements: - the caller must be `account`."
      },
      "revokeRole(bytes32,address)": {
        "details": "Revokes `role` from `account`. If `account` had been granted `role`, emits a {RoleRevoked} event. Requirements: - the caller must have ``role``'s admin role."
      },
      "safeTransferFrom(address,address,uint256)": {
        "details": "See {IERC721-safeTransferFrom}."
      },
      "safeTransferFrom(address,address,uint256,bytes)": {
        "details": "See {IERC721-safeTransferFrom}."
      },
      "setApprovalForAll(address,bool)": {
        "details": "See {IERC721-setApprovalForAll}."
      },
      "symbol()": {
        "details": "See {IERC721Metadata-symbol}."
      },
      "tokenURI(uint256)": {
        "details": "See {IERC721Metadata-tokenURI}."
      },
      "totalSupply()": {
        "details": "See {IERC721Enumerable-totalSupply}.Burned tokens are calculated here, use _totalMinted() if you want to count just minted tokens."
      },
      "transferFrom(address,address,uint256)": {
        "details": "See {IERC721-transferFrom}."
      }
    },
    "version": 1
  },
  "userdoc": {
    "kind": "user",
    "methods": {},
    "version": 1
  },
  "storageLayout": {
    "storage": [
      {
        "astId": 2884,
        "contract": "contracts/CollectibleERC721A.sol:CollectibleERC721A",
        "label": "_currentIndex",
        "offset": 0,
        "slot": "0",
        "type": "t_uint256"
      },
      {
        "astId": 2886,
        "contract": "contracts/CollectibleERC721A.sol:CollectibleERC721A",
        "label": "_burnCounter",
        "offset": 0,
        "slot": "1",
        "type": "t_uint256"
      },
      {
        "astId": 2888,
        "contract": "contracts/CollectibleERC721A.sol:CollectibleERC721A",
        "label": "_name",
        "offset": 0,
        "slot": "2",
        "type": "t_string_storage"
      },
      {
        "astId": 2890,
        "contract": "contracts/CollectibleERC721A.sol:CollectibleERC721A",
        "label": "_symbol",
        "offset": 0,
        "slot": "3",
        "type": "t_string_storage"
      },
      {
        "astId": 2895,
        "contract": "contracts/CollectibleERC721A.sol:CollectibleERC721A",
        "label": "_ownerships",
        "offset": 0,
        "slot": "4",
        "type": "t_mapping(t_uint256,t_struct(TokenOwnership)2873_storage)"
      },
      {
        "astId": 2900,
        "contract": "contracts/CollectibleERC721A.sol:CollectibleERC721A",
        "label": "_addressData",
        "offset": 0,
        "slot": "5",
        "type": "t_mapping(t_address,t_struct(AddressData)2882_storage)"
      },
      {
        "astId": 2904,
        "contract": "contracts/CollectibleERC721A.sol:CollectibleERC721A",
        "label": "_tokenApprovals",
        "offset": 0,
        "slot": "6",
        "type": "t_mapping(t_uint256,t_address)"
      },
      {
        "astId": 2910,
        "contract": "contracts/CollectibleERC721A.sol:CollectibleERC721A",
        "label": "_operatorApprovals",
        "offset": 0,
        "slot": "7",
        "type": "t_mapping(t_address,t_mapping(t_address,t_bool))"
      },
      {
        "astId": 24,
        "contract": "contracts/CollectibleERC721A.sol:CollectibleERC721A",
        "label": "_roles",
        "offset": 0,
        "slot": "8",
        "type": "t_mapping(t_bytes32,t_struct(RoleData)19_storage)"
      },
      {
        "astId": 2582,
        "contract": "contracts/CollectibleERC721A.sol:CollectibleERC721A",
        "label": "_baseURIValue",
        "offset": 0,
        "slot": "9",
        "type": "t_string_storage"
      },
      {
        "astId": 2589,
        "contract": "contracts/CollectibleERC721A.sol:CollectibleERC721A",
        "label": "maxSupply",
        "offset": 0,
        "slot": "10",
        "type": "t_uint256"
      }
    ],
    "types": {
      "t_address": {
        "encoding": "inplace",
        "label": "address",
        "numberOfBytes": "20"
      },
      "t_bool": {
        "encoding": "inplace",
        "label": "bool",
        "numberOfBytes": "1"
      },
      "t_bytes32": {
        "encoding": "inplace",
        "label": "bytes32",
        "numberOfBytes": "32"
      },
      "t_mapping(t_address,t_bool)": {
        "encoding": "mapping",
        "key": "t_address",
        "label": "mapping(address => bool)",
        "numberOfBytes": "32",
        "value": "t_bool"
      },
      "t_mapping(t_address,t_mapping(t_address,t_bool))": {
        "encoding": "mapping",
        "key": "t_address",
        "label": "mapping(address => mapping(address => bool))",
        "numberOfBytes": "32",
        "value": "t_mapping(t_address,t_bool)"
      },
      "t_mapping(t_address,t_struct(AddressData)2882_storage)": {
        "encoding": "mapping",
        "key": "t_address",
        "label": "mapping(address => struct ERC721A.AddressData)",
        "numberOfBytes": "32",
        "value": "t_struct(AddressData)2882_storage"
      },
      "t_mapping(t_bytes32,t_struct(RoleData)19_storage)": {
        "encoding": "mapping",
        "key": "t_bytes32",
        "label": "mapping(bytes32 => struct AccessControl.RoleData)",
        "numberOfBytes": "32",
        "value": "t_struct(RoleData)19_storage"
      },
      "t_mapping(t_uint256,t_address)": {
        "encoding": "mapping",
        "key": "t_uint256",
        "label": "mapping(uint256 => address)",
        "numberOfBytes": "32",
        "value": "t_address"
      },
      "t_mapping(t_uint256,t_struct(TokenOwnership)2873_storage)": {
        "encoding": "mapping",
        "key": "t_uint256",
        "label": "mapping(uint256 => struct ERC721A.TokenOwnership)",
        "numberOfBytes": "32",
        "value": "t_struct(TokenOwnership)2873_storage"
      },
      "t_string_storage": {
        "encoding": "bytes",
        "label": "string",
        "numberOfBytes": "32"
      },
      "t_struct(AddressData)2882_storage": {
        "encoding": "inplace",
        "label": "struct ERC721A.AddressData",
        "members": [
          {
            "astId": 2875,
            "contract": "contracts/CollectibleERC721A.sol:CollectibleERC721A",
            "label": "balance",
            "offset": 0,
            "slot": "0",
            "type": "t_uint64"
          },
          {
            "astId": 2877,
            "contract": "contracts/CollectibleERC721A.sol:CollectibleERC721A",
            "label": "numberMinted",
            "offset": 8,
            "slot": "0",
            "type": "t_uint64"
          },
          {
            "astId": 2879,
            "contract": "contracts/CollectibleERC721A.sol:CollectibleERC721A",
            "label": "numberBurned",
            "offset": 16,
            "slot": "0",
            "type": "t_uint64"
          },
          {
            "astId": 2881,
            "contract": "contracts/CollectibleERC721A.sol:CollectibleERC721A",
            "label": "aux",
            "offset": 24,
            "slot": "0",
            "type": "t_uint64"
          }
        ],
        "numberOfBytes": "32"
      },
      "t_struct(RoleData)19_storage": {
        "encoding": "inplace",
        "label": "struct AccessControl.RoleData",
        "members": [
          {
            "astId": 16,
            "contract": "contracts/CollectibleERC721A.sol:CollectibleERC721A",
            "label": "members",
            "offset": 0,
            "slot": "0",
            "type": "t_mapping(t_address,t_bool)"
          },
          {
            "astId": 18,
            "contract": "contracts/CollectibleERC721A.sol:CollectibleERC721A",
            "label": "adminRole",
            "offset": 0,
            "slot": "1",
            "type": "t_bytes32"
          }
        ],
        "numberOfBytes": "64"
      },
      "t_struct(TokenOwnership)2873_storage": {
        "encoding": "inplace",
        "label": "struct ERC721A.TokenOwnership",
        "members": [
          {
            "astId": 2868,
            "contract": "contracts/CollectibleERC721A.sol:CollectibleERC721A",
            "label": "addr",
            "offset": 0,
            "slot": "0",
            "type": "t_address"
          },
          {
            "astId": 2870,
            "contract": "contracts/CollectibleERC721A.sol:CollectibleERC721A",
            "label": "startTimestamp",
            "offset": 20,
            "slot": "0",
            "type": "t_uint64"
          },
          {
            "astId": 2872,
            "contract": "contracts/CollectibleERC721A.sol:CollectibleERC721A",
            "label": "burned",
            "offset": 28,
            "slot": "0",
            "type": "t_bool"
          }
        ],
        "numberOfBytes": "32"
      },
      "t_uint256": {
        "encoding": "inplace",
        "label": "uint256",
        "numberOfBytes": "32"
      },
      "t_uint64": {
        "encoding": "inplace",
        "label": "uint64",
        "numberOfBytes": "8"
      }
    }
  }
}