{
  "address": "0x823075a6445CBCeE752732065b6Db21DF9CaA34f",
  "abi": [
    {
      "inputs": [
        {
          "internalType": "string",
          "name": "baseURI",
          "type": "string"
        }
      ],
      "stateMutability": "nonpayable",
      "type": "constructor"
    },
    {
      "inputs": [],
      "name": "ApprovalCallerNotOwnerNorApproved",
      "type": "error"
    },
    {
      "inputs": [],
      "name": "ApprovalQueryForNonexistentToken",
      "type": "error"
    },
    {
      "inputs": [],
      "name": "ApprovalToCurrentOwner",
      "type": "error"
    },
    {
      "inputs": [],
      "name": "ApproveToCaller",
      "type": "error"
    },
    {
      "inputs": [],
      "name": "BalanceQueryForZeroAddress",
      "type": "error"
    },
    {
      "inputs": [],
      "name": "MintToZeroAddress",
      "type": "error"
    },
    {
      "inputs": [],
      "name": "MintZeroQuantity",
      "type": "error"
    },
    {
      "inputs": [],
      "name": "OwnerQueryForNonexistentToken",
      "type": "error"
    },
    {
      "inputs": [],
      "name": "TransferCallerNotOwnerNorApproved",
      "type": "error"
    },
    {
      "inputs": [],
      "name": "TransferFromIncorrectOwner",
      "type": "error"
    },
    {
      "inputs": [],
      "name": "TransferToNonERC721ReceiverImplementer",
      "type": "error"
    },
    {
      "inputs": [],
      "name": "TransferToZeroAddress",
      "type": "error"
    },
    {
      "inputs": [],
      "name": "URIQueryForNonexistentToken",
      "type": "error"
    },
    {
      "anonymous": false,
      "inputs": [
        {
          "indexed": true,
          "internalType": "address",
          "name": "owner",
          "type": "address"
        },
        {
          "indexed": true,
          "internalType": "address",
          "name": "approved",
          "type": "address"
        },
        {
          "indexed": true,
          "internalType": "uint256",
          "name": "tokenId",
          "type": "uint256"
        }
      ],
      "name": "Approval",
      "type": "event"
    },
    {
      "anonymous": false,
      "inputs": [
        {
          "indexed": true,
          "internalType": "address",
          "name": "owner",
          "type": "address"
        },
        {
          "indexed": true,
          "internalType": "address",
          "name": "operator",
          "type": "address"
        },
        {
          "indexed": false,
          "internalType": "bool",
          "name": "approved",
          "type": "bool"
        }
      ],
      "name": "ApprovalForAll",
      "type": "event"
    },
    {
      "anonymous": false,
      "inputs": [
        {
          "indexed": true,
          "internalType": "address",
          "name": "from",
          "type": "address"
        },
        {
          "indexed": true,
          "internalType": "address",
          "name": "to",
          "type": "address"
        },
        {
          "indexed": true,
          "internalType": "uint256",
          "name": "tokenId",
          "type": "uint256"
        }
      ],
      "name": "Transfer",
      "type": "event"
    },
    {
      "inputs": [],
      "name": "MAX_SUPPLY",
      "outputs": [
        {
          "internalType": "uint256",
          "name": "",
          "type": "uint256"
        }
      ],
      "stateMutability": "view",
      "type": "function"
    },
    {
      "inputs": [],
      "name": "MAX_TOKENS_PER_ADDRESS",
      "outputs": [
        {
          "internalType": "uint256",
          "name": "",
          "type": "uint256"
        }
      ],
      "stateMutability": "view",
      "type": "function"
    },
    {
      "inputs": [],
      "name": "TOKEN_PRICE",
      "outputs": [
        {
          "internalType": "uint256",
          "name": "",
          "type": "uint256"
        }
      ],
      "stateMutability": "view",
      "type": "function"
    },
    {
      "inputs": [
        {
          "internalType": "address",
          "name": "to",
          "type": "address"
        },
        {
          "internalType": "uint256",
          "name": "tokenId",
          "type": "uint256"
        }
      ],
      "name": "approve",
      "outputs": [],
      "stateMutability": "nonpayable",
      "type": "function"
    },
    {
      "inputs": [
        {
          "internalType": "address",
          "name": "owner",
          "type": "address"
        }
      ],
      "name": "balanceOf",
      "outputs": [
        {
          "internalType": "uint256",
          "name": "",
          "type": "uint256"
        }
      ],
      "stateMutability": "view",
      "type": "function"
    },
    {
      "inputs": [
        {
          "internalType": "uint256",
          "name": "tokenId",
          "type": "uint256"
        }
      ],
      "name": "getApproved",
      "outputs": [
        {
          "internalType": "address",
          "name": "",
          "type": "address"
        }
      ],
      "stateMutability": "view",
      "type": "function"
    },
    {
      "inputs": [
        {
          "internalType": "address",
          "name": "owner",
          "type": "address"
        },
        {
          "internalType": "address",
          "name": "operator",
          "type": "address"
        }
      ],
      "name": "isApprovedForAll",
      "outputs": [
        {
          "internalType": "bool",
          "name": "",
          "type": "bool"
        }
      ],
      "stateMutability": "view",
      "type": "function"
    },
    {
      "inputs": [
        {
          "internalType": "bytes32",
          "name": "hash",
          "type": "bytes32"
        },
        {
          "internalType": "bytes",
          "name": "signature",
          "type": "bytes"
        },
        {
          "internalType": "string",
          "name": "nonce",
          "type": "string"
        },
        {
          "internalType": "uint256",
          "name": "quantity",
          "type": "uint256"
        }
      ],
      "name": "mint",
      "outputs": [],
      "stateMutability": "payable",
      "type": "function"
    },
    {
      "inputs": [],
      "name": "name",
      "outputs": [
        {
          "internalType": "string",
          "name": "",
          "type": "string"
        }
      ],
      "stateMutability": "view",
      "type": "function"
    },
    {
      "inputs": [
        {
          "internalType": "uint256",
          "name": "tokenId",
          "type": "uint256"
        }
      ],
      "name": "ownerOf",
      "outputs": [
        {
          "internalType": "address",
          "name": "",
          "type": "address"
        }
      ],
      "stateMutability": "view",
      "type": "function"
    },
    {
      "inputs": [
        {
          "internalType": "address",
          "name": "from",
          "type": "address"
        },
        {
          "internalType": "address",
          "name": "to",
          "type": "address"
        },
        {
          "internalType": "uint256",
          "name": "tokenId",
          "type": "uint256"
        }
      ],
      "name": "safeTransferFrom",
      "outputs": [],
      "stateMutability": "nonpayable",
      "type": "function"
    },
    {
      "inputs": [
        {
          "internalType": "address",
          "name": "from",
          "type": "address"
        },
        {
          "internalType": "address",
          "name": "to",
          "type": "address"
        },
        {
          "internalType": "uint256",
          "name": "tokenId",
          "type": "uint256"
        },
        {
          "internalType": "bytes",
          "name": "_data",
          "type": "bytes"
        }
      ],
      "name": "safeTransferFrom",
      "outputs": [],
      "stateMutability": "nonpayable",
      "type": "function"
    },
    {
      "inputs": [
        {
          "internalType": "address",
          "name": "operator",
          "type": "address"
        },
        {
          "internalType": "bool",
          "name": "approved",
          "type": "bool"
        }
      ],
      "name": "setApprovalForAll",
      "outputs": [],
      "stateMutability": "nonpayable",
      "type": "function"
    },
    {
      "inputs": [
        {
          "internalType": "string",
          "name": "baseURI",
          "type": "string"
        }
      ],
      "name": "setBaseURI",
      "outputs": [],
      "stateMutability": "nonpayable",
      "type": "function"
    },
    {
      "inputs": [
        {
          "internalType": "bytes4",
          "name": "interfaceId",
          "type": "bytes4"
        }
      ],
      "name": "supportsInterface",
      "outputs": [
        {
          "internalType": "bool",
          "name": "",
          "type": "bool"
        }
      ],
      "stateMutability": "view",
      "type": "function"
    },
    {
      "inputs": [],
      "name": "symbol",
      "outputs": [
        {
          "internalType": "string",
          "name": "",
          "type": "string"
        }
      ],
      "stateMutability": "view",
      "type": "function"
    },
    {
      "inputs": [
        {
          "internalType": "uint256",
          "name": "tokenId",
          "type": "uint256"
        }
      ],
      "name": "tokenURI",
      "outputs": [
        {
          "internalType": "string",
          "name": "",
          "type": "string"
        }
      ],
      "stateMutability": "view",
      "type": "function"
    },
    {
      "inputs": [],
      "name": "totalSupply",
      "outputs": [
        {
          "internalType": "uint256",
          "name": "",
          "type": "uint256"
        }
      ],
      "stateMutability": "view",
      "type": "function"
    },
    {
      "inputs": [
        {
          "internalType": "address",
          "name": "from",
          "type": "address"
        },
        {
          "internalType": "address",
          "name": "to",
          "type": "address"
        },
        {
          "internalType": "uint256",
          "name": "tokenId",
          "type": "uint256"
        }
      ],
      "name": "transferFrom",
      "outputs": [],
      "stateMutability": "nonpayable",
      "type": "function"
    }
  ],
  "transactionHash": "0x32af1dfe34c7c1d242e509d81fd33ceafc1f2d168f526e724052a15976bce845",
  "args": [
    "ipfs://bafybeiexk35logx4qjqpvkvoi5q7zji34ulh42gb4wxwmmh5ofxr2fwsre/"
  ],
  "numDeployments": 1,
  "solcInputHash": "43f6d67873d250d956dc345d0155bba2",
  "bytecode": "0x60806040523480156200001157600080fd5b5060405162003ce238038062003ce2833981810160405281019062000037919062000234565b6040518060400160405280600881526020017f4f70656e204172740000000000000000000000000000000000000000000000008152506040518060400160405280600581526020017f4f504152540000000000000000000000000000000000000000000000000000008152508160029080519060200190620000bb92919062000112565b508060039080519060200190620000d492919062000112565b50620000e56200010d60201b60201c565b600081905550505080600890805190602001906200010592919062000112565b5050620003e9565b600090565b82805462000120906200030e565b90600052602060002090601f01602090048101928262000144576000855562000190565b82601f106200015f57805160ff191683800117855562000190565b8280016001018555821562000190579182015b828111156200018f57825182559160200191906001019062000172565b5b5090506200019f9190620001a3565b5090565b5b80821115620001be576000816000905550600101620001a4565b5090565b6000620001d9620001d384620002a2565b62000279565b905082815260208101848484011115620001f257600080fd5b620001ff848285620002d8565b509392505050565b600082601f8301126200021957600080fd5b81516200022b848260208601620001c2565b91505092915050565b6000602082840312156200024757600080fd5b600082015167ffffffffffffffff8111156200026257600080fd5b620002708482850162000207565b91505092915050565b60006200028562000298565b905062000293828262000344565b919050565b6000604051905090565b600067ffffffffffffffff821115620002c057620002bf620003a9565b5b620002cb82620003d8565b9050602081019050919050565b60005b83811015620002f8578082015181840152602081019050620002db565b8381111562000308576000848401525b50505050565b600060028204905060018216806200032757607f821691505b602082108114156200033e576200033d6200037a565b5b50919050565b6200034f82620003d8565b810181811067ffffffffffffffff82111715620003715762000370620003a9565b5b80604052505050565b7f4e487b7100000000000000000000000000000000000000000000000000000000600052602260045260246000fd5b7f4e487b7100000000000000000000000000000000000000000000000000000000600052604160045260246000fd5b6000601f19601f8301169050919050565b6138e980620003f96000396000f3fe6080604052600436106101145760003560e01c806355f804b3116100a0578063a22cb46511610064578063a22cb465146103a4578063b88d4fde146103cd578063c87b56dd146103f6578063d2d8cb6714610433578063e985e9c51461045e57610114565b806355f804b3146102ab5780636352211e146102d4578063654073581461031157806370a082311461033c57806395d89b411461037957610114565b806318160ddd116100e757806318160ddd146101e75780631a2bf8c41461021257806323b872dd1461022e57806332cb6b0c1461025757806342842e0e1461028257610114565b806301ffc9a71461011957806306fdde0314610156578063081812fc14610181578063095ea7b3146101be575b600080fd5b34801561012557600080fd5b50610140600480360381019061013b9190612b22565b61049b565b60405161014d9190612f93565b60405180910390f35b34801561016257600080fd5b5061016b6104ad565b6040516101789190612ff3565b60405180910390f35b34801561018d57600080fd5b506101a860048036038101906101a39190612bb5565b61053f565b6040516101b59190612f2c565b60405180910390f35b3480156101ca57600080fd5b506101e560048036038101906101e09190612a53565b6105bb565b005b3480156101f357600080fd5b506101fc6106c6565b6040516102099190613155565b60405180910390f35b61022c60048036038101906102279190612a8f565b6106dd565b005b34801561023a57600080fd5b506102556004803603810190610250919061294d565b6109eb565b005b34801561026357600080fd5b5061026c6109fb565b6040516102799190613155565b60405180910390f35b34801561028e57600080fd5b506102a960048036038101906102a4919061294d565b610a00565b005b3480156102b757600080fd5b506102d260048036038101906102cd9190612b74565b610a20565b005b3480156102e057600080fd5b506102fb60048036038101906102f69190612bb5565b610a3a565b6040516103089190612f2c565b60405180910390f35b34801561031d57600080fd5b50610326610a50565b6040516103339190613155565b60405180910390f35b34801561034857600080fd5b50610363600480360381019061035e91906128e8565b610a55565b6040516103709190613155565b60405180910390f35b34801561038557600080fd5b5061038e610b25565b60405161039b9190612ff3565b60405180910390f35b3480156103b057600080fd5b506103cb60048036038101906103c69190612a17565b610bb7565b005b3480156103d957600080fd5b506103f460048036038101906103ef919061299c565b610d2f565b005b34801561040257600080fd5b5061041d60048036038101906104189190612bb5565b610dab565b60405161042a9190612ff3565b60405180910390f35b34801561043f57600080fd5b50610448610e4a565b6040516104559190613155565b60405180910390f35b34801561046a57600080fd5b5061048560048036038101906104809190612911565b610e54565b6040516104929190612f93565b60405180910390f35b60006104a682610ee8565b9050919050565b6060600280546104bc9061341c565b80601f01602080910402602001604051908101604052809291908181526020018280546104e89061341c565b80156105355780601f1061050a57610100808354040283529160200191610535565b820191906000526020600020905b81548152906001019060200180831161051857829003601f168201915b5050505050905090565b600061054a82610fca565b610580576040517fcf4700e400000000000000000000000000000000000000000000000000000000815260040160405180910390fd5b6006600083815260200190815260200160002060009054906101000a900473ffffffffffffffffffffffffffffffffffffffff169050919050565b60006105c682610a3a565b90508073ffffffffffffffffffffffffffffffffffffffff168373ffffffffffffffffffffffffffffffffffffffff16141561062e576040517f943f7b8c00000000000000000000000000000000000000000000000000000000815260040160405180910390fd5b8073ffffffffffffffffffffffffffffffffffffffff1661064d611018565b73ffffffffffffffffffffffffffffffffffffffff161415801561067f575061067d81610678611018565b610e54565b155b156106b6576040517fcfb3b94200000000000000000000000000000000000000000000000000000000815260040160405180910390fd5b6106c1838383611020565b505050565b60006106d06110d2565b6001546000540303905090565b6019816106e86106c6565b6106f2919061323a565b1115610733576040517f08c379a000000000000000000000000000000000000000000000000000000000815260040161072a906130f5565b60405180910390fd5b600281600a60003373ffffffffffffffffffffffffffffffffffffffff1673ffffffffffffffffffffffffffffffffffffffff16815260200190815260200160002054610780919061323a565b11156107c1576040517f08c379a00000000000000000000000000000000000000000000000000000000081526004016107b8906130d5565b60405180910390fd5b806512309ce540006107d391906132c1565b341015610815576040517f08c379a000000000000000000000000000000000000000000000000000000000815260040161080c90613055565b60405180910390fd5b836108213383856110d7565b14610861576040517f08c379a000000000000000000000000000000000000000000000000000000000815260040161085890613035565b60405180910390fd5b6009826040516108719190612ecb565b908152602001604051809103902060009054906101000a900460ff16156108cd576040517f08c379a00000000000000000000000000000000000000000000000000000000081526004016108c490613135565b60405180910390fd5b6108d78484611138565b610916576040517f08c379a000000000000000000000000000000000000000000000000000000000815260040161090d90613095565b60405180910390fd5b6109203382611197565b80600a60003373ffffffffffffffffffffffffffffffffffffffff1673ffffffffffffffffffffffffffffffffffffffff1681526020019081526020016000205461096b919061323a565b600a60003373ffffffffffffffffffffffffffffffffffffffff1673ffffffffffffffffffffffffffffffffffffffff1681526020019081526020016000208190555060016009836040516109c09190612ecb565b908152602001604051809103902060006101000a81548160ff02191690831515021790555050505050565b6109f68383836111b5565b505050565b601981565b610a1b83838360405180602001604052806000815250610d2f565b505050565b8060089080519060200190610a369291906126b4565b5050565b6000610a45826116a6565b600001519050919050565b600281565b60008073ffffffffffffffffffffffffffffffffffffffff168273ffffffffffffffffffffffffffffffffffffffff161415610abd576040517f8f4eb60400000000000000000000000000000000000000000000000000000000815260040160405180910390fd5b600560008373ffffffffffffffffffffffffffffffffffffffff1673ffffffffffffffffffffffffffffffffffffffff16815260200190815260200160002060000160009054906101000a900467ffffffffffffffff1667ffffffffffffffff169050919050565b606060038054610b349061341c565b80601f0160208091040260200160405190810160405280929190818152602001828054610b609061341c565b8015610bad5780601f10610b8257610100808354040283529160200191610bad565b820191906000526020600020905b815481529060010190602001808311610b9057829003601f168201915b5050505050905090565b610bbf611018565b73ffffffffffffffffffffffffffffffffffffffff168273ffffffffffffffffffffffffffffffffffffffff161415610c24576040517fb06307db00000000000000000000000000000000000000000000000000000000815260040160405180910390fd5b8060076000610c31611018565b73ffffffffffffffffffffffffffffffffffffffff1673ffffffffffffffffffffffffffffffffffffffff16815260200190815260200160002060008473ffffffffffffffffffffffffffffffffffffffff1673ffffffffffffffffffffffffffffffffffffffff16815260200190815260200160002060006101000a81548160ff0219169083151502179055508173ffffffffffffffffffffffffffffffffffffffff16610cde611018565b73ffffffffffffffffffffffffffffffffffffffff167f17307eab39ab6107e8899845ad3d59bd9653f200f220920489ca2b5937696c3183604051610d239190612f93565b60405180910390a35050565b610d3a8484846111b5565b610d598373ffffffffffffffffffffffffffffffffffffffff16611935565b8015610d6e5750610d6c84848484611958565b155b15610da5576040517fd1a57ed600000000000000000000000000000000000000000000000000000000815260040160405180910390fd5b50505050565b6060610db682610fca565b610dec576040517fa14c4b5000000000000000000000000000000000000000000000000000000000815260040160405180910390fd5b6000610df6611ab8565b9050600081511415610e175760405180602001604052806000815250610e42565b80610e2184611b4a565b604051602001610e32929190612ee2565b6040516020818303038152906040525b915050919050565b6512309ce5400081565b6000600760008473ffffffffffffffffffffffffffffffffffffffff1673ffffffffffffffffffffffffffffffffffffffff16815260200190815260200160002060008373ffffffffffffffffffffffffffffffffffffffff1673ffffffffffffffffffffffffffffffffffffffff16815260200190815260200160002060009054906101000a900460ff16905092915050565b60007f80ac58cd000000000000000000000000000000000000000000000000000000007bffffffffffffffffffffffffffffffffffffffffffffffffffffffff1916827bffffffffffffffffffffffffffffffffffffffffffffffffffffffff19161480610fb357507f5b5e139f000000000000000000000000000000000000000000000000000000007bffffffffffffffffffffffffffffffffffffffffffffffffffffffff1916827bffffffffffffffffffffffffffffffffffffffffffffffffffffffff1916145b80610fc35750610fc282611cf7565b5b9050919050565b600081610fd56110d2565b11158015610fe4575060005482105b8015611011575060046000838152602001908152602001600020600001601c9054906101000a900460ff16155b9050919050565b600033905090565b826006600084815260200190815260200160002060006101000a81548173ffffffffffffffffffffffffffffffffffffffff021916908373ffffffffffffffffffffffffffffffffffffffff160217905550818373ffffffffffffffffffffffffffffffffffffffff168273ffffffffffffffffffffffffffffffffffffffff167f8c5be1e5ebec7d5bd14f71427d1e84f3dd0314c0f7b2291e5b200ac8c7c3b92560405160405180910390a4505050565b600090565b6000808484846040516020016110ef93929190612e92565b604051602081830303815290604052805190602001206040516020016111159190612f06565b604051602081830303815290604052805190602001209050809150509392505050565b600061114d8284611d6190919063ffffffff16565b73ffffffffffffffffffffffffffffffffffffffff1673b10eff9454bd358fbfdb1af033a20768e9247cb673ffffffffffffffffffffffffffffffffffffffff1614905092915050565b6111b1828260405180602001604052806000815250611d88565b5050565b60006111c0826116a6565b90506000816000015173ffffffffffffffffffffffffffffffffffffffff166111e7611018565b73ffffffffffffffffffffffffffffffffffffffff16148061121a57506112198260000151611214611018565b610e54565b5b8061125f5750611228611018565b73ffffffffffffffffffffffffffffffffffffffff166112478461053f565b73ffffffffffffffffffffffffffffffffffffffff16145b905080611298576040517f59c896be00000000000000000000000000000000000000000000000000000000815260040160405180910390fd5b8473ffffffffffffffffffffffffffffffffffffffff16826000015173ffffffffffffffffffffffffffffffffffffffff1614611301576040517fa114810000000000000000000000000000000000000000000000000000000000815260040160405180910390fd5b600073ffffffffffffffffffffffffffffffffffffffff168473ffffffffffffffffffffffffffffffffffffffff161415611368576040517fea553b3400000000000000000000000000000000000000000000000000000000815260040160405180910390fd5b6113758585856001611d9a565b6113856000848460000151611020565b6001600560008773ffffffffffffffffffffffffffffffffffffffff1673ffffffffffffffffffffffffffffffffffffffff16815260200190815260200160002060000160008282829054906101000a900467ffffffffffffffff160392506101000a81548167ffffffffffffffff021916908367ffffffffffffffff1602179055506001600560008673ffffffffffffffffffffffffffffffffffffffff1673ffffffffffffffffffffffffffffffffffffffff16815260200190815260200160002060000160008282829054906101000a900467ffffffffffffffff160192506101000a81548167ffffffffffffffff021916908367ffffffffffffffff160217905550836004600085815260200190815260200160002060000160006101000a81548173ffffffffffffffffffffffffffffffffffffffff021916908373ffffffffffffffffffffffffffffffffffffffff160217905550426004600085815260200190815260200160002060000160146101000a81548167ffffffffffffffff021916908367ffffffffffffffff1602179055506000600184019050600073ffffffffffffffffffffffffffffffffffffffff166004600083815260200190815260200160002060000160009054906101000a900473ffffffffffffffffffffffffffffffffffffffff1673ffffffffffffffffffffffffffffffffffffffff161415611636576000548110156116355782600001516004600083815260200190815260200160002060000160006101000a81548173ffffffffffffffffffffffffffffffffffffffff021916908373ffffffffffffffffffffffffffffffffffffffff16021790555082602001516004600083815260200190815260200160002060000160146101000a81548167ffffffffffffffff021916908367ffffffffffffffff1602179055505b5b50828473ffffffffffffffffffffffffffffffffffffffff168673ffffffffffffffffffffffffffffffffffffffff167fddf252ad1be2c89b69c2b068fc378daa952ba7f163c4a11628f55a4df523b3ef60405160405180910390a461169f8585856001611da0565b5050505050565b6116ae61273a565b6000829050806116bc6110d2565b111580156116cb575060005481105b156118fe576000600460008381526020019081526020016000206040518060600160405290816000820160009054906101000a900473ffffffffffffffffffffffffffffffffffffffff1673ffffffffffffffffffffffffffffffffffffffff1673ffffffffffffffffffffffffffffffffffffffff1681526020016000820160149054906101000a900467ffffffffffffffff1667ffffffffffffffff1667ffffffffffffffff16815260200160008201601c9054906101000a900460ff161515151581525050905080604001516118fc57600073ffffffffffffffffffffffffffffffffffffffff16816000015173ffffffffffffffffffffffffffffffffffffffff16146117e0578092505050611930565b5b6001156118fb57818060019003925050600460008381526020019081526020016000206040518060600160405290816000820160009054906101000a900473ffffffffffffffffffffffffffffffffffffffff1673ffffffffffffffffffffffffffffffffffffffff1673ffffffffffffffffffffffffffffffffffffffff1681526020016000820160149054906101000a900467ffffffffffffffff1667ffffffffffffffff1667ffffffffffffffff16815260200160008201601c9054906101000a900460ff1615151515815250509050600073ffffffffffffffffffffffffffffffffffffffff16816000015173ffffffffffffffffffffffffffffffffffffffff16146118f6578092505050611930565b6117e1565b5b505b6040517fdf2d9b4200000000000000000000000000000000000000000000000000000000815260040160405180910390fd5b919050565b6000808273ffffffffffffffffffffffffffffffffffffffff163b119050919050565b60008373ffffffffffffffffffffffffffffffffffffffff1663150b7a0261197e611018565b8786866040518563ffffffff1660e01b81526004016119a09493929190612f47565b602060405180830381600087803b1580156119ba57600080fd5b505af19250505080156119eb57506040513d601f19601f820116820180604052508101906119e89190612b4b565b60015b611a65573d8060008114611a1b576040519150601f19603f3d011682016040523d82523d6000602084013e611a20565b606091505b50600081511415611a5d576040517fd1a57ed600000000000000000000000000000000000000000000000000000000815260040160405180910390fd5b805181602001fd5b63150b7a0260e01b7bffffffffffffffffffffffffffffffffffffffffffffffffffffffff1916817bffffffffffffffffffffffffffffffffffffffffffffffffffffffff191614915050949350505050565b606060088054611ac79061341c565b80601f0160208091040260200160405190810160405280929190818152602001828054611af39061341c565b8015611b405780601f10611b1557610100808354040283529160200191611b40565b820191906000526020600020905b815481529060010190602001808311611b2357829003601f168201915b5050505050905090565b60606000821415611b92576040518060400160405280600181526020017f30000000000000000000000000000000000000000000000000000000000000008152509050611cf2565b600082905060005b60008214611bc4578080611bad9061347f565b915050600a82611bbd9190613290565b9150611b9a565b60008167ffffffffffffffff811115611c06577f4e487b7100000000000000000000000000000000000000000000000000000000600052604160045260246000fd5b6040519080825280601f01601f191660200182016040528015611c385781602001600182028036833780820191505090505b5090505b60008514611ceb57600182611c51919061331b565b9150600a85611c609190613500565b6030611c6c919061323a565b60f81b818381518110611ca8577f4e487b7100000000000000000000000000000000000000000000000000000000600052603260045260246000fd5b60200101907effffffffffffffffffffffffffffffffffffffffffffffffffffffffffffff1916908160001a905350600a85611ce49190613290565b9450611c3c565b8093505050505b919050565b60007f01ffc9a7000000000000000000000000000000000000000000000000000000007bffffffffffffffffffffffffffffffffffffffffffffffffffffffff1916827bffffffffffffffffffffffffffffffffffffffffffffffffffffffff1916149050919050565b6000806000611d708585611da6565b91509150611d7d81611e29565b819250505092915050565b611d95838383600161217a565b505050565b50505050565b50505050565b600080604183511415611de85760008060006020860151925060408601519150606086015160001a9050611ddc87828585612548565b94509450505050611e22565b604083511415611e19576000806020850151915060408501519050611e0e868383612655565b935093505050611e22565b60006002915091505b9250929050565b60006004811115611e63577f4e487b7100000000000000000000000000000000000000000000000000000000600052602160045260246000fd5b816004811115611e9c577f4e487b7100000000000000000000000000000000000000000000000000000000600052602160045260246000fd5b1415611ea757612177565b60016004811115611ee1577f4e487b7100000000000000000000000000000000000000000000000000000000600052602160045260246000fd5b816004811115611f1a577f4e487b7100000000000000000000000000000000000000000000000000000000600052602160045260246000fd5b1415611f5b576040517f08c379a0000000000000000000000000000000000000000000000000000000008152600401611f5290613015565b60405180910390fd5b60026004811115611f95577f4e487b7100000000000000000000000000000000000000000000000000000000600052602160045260246000fd5b816004811115611fce577f4e487b7100000000000000000000000000000000000000000000000000000000600052602160045260246000fd5b141561200f576040517f08c379a000000000000000000000000000000000000000000000000000000000815260040161200690613075565b60405180910390fd5b60036004811115612049577f4e487b7100000000000000000000000000000000000000000000000000000000600052602160045260246000fd5b816004811115612082577f4e487b7100000000000000000000000000000000000000000000000000000000600052602160045260246000fd5b14156120c3576040517f08c379a00000000000000000000000000000000000000000000000000000000081526004016120ba906130b5565b60405180910390fd5b6004808111156120fc577f4e487b7100000000000000000000000000000000000000000000000000000000600052602160045260246000fd5b816004811115612135577f4e487b7100000000000000000000000000000000000000000000000000000000600052602160045260246000fd5b1415612176576040517f08c379a000000000000000000000000000000000000000000000000000000000815260040161216d90613115565b60405180910390fd5b5b50565b600080549050600073ffffffffffffffffffffffffffffffffffffffff168573ffffffffffffffffffffffffffffffffffffffff1614156121e7576040517f2e07630000000000000000000000000000000000000000000000000000000000815260040160405180910390fd5b6000841415612222576040517fb562e8dd00000000000000000000000000000000000000000000000000000000815260040160405180910390fd5b61222f6000868387611d9a565b83600560008773ffffffffffffffffffffffffffffffffffffffff1673ffffffffffffffffffffffffffffffffffffffff16815260200190815260200160002060000160008282829054906101000a900467ffffffffffffffff160192506101000a81548167ffffffffffffffff021916908367ffffffffffffffff16021790555083600560008773ffffffffffffffffffffffffffffffffffffffff1673ffffffffffffffffffffffffffffffffffffffff16815260200190815260200160002060000160088282829054906101000a900467ffffffffffffffff160192506101000a81548167ffffffffffffffff021916908367ffffffffffffffff160217905550846004600083815260200190815260200160002060000160006101000a81548173ffffffffffffffffffffffffffffffffffffffff021916908373ffffffffffffffffffffffffffffffffffffffff160217905550426004600083815260200190815260200160002060000160146101000a81548167ffffffffffffffff021916908367ffffffffffffffff1602179055506000819050600085820190508380156123f957506123f88773ffffffffffffffffffffffffffffffffffffffff16611935565b5b156124bf575b818773ffffffffffffffffffffffffffffffffffffffff16600073ffffffffffffffffffffffffffffffffffffffff167fddf252ad1be2c89b69c2b068fc378daa952ba7f163c4a11628f55a4df523b3ef60405160405180910390a461246e6000888480600101955088611958565b6124a4576040517fd1a57ed600000000000000000000000000000000000000000000000000000000815260040160405180910390fd5b808214156123ff5782600054146124ba57600080fd5b61252b565b5b818060010192508773ffffffffffffffffffffffffffffffffffffffff16600073ffffffffffffffffffffffffffffffffffffffff167fddf252ad1be2c89b69c2b068fc378daa952ba7f163c4a11628f55a4df523b3ef60405160405180910390a4808214156124c0575b8160008190555050506125416000868387611da0565b5050505050565b6000807f7fffffffffffffffffffffffffffffff5d576e7357a4501ddfe92f46681b20a08360001c111561258357600060039150915061264c565b601b8560ff161415801561259b5750601c8560ff1614155b156125ad57600060049150915061264c565b6000600187878787604051600081526020016040526040516125d29493929190612fae565b6020604051602081039080840390855afa1580156125f4573d6000803e3d6000fd5b505050602060405103519050600073ffffffffffffffffffffffffffffffffffffffff168173ffffffffffffffffffffffffffffffffffffffff1614156126435760006001925092505061264c565b80600092509250505b94509492505050565b60008060007f7fffffffffffffffffffffffffffffffffffffffffffffffffffffffffffffff60001b841690506000601b60ff8660001c901c612698919061323a565b90506126a687828885612548565b935093505050935093915050565b8280546126c09061341c565b90600052602060002090601f0160209004810192826126e25760008555612729565b82601f106126fb57805160ff1916838001178555612729565b82800160010185558215612729579182015b8281111561272857825182559160200191906001019061270d565b5b509050612736919061277d565b5090565b6040518060600160405280600073ffffffffffffffffffffffffffffffffffffffff168152602001600067ffffffffffffffff1681526020016000151581525090565b5b8082111561279657600081600090555060010161277e565b5090565b60006127ad6127a884613195565b613170565b9050828152602081018484840111156127c557600080fd5b6127d08482856133da565b509392505050565b60006127eb6127e6846131c6565b613170565b90508281526020810184848401111561280357600080fd5b61280e8482856133da565b509392505050565b60008135905061282581613840565b92915050565b60008135905061283a81613857565b92915050565b60008135905061284f8161386e565b92915050565b60008135905061286481613885565b92915050565b60008151905061287981613885565b92915050565b600082601f83011261289057600080fd5b81356128a084826020860161279a565b91505092915050565b600082601f8301126128ba57600080fd5b81356128ca8482602086016127d8565b91505092915050565b6000813590506128e28161389c565b92915050565b6000602082840312156128fa57600080fd5b600061290884828501612816565b91505092915050565b6000806040838503121561292457600080fd5b600061293285828601612816565b925050602061294385828601612816565b9150509250929050565b60008060006060848603121561296257600080fd5b600061297086828701612816565b935050602061298186828701612816565b9250506040612992868287016128d3565b9150509250925092565b600080600080608085870312156129b257600080fd5b60006129c087828801612816565b94505060206129d187828801612816565b93505060406129e2878288016128d3565b925050606085013567ffffffffffffffff8111156129ff57600080fd5b612a0b8782880161287f565b91505092959194509250565b60008060408385031215612a2a57600080fd5b6000612a3885828601612816565b9250506020612a498582860161282b565b9150509250929050565b60008060408385031215612a6657600080fd5b6000612a7485828601612816565b9250506020612a85858286016128d3565b9150509250929050565b60008060008060808587031215612aa557600080fd5b6000612ab387828801612840565b945050602085013567ffffffffffffffff811115612ad057600080fd5b612adc8782880161287f565b935050604085013567ffffffffffffffff811115612af957600080fd5b612b05878288016128a9565b9250506060612b16878288016128d3565b91505092959194509250565b600060208284031215612b3457600080fd5b6000612b4284828501612855565b91505092915050565b600060208284031215612b5d57600080fd5b6000612b6b8482850161286a565b91505092915050565b600060208284031215612b8657600080fd5b600082013567ffffffffffffffff811115612ba057600080fd5b612bac848285016128a9565b91505092915050565b600060208284031215612bc757600080fd5b6000612bd5848285016128d3565b91505092915050565b612be78161334f565b82525050565b612bfe612bf98261334f565b6134c8565b82525050565b612c0d81613361565b82525050565b612c1c8161336d565b82525050565b612c33612c2e8261336d565b6134da565b82525050565b6000612c44826131f7565b612c4e818561320d565b9350612c5e8185602086016133e9565b612c67816135ed565b840191505092915050565b6000612c7d82613202565b612c87818561321e565b9350612c978185602086016133e9565b612ca0816135ed565b840191505092915050565b6000612cb682613202565b612cc0818561322f565b9350612cd08185602086016133e9565b80840191505092915050565b6000612ce960188361321e565b9150612cf48261360b565b602082019050919050565b6000612d0c60168361321e565b9150612d1782613634565b602082019050919050565b6000612d2f60198361321e565b9150612d3a8261365d565b602082019050919050565b6000612d52601f8361321e565b9150612d5d82613686565b602082019050919050565b6000612d75601c8361322f565b9150612d80826136af565b601c82019050919050565b6000612d9860168361321e565b9150612da3826136d8565b602082019050919050565b6000612dbb60228361321e565b9150612dc682613701565b604082019050919050565b6000612dde60238361321e565b9150612de982613750565b604082019050919050565b6000612e0160208361321e565b9150612e0c8261379f565b602082019050919050565b6000612e2460228361321e565b9150612e2f826137c8565b604082019050919050565b6000612e4760118361321e565b9150612e5282613817565b602082019050919050565b612e66816133c3565b82525050565b612e7d612e78826133c3565b6134f6565b82525050565b612e8c816133cd565b82525050565b6000612e9e8286612bed565b601482019150612eae8285612e6c565b602082019150612ebe8284612cab565b9150819050949350505050565b6000612ed78284612cab565b915081905092915050565b6000612eee8285612cab565b9150612efa8284612cab565b91508190509392505050565b6000612f1182612d68565b9150612f1d8284612c22565b60208201915081905092915050565b6000602082019050612f416000830184612bde565b92915050565b6000608082019050612f5c6000830187612bde565b612f696020830186612bde565b612f766040830185612e5d565b8181036060830152612f888184612c39565b905095945050505050565b6000602082019050612fa86000830184612c04565b92915050565b6000608082019050612fc36000830187612c13565b612fd06020830186612e83565b612fdd6040830185612c13565b612fea6060830184612c13565b95945050505050565b6000602082019050818103600083015261300d8184612c72565b905092915050565b6000602082019050818103600083015261302e81612cdc565b9050919050565b6000602082019050818103600083015261304e81612cff565b9050919050565b6000602082019050818103600083015261306e81612d22565b9050919050565b6000602082019050818103600083015261308e81612d45565b9050919050565b600060208201905081810360008301526130ae81612d8b565b9050919050565b600060208201905081810360008301526130ce81612dae565b9050919050565b600060208201905081810360008301526130ee81612dd1565b9050919050565b6000602082019050818103600083015261310e81612df4565b9050919050565b6000602082019050818103600083015261312e81612e17565b9050919050565b6000602082019050818103600083015261314e81612e3a565b9050919050565b600060208201905061316a6000830184612e5d565b92915050565b600061317a61318b565b9050613186828261344e565b919050565b6000604051905090565b600067ffffffffffffffff8211156131b0576131af6135be565b5b6131b9826135ed565b9050602081019050919050565b600067ffffffffffffffff8211156131e1576131e06135be565b5b6131ea826135ed565b9050602081019050919050565b600081519050919050565b600081519050919050565b600082825260208201905092915050565b600082825260208201905092915050565b600081905092915050565b6000613245826133c3565b9150613250836133c3565b9250827fffffffffffffffffffffffffffffffffffffffffffffffffffffffffffffffff0382111561328557613284613531565b5b828201905092915050565b600061329b826133c3565b91506132a6836133c3565b9250826132b6576132b5613560565b5b828204905092915050565b60006132cc826133c3565b91506132d7836133c3565b9250817fffffffffffffffffffffffffffffffffffffffffffffffffffffffffffffffff04831182151516156133105761330f613531565b5b828202905092915050565b6000613326826133c3565b9150613331836133c3565b92508282101561334457613343613531565b5b828203905092915050565b600061335a826133a3565b9050919050565b60008115159050919050565b6000819050919050565b60007fffffffff0000000000000000000000000000000000000000000000000000000082169050919050565b600073ffffffffffffffffffffffffffffffffffffffff82169050919050565b6000819050919050565b600060ff82169050919050565b82818337600083830152505050565b60005b838110156134075780820151818401526020810190506133ec565b83811115613416576000848401525b50505050565b6000600282049050600182168061343457607f821691505b602082108114156134485761344761358f565b5b50919050565b613457826135ed565b810181811067ffffffffffffffff82111715613476576134756135be565b5b80604052505050565b600061348a826133c3565b91507fffffffffffffffffffffffffffffffffffffffffffffffffffffffffffffffff8214156134bd576134bc613531565b5b600182019050919050565b60006134d3826134e4565b9050919050565b6000819050919050565b60006134ef826135fe565b9050919050565b6000819050919050565b600061350b826133c3565b9150613516836133c3565b92508261352657613525613560565b5b828206905092915050565b7f4e487b7100000000000000000000000000000000000000000000000000000000600052601160045260246000fd5b7f4e487b7100000000000000000000000000000000000000000000000000000000600052601260045260246000fd5b7f4e487b7100000000000000000000000000000000000000000000000000000000600052602260045260246000fd5b7f4e487b7100000000000000000000000000000000000000000000000000000000600052604160045260246000fd5b6000601f19601f8301169050919050565b60008160601b9050919050565b7f45434453413a20696e76616c6964207369676e61747572650000000000000000600082015250565b7f4661696c65642076616c69646174696e67206861736800000000000000000000600082015250565b7f4e6f7420656e6f75676820657468207472616e73666572656400000000000000600082015250565b7f45434453413a20696e76616c6964207369676e6174757265206c656e67746800600082015250565b7f19457468657265756d205369676e6564204d6573736167653a0a333200000000600082015250565b7f446972656374206d696e7420646973616c6c6f77656400000000000000000000600082015250565b7f45434453413a20696e76616c6964207369676e6174757265202773272076616c60008201527f7565000000000000000000000000000000000000000000000000000000000000602082015250565b7f4d617820746f6b656e73207265616368656420666f722074686973206164647260008201527f6573730000000000000000000000000000000000000000000000000000000000602082015250565b7f507572636861736520776f756c6420657863656564206d617820737570706c79600082015250565b7f45434453413a20696e76616c6964207369676e6174757265202776272076616c60008201527f7565000000000000000000000000000000000000000000000000000000000000602082015250565b7f4861736820616c72656164792075736564000000000000000000000000000000600082015250565b6138498161334f565b811461385457600080fd5b50565b61386081613361565b811461386b57600080fd5b50565b6138778161336d565b811461388257600080fd5b50565b61388e81613377565b811461389957600080fd5b50565b6138a5816133c3565b81146138b057600080fd5b5056fea264697066735822122006dabf0880c5c0b601f397bce5e68f6e0f237c285188a6c58c5c5b4fca205c3064736f6c63430008040033",
  "devdoc": {
    "kind": "dev",
    "methods": {
      "approve(address,uint256)": {
        "details": "See {IERC721-approve}."
      },
      "balanceOf(address)": {
        "details": "See {IERC721-balanceOf}."
      },
      "getApproved(uint256)": {
        "details": "See {IERC721-getApproved}."
      },
      "isApprovedForAll(address,address)": {
        "details": "See {IERC721-isApprovedForAll}."
      },
      "name()": {
        "details": "See {IERC721Metadata-name}."
      },
      "ownerOf(uint256)": {
        "details": "See {IERC721-ownerOf}."
      },
      "safeTransferFrom(address,address,uint256)": {
        "details": "See {IERC721-safeTransferFrom}."
      },
      "safeTransferFrom(address,address,uint256,bytes)": {
        "details": "See {IERC721-safeTransferFrom}."
      },
      "setApprovalForAll(address,bool)": {
        "details": "See {IERC721-setApprovalForAll}."
      },
      "supportsInterface(bytes4)": {
        "details": "See {IERC165-supportsInterface}."
      },
      "symbol()": {
        "details": "See {IERC721Metadata-symbol}."
      },
      "tokenURI(uint256)": {
        "details": "See {IERC721Metadata-tokenURI}."
      },
      "totalSupply()": {
        "details": "See {IERC721Enumerable-totalSupply}.Burned tokens are calculated here, use _totalMinted() if you want to count just minted tokens."
      },
      "transferFrom(address,address,uint256)": {
        "details": "See {IERC721-transferFrom}."
      }
    },
    "version": 1
  },
  "userdoc": {
    "kind": "user",
    "methods": {},
    "version": 1
  },
  "storageLayout": {
    "storage": [
      {
        "astId": 1457,
        "contract": "contracts/CollectibleERC721ASecurity.sol:CollectibleERC721ASecurity",
        "label": "_currentIndex",
        "offset": 0,
        "slot": "0",
        "type": "t_uint256"
      },
      {
        "astId": 1459,
        "contract": "contracts/CollectibleERC721ASecurity.sol:CollectibleERC721ASecurity",
        "label": "_burnCounter",
        "offset": 0,
        "slot": "1",
        "type": "t_uint256"
      },
      {
        "astId": 1461,
        "contract": "contracts/CollectibleERC721ASecurity.sol:CollectibleERC721ASecurity",
        "label": "_name",
        "offset": 0,
        "slot": "2",
        "type": "t_string_storage"
      },
      {
        "astId": 1463,
        "contract": "contracts/CollectibleERC721ASecurity.sol:CollectibleERC721ASecurity",
        "label": "_symbol",
        "offset": 0,
        "slot": "3",
        "type": "t_string_storage"
      },
      {
        "astId": 1468,
        "contract": "contracts/CollectibleERC721ASecurity.sol:CollectibleERC721ASecurity",
        "label": "_ownerships",
        "offset": 0,
        "slot": "4",
        "type": "t_mapping(t_uint256,t_struct(TokenOwnership)1446_storage)"
      },
      {
        "astId": 1473,
        "contract": "contracts/CollectibleERC721ASecurity.sol:CollectibleERC721ASecurity",
        "label": "_addressData",
        "offset": 0,
        "slot": "5",
        "type": "t_mapping(t_address,t_struct(AddressData)1455_storage)"
      },
      {
        "astId": 1477,
        "contract": "contracts/CollectibleERC721ASecurity.sol:CollectibleERC721ASecurity",
        "label": "_tokenApprovals",
        "offset": 0,
        "slot": "6",
        "type": "t_mapping(t_uint256,t_address)"
      },
      {
        "astId": 1483,
        "contract": "contracts/CollectibleERC721ASecurity.sol:CollectibleERC721ASecurity",
        "label": "_operatorApprovals",
        "offset": 0,
        "slot": "7",
        "type": "t_mapping(t_address,t_mapping(t_address,t_bool))"
      },
      {
        "astId": 1177,
        "contract": "contracts/CollectibleERC721ASecurity.sol:CollectibleERC721ASecurity",
        "label": "_baseURIValue",
        "offset": 0,
        "slot": "8",
        "type": "t_string_storage"
      },
      {
        "astId": 1181,
        "contract": "contracts/CollectibleERC721ASecurity.sol:CollectibleERC721ASecurity",
        "label": "_usedNonces",
        "offset": 0,
        "slot": "9",
        "type": "t_mapping(t_string_memory_ptr,t_bool)"
      },
      {
        "astId": 1185,
        "contract": "contracts/CollectibleERC721ASecurity.sol:CollectibleERC721ASecurity",
        "label": "_addressToTokenQuantity",
        "offset": 0,
        "slot": "10",
        "type": "t_mapping(t_address,t_uint256)"
      }
    ],
    "types": {
      "t_address": {
        "encoding": "inplace",
        "label": "address",
        "numberOfBytes": "20"
      },
      "t_bool": {
        "encoding": "inplace",
        "label": "bool",
        "numberOfBytes": "1"
      },
      "t_mapping(t_address,t_bool)": {
        "encoding": "mapping",
        "key": "t_address",
        "label": "mapping(address => bool)",
        "numberOfBytes": "32",
        "value": "t_bool"
      },
      "t_mapping(t_address,t_mapping(t_address,t_bool))": {
        "encoding": "mapping",
        "key": "t_address",
        "label": "mapping(address => mapping(address => bool))",
        "numberOfBytes": "32",
        "value": "t_mapping(t_address,t_bool)"
      },
      "t_mapping(t_address,t_struct(AddressData)1455_storage)": {
        "encoding": "mapping",
        "key": "t_address",
        "label": "mapping(address => struct ERC721A.AddressData)",
        "numberOfBytes": "32",
        "value": "t_struct(AddressData)1455_storage"
      },
      "t_mapping(t_address,t_uint256)": {
        "encoding": "mapping",
        "key": "t_address",
        "label": "mapping(address => uint256)",
        "numberOfBytes": "32",
        "value": "t_uint256"
      },
      "t_mapping(t_string_memory_ptr,t_bool)": {
        "encoding": "mapping",
        "key": "t_string_memory_ptr",
        "label": "mapping(string => bool)",
        "numberOfBytes": "32",
        "value": "t_bool"
      },
      "t_mapping(t_uint256,t_address)": {
        "encoding": "mapping",
        "key": "t_uint256",
        "label": "mapping(uint256 => address)",
        "numberOfBytes": "32",
        "value": "t_address"
      },
      "t_mapping(t_uint256,t_struct(TokenOwnership)1446_storage)": {
        "encoding": "mapping",
        "key": "t_uint256",
        "label": "mapping(uint256 => struct ERC721A.TokenOwnership)",
        "numberOfBytes": "32",
        "value": "t_struct(TokenOwnership)1446_storage"
      },
      "t_string_memory_ptr": {
        "encoding": "bytes",
        "label": "string",
        "numberOfBytes": "32"
      },
      "t_string_storage": {
        "encoding": "bytes",
        "label": "string",
        "numberOfBytes": "32"
      },
      "t_struct(AddressData)1455_storage": {
        "encoding": "inplace",
        "label": "struct ERC721A.AddressData",
        "members": [
          {
            "astId": 1448,
            "contract": "contracts/CollectibleERC721ASecurity.sol:CollectibleERC721ASecurity",
            "label": "balance",
            "offset": 0,
            "slot": "0",
            "type": "t_uint64"
          },
          {
            "astId": 1450,
            "contract": "contracts/CollectibleERC721ASecurity.sol:CollectibleERC721ASecurity",
            "label": "numberMinted",
            "offset": 8,
            "slot": "0",
            "type": "t_uint64"
          },
          {
            "astId": 1452,
            "contract": "contracts/CollectibleERC721ASecurity.sol:CollectibleERC721ASecurity",
            "label": "numberBurned",
            "offset": 16,
            "slot": "0",
            "type": "t_uint64"
          },
          {
            "astId": 1454,
            "contract": "contracts/CollectibleERC721ASecurity.sol:CollectibleERC721ASecurity",
            "label": "aux",
            "offset": 24,
            "slot": "0",
            "type": "t_uint64"
          }
        ],
        "numberOfBytes": "32"
      },
      "t_struct(TokenOwnership)1446_storage": {
        "encoding": "inplace",
        "label": "struct ERC721A.TokenOwnership",
        "members": [
          {
            "astId": 1441,
            "contract": "contracts/CollectibleERC721ASecurity.sol:CollectibleERC721ASecurity",
            "label": "addr",
            "offset": 0,
            "slot": "0",
            "type": "t_address"
          },
          {
            "astId": 1443,
            "contract": "contracts/CollectibleERC721ASecurity.sol:CollectibleERC721ASecurity",
            "label": "startTimestamp",
            "offset": 20,
            "slot": "0",
            "type": "t_uint64"
          },
          {
            "astId": 1445,
            "contract": "contracts/CollectibleERC721ASecurity.sol:CollectibleERC721ASecurity",
            "label": "burned",
            "offset": 28,
            "slot": "0",
            "type": "t_bool"
          }
        ],
        "numberOfBytes": "32"
      },
      "t_uint256": {
        "encoding": "inplace",
        "label": "uint256",
        "numberOfBytes": "32"
      },
      "t_uint64": {
        "encoding": "inplace",
        "label": "uint64",
        "numberOfBytes": "8"
      }
    }
  }
}