{
  "address": "0xEB337181E9d907d0703870dee87BEb1A039DCc10",
  "abi": [
    {
      "inputs": [
        {
          "internalType": "string",
          "name": "baseURI",
          "type": "string"
        }
      ],
      "stateMutability": "nonpayable",
      "type": "constructor"
    },
    {
      "inputs": [],
      "name": "ApprovalCallerNotOwnerNorApproved",
      "type": "error"
    },
    {
      "inputs": [],
      "name": "ApprovalQueryForNonexistentToken",
      "type": "error"
    },
    {
      "inputs": [],
      "name": "ApprovalToCurrentOwner",
      "type": "error"
    },
    {
      "inputs": [],
      "name": "ApproveToCaller",
      "type": "error"
    },
    {
      "inputs": [],
      "name": "BalanceQueryForZeroAddress",
      "type": "error"
    },
    {
      "inputs": [],
      "name": "MintToZeroAddress",
      "type": "error"
    },
    {
      "inputs": [],
      "name": "MintZeroQuantity",
      "type": "error"
    },
    {
      "inputs": [],
      "name": "OwnerQueryForNonexistentToken",
      "type": "error"
    },
    {
      "inputs": [],
      "name": "TransferCallerNotOwnerNorApproved",
      "type": "error"
    },
    {
      "inputs": [],
      "name": "TransferFromIncorrectOwner",
      "type": "error"
    },
    {
      "inputs": [],
      "name": "TransferToNonERC721ReceiverImplementer",
      "type": "error"
    },
    {
      "inputs": [],
      "name": "TransferToZeroAddress",
      "type": "error"
    },
    {
      "inputs": [],
      "name": "URIQueryForNonexistentToken",
      "type": "error"
    },
    {
      "anonymous": false,
      "inputs": [
        {
          "indexed": true,
          "internalType": "address",
          "name": "owner",
          "type": "address"
        },
        {
          "indexed": true,
          "internalType": "address",
          "name": "approved",
          "type": "address"
        },
        {
          "indexed": true,
          "internalType": "uint256",
          "name": "tokenId",
          "type": "uint256"
        }
      ],
      "name": "Approval",
      "type": "event"
    },
    {
      "anonymous": false,
      "inputs": [
        {
          "indexed": true,
          "internalType": "address",
          "name": "owner",
          "type": "address"
        },
        {
          "indexed": true,
          "internalType": "address",
          "name": "operator",
          "type": "address"
        },
        {
          "indexed": false,
          "internalType": "bool",
          "name": "approved",
          "type": "bool"
        }
      ],
      "name": "ApprovalForAll",
      "type": "event"
    },
    {
      "anonymous": false,
      "inputs": [
        {
          "indexed": true,
          "internalType": "address",
          "name": "from",
          "type": "address"
        },
        {
          "indexed": true,
          "internalType": "address",
          "name": "to",
          "type": "address"
        },
        {
          "indexed": true,
          "internalType": "uint256",
          "name": "tokenId",
          "type": "uint256"
        }
      ],
      "name": "Transfer",
      "type": "event"
    },
    {
      "inputs": [],
      "name": "MAX_SUPPLY",
      "outputs": [
        {
          "internalType": "uint256",
          "name": "",
          "type": "uint256"
        }
      ],
      "stateMutability": "view",
      "type": "function"
    },
    {
      "inputs": [],
      "name": "MAX_TOKENS_PER_ADDRESS",
      "outputs": [
        {
          "internalType": "uint256",
          "name": "",
          "type": "uint256"
        }
      ],
      "stateMutability": "view",
      "type": "function"
    },
    {
      "inputs": [],
      "name": "TOKEN_PRICE",
      "outputs": [
        {
          "internalType": "uint256",
          "name": "",
          "type": "uint256"
        }
      ],
      "stateMutability": "view",
      "type": "function"
    },
    {
      "inputs": [
        {
          "internalType": "address",
          "name": "",
          "type": "address"
        }
      ],
      "name": "addressToMintedQuantity",
      "outputs": [
        {
          "internalType": "uint256",
          "name": "",
          "type": "uint256"
        }
      ],
      "stateMutability": "view",
      "type": "function"
    },
    {
      "inputs": [
        {
          "internalType": "address",
          "name": "to",
          "type": "address"
        },
        {
          "internalType": "uint256",
          "name": "tokenId",
          "type": "uint256"
        }
      ],
      "name": "approve",
      "outputs": [],
      "stateMutability": "nonpayable",
      "type": "function"
    },
    {
      "inputs": [
        {
          "internalType": "address",
          "name": "owner",
          "type": "address"
        }
      ],
      "name": "balanceOf",
      "outputs": [
        {
          "internalType": "uint256",
          "name": "",
          "type": "uint256"
        }
      ],
      "stateMutability": "view",
      "type": "function"
    },
    {
      "inputs": [
        {
          "internalType": "uint256",
          "name": "tokenId",
          "type": "uint256"
        }
      ],
      "name": "getApproved",
      "outputs": [
        {
          "internalType": "address",
          "name": "",
          "type": "address"
        }
      ],
      "stateMutability": "view",
      "type": "function"
    },
    {
      "inputs": [
        {
          "internalType": "address",
          "name": "owner",
          "type": "address"
        },
        {
          "internalType": "address",
          "name": "operator",
          "type": "address"
        }
      ],
      "name": "isApprovedForAll",
      "outputs": [
        {
          "internalType": "bool",
          "name": "",
          "type": "bool"
        }
      ],
      "stateMutability": "view",
      "type": "function"
    },
    {
      "inputs": [
        {
          "internalType": "bytes32",
          "name": "hash",
          "type": "bytes32"
        },
        {
          "internalType": "bytes",
          "name": "signature",
          "type": "bytes"
        },
        {
          "internalType": "string",
          "name": "nonce",
          "type": "string"
        },
        {
          "internalType": "uint256",
          "name": "quantity",
          "type": "uint256"
        }
      ],
      "name": "mint",
      "outputs": [],
      "stateMutability": "payable",
      "type": "function"
    },
    {
      "inputs": [],
      "name": "name",
      "outputs": [
        {
          "internalType": "string",
          "name": "",
          "type": "string"
        }
      ],
      "stateMutability": "view",
      "type": "function"
    },
    {
      "inputs": [
        {
          "internalType": "uint256",
          "name": "tokenId",
          "type": "uint256"
        }
      ],
      "name": "ownerOf",
      "outputs": [
        {
          "internalType": "address",
          "name": "",
          "type": "address"
        }
      ],
      "stateMutability": "view",
      "type": "function"
    },
    {
      "inputs": [
        {
          "internalType": "address",
          "name": "from",
          "type": "address"
        },
        {
          "internalType": "address",
          "name": "to",
          "type": "address"
        },
        {
          "internalType": "uint256",
          "name": "tokenId",
          "type": "uint256"
        }
      ],
      "name": "safeTransferFrom",
      "outputs": [],
      "stateMutability": "nonpayable",
      "type": "function"
    },
    {
      "inputs": [
        {
          "internalType": "address",
          "name": "from",
          "type": "address"
        },
        {
          "internalType": "address",
          "name": "to",
          "type": "address"
        },
        {
          "internalType": "uint256",
          "name": "tokenId",
          "type": "uint256"
        },
        {
          "internalType": "bytes",
          "name": "_data",
          "type": "bytes"
        }
      ],
      "name": "safeTransferFrom",
      "outputs": [],
      "stateMutability": "nonpayable",
      "type": "function"
    },
    {
      "inputs": [
        {
          "internalType": "address",
          "name": "operator",
          "type": "address"
        },
        {
          "internalType": "bool",
          "name": "approved",
          "type": "bool"
        }
      ],
      "name": "setApprovalForAll",
      "outputs": [],
      "stateMutability": "nonpayable",
      "type": "function"
    },
    {
      "inputs": [
        {
          "internalType": "string",
          "name": "baseURI",
          "type": "string"
        }
      ],
      "name": "setBaseURI",
      "outputs": [],
      "stateMutability": "nonpayable",
      "type": "function"
    },
    {
      "inputs": [
        {
          "internalType": "bytes4",
          "name": "interfaceId",
          "type": "bytes4"
        }
      ],
      "name": "supportsInterface",
      "outputs": [
        {
          "internalType": "bool",
          "name": "",
          "type": "bool"
        }
      ],
      "stateMutability": "view",
      "type": "function"
    },
    {
      "inputs": [],
      "name": "symbol",
      "outputs": [
        {
          "internalType": "string",
          "name": "",
          "type": "string"
        }
      ],
      "stateMutability": "view",
      "type": "function"
    },
    {
      "inputs": [
        {
          "internalType": "uint256",
          "name": "tokenId",
          "type": "uint256"
        }
      ],
      "name": "tokenURI",
      "outputs": [
        {
          "internalType": "string",
          "name": "",
          "type": "string"
        }
      ],
      "stateMutability": "view",
      "type": "function"
    },
    {
      "inputs": [],
      "name": "totalSupply",
      "outputs": [
        {
          "internalType": "uint256",
          "name": "",
          "type": "uint256"
        }
      ],
      "stateMutability": "view",
      "type": "function"
    },
    {
      "inputs": [
        {
          "internalType": "address",
          "name": "from",
          "type": "address"
        },
        {
          "internalType": "address",
          "name": "to",
          "type": "address"
        },
        {
          "internalType": "uint256",
          "name": "tokenId",
          "type": "uint256"
        }
      ],
      "name": "transferFrom",
      "outputs": [],
      "stateMutability": "nonpayable",
      "type": "function"
    }
  ],
  "transactionHash": "0xc272fb82244abc079d06dd8272bcbd390e6053f1f2e794a2f23dda9001fadd51",
  "args": [
    "ipfs://bafybeiffs27am6cmdyhqsadoxxpg2w5atezwugkw2aqemo6olsll44qikq/"
  ],
  "numDeployments": 3,
  "solcInputHash": "b5e050c2f9250ebfac1b58ed50ec4210",
  "bytecode": "0x60806040523480156200001157600080fd5b5060405162003d4238038062003d42833981810160405281019062000037919062000234565b6040518060400160405280600881526020017f4f70656e204172740000000000000000000000000000000000000000000000008152506040518060400160405280600581526020017f4f504152540000000000000000000000000000000000000000000000000000008152508160029080519060200190620000bb92919062000112565b508060039080519060200190620000d492919062000112565b50620000e56200010d60201b60201c565b600081905550505080600890805190602001906200010592919062000112565b5050620003e9565b600090565b82805462000120906200030e565b90600052602060002090601f01602090048101928262000144576000855562000190565b82601f106200015f57805160ff191683800117855562000190565b8280016001018555821562000190579182015b828111156200018f57825182559160200191906001019062000172565b5b5090506200019f9190620001a3565b5090565b5b80821115620001be576000816000905550600101620001a4565b5090565b6000620001d9620001d384620002a2565b62000279565b905082815260208101848484011115620001f257600080fd5b620001ff848285620002d8565b509392505050565b600082601f8301126200021957600080fd5b81516200022b848260208601620001c2565b91505092915050565b6000602082840312156200024757600080fd5b600082015167ffffffffffffffff8111156200026257600080fd5b620002708482850162000207565b91505092915050565b60006200028562000298565b905062000293828262000344565b919050565b6000604051905090565b600067ffffffffffffffff821115620002c057620002bf620003a9565b5b620002cb82620003d8565b9050602081019050919050565b60005b83811015620002f8578082015181840152602081019050620002db565b8381111562000308576000848401525b50505050565b600060028204905060018216806200032757607f821691505b602082108114156200033e576200033d6200037a565b5b50919050565b6200034f82620003d8565b810181811067ffffffffffffffff82111715620003715762000370620003a9565b5b80604052505050565b7f4e487b7100000000000000000000000000000000000000000000000000000000600052602260045260246000fd5b7f4e487b7100000000000000000000000000000000000000000000000000000000600052604160045260246000fd5b6000601f19601f8301169050919050565b61394980620003f96000396000f3fe60806040526004361061011f5760003560e01c806355f804b3116100a0578063a22cb46511610064578063a22cb465146103ec578063b88d4fde14610415578063c87b56dd1461043e578063d2d8cb671461047b578063e985e9c5146104a65761011f565b806355f804b3146102f35780636352211e1461031c578063654073581461035957806370a082311461038457806395d89b41146103c15761011f565b80631a2bf8c4116100e75780631a2bf8c41461021d5780632382dff71461023957806323b872dd1461027657806332cb6b0c1461029f57806342842e0e146102ca5761011f565b806301ffc9a71461012457806306fdde0314610161578063081812fc1461018c578063095ea7b3146101c957806318160ddd146101f2575b600080fd5b34801561013057600080fd5b5061014b60048036038101906101469190612b82565b6104e3565b6040516101589190612ff3565b60405180910390f35b34801561016d57600080fd5b506101766104f5565b6040516101839190613053565b60405180910390f35b34801561019857600080fd5b506101b360048036038101906101ae9190612c15565b610587565b6040516101c09190612f8c565b60405180910390f35b3480156101d557600080fd5b506101f060048036038101906101eb9190612ab3565b610603565b005b3480156101fe57600080fd5b5061020761070e565b60405161021491906131b5565b60405180910390f35b61023760048036038101906102329190612aef565b610725565b005b34801561024557600080fd5b50610260600480360381019061025b9190612948565b610a33565b60405161026d91906131b5565b60405180910390f35b34801561028257600080fd5b5061029d600480360381019061029891906129ad565b610a4b565b005b3480156102ab57600080fd5b506102b4610a5b565b6040516102c191906131b5565b60405180910390f35b3480156102d657600080fd5b506102f160048036038101906102ec91906129ad565b610a60565b005b3480156102ff57600080fd5b5061031a60048036038101906103159190612bd4565b610a80565b005b34801561032857600080fd5b50610343600480360381019061033e9190612c15565b610a9a565b6040516103509190612f8c565b60405180910390f35b34801561036557600080fd5b5061036e610ab0565b60405161037b91906131b5565b60405180910390f35b34801561039057600080fd5b506103ab60048036038101906103a69190612948565b610ab5565b6040516103b891906131b5565b60405180910390f35b3480156103cd57600080fd5b506103d6610b85565b6040516103e39190613053565b60405180910390f35b3480156103f857600080fd5b50610413600480360381019061040e9190612a77565b610c17565b005b34801561042157600080fd5b5061043c600480360381019061043791906129fc565b610d8f565b005b34801561044a57600080fd5b5061046560048036038101906104609190612c15565b610e0b565b6040516104729190613053565b60405180910390f35b34801561048757600080fd5b50610490610eaa565b60405161049d91906131b5565b60405180910390f35b3480156104b257600080fd5b506104cd60048036038101906104c89190612971565b610eb4565b6040516104da9190612ff3565b60405180910390f35b60006104ee82610f48565b9050919050565b6060600280546105049061347c565b80601f01602080910402602001604051908101604052809291908181526020018280546105309061347c565b801561057d5780601f106105525761010080835404028352916020019161057d565b820191906000526020600020905b81548152906001019060200180831161056057829003601f168201915b5050505050905090565b60006105928261102a565b6105c8576040517fcf4700e400000000000000000000000000000000000000000000000000000000815260040160405180910390fd5b6006600083815260200190815260200160002060009054906101000a900473ffffffffffffffffffffffffffffffffffffffff169050919050565b600061060e82610a9a565b90508073ffffffffffffffffffffffffffffffffffffffff168373ffffffffffffffffffffffffffffffffffffffff161415610676576040517f943f7b8c00000000000000000000000000000000000000000000000000000000815260040160405180910390fd5b8073ffffffffffffffffffffffffffffffffffffffff16610695611078565b73ffffffffffffffffffffffffffffffffffffffff16141580156106c757506106c5816106c0611078565b610eb4565b155b156106fe576040517fcfb3b94200000000000000000000000000000000000000000000000000000000815260040160405180910390fd5b610709838383611080565b505050565b6000610718611132565b6001546000540303905090565b60198161073061070e565b61073a919061329a565b111561077b576040517f08c379a000000000000000000000000000000000000000000000000000000000815260040161077290613155565b60405180910390fd5b600581600a60003373ffffffffffffffffffffffffffffffffffffffff1673ffffffffffffffffffffffffffffffffffffffff168152602001908152602001600020546107c8919061329a565b1115610809576040517f08c379a000000000000000000000000000000000000000000000000000000000815260040161080090613135565b60405180910390fd5b806512309ce5400061081b9190613321565b34101561085d576040517f08c379a0000000000000000000000000000000000000000000000000000000008152600401610854906130b5565b60405180910390fd5b83610869338385611137565b146108a9576040517f08c379a00000000000000000000000000000000000000000000000000000000081526004016108a090613095565b60405180910390fd5b6009826040516108b99190612f2b565b908152602001604051809103902060009054906101000a900460ff1615610915576040517f08c379a000000000000000000000000000000000000000000000000000000000815260040161090c90613195565b60405180910390fd5b61091f8484611198565b61095e576040517f08c379a0000000000000000000000000000000000000000000000000000000008152600401610955906130f5565b60405180910390fd5b61096833826111f7565b80600a60003373ffffffffffffffffffffffffffffffffffffffff1673ffffffffffffffffffffffffffffffffffffffff168152602001908152602001600020546109b3919061329a565b600a60003373ffffffffffffffffffffffffffffffffffffffff1673ffffffffffffffffffffffffffffffffffffffff168152602001908152602001600020819055506001600983604051610a089190612f2b565b908152602001604051809103902060006101000a81548160ff02191690831515021790555050505050565b600a6020528060005260406000206000915090505481565b610a56838383611215565b505050565b601981565b610a7b83838360405180602001604052806000815250610d8f565b505050565b8060089080519060200190610a96929190612714565b5050565b6000610aa582611706565b600001519050919050565b600581565b60008073ffffffffffffffffffffffffffffffffffffffff168273ffffffffffffffffffffffffffffffffffffffff161415610b1d576040517f8f4eb60400000000000000000000000000000000000000000000000000000000815260040160405180910390fd5b600560008373ffffffffffffffffffffffffffffffffffffffff1673ffffffffffffffffffffffffffffffffffffffff16815260200190815260200160002060000160009054906101000a900467ffffffffffffffff1667ffffffffffffffff169050919050565b606060038054610b949061347c565b80601f0160208091040260200160405190810160405280929190818152602001828054610bc09061347c565b8015610c0d5780601f10610be257610100808354040283529160200191610c0d565b820191906000526020600020905b815481529060010190602001808311610bf057829003601f168201915b5050505050905090565b610c1f611078565b73ffffffffffffffffffffffffffffffffffffffff168273ffffffffffffffffffffffffffffffffffffffff161415610c84576040517fb06307db00000000000000000000000000000000000000000000000000000000815260040160405180910390fd5b8060076000610c91611078565b73ffffffffffffffffffffffffffffffffffffffff1673ffffffffffffffffffffffffffffffffffffffff16815260200190815260200160002060008473ffffffffffffffffffffffffffffffffffffffff1673ffffffffffffffffffffffffffffffffffffffff16815260200190815260200160002060006101000a81548160ff0219169083151502179055508173ffffffffffffffffffffffffffffffffffffffff16610d3e611078565b73ffffffffffffffffffffffffffffffffffffffff167f17307eab39ab6107e8899845ad3d59bd9653f200f220920489ca2b5937696c3183604051610d839190612ff3565b60405180910390a35050565b610d9a848484611215565b610db98373ffffffffffffffffffffffffffffffffffffffff16611995565b8015610dce5750610dcc848484846119b8565b155b15610e05576040517fd1a57ed600000000000000000000000000000000000000000000000000000000815260040160405180910390fd5b50505050565b6060610e168261102a565b610e4c576040517fa14c4b5000000000000000000000000000000000000000000000000000000000815260040160405180910390fd5b6000610e56611b18565b9050600081511415610e775760405180602001604052806000815250610ea2565b80610e8184611baa565b604051602001610e92929190612f42565b6040516020818303038152906040525b915050919050565b6512309ce5400081565b6000600760008473ffffffffffffffffffffffffffffffffffffffff1673ffffffffffffffffffffffffffffffffffffffff16815260200190815260200160002060008373ffffffffffffffffffffffffffffffffffffffff1673ffffffffffffffffffffffffffffffffffffffff16815260200190815260200160002060009054906101000a900460ff16905092915050565b60007f80ac58cd000000000000000000000000000000000000000000000000000000007bffffffffffffffffffffffffffffffffffffffffffffffffffffffff1916827bffffffffffffffffffffffffffffffffffffffffffffffffffffffff1916148061101357507f5b5e139f000000000000000000000000000000000000000000000000000000007bffffffffffffffffffffffffffffffffffffffffffffffffffffffff1916827bffffffffffffffffffffffffffffffffffffffffffffffffffffffff1916145b80611023575061102282611d57565b5b9050919050565b600081611035611132565b11158015611044575060005482105b8015611071575060046000838152602001908152602001600020600001601c9054906101000a900460ff16155b9050919050565b600033905090565b826006600084815260200190815260200160002060006101000a81548173ffffffffffffffffffffffffffffffffffffffff021916908373ffffffffffffffffffffffffffffffffffffffff160217905550818373ffffffffffffffffffffffffffffffffffffffff168273ffffffffffffffffffffffffffffffffffffffff167f8c5be1e5ebec7d5bd14f71427d1e84f3dd0314c0f7b2291e5b200ac8c7c3b92560405160405180910390a4505050565b600090565b60008084848460405160200161114f93929190612ef2565b604051602081830303815290604052805190602001206040516020016111759190612f66565b604051602081830303815290604052805190602001209050809150509392505050565b60006111ad8284611dc190919063ffffffff16565b73ffffffffffffffffffffffffffffffffffffffff1673b10eff9454bd358fbfdb1af033a20768e9247cb673ffffffffffffffffffffffffffffffffffffffff1614905092915050565b611211828260405180602001604052806000815250611de8565b5050565b600061122082611706565b90506000816000015173ffffffffffffffffffffffffffffffffffffffff16611247611078565b73ffffffffffffffffffffffffffffffffffffffff16148061127a57506112798260000151611274611078565b610eb4565b5b806112bf5750611288611078565b73ffffffffffffffffffffffffffffffffffffffff166112a784610587565b73ffffffffffffffffffffffffffffffffffffffff16145b9050806112f8576040517f59c896be00000000000000000000000000000000000000000000000000000000815260040160405180910390fd5b8473ffffffffffffffffffffffffffffffffffffffff16826000015173ffffffffffffffffffffffffffffffffffffffff1614611361576040517fa114810000000000000000000000000000000000000000000000000000000000815260040160405180910390fd5b600073ffffffffffffffffffffffffffffffffffffffff168473ffffffffffffffffffffffffffffffffffffffff1614156113c8576040517fea553b3400000000000000000000000000000000000000000000000000000000815260040160405180910390fd5b6113d58585856001611dfa565b6113e56000848460000151611080565b6001600560008773ffffffffffffffffffffffffffffffffffffffff1673ffffffffffffffffffffffffffffffffffffffff16815260200190815260200160002060000160008282829054906101000a900467ffffffffffffffff160392506101000a81548167ffffffffffffffff021916908367ffffffffffffffff1602179055506001600560008673ffffffffffffffffffffffffffffffffffffffff1673ffffffffffffffffffffffffffffffffffffffff16815260200190815260200160002060000160008282829054906101000a900467ffffffffffffffff160192506101000a81548167ffffffffffffffff021916908367ffffffffffffffff160217905550836004600085815260200190815260200160002060000160006101000a81548173ffffffffffffffffffffffffffffffffffffffff021916908373ffffffffffffffffffffffffffffffffffffffff160217905550426004600085815260200190815260200160002060000160146101000a81548167ffffffffffffffff021916908367ffffffffffffffff1602179055506000600184019050600073ffffffffffffffffffffffffffffffffffffffff166004600083815260200190815260200160002060000160009054906101000a900473ffffffffffffffffffffffffffffffffffffffff1673ffffffffffffffffffffffffffffffffffffffff161415611696576000548110156116955782600001516004600083815260200190815260200160002060000160006101000a81548173ffffffffffffffffffffffffffffffffffffffff021916908373ffffffffffffffffffffffffffffffffffffffff16021790555082602001516004600083815260200190815260200160002060000160146101000a81548167ffffffffffffffff021916908367ffffffffffffffff1602179055505b5b50828473ffffffffffffffffffffffffffffffffffffffff168673ffffffffffffffffffffffffffffffffffffffff167fddf252ad1be2c89b69c2b068fc378daa952ba7f163c4a11628f55a4df523b3ef60405160405180910390a46116ff8585856001611e00565b5050505050565b61170e61279a565b60008290508061171c611132565b1115801561172b575060005481105b1561195e576000600460008381526020019081526020016000206040518060600160405290816000820160009054906101000a900473ffffffffffffffffffffffffffffffffffffffff1673ffffffffffffffffffffffffffffffffffffffff1673ffffffffffffffffffffffffffffffffffffffff1681526020016000820160149054906101000a900467ffffffffffffffff1667ffffffffffffffff1667ffffffffffffffff16815260200160008201601c9054906101000a900460ff1615151515815250509050806040015161195c57600073ffffffffffffffffffffffffffffffffffffffff16816000015173ffffffffffffffffffffffffffffffffffffffff1614611840578092505050611990565b5b60011561195b57818060019003925050600460008381526020019081526020016000206040518060600160405290816000820160009054906101000a900473ffffffffffffffffffffffffffffffffffffffff1673ffffffffffffffffffffffffffffffffffffffff1673ffffffffffffffffffffffffffffffffffffffff1681526020016000820160149054906101000a900467ffffffffffffffff1667ffffffffffffffff1667ffffffffffffffff16815260200160008201601c9054906101000a900460ff1615151515815250509050600073ffffffffffffffffffffffffffffffffffffffff16816000015173ffffffffffffffffffffffffffffffffffffffff1614611956578092505050611990565b611841565b5b505b6040517fdf2d9b4200000000000000000000000000000000000000000000000000000000815260040160405180910390fd5b919050565b6000808273ffffffffffffffffffffffffffffffffffffffff163b119050919050565b60008373ffffffffffffffffffffffffffffffffffffffff1663150b7a026119de611078565b8786866040518563ffffffff1660e01b8152600401611a009493929190612fa7565b602060405180830381600087803b158015611a1a57600080fd5b505af1925050508015611a4b57506040513d601f19601f82011682018060405250810190611a489190612bab565b60015b611ac5573d8060008114611a7b576040519150601f19603f3d011682016040523d82523d6000602084013e611a80565b606091505b50600081511415611abd576040517fd1a57ed600000000000000000000000000000000000000000000000000000000815260040160405180910390fd5b805181602001fd5b63150b7a0260e01b7bffffffffffffffffffffffffffffffffffffffffffffffffffffffff1916817bffffffffffffffffffffffffffffffffffffffffffffffffffffffff191614915050949350505050565b606060088054611b279061347c565b80601f0160208091040260200160405190810160405280929190818152602001828054611b539061347c565b8015611ba05780601f10611b7557610100808354040283529160200191611ba0565b820191906000526020600020905b815481529060010190602001808311611b8357829003601f168201915b5050505050905090565b60606000821415611bf2576040518060400160405280600181526020017f30000000000000000000000000000000000000000000000000000000000000008152509050611d52565b600082905060005b60008214611c24578080611c0d906134df565b915050600a82611c1d91906132f0565b9150611bfa565b60008167ffffffffffffffff811115611c66577f4e487b7100000000000000000000000000000000000000000000000000000000600052604160045260246000fd5b6040519080825280601f01601f191660200182016040528015611c985781602001600182028036833780820191505090505b5090505b60008514611d4b57600182611cb1919061337b565b9150600a85611cc09190613560565b6030611ccc919061329a565b60f81b818381518110611d08577f4e487b7100000000000000000000000000000000000000000000000000000000600052603260045260246000fd5b60200101907effffffffffffffffffffffffffffffffffffffffffffffffffffffffffffff1916908160001a905350600a85611d4491906132f0565b9450611c9c565b8093505050505b919050565b60007f01ffc9a7000000000000000000000000000000000000000000000000000000007bffffffffffffffffffffffffffffffffffffffffffffffffffffffff1916827bffffffffffffffffffffffffffffffffffffffffffffffffffffffff1916149050919050565b6000806000611dd08585611e06565b91509150611ddd81611e89565b819250505092915050565b611df583838360016121da565b505050565b50505050565b50505050565b600080604183511415611e485760008060006020860151925060408601519150606086015160001a9050611e3c878285856125a8565b94509450505050611e82565b604083511415611e79576000806020850151915060408501519050611e6e8683836126b5565b935093505050611e82565b60006002915091505b9250929050565b60006004811115611ec3577f4e487b7100000000000000000000000000000000000000000000000000000000600052602160045260246000fd5b816004811115611efc577f4e487b7100000000000000000000000000000000000000000000000000000000600052602160045260246000fd5b1415611f07576121d7565b60016004811115611f41577f4e487b7100000000000000000000000000000000000000000000000000000000600052602160045260246000fd5b816004811115611f7a577f4e487b7100000000000000000000000000000000000000000000000000000000600052602160045260246000fd5b1415611fbb576040517f08c379a0000000000000000000000000000000000000000000000000000000008152600401611fb290613075565b60405180910390fd5b60026004811115611ff5577f4e487b7100000000000000000000000000000000000000000000000000000000600052602160045260246000fd5b81600481111561202e577f4e487b7100000000000000000000000000000000000000000000000000000000600052602160045260246000fd5b141561206f576040517f08c379a0000000000000000000000000000000000000000000000000000000008152600401612066906130d5565b60405180910390fd5b600360048111156120a9577f4e487b7100000000000000000000000000000000000000000000000000000000600052602160045260246000fd5b8160048111156120e2577f4e487b7100000000000000000000000000000000000000000000000000000000600052602160045260246000fd5b1415612123576040517f08c379a000000000000000000000000000000000000000000000000000000000815260040161211a90613115565b60405180910390fd5b60048081111561215c577f4e487b7100000000000000000000000000000000000000000000000000000000600052602160045260246000fd5b816004811115612195577f4e487b7100000000000000000000000000000000000000000000000000000000600052602160045260246000fd5b14156121d6576040517f08c379a00000000000000000000000000000000000000000000000000000000081526004016121cd90613175565b60405180910390fd5b5b50565b600080549050600073ffffffffffffffffffffffffffffffffffffffff168573ffffffffffffffffffffffffffffffffffffffff161415612247576040517f2e07630000000000000000000000000000000000000000000000000000000000815260040160405180910390fd5b6000841415612282576040517fb562e8dd00000000000000000000000000000000000000000000000000000000815260040160405180910390fd5b61228f6000868387611dfa565b83600560008773ffffffffffffffffffffffffffffffffffffffff1673ffffffffffffffffffffffffffffffffffffffff16815260200190815260200160002060000160008282829054906101000a900467ffffffffffffffff160192506101000a81548167ffffffffffffffff021916908367ffffffffffffffff16021790555083600560008773ffffffffffffffffffffffffffffffffffffffff1673ffffffffffffffffffffffffffffffffffffffff16815260200190815260200160002060000160088282829054906101000a900467ffffffffffffffff160192506101000a81548167ffffffffffffffff021916908367ffffffffffffffff160217905550846004600083815260200190815260200160002060000160006101000a81548173ffffffffffffffffffffffffffffffffffffffff021916908373ffffffffffffffffffffffffffffffffffffffff160217905550426004600083815260200190815260200160002060000160146101000a81548167ffffffffffffffff021916908367ffffffffffffffff16021790555060008190506000858201905083801561245957506124588773ffffffffffffffffffffffffffffffffffffffff16611995565b5b1561251f575b818773ffffffffffffffffffffffffffffffffffffffff16600073ffffffffffffffffffffffffffffffffffffffff167fddf252ad1be2c89b69c2b068fc378daa952ba7f163c4a11628f55a4df523b3ef60405160405180910390a46124ce60008884806001019550886119b8565b612504576040517fd1a57ed600000000000000000000000000000000000000000000000000000000815260040160405180910390fd5b8082141561245f57826000541461251a57600080fd5b61258b565b5b818060010192508773ffffffffffffffffffffffffffffffffffffffff16600073ffffffffffffffffffffffffffffffffffffffff167fddf252ad1be2c89b69c2b068fc378daa952ba7f163c4a11628f55a4df523b3ef60405160405180910390a480821415612520575b8160008190555050506125a16000868387611e00565b5050505050565b6000807f7fffffffffffffffffffffffffffffff5d576e7357a4501ddfe92f46681b20a08360001c11156125e35760006003915091506126ac565b601b8560ff16141580156125fb5750601c8560ff1614155b1561260d5760006004915091506126ac565b600060018787878760405160008152602001604052604051612632949392919061300e565b6020604051602081039080840390855afa158015612654573d6000803e3d6000fd5b505050602060405103519050600073ffffffffffffffffffffffffffffffffffffffff168173ffffffffffffffffffffffffffffffffffffffff1614156126a3576000600192509250506126ac565b80600092509250505b94509492505050565b60008060007f7fffffffffffffffffffffffffffffffffffffffffffffffffffffffffffffff60001b841690506000601b60ff8660001c901c6126f8919061329a565b9050612706878288856125a8565b935093505050935093915050565b8280546127209061347c565b90600052602060002090601f0160209004810192826127425760008555612789565b82601f1061275b57805160ff1916838001178555612789565b82800160010185558215612789579182015b8281111561278857825182559160200191906001019061276d565b5b50905061279691906127dd565b5090565b6040518060600160405280600073ffffffffffffffffffffffffffffffffffffffff168152602001600067ffffffffffffffff1681526020016000151581525090565b5b808211156127f65760008160009055506001016127de565b5090565b600061280d612808846131f5565b6131d0565b90508281526020810184848401111561282557600080fd5b61283084828561343a565b509392505050565b600061284b61284684613226565b6131d0565b90508281526020810184848401111561286357600080fd5b61286e84828561343a565b509392505050565b600081359050612885816138a0565b92915050565b60008135905061289a816138b7565b92915050565b6000813590506128af816138ce565b92915050565b6000813590506128c4816138e5565b92915050565b6000815190506128d9816138e5565b92915050565b600082601f8301126128f057600080fd5b81356129008482602086016127fa565b91505092915050565b600082601f83011261291a57600080fd5b813561292a848260208601612838565b91505092915050565b600081359050612942816138fc565b92915050565b60006020828403121561295a57600080fd5b600061296884828501612876565b91505092915050565b6000806040838503121561298457600080fd5b600061299285828601612876565b92505060206129a385828601612876565b9150509250929050565b6000806000606084860312156129c257600080fd5b60006129d086828701612876565b93505060206129e186828701612876565b92505060406129f286828701612933565b9150509250925092565b60008060008060808587031215612a1257600080fd5b6000612a2087828801612876565b9450506020612a3187828801612876565b9350506040612a4287828801612933565b925050606085013567ffffffffffffffff811115612a5f57600080fd5b612a6b878288016128df565b91505092959194509250565b60008060408385031215612a8a57600080fd5b6000612a9885828601612876565b9250506020612aa98582860161288b565b9150509250929050565b60008060408385031215612ac657600080fd5b6000612ad485828601612876565b9250506020612ae585828601612933565b9150509250929050565b60008060008060808587031215612b0557600080fd5b6000612b13878288016128a0565b945050602085013567ffffffffffffffff811115612b3057600080fd5b612b3c878288016128df565b935050604085013567ffffffffffffffff811115612b5957600080fd5b612b6587828801612909565b9250506060612b7687828801612933565b91505092959194509250565b600060208284031215612b9457600080fd5b6000612ba2848285016128b5565b91505092915050565b600060208284031215612bbd57600080fd5b6000612bcb848285016128ca565b91505092915050565b600060208284031215612be657600080fd5b600082013567ffffffffffffffff811115612c0057600080fd5b612c0c84828501612909565b91505092915050565b600060208284031215612c2757600080fd5b6000612c3584828501612933565b91505092915050565b612c47816133af565b82525050565b612c5e612c59826133af565b613528565b82525050565b612c6d816133c1565b82525050565b612c7c816133cd565b82525050565b612c93612c8e826133cd565b61353a565b82525050565b6000612ca482613257565b612cae818561326d565b9350612cbe818560208601613449565b612cc78161364d565b840191505092915050565b6000612cdd82613262565b612ce7818561327e565b9350612cf7818560208601613449565b612d008161364d565b840191505092915050565b6000612d1682613262565b612d20818561328f565b9350612d30818560208601613449565b80840191505092915050565b6000612d4960188361327e565b9150612d548261366b565b602082019050919050565b6000612d6c60168361327e565b9150612d7782613694565b602082019050919050565b6000612d8f60198361327e565b9150612d9a826136bd565b602082019050919050565b6000612db2601f8361327e565b9150612dbd826136e6565b602082019050919050565b6000612dd5601c8361328f565b9150612de08261370f565b601c82019050919050565b6000612df860168361327e565b9150612e0382613738565b602082019050919050565b6000612e1b60228361327e565b9150612e2682613761565b604082019050919050565b6000612e3e60238361327e565b9150612e49826137b0565b604082019050919050565b6000612e6160208361327e565b9150612e6c826137ff565b602082019050919050565b6000612e8460228361327e565b9150612e8f82613828565b604082019050919050565b6000612ea760118361327e565b9150612eb282613877565b602082019050919050565b612ec681613423565b82525050565b612edd612ed882613423565b613556565b82525050565b612eec8161342d565b82525050565b6000612efe8286612c4d565b601482019150612f0e8285612ecc565b602082019150612f1e8284612d0b565b9150819050949350505050565b6000612f378284612d0b565b915081905092915050565b6000612f4e8285612d0b565b9150612f5a8284612d0b565b91508190509392505050565b6000612f7182612dc8565b9150612f7d8284612c82565b60208201915081905092915050565b6000602082019050612fa16000830184612c3e565b92915050565b6000608082019050612fbc6000830187612c3e565b612fc96020830186612c3e565b612fd66040830185612ebd565b8181036060830152612fe88184612c99565b905095945050505050565b60006020820190506130086000830184612c64565b92915050565b60006080820190506130236000830187612c73565b6130306020830186612ee3565b61303d6040830185612c73565b61304a6060830184612c73565b95945050505050565b6000602082019050818103600083015261306d8184612cd2565b905092915050565b6000602082019050818103600083015261308e81612d3c565b9050919050565b600060208201905081810360008301526130ae81612d5f565b9050919050565b600060208201905081810360008301526130ce81612d82565b9050919050565b600060208201905081810360008301526130ee81612da5565b9050919050565b6000602082019050818103600083015261310e81612deb565b9050919050565b6000602082019050818103600083015261312e81612e0e565b9050919050565b6000602082019050818103600083015261314e81612e31565b9050919050565b6000602082019050818103600083015261316e81612e54565b9050919050565b6000602082019050818103600083015261318e81612e77565b9050919050565b600060208201905081810360008301526131ae81612e9a565b9050919050565b60006020820190506131ca6000830184612ebd565b92915050565b60006131da6131eb565b90506131e682826134ae565b919050565b6000604051905090565b600067ffffffffffffffff8211156132105761320f61361e565b5b6132198261364d565b9050602081019050919050565b600067ffffffffffffffff8211156132415761324061361e565b5b61324a8261364d565b9050602081019050919050565b600081519050919050565b600081519050919050565b600082825260208201905092915050565b600082825260208201905092915050565b600081905092915050565b60006132a582613423565b91506132b083613423565b9250827fffffffffffffffffffffffffffffffffffffffffffffffffffffffffffffffff038211156132e5576132e4613591565b5b828201905092915050565b60006132fb82613423565b915061330683613423565b925082613316576133156135c0565b5b828204905092915050565b600061332c82613423565b915061333783613423565b9250817fffffffffffffffffffffffffffffffffffffffffffffffffffffffffffffffff04831182151516156133705761336f613591565b5b828202905092915050565b600061338682613423565b915061339183613423565b9250828210156133a4576133a3613591565b5b828203905092915050565b60006133ba82613403565b9050919050565b60008115159050919050565b6000819050919050565b60007fffffffff0000000000000000000000000000000000000000000000000000000082169050919050565b600073ffffffffffffffffffffffffffffffffffffffff82169050919050565b6000819050919050565b600060ff82169050919050565b82818337600083830152505050565b60005b8381101561346757808201518184015260208101905061344c565b83811115613476576000848401525b50505050565b6000600282049050600182168061349457607f821691505b602082108114156134a8576134a76135ef565b5b50919050565b6134b78261364d565b810181811067ffffffffffffffff821117156134d6576134d561361e565b5b80604052505050565b60006134ea82613423565b91507fffffffffffffffffffffffffffffffffffffffffffffffffffffffffffffffff82141561351d5761351c613591565b5b600182019050919050565b600061353382613544565b9050919050565b6000819050919050565b600061354f8261365e565b9050919050565b6000819050919050565b600061356b82613423565b915061357683613423565b925082613586576135856135c0565b5b828206905092915050565b7f4e487b7100000000000000000000000000000000000000000000000000000000600052601160045260246000fd5b7f4e487b7100000000000000000000000000000000000000000000000000000000600052601260045260246000fd5b7f4e487b7100000000000000000000000000000000000000000000000000000000600052602260045260246000fd5b7f4e487b7100000000000000000000000000000000000000000000000000000000600052604160045260246000fd5b6000601f19601f8301169050919050565b60008160601b9050919050565b7f45434453413a20696e76616c6964207369676e61747572650000000000000000600082015250565b7f4661696c65642076616c69646174696e67206861736800000000000000000000600082015250565b7f4e6f7420656e6f75676820657468207472616e73666572656400000000000000600082015250565b7f45434453413a20696e76616c6964207369676e6174757265206c656e67746800600082015250565b7f19457468657265756d205369676e6564204d6573736167653a0a333200000000600082015250565b7f446972656374206d696e7420646973616c6c6f77656400000000000000000000600082015250565b7f45434453413a20696e76616c6964207369676e6174757265202773272076616c60008201527f7565000000000000000000000000000000000000000000000000000000000000602082015250565b7f4d617820746f6b656e73207265616368656420666f722074686973206164647260008201527f6573730000000000000000000000000000000000000000000000000000000000602082015250565b7f507572636861736520776f756c6420657863656564206d617820737570706c79600082015250565b7f45434453413a20696e76616c6964207369676e6174757265202776272076616c60008201527f7565000000000000000000000000000000000000000000000000000000000000602082015250565b7f4861736820616c72656164792075736564000000000000000000000000000000600082015250565b6138a9816133af565b81146138b457600080fd5b50565b6138c0816133c1565b81146138cb57600080fd5b50565b6138d7816133cd565b81146138e257600080fd5b50565b6138ee816133d7565b81146138f957600080fd5b50565b61390581613423565b811461391057600080fd5b5056fea26469706673582212209ced1cc6ba88b969fe781463f38189404e7d835994c7b56ecab25b60fe03b70764736f6c63430008040033",
  "devdoc": {
    "kind": "dev",
    "methods": {
      "approve(address,uint256)": {
        "details": "See {IERC721-approve}."
      },
      "balanceOf(address)": {
        "details": "See {IERC721-balanceOf}."
      },
      "getApproved(uint256)": {
        "details": "See {IERC721-getApproved}."
      },
      "isApprovedForAll(address,address)": {
        "details": "See {IERC721-isApprovedForAll}."
      },
      "name()": {
        "details": "See {IERC721Metadata-name}."
      },
      "ownerOf(uint256)": {
        "details": "See {IERC721-ownerOf}."
      },
      "safeTransferFrom(address,address,uint256)": {
        "details": "See {IERC721-safeTransferFrom}."
      },
      "safeTransferFrom(address,address,uint256,bytes)": {
        "details": "See {IERC721-safeTransferFrom}."
      },
      "setApprovalForAll(address,bool)": {
        "details": "See {IERC721-setApprovalForAll}."
      },
      "supportsInterface(bytes4)": {
        "details": "See {IERC165-supportsInterface}."
      },
      "symbol()": {
        "details": "See {IERC721Metadata-symbol}."
      },
      "tokenURI(uint256)": {
        "details": "See {IERC721Metadata-tokenURI}."
      },
      "totalSupply()": {
        "details": "See {IERC721Enumerable-totalSupply}.Burned tokens are calculated here, use _totalMinted() if you want to count just minted tokens."
      },
      "transferFrom(address,address,uint256)": {
        "details": "See {IERC721-transferFrom}."
      }
    },
    "version": 1
  },
  "userdoc": {
    "kind": "user",
    "methods": {},
    "version": 1
  },
  "storageLayout": {
    "storage": [
      {
        "astId": 1457,
        "contract": "contracts/CollectibleERC721ASecurity.sol:CollectibleERC721ASecurity",
        "label": "_currentIndex",
        "offset": 0,
        "slot": "0",
        "type": "t_uint256"
      },
      {
        "astId": 1459,
        "contract": "contracts/CollectibleERC721ASecurity.sol:CollectibleERC721ASecurity",
        "label": "_burnCounter",
        "offset": 0,
        "slot": "1",
        "type": "t_uint256"
      },
      {
        "astId": 1461,
        "contract": "contracts/CollectibleERC721ASecurity.sol:CollectibleERC721ASecurity",
        "label": "_name",
        "offset": 0,
        "slot": "2",
        "type": "t_string_storage"
      },
      {
        "astId": 1463,
        "contract": "contracts/CollectibleERC721ASecurity.sol:CollectibleERC721ASecurity",
        "label": "_symbol",
        "offset": 0,
        "slot": "3",
        "type": "t_string_storage"
      },
      {
        "astId": 1468,
        "contract": "contracts/CollectibleERC721ASecurity.sol:CollectibleERC721ASecurity",
        "label": "_ownerships",
        "offset": 0,
        "slot": "4",
        "type": "t_mapping(t_uint256,t_struct(TokenOwnership)1446_storage)"
      },
      {
        "astId": 1473,
        "contract": "contracts/CollectibleERC721ASecurity.sol:CollectibleERC721ASecurity",
        "label": "_addressData",
        "offset": 0,
        "slot": "5",
        "type": "t_mapping(t_address,t_struct(AddressData)1455_storage)"
      },
      {
        "astId": 1477,
        "contract": "contracts/CollectibleERC721ASecurity.sol:CollectibleERC721ASecurity",
        "label": "_tokenApprovals",
        "offset": 0,
        "slot": "6",
        "type": "t_mapping(t_uint256,t_address)"
      },
      {
        "astId": 1483,
        "contract": "contracts/CollectibleERC721ASecurity.sol:CollectibleERC721ASecurity",
        "label": "_operatorApprovals",
        "offset": 0,
        "slot": "7",
        "type": "t_mapping(t_address,t_mapping(t_address,t_bool))"
      },
      {
        "astId": 1177,
        "contract": "contracts/CollectibleERC721ASecurity.sol:CollectibleERC721ASecurity",
        "label": "_baseURIValue",
        "offset": 0,
        "slot": "8",
        "type": "t_string_storage"
      },
      {
        "astId": 1181,
        "contract": "contracts/CollectibleERC721ASecurity.sol:CollectibleERC721ASecurity",
        "label": "_usedNonces",
        "offset": 0,
        "slot": "9",
        "type": "t_mapping(t_string_memory_ptr,t_bool)"
      },
      {
        "astId": 1185,
        "contract": "contracts/CollectibleERC721ASecurity.sol:CollectibleERC721ASecurity",
        "label": "addressToMintedQuantity",
        "offset": 0,
        "slot": "10",
        "type": "t_mapping(t_address,t_uint256)"
      }
    ],
    "types": {
      "t_address": {
        "encoding": "inplace",
        "label": "address",
        "numberOfBytes": "20"
      },
      "t_bool": {
        "encoding": "inplace",
        "label": "bool",
        "numberOfBytes": "1"
      },
      "t_mapping(t_address,t_bool)": {
        "encoding": "mapping",
        "key": "t_address",
        "label": "mapping(address => bool)",
        "numberOfBytes": "32",
        "value": "t_bool"
      },
      "t_mapping(t_address,t_mapping(t_address,t_bool))": {
        "encoding": "mapping",
        "key": "t_address",
        "label": "mapping(address => mapping(address => bool))",
        "numberOfBytes": "32",
        "value": "t_mapping(t_address,t_bool)"
      },
      "t_mapping(t_address,t_struct(AddressData)1455_storage)": {
        "encoding": "mapping",
        "key": "t_address",
        "label": "mapping(address => struct ERC721A.AddressData)",
        "numberOfBytes": "32",
        "value": "t_struct(AddressData)1455_storage"
      },
      "t_mapping(t_address,t_uint256)": {
        "encoding": "mapping",
        "key": "t_address",
        "label": "mapping(address => uint256)",
        "numberOfBytes": "32",
        "value": "t_uint256"
      },
      "t_mapping(t_string_memory_ptr,t_bool)": {
        "encoding": "mapping",
        "key": "t_string_memory_ptr",
        "label": "mapping(string => bool)",
        "numberOfBytes": "32",
        "value": "t_bool"
      },
      "t_mapping(t_uint256,t_address)": {
        "encoding": "mapping",
        "key": "t_uint256",
        "label": "mapping(uint256 => address)",
        "numberOfBytes": "32",
        "value": "t_address"
      },
      "t_mapping(t_uint256,t_struct(TokenOwnership)1446_storage)": {
        "encoding": "mapping",
        "key": "t_uint256",
        "label": "mapping(uint256 => struct ERC721A.TokenOwnership)",
        "numberOfBytes": "32",
        "value": "t_struct(TokenOwnership)1446_storage"
      },
      "t_string_memory_ptr": {
        "encoding": "bytes",
        "label": "string",
        "numberOfBytes": "32"
      },
      "t_string_storage": {
        "encoding": "bytes",
        "label": "string",
        "numberOfBytes": "32"
      },
      "t_struct(AddressData)1455_storage": {
        "encoding": "inplace",
        "label": "struct ERC721A.AddressData",
        "members": [
          {
            "astId": 1448,
            "contract": "contracts/CollectibleERC721ASecurity.sol:CollectibleERC721ASecurity",
            "label": "balance",
            "offset": 0,
            "slot": "0",
            "type": "t_uint64"
          },
          {
            "astId": 1450,
            "contract": "contracts/CollectibleERC721ASecurity.sol:CollectibleERC721ASecurity",
            "label": "numberMinted",
            "offset": 8,
            "slot": "0",
            "type": "t_uint64"
          },
          {
            "astId": 1452,
            "contract": "contracts/CollectibleERC721ASecurity.sol:CollectibleERC721ASecurity",
            "label": "numberBurned",
            "offset": 16,
            "slot": "0",
            "type": "t_uint64"
          },
          {
            "astId": 1454,
            "contract": "contracts/CollectibleERC721ASecurity.sol:CollectibleERC721ASecurity",
            "label": "aux",
            "offset": 24,
            "slot": "0",
            "type": "t_uint64"
          }
        ],
        "numberOfBytes": "32"
      },
      "t_struct(TokenOwnership)1446_storage": {
        "encoding": "inplace",
        "label": "struct ERC721A.TokenOwnership",
        "members": [
          {
            "astId": 1441,
            "contract": "contracts/CollectibleERC721ASecurity.sol:CollectibleERC721ASecurity",
            "label": "addr",
            "offset": 0,
            "slot": "0",
            "type": "t_address"
          },
          {
            "astId": 1443,
            "contract": "contracts/CollectibleERC721ASecurity.sol:CollectibleERC721ASecurity",
            "label": "startTimestamp",
            "offset": 20,
            "slot": "0",
            "type": "t_uint64"
          },
          {
            "astId": 1445,
            "contract": "contracts/CollectibleERC721ASecurity.sol:CollectibleERC721ASecurity",
            "label": "burned",
            "offset": 28,
            "slot": "0",
            "type": "t_bool"
          }
        ],
        "numberOfBytes": "32"
      },
      "t_uint256": {
        "encoding": "inplace",
        "label": "uint256",
        "numberOfBytes": "32"
      },
      "t_uint64": {
        "encoding": "inplace",
        "label": "uint64",
        "numberOfBytes": "8"
      }
    }
  }
}