{
  "address": "0x6639d5d2d67087bB77246a22eCcb18eC38dB1d1F",
  "abi": [
    {
      "inputs": [
        {
          "internalType": "string",
          "name": "baseURI",
          "type": "string"
        }
      ],
      "stateMutability": "nonpayable",
      "type": "constructor"
    },
    {
      "inputs": [],
      "name": "ApprovalCallerNotOwnerNorApproved",
      "type": "error"
    },
    {
      "inputs": [],
      "name": "ApprovalQueryForNonexistentToken",
      "type": "error"
    },
    {
      "inputs": [],
      "name": "ApprovalToCurrentOwner",
      "type": "error"
    },
    {
      "inputs": [],
      "name": "ApproveToCaller",
      "type": "error"
    },
    {
      "inputs": [],
      "name": "BalanceQueryForZeroAddress",
      "type": "error"
    },
    {
      "inputs": [],
      "name": "MintToZeroAddress",
      "type": "error"
    },
    {
      "inputs": [],
      "name": "MintZeroQuantity",
      "type": "error"
    },
    {
      "inputs": [],
      "name": "OwnerQueryForNonexistentToken",
      "type": "error"
    },
    {
      "inputs": [],
      "name": "TransferCallerNotOwnerNorApproved",
      "type": "error"
    },
    {
      "inputs": [],
      "name": "TransferFromIncorrectOwner",
      "type": "error"
    },
    {
      "inputs": [],
      "name": "TransferToNonERC721ReceiverImplementer",
      "type": "error"
    },
    {
      "inputs": [],
      "name": "TransferToZeroAddress",
      "type": "error"
    },
    {
      "inputs": [],
      "name": "URIQueryForNonexistentToken",
      "type": "error"
    },
    {
      "anonymous": false,
      "inputs": [
        {
          "indexed": true,
          "internalType": "address",
          "name": "owner",
          "type": "address"
        },
        {
          "indexed": true,
          "internalType": "address",
          "name": "approved",
          "type": "address"
        },
        {
          "indexed": true,
          "internalType": "uint256",
          "name": "tokenId",
          "type": "uint256"
        }
      ],
      "name": "Approval",
      "type": "event"
    },
    {
      "anonymous": false,
      "inputs": [
        {
          "indexed": true,
          "internalType": "address",
          "name": "owner",
          "type": "address"
        },
        {
          "indexed": true,
          "internalType": "address",
          "name": "operator",
          "type": "address"
        },
        {
          "indexed": false,
          "internalType": "bool",
          "name": "approved",
          "type": "bool"
        }
      ],
      "name": "ApprovalForAll",
      "type": "event"
    },
    {
      "anonymous": false,
      "inputs": [
        {
          "indexed": true,
          "internalType": "address",
          "name": "from",
          "type": "address"
        },
        {
          "indexed": true,
          "internalType": "address",
          "name": "to",
          "type": "address"
        },
        {
          "indexed": true,
          "internalType": "uint256",
          "name": "tokenId",
          "type": "uint256"
        }
      ],
      "name": "Transfer",
      "type": "event"
    },
    {
      "inputs": [],
      "name": "MAX_SUPPLY",
      "outputs": [
        {
          "internalType": "uint256",
          "name": "",
          "type": "uint256"
        }
      ],
      "stateMutability": "view",
      "type": "function"
    },
    {
      "inputs": [],
      "name": "TOKEN_PRICE",
      "outputs": [
        {
          "internalType": "uint256",
          "name": "",
          "type": "uint256"
        }
      ],
      "stateMutability": "view",
      "type": "function"
    },
    {
      "inputs": [
        {
          "internalType": "address",
          "name": "to",
          "type": "address"
        },
        {
          "internalType": "uint256",
          "name": "tokenId",
          "type": "uint256"
        }
      ],
      "name": "approve",
      "outputs": [],
      "stateMutability": "nonpayable",
      "type": "function"
    },
    {
      "inputs": [
        {
          "internalType": "address",
          "name": "owner",
          "type": "address"
        }
      ],
      "name": "balanceOf",
      "outputs": [
        {
          "internalType": "uint256",
          "name": "",
          "type": "uint256"
        }
      ],
      "stateMutability": "view",
      "type": "function"
    },
    {
      "inputs": [
        {
          "internalType": "uint256",
          "name": "tokenId",
          "type": "uint256"
        }
      ],
      "name": "getApproved",
      "outputs": [
        {
          "internalType": "address",
          "name": "",
          "type": "address"
        }
      ],
      "stateMutability": "view",
      "type": "function"
    },
    {
      "inputs": [
        {
          "internalType": "address",
          "name": "owner",
          "type": "address"
        },
        {
          "internalType": "address",
          "name": "operator",
          "type": "address"
        }
      ],
      "name": "isApprovedForAll",
      "outputs": [
        {
          "internalType": "bool",
          "name": "",
          "type": "bool"
        }
      ],
      "stateMutability": "view",
      "type": "function"
    },
    {
      "inputs": [
        {
          "internalType": "bytes32",
          "name": "hash",
          "type": "bytes32"
        },
        {
          "internalType": "bytes",
          "name": "signature",
          "type": "bytes"
        },
        {
          "internalType": "string",
          "name": "nonce",
          "type": "string"
        },
        {
          "internalType": "uint256",
          "name": "quantity",
          "type": "uint256"
        }
      ],
      "name": "mint",
      "outputs": [],
      "stateMutability": "payable",
      "type": "function"
    },
    {
      "inputs": [],
      "name": "name",
      "outputs": [
        {
          "internalType": "string",
          "name": "",
          "type": "string"
        }
      ],
      "stateMutability": "view",
      "type": "function"
    },
    {
      "inputs": [
        {
          "internalType": "uint256",
          "name": "tokenId",
          "type": "uint256"
        }
      ],
      "name": "ownerOf",
      "outputs": [
        {
          "internalType": "address",
          "name": "",
          "type": "address"
        }
      ],
      "stateMutability": "view",
      "type": "function"
    },
    {
      "inputs": [
        {
          "internalType": "address",
          "name": "from",
          "type": "address"
        },
        {
          "internalType": "address",
          "name": "to",
          "type": "address"
        },
        {
          "internalType": "uint256",
          "name": "tokenId",
          "type": "uint256"
        }
      ],
      "name": "safeTransferFrom",
      "outputs": [],
      "stateMutability": "nonpayable",
      "type": "function"
    },
    {
      "inputs": [
        {
          "internalType": "address",
          "name": "from",
          "type": "address"
        },
        {
          "internalType": "address",
          "name": "to",
          "type": "address"
        },
        {
          "internalType": "uint256",
          "name": "tokenId",
          "type": "uint256"
        },
        {
          "internalType": "bytes",
          "name": "_data",
          "type": "bytes"
        }
      ],
      "name": "safeTransferFrom",
      "outputs": [],
      "stateMutability": "nonpayable",
      "type": "function"
    },
    {
      "inputs": [
        {
          "internalType": "address",
          "name": "operator",
          "type": "address"
        },
        {
          "internalType": "bool",
          "name": "approved",
          "type": "bool"
        }
      ],
      "name": "setApprovalForAll",
      "outputs": [],
      "stateMutability": "nonpayable",
      "type": "function"
    },
    {
      "inputs": [
        {
          "internalType": "string",
          "name": "baseURI",
          "type": "string"
        }
      ],
      "name": "setBaseURI",
      "outputs": [],
      "stateMutability": "nonpayable",
      "type": "function"
    },
    {
      "inputs": [
        {
          "internalType": "bytes4",
          "name": "interfaceId",
          "type": "bytes4"
        }
      ],
      "name": "supportsInterface",
      "outputs": [
        {
          "internalType": "bool",
          "name": "",
          "type": "bool"
        }
      ],
      "stateMutability": "view",
      "type": "function"
    },
    {
      "inputs": [],
      "name": "symbol",
      "outputs": [
        {
          "internalType": "string",
          "name": "",
          "type": "string"
        }
      ],
      "stateMutability": "view",
      "type": "function"
    },
    {
      "inputs": [
        {
          "internalType": "uint256",
          "name": "tokenId",
          "type": "uint256"
        }
      ],
      "name": "tokenURI",
      "outputs": [
        {
          "internalType": "string",
          "name": "",
          "type": "string"
        }
      ],
      "stateMutability": "view",
      "type": "function"
    },
    {
      "inputs": [],
      "name": "totalSupply",
      "outputs": [
        {
          "internalType": "uint256",
          "name": "",
          "type": "uint256"
        }
      ],
      "stateMutability": "view",
      "type": "function"
    },
    {
      "inputs": [
        {
          "internalType": "address",
          "name": "from",
          "type": "address"
        },
        {
          "internalType": "address",
          "name": "to",
          "type": "address"
        },
        {
          "internalType": "uint256",
          "name": "tokenId",
          "type": "uint256"
        }
      ],
      "name": "transferFrom",
      "outputs": [],
      "stateMutability": "nonpayable",
      "type": "function"
    }
  ],
  "transactionHash": "0x20eedbc36ca41b4dba8ae6e6875d5b07bdaf505d5bbb2573f17844c1d3674132",
  "args": [
    "ipfs://bafybeiexk35logx4qjqpvkvoi5q7zji34ulh42gb4wxwmmh5ofxr2fwsre/"
  ],
  "numDeployments": 2,
  "solcInputHash": "4b9785c0e9e9a38097cc17b5b57bd34b",
  "bytecode": "0x60806040523480156200001157600080fd5b5060405162003af938038062003af9833981810160405281019062000037919062000234565b6040518060400160405280600881526020017f4f70656e204172740000000000000000000000000000000000000000000000008152506040518060400160405280600581526020017f4f504152540000000000000000000000000000000000000000000000000000008152508160029080519060200190620000bb92919062000112565b508060039080519060200190620000d492919062000112565b50620000e56200010d60201b60201c565b600081905550505080600890805190602001906200010592919062000112565b5050620003e9565b600090565b82805462000120906200030e565b90600052602060002090601f01602090048101928262000144576000855562000190565b82601f106200015f57805160ff191683800117855562000190565b8280016001018555821562000190579182015b828111156200018f57825182559160200191906001019062000172565b5b5090506200019f9190620001a3565b5090565b5b80821115620001be576000816000905550600101620001a4565b5090565b6000620001d9620001d384620002a2565b62000279565b905082815260208101848484011115620001f257600080fd5b620001ff848285620002d8565b509392505050565b600082601f8301126200021957600080fd5b81516200022b848260208601620001c2565b91505092915050565b6000602082840312156200024757600080fd5b600082015167ffffffffffffffff8111156200026257600080fd5b620002708482850162000207565b91505092915050565b60006200028562000298565b905062000293828262000344565b919050565b6000604051905090565b600067ffffffffffffffff821115620002c057620002bf620003a9565b5b620002cb82620003d8565b9050602081019050919050565b60005b83811015620002f8578082015181840152602081019050620002db565b8381111562000308576000848401525b50505050565b600060028204905060018216806200032757607f821691505b602082108114156200033e576200033d6200037a565b5b50919050565b6200034f82620003d8565b810181811067ffffffffffffffff82111715620003715762000370620003a9565b5b80604052505050565b7f4e487b7100000000000000000000000000000000000000000000000000000000600052602260045260246000fd5b7f4e487b7100000000000000000000000000000000000000000000000000000000600052604160045260246000fd5b6000601f19601f8301169050919050565b61370080620003f96000396000f3fe6080604052600436106101095760003560e01c806355f804b311610095578063a22cb46511610064578063a22cb4651461036e578063b88d4fde14610397578063c87b56dd146103c0578063d2d8cb67146103fd578063e985e9c51461042857610109565b806355f804b3146102a05780636352211e146102c957806370a082311461030657806395d89b411461034357610109565b806318160ddd116100dc57806318160ddd146101dc5780631a2bf8c41461020757806323b872dd1461022357806332cb6b0c1461024c57806342842e0e1461027757610109565b806301ffc9a71461010e57806306fdde031461014b578063081812fc14610176578063095ea7b3146101b3575b600080fd5b34801561011a57600080fd5b50610135600480360381019061013091906129cb565b610465565b6040516101429190612e19565b60405180910390f35b34801561015757600080fd5b50610160610477565b60405161016d9190612e79565b60405180910390f35b34801561018257600080fd5b5061019d60048036038101906101989190612a5e565b610509565b6040516101aa9190612db2565b60405180910390f35b3480156101bf57600080fd5b506101da60048036038101906101d591906128fc565b610585565b005b3480156101e857600080fd5b506101f1610690565b6040516101fe9190612fbb565b60405180910390f35b610221600480360381019061021c9190612938565b6106a7565b005b34801561022f57600080fd5b5061024a600480360381019061024591906127f6565b610899565b005b34801561025857600080fd5b506102616108a9565b60405161026e9190612fbb565b60405180910390f35b34801561028357600080fd5b5061029e600480360381019061029991906127f6565b6108ae565b005b3480156102ac57600080fd5b506102c760048036038101906102c29190612a1d565b6108ce565b005b3480156102d557600080fd5b506102f060048036038101906102eb9190612a5e565b6108e8565b6040516102fd9190612db2565b60405180910390f35b34801561031257600080fd5b5061032d60048036038101906103289190612791565b6108fe565b60405161033a9190612fbb565b60405180910390f35b34801561034f57600080fd5b506103586109ce565b6040516103659190612e79565b60405180910390f35b34801561037a57600080fd5b50610395600480360381019061039091906128c0565b610a60565b005b3480156103a357600080fd5b506103be60048036038101906103b99190612845565b610bd8565b005b3480156103cc57600080fd5b506103e760048036038101906103e29190612a5e565b610c54565b6040516103f49190612e79565b60405180910390f35b34801561040957600080fd5b50610412610cf3565b60405161041f9190612fbb565b60405180910390f35b34801561043457600080fd5b5061044f600480360381019061044a91906127ba565b610cfd565b60405161045c9190612e19565b60405180910390f35b600061047082610d91565b9050919050565b60606002805461048690613282565b80601f01602080910402602001604051908101604052809291908181526020018280546104b290613282565b80156104ff5780601f106104d4576101008083540402835291602001916104ff565b820191906000526020600020905b8154815290600101906020018083116104e257829003601f168201915b5050505050905090565b600061051482610e73565b61054a576040517fcf4700e400000000000000000000000000000000000000000000000000000000815260040160405180910390fd5b6006600083815260200190815260200160002060009054906101000a900473ffffffffffffffffffffffffffffffffffffffff169050919050565b6000610590826108e8565b90508073ffffffffffffffffffffffffffffffffffffffff168373ffffffffffffffffffffffffffffffffffffffff1614156105f8576040517f943f7b8c00000000000000000000000000000000000000000000000000000000815260040160405180910390fd5b8073ffffffffffffffffffffffffffffffffffffffff16610617610ec1565b73ffffffffffffffffffffffffffffffffffffffff1614158015610649575061064781610642610ec1565b610cfd565b155b15610680576040517fcfb3b94200000000000000000000000000000000000000000000000000000000815260040160405180910390fd5b61068b838383610ec9565b505050565b600061069a610f7b565b6001546000540303905090565b6019816106b2610690565b6106bc91906130a0565b11156106fd576040517f08c379a00000000000000000000000000000000000000000000000000000000081526004016106f490612f5b565b60405180910390fd5b806512309ce5400061070f9190613127565b341015610751576040517f08c379a000000000000000000000000000000000000000000000000000000000815260040161074890612edb565b60405180910390fd5b8361075d338385610f80565b1461079d576040517f08c379a000000000000000000000000000000000000000000000000000000000815260040161079490612ebb565b60405180910390fd5b6009826040516107ad9190612d51565b908152602001604051809103902060009054906101000a900460ff1615610809576040517f08c379a000000000000000000000000000000000000000000000000000000000815260040161080090612f9b565b60405180910390fd5b6108138484610fe1565b610852576040517f08c379a000000000000000000000000000000000000000000000000000000000815260040161084990612f1b565b60405180910390fd5b61085c3382611040565b600160098360405161086e9190612d51565b908152602001604051809103902060006101000a81548160ff02191690831515021790555050505050565b6108a483838361105e565b505050565b601981565b6108c983838360405180602001604052806000815250610bd8565b505050565b80600890805190602001906108e492919061255d565b5050565b60006108f38261154f565b600001519050919050565b60008073ffffffffffffffffffffffffffffffffffffffff168273ffffffffffffffffffffffffffffffffffffffff161415610966576040517f8f4eb60400000000000000000000000000000000000000000000000000000000815260040160405180910390fd5b600560008373ffffffffffffffffffffffffffffffffffffffff1673ffffffffffffffffffffffffffffffffffffffff16815260200190815260200160002060000160009054906101000a900467ffffffffffffffff1667ffffffffffffffff169050919050565b6060600380546109dd90613282565b80601f0160208091040260200160405190810160405280929190818152602001828054610a0990613282565b8015610a565780601f10610a2b57610100808354040283529160200191610a56565b820191906000526020600020905b815481529060010190602001808311610a3957829003601f168201915b5050505050905090565b610a68610ec1565b73ffffffffffffffffffffffffffffffffffffffff168273ffffffffffffffffffffffffffffffffffffffff161415610acd576040517fb06307db00000000000000000000000000000000000000000000000000000000815260040160405180910390fd5b8060076000610ada610ec1565b73ffffffffffffffffffffffffffffffffffffffff1673ffffffffffffffffffffffffffffffffffffffff16815260200190815260200160002060008473ffffffffffffffffffffffffffffffffffffffff1673ffffffffffffffffffffffffffffffffffffffff16815260200190815260200160002060006101000a81548160ff0219169083151502179055508173ffffffffffffffffffffffffffffffffffffffff16610b87610ec1565b73ffffffffffffffffffffffffffffffffffffffff167f17307eab39ab6107e8899845ad3d59bd9653f200f220920489ca2b5937696c3183604051610bcc9190612e19565b60405180910390a35050565b610be384848461105e565b610c028373ffffffffffffffffffffffffffffffffffffffff166117de565b8015610c175750610c1584848484611801565b155b15610c4e576040517fd1a57ed600000000000000000000000000000000000000000000000000000000815260040160405180910390fd5b50505050565b6060610c5f82610e73565b610c95576040517fa14c4b5000000000000000000000000000000000000000000000000000000000815260040160405180910390fd5b6000610c9f611961565b9050600081511415610cc05760405180602001604052806000815250610ceb565b80610cca846119f3565b604051602001610cdb929190612d68565b6040516020818303038152906040525b915050919050565b6512309ce5400081565b6000600760008473ffffffffffffffffffffffffffffffffffffffff1673ffffffffffffffffffffffffffffffffffffffff16815260200190815260200160002060008373ffffffffffffffffffffffffffffffffffffffff1673ffffffffffffffffffffffffffffffffffffffff16815260200190815260200160002060009054906101000a900460ff16905092915050565b60007f80ac58cd000000000000000000000000000000000000000000000000000000007bffffffffffffffffffffffffffffffffffffffffffffffffffffffff1916827bffffffffffffffffffffffffffffffffffffffffffffffffffffffff19161480610e5c57507f5b5e139f000000000000000000000000000000000000000000000000000000007bffffffffffffffffffffffffffffffffffffffffffffffffffffffff1916827bffffffffffffffffffffffffffffffffffffffffffffffffffffffff1916145b80610e6c5750610e6b82611ba0565b5b9050919050565b600081610e7e610f7b565b11158015610e8d575060005482105b8015610eba575060046000838152602001908152602001600020600001601c9054906101000a900460ff16155b9050919050565b600033905090565b826006600084815260200190815260200160002060006101000a81548173ffffffffffffffffffffffffffffffffffffffff021916908373ffffffffffffffffffffffffffffffffffffffff160217905550818373ffffffffffffffffffffffffffffffffffffffff168273ffffffffffffffffffffffffffffffffffffffff167f8c5be1e5ebec7d5bd14f71427d1e84f3dd0314c0f7b2291e5b200ac8c7c3b92560405160405180910390a4505050565b600090565b600080848484604051602001610f9893929190612d18565b60405160208183030381529060405280519060200120604051602001610fbe9190612d8c565b604051602081830303815290604052805190602001209050809150509392505050565b6000610ff68284611c0a90919063ffffffff16565b73ffffffffffffffffffffffffffffffffffffffff1673b10eff9454bd358fbfdb1af033a20768e9247cb673ffffffffffffffffffffffffffffffffffffffff1614905092915050565b61105a828260405180602001604052806000815250611c31565b5050565b60006110698261154f565b90506000816000015173ffffffffffffffffffffffffffffffffffffffff16611090610ec1565b73ffffffffffffffffffffffffffffffffffffffff1614806110c357506110c282600001516110bd610ec1565b610cfd565b5b8061110857506110d1610ec1565b73ffffffffffffffffffffffffffffffffffffffff166110f084610509565b73ffffffffffffffffffffffffffffffffffffffff16145b905080611141576040517f59c896be00000000000000000000000000000000000000000000000000000000815260040160405180910390fd5b8473ffffffffffffffffffffffffffffffffffffffff16826000015173ffffffffffffffffffffffffffffffffffffffff16146111aa576040517fa114810000000000000000000000000000000000000000000000000000000000815260040160405180910390fd5b600073ffffffffffffffffffffffffffffffffffffffff168473ffffffffffffffffffffffffffffffffffffffff161415611211576040517fea553b3400000000000000000000000000000000000000000000000000000000815260040160405180910390fd5b61121e8585856001611c43565b61122e6000848460000151610ec9565b6001600560008773ffffffffffffffffffffffffffffffffffffffff1673ffffffffffffffffffffffffffffffffffffffff16815260200190815260200160002060000160008282829054906101000a900467ffffffffffffffff160392506101000a81548167ffffffffffffffff021916908367ffffffffffffffff1602179055506001600560008673ffffffffffffffffffffffffffffffffffffffff1673ffffffffffffffffffffffffffffffffffffffff16815260200190815260200160002060000160008282829054906101000a900467ffffffffffffffff160192506101000a81548167ffffffffffffffff021916908367ffffffffffffffff160217905550836004600085815260200190815260200160002060000160006101000a81548173ffffffffffffffffffffffffffffffffffffffff021916908373ffffffffffffffffffffffffffffffffffffffff160217905550426004600085815260200190815260200160002060000160146101000a81548167ffffffffffffffff021916908367ffffffffffffffff1602179055506000600184019050600073ffffffffffffffffffffffffffffffffffffffff166004600083815260200190815260200160002060000160009054906101000a900473ffffffffffffffffffffffffffffffffffffffff1673ffffffffffffffffffffffffffffffffffffffff1614156114df576000548110156114de5782600001516004600083815260200190815260200160002060000160006101000a81548173ffffffffffffffffffffffffffffffffffffffff021916908373ffffffffffffffffffffffffffffffffffffffff16021790555082602001516004600083815260200190815260200160002060000160146101000a81548167ffffffffffffffff021916908367ffffffffffffffff1602179055505b5b50828473ffffffffffffffffffffffffffffffffffffffff168673ffffffffffffffffffffffffffffffffffffffff167fddf252ad1be2c89b69c2b068fc378daa952ba7f163c4a11628f55a4df523b3ef60405160405180910390a46115488585856001611c49565b5050505050565b6115576125e3565b600082905080611565610f7b565b11158015611574575060005481105b156117a7576000600460008381526020019081526020016000206040518060600160405290816000820160009054906101000a900473ffffffffffffffffffffffffffffffffffffffff1673ffffffffffffffffffffffffffffffffffffffff1673ffffffffffffffffffffffffffffffffffffffff1681526020016000820160149054906101000a900467ffffffffffffffff1667ffffffffffffffff1667ffffffffffffffff16815260200160008201601c9054906101000a900460ff161515151581525050905080604001516117a557600073ffffffffffffffffffffffffffffffffffffffff16816000015173ffffffffffffffffffffffffffffffffffffffff16146116895780925050506117d9565b5b6001156117a457818060019003925050600460008381526020019081526020016000206040518060600160405290816000820160009054906101000a900473ffffffffffffffffffffffffffffffffffffffff1673ffffffffffffffffffffffffffffffffffffffff1673ffffffffffffffffffffffffffffffffffffffff1681526020016000820160149054906101000a900467ffffffffffffffff1667ffffffffffffffff1667ffffffffffffffff16815260200160008201601c9054906101000a900460ff1615151515815250509050600073ffffffffffffffffffffffffffffffffffffffff16816000015173ffffffffffffffffffffffffffffffffffffffff161461179f5780925050506117d9565b61168a565b5b505b6040517fdf2d9b4200000000000000000000000000000000000000000000000000000000815260040160405180910390fd5b919050565b6000808273ffffffffffffffffffffffffffffffffffffffff163b119050919050565b60008373ffffffffffffffffffffffffffffffffffffffff1663150b7a02611827610ec1565b8786866040518563ffffffff1660e01b81526004016118499493929190612dcd565b602060405180830381600087803b15801561186357600080fd5b505af192505050801561189457506040513d601f19601f8201168201806040525081019061189191906129f4565b60015b61190e573d80600081146118c4576040519150601f19603f3d011682016040523d82523d6000602084013e6118c9565b606091505b50600081511415611906576040517fd1a57ed600000000000000000000000000000000000000000000000000000000815260040160405180910390fd5b805181602001fd5b63150b7a0260e01b7bffffffffffffffffffffffffffffffffffffffffffffffffffffffff1916817bffffffffffffffffffffffffffffffffffffffffffffffffffffffff191614915050949350505050565b60606008805461197090613282565b80601f016020809104026020016040519081016040528092919081815260200182805461199c90613282565b80156119e95780601f106119be576101008083540402835291602001916119e9565b820191906000526020600020905b8154815290600101906020018083116119cc57829003601f168201915b5050505050905090565b60606000821415611a3b576040518060400160405280600181526020017f30000000000000000000000000000000000000000000000000000000000000008152509050611b9b565b600082905060005b60008214611a6d578080611a56906132e5565b915050600a82611a6691906130f6565b9150611a43565b60008167ffffffffffffffff811115611aaf577f4e487b7100000000000000000000000000000000000000000000000000000000600052604160045260246000fd5b6040519080825280601f01601f191660200182016040528015611ae15781602001600182028036833780820191505090505b5090505b60008514611b9457600182611afa9190613181565b9150600a85611b099190613366565b6030611b1591906130a0565b60f81b818381518110611b51577f4e487b7100000000000000000000000000000000000000000000000000000000600052603260045260246000fd5b60200101907effffffffffffffffffffffffffffffffffffffffffffffffffffffffffffff1916908160001a905350600a85611b8d91906130f6565b9450611ae5565b8093505050505b919050565b60007f01ffc9a7000000000000000000000000000000000000000000000000000000007bffffffffffffffffffffffffffffffffffffffffffffffffffffffff1916827bffffffffffffffffffffffffffffffffffffffffffffffffffffffff1916149050919050565b6000806000611c198585611c4f565b91509150611c2681611cd2565b819250505092915050565b611c3e8383836001612023565b505050565b50505050565b50505050565b600080604183511415611c915760008060006020860151925060408601519150606086015160001a9050611c85878285856123f1565b94509450505050611ccb565b604083511415611cc2576000806020850151915060408501519050611cb78683836124fe565b935093505050611ccb565b60006002915091505b9250929050565b60006004811115611d0c577f4e487b7100000000000000000000000000000000000000000000000000000000600052602160045260246000fd5b816004811115611d45577f4e487b7100000000000000000000000000000000000000000000000000000000600052602160045260246000fd5b1415611d5057612020565b60016004811115611d8a577f4e487b7100000000000000000000000000000000000000000000000000000000600052602160045260246000fd5b816004811115611dc3577f4e487b7100000000000000000000000000000000000000000000000000000000600052602160045260246000fd5b1415611e04576040517f08c379a0000000000000000000000000000000000000000000000000000000008152600401611dfb90612e9b565b60405180910390fd5b60026004811115611e3e577f4e487b7100000000000000000000000000000000000000000000000000000000600052602160045260246000fd5b816004811115611e77577f4e487b7100000000000000000000000000000000000000000000000000000000600052602160045260246000fd5b1415611eb8576040517f08c379a0000000000000000000000000000000000000000000000000000000008152600401611eaf90612efb565b60405180910390fd5b60036004811115611ef2577f4e487b7100000000000000000000000000000000000000000000000000000000600052602160045260246000fd5b816004811115611f2b577f4e487b7100000000000000000000000000000000000000000000000000000000600052602160045260246000fd5b1415611f6c576040517f08c379a0000000000000000000000000000000000000000000000000000000008152600401611f6390612f3b565b60405180910390fd5b600480811115611fa5577f4e487b7100000000000000000000000000000000000000000000000000000000600052602160045260246000fd5b816004811115611fde577f4e487b7100000000000000000000000000000000000000000000000000000000600052602160045260246000fd5b141561201f576040517f08c379a000000000000000000000000000000000000000000000000000000000815260040161201690612f7b565b60405180910390fd5b5b50565b600080549050600073ffffffffffffffffffffffffffffffffffffffff168573ffffffffffffffffffffffffffffffffffffffff161415612090576040517f2e07630000000000000000000000000000000000000000000000000000000000815260040160405180910390fd5b60008414156120cb576040517fb562e8dd00000000000000000000000000000000000000000000000000000000815260040160405180910390fd5b6120d86000868387611c43565b83600560008773ffffffffffffffffffffffffffffffffffffffff1673ffffffffffffffffffffffffffffffffffffffff16815260200190815260200160002060000160008282829054906101000a900467ffffffffffffffff160192506101000a81548167ffffffffffffffff021916908367ffffffffffffffff16021790555083600560008773ffffffffffffffffffffffffffffffffffffffff1673ffffffffffffffffffffffffffffffffffffffff16815260200190815260200160002060000160088282829054906101000a900467ffffffffffffffff160192506101000a81548167ffffffffffffffff021916908367ffffffffffffffff160217905550846004600083815260200190815260200160002060000160006101000a81548173ffffffffffffffffffffffffffffffffffffffff021916908373ffffffffffffffffffffffffffffffffffffffff160217905550426004600083815260200190815260200160002060000160146101000a81548167ffffffffffffffff021916908367ffffffffffffffff1602179055506000819050600085820190508380156122a257506122a18773ffffffffffffffffffffffffffffffffffffffff166117de565b5b15612368575b818773ffffffffffffffffffffffffffffffffffffffff16600073ffffffffffffffffffffffffffffffffffffffff167fddf252ad1be2c89b69c2b068fc378daa952ba7f163c4a11628f55a4df523b3ef60405160405180910390a46123176000888480600101955088611801565b61234d576040517fd1a57ed600000000000000000000000000000000000000000000000000000000815260040160405180910390fd5b808214156122a857826000541461236357600080fd5b6123d4565b5b818060010192508773ffffffffffffffffffffffffffffffffffffffff16600073ffffffffffffffffffffffffffffffffffffffff167fddf252ad1be2c89b69c2b068fc378daa952ba7f163c4a11628f55a4df523b3ef60405160405180910390a480821415612369575b8160008190555050506123ea6000868387611c49565b5050505050565b6000807f7fffffffffffffffffffffffffffffff5d576e7357a4501ddfe92f46681b20a08360001c111561242c5760006003915091506124f5565b601b8560ff16141580156124445750601c8560ff1614155b156124565760006004915091506124f5565b60006001878787876040516000815260200160405260405161247b9493929190612e34565b6020604051602081039080840390855afa15801561249d573d6000803e3d6000fd5b505050602060405103519050600073ffffffffffffffffffffffffffffffffffffffff168173ffffffffffffffffffffffffffffffffffffffff1614156124ec576000600192509250506124f5565b80600092509250505b94509492505050565b60008060007f7fffffffffffffffffffffffffffffffffffffffffffffffffffffffffffffff60001b841690506000601b60ff8660001c901c61254191906130a0565b905061254f878288856123f1565b935093505050935093915050565b82805461256990613282565b90600052602060002090601f01602090048101928261258b57600085556125d2565b82601f106125a457805160ff19168380011785556125d2565b828001600101855582156125d2579182015b828111156125d15782518255916020019190600101906125b6565b5b5090506125df9190612626565b5090565b6040518060600160405280600073ffffffffffffffffffffffffffffffffffffffff168152602001600067ffffffffffffffff1681526020016000151581525090565b5b8082111561263f576000816000905550600101612627565b5090565b600061265661265184612ffb565b612fd6565b90508281526020810184848401111561266e57600080fd5b612679848285613240565b509392505050565b600061269461268f8461302c565b612fd6565b9050828152602081018484840111156126ac57600080fd5b6126b7848285613240565b509392505050565b6000813590506126ce81613657565b92915050565b6000813590506126e38161366e565b92915050565b6000813590506126f881613685565b92915050565b60008135905061270d8161369c565b92915050565b6000815190506127228161369c565b92915050565b600082601f83011261273957600080fd5b8135612749848260208601612643565b91505092915050565b600082601f83011261276357600080fd5b8135612773848260208601612681565b91505092915050565b60008135905061278b816136b3565b92915050565b6000602082840312156127a357600080fd5b60006127b1848285016126bf565b91505092915050565b600080604083850312156127cd57600080fd5b60006127db858286016126bf565b92505060206127ec858286016126bf565b9150509250929050565b60008060006060848603121561280b57600080fd5b6000612819868287016126bf565b935050602061282a868287016126bf565b925050604061283b8682870161277c565b9150509250925092565b6000806000806080858703121561285b57600080fd5b6000612869878288016126bf565b945050602061287a878288016126bf565b935050604061288b8782880161277c565b925050606085013567ffffffffffffffff8111156128a857600080fd5b6128b487828801612728565b91505092959194509250565b600080604083850312156128d357600080fd5b60006128e1858286016126bf565b92505060206128f2858286016126d4565b9150509250929050565b6000806040838503121561290f57600080fd5b600061291d858286016126bf565b925050602061292e8582860161277c565b9150509250929050565b6000806000806080858703121561294e57600080fd5b600061295c878288016126e9565b945050602085013567ffffffffffffffff81111561297957600080fd5b61298587828801612728565b935050604085013567ffffffffffffffff8111156129a257600080fd5b6129ae87828801612752565b92505060606129bf8782880161277c565b91505092959194509250565b6000602082840312156129dd57600080fd5b60006129eb848285016126fe565b91505092915050565b600060208284031215612a0657600080fd5b6000612a1484828501612713565b91505092915050565b600060208284031215612a2f57600080fd5b600082013567ffffffffffffffff811115612a4957600080fd5b612a5584828501612752565b91505092915050565b600060208284031215612a7057600080fd5b6000612a7e8482850161277c565b91505092915050565b612a90816131b5565b82525050565b612aa7612aa2826131b5565b61332e565b82525050565b612ab6816131c7565b82525050565b612ac5816131d3565b82525050565b612adc612ad7826131d3565b613340565b82525050565b6000612aed8261305d565b612af78185613073565b9350612b0781856020860161324f565b612b1081613453565b840191505092915050565b6000612b2682613068565b612b308185613084565b9350612b4081856020860161324f565b612b4981613453565b840191505092915050565b6000612b5f82613068565b612b698185613095565b9350612b7981856020860161324f565b80840191505092915050565b6000612b92601883613084565b9150612b9d82613471565b602082019050919050565b6000612bb5601683613084565b9150612bc08261349a565b602082019050919050565b6000612bd8601983613084565b9150612be3826134c3565b602082019050919050565b6000612bfb601f83613084565b9150612c06826134ec565b602082019050919050565b6000612c1e601c83613095565b9150612c2982613515565b601c82019050919050565b6000612c41601683613084565b9150612c4c8261353e565b602082019050919050565b6000612c64602283613084565b9150612c6f82613567565b604082019050919050565b6000612c87602083613084565b9150612c92826135b6565b602082019050919050565b6000612caa602283613084565b9150612cb5826135df565b604082019050919050565b6000612ccd601183613084565b9150612cd88261362e565b602082019050919050565b612cec81613229565b82525050565b612d03612cfe82613229565b61335c565b82525050565b612d1281613233565b82525050565b6000612d248286612a96565b601482019150612d348285612cf2565b602082019150612d448284612b54565b9150819050949350505050565b6000612d5d8284612b54565b915081905092915050565b6000612d748285612b54565b9150612d808284612b54565b91508190509392505050565b6000612d9782612c11565b9150612da38284612acb565b60208201915081905092915050565b6000602082019050612dc76000830184612a87565b92915050565b6000608082019050612de26000830187612a87565b612def6020830186612a87565b612dfc6040830185612ce3565b8181036060830152612e0e8184612ae2565b905095945050505050565b6000602082019050612e2e6000830184612aad565b92915050565b6000608082019050612e496000830187612abc565b612e566020830186612d09565b612e636040830185612abc565b612e706060830184612abc565b95945050505050565b60006020820190508181036000830152612e938184612b1b565b905092915050565b60006020820190508181036000830152612eb481612b85565b9050919050565b60006020820190508181036000830152612ed481612ba8565b9050919050565b60006020820190508181036000830152612ef481612bcb565b9050919050565b60006020820190508181036000830152612f1481612bee565b9050919050565b60006020820190508181036000830152612f3481612c34565b9050919050565b60006020820190508181036000830152612f5481612c57565b9050919050565b60006020820190508181036000830152612f7481612c7a565b9050919050565b60006020820190508181036000830152612f9481612c9d565b9050919050565b60006020820190508181036000830152612fb481612cc0565b9050919050565b6000602082019050612fd06000830184612ce3565b92915050565b6000612fe0612ff1565b9050612fec82826132b4565b919050565b6000604051905090565b600067ffffffffffffffff82111561301657613015613424565b5b61301f82613453565b9050602081019050919050565b600067ffffffffffffffff82111561304757613046613424565b5b61305082613453565b9050602081019050919050565b600081519050919050565b600081519050919050565b600082825260208201905092915050565b600082825260208201905092915050565b600081905092915050565b60006130ab82613229565b91506130b683613229565b9250827fffffffffffffffffffffffffffffffffffffffffffffffffffffffffffffffff038211156130eb576130ea613397565b5b828201905092915050565b600061310182613229565b915061310c83613229565b92508261311c5761311b6133c6565b5b828204905092915050565b600061313282613229565b915061313d83613229565b9250817fffffffffffffffffffffffffffffffffffffffffffffffffffffffffffffffff048311821515161561317657613175613397565b5b828202905092915050565b600061318c82613229565b915061319783613229565b9250828210156131aa576131a9613397565b5b828203905092915050565b60006131c082613209565b9050919050565b60008115159050919050565b6000819050919050565b60007fffffffff0000000000000000000000000000000000000000000000000000000082169050919050565b600073ffffffffffffffffffffffffffffffffffffffff82169050919050565b6000819050919050565b600060ff82169050919050565b82818337600083830152505050565b60005b8381101561326d578082015181840152602081019050613252565b8381111561327c576000848401525b50505050565b6000600282049050600182168061329a57607f821691505b602082108114156132ae576132ad6133f5565b5b50919050565b6132bd82613453565b810181811067ffffffffffffffff821117156132dc576132db613424565b5b80604052505050565b60006132f082613229565b91507fffffffffffffffffffffffffffffffffffffffffffffffffffffffffffffffff82141561332357613322613397565b5b600182019050919050565b60006133398261334a565b9050919050565b6000819050919050565b600061335582613464565b9050919050565b6000819050919050565b600061337182613229565b915061337c83613229565b92508261338c5761338b6133c6565b5b828206905092915050565b7f4e487b7100000000000000000000000000000000000000000000000000000000600052601160045260246000fd5b7f4e487b7100000000000000000000000000000000000000000000000000000000600052601260045260246000fd5b7f4e487b7100000000000000000000000000000000000000000000000000000000600052602260045260246000fd5b7f4e487b7100000000000000000000000000000000000000000000000000000000600052604160045260246000fd5b6000601f19601f8301169050919050565b60008160601b9050919050565b7f45434453413a20696e76616c6964207369676e61747572650000000000000000600082015250565b7f4661696c65642076616c69646174696e67206861736800000000000000000000600082015250565b7f4e6f7420656e6f75676820657468207472616e73666572656400000000000000600082015250565b7f45434453413a20696e76616c6964207369676e6174757265206c656e67746800600082015250565b7f19457468657265756d205369676e6564204d6573736167653a0a333200000000600082015250565b7f446972656374206d696e7420646973616c6c6f77656400000000000000000000600082015250565b7f45434453413a20696e76616c6964207369676e6174757265202773272076616c60008201527f7565000000000000000000000000000000000000000000000000000000000000602082015250565b7f507572636861736520776f756c6420657863656564206d617820737570706c79600082015250565b7f45434453413a20696e76616c6964207369676e6174757265202776272076616c60008201527f7565000000000000000000000000000000000000000000000000000000000000602082015250565b7f4861736820616c72656164792075736564000000000000000000000000000000600082015250565b613660816131b5565b811461366b57600080fd5b50565b613677816131c7565b811461368257600080fd5b50565b61368e816131d3565b811461369957600080fd5b50565b6136a5816131dd565b81146136b057600080fd5b50565b6136bc81613229565b81146136c757600080fd5b5056fea26469706673582212204a5b6d074d28f42b1d4a2affd3ed27ccb745753a6fd0ab63b7f9347549b265df64736f6c63430008040033",
  "devdoc": {
    "kind": "dev",
    "methods": {
      "approve(address,uint256)": {
        "details": "See {IERC721-approve}."
      },
      "balanceOf(address)": {
        "details": "See {IERC721-balanceOf}."
      },
      "getApproved(uint256)": {
        "details": "See {IERC721-getApproved}."
      },
      "isApprovedForAll(address,address)": {
        "details": "See {IERC721-isApprovedForAll}."
      },
      "name()": {
        "details": "See {IERC721Metadata-name}."
      },
      "ownerOf(uint256)": {
        "details": "See {IERC721-ownerOf}."
      },
      "safeTransferFrom(address,address,uint256)": {
        "details": "See {IERC721-safeTransferFrom}."
      },
      "safeTransferFrom(address,address,uint256,bytes)": {
        "details": "See {IERC721-safeTransferFrom}."
      },
      "setApprovalForAll(address,bool)": {
        "details": "See {IERC721-setApprovalForAll}."
      },
      "supportsInterface(bytes4)": {
        "details": "See {IERC165-supportsInterface}."
      },
      "symbol()": {
        "details": "See {IERC721Metadata-symbol}."
      },
      "tokenURI(uint256)": {
        "details": "See {IERC721Metadata-tokenURI}."
      },
      "totalSupply()": {
        "details": "See {IERC721Enumerable-totalSupply}.Burned tokens are calculated here, use _totalMinted() if you want to count just minted tokens."
      },
      "transferFrom(address,address,uint256)": {
        "details": "See {IERC721-transferFrom}."
      }
    },
    "version": 1
  },
  "userdoc": {
    "kind": "user",
    "methods": {},
    "version": 1
  },
  "storageLayout": {
    "storage": [
      {
        "astId": 1426,
        "contract": "contracts/CollectibleERC721ASecurity.sol:CollectibleERC721ASecurity",
        "label": "_currentIndex",
        "offset": 0,
        "slot": "0",
        "type": "t_uint256"
      },
      {
        "astId": 1428,
        "contract": "contracts/CollectibleERC721ASecurity.sol:CollectibleERC721ASecurity",
        "label": "_burnCounter",
        "offset": 0,
        "slot": "1",
        "type": "t_uint256"
      },
      {
        "astId": 1430,
        "contract": "contracts/CollectibleERC721ASecurity.sol:CollectibleERC721ASecurity",
        "label": "_name",
        "offset": 0,
        "slot": "2",
        "type": "t_string_storage"
      },
      {
        "astId": 1432,
        "contract": "contracts/CollectibleERC721ASecurity.sol:CollectibleERC721ASecurity",
        "label": "_symbol",
        "offset": 0,
        "slot": "3",
        "type": "t_string_storage"
      },
      {
        "astId": 1437,
        "contract": "contracts/CollectibleERC721ASecurity.sol:CollectibleERC721ASecurity",
        "label": "_ownerships",
        "offset": 0,
        "slot": "4",
        "type": "t_mapping(t_uint256,t_struct(TokenOwnership)1415_storage)"
      },
      {
        "astId": 1442,
        "contract": "contracts/CollectibleERC721ASecurity.sol:CollectibleERC721ASecurity",
        "label": "_addressData",
        "offset": 0,
        "slot": "5",
        "type": "t_mapping(t_address,t_struct(AddressData)1424_storage)"
      },
      {
        "astId": 1446,
        "contract": "contracts/CollectibleERC721ASecurity.sol:CollectibleERC721ASecurity",
        "label": "_tokenApprovals",
        "offset": 0,
        "slot": "6",
        "type": "t_mapping(t_uint256,t_address)"
      },
      {
        "astId": 1452,
        "contract": "contracts/CollectibleERC721ASecurity.sol:CollectibleERC721ASecurity",
        "label": "_operatorApprovals",
        "offset": 0,
        "slot": "7",
        "type": "t_mapping(t_address,t_mapping(t_address,t_bool))"
      },
      {
        "astId": 1174,
        "contract": "contracts/CollectibleERC721ASecurity.sol:CollectibleERC721ASecurity",
        "label": "_baseURIValue",
        "offset": 0,
        "slot": "8",
        "type": "t_string_storage"
      },
      {
        "astId": 1178,
        "contract": "contracts/CollectibleERC721ASecurity.sol:CollectibleERC721ASecurity",
        "label": "_usedNonces",
        "offset": 0,
        "slot": "9",
        "type": "t_mapping(t_string_memory_ptr,t_bool)"
      }
    ],
    "types": {
      "t_address": {
        "encoding": "inplace",
        "label": "address",
        "numberOfBytes": "20"
      },
      "t_bool": {
        "encoding": "inplace",
        "label": "bool",
        "numberOfBytes": "1"
      },
      "t_mapping(t_address,t_bool)": {
        "encoding": "mapping",
        "key": "t_address",
        "label": "mapping(address => bool)",
        "numberOfBytes": "32",
        "value": "t_bool"
      },
      "t_mapping(t_address,t_mapping(t_address,t_bool))": {
        "encoding": "mapping",
        "key": "t_address",
        "label": "mapping(address => mapping(address => bool))",
        "numberOfBytes": "32",
        "value": "t_mapping(t_address,t_bool)"
      },
      "t_mapping(t_address,t_struct(AddressData)1424_storage)": {
        "encoding": "mapping",
        "key": "t_address",
        "label": "mapping(address => struct ERC721A.AddressData)",
        "numberOfBytes": "32",
        "value": "t_struct(AddressData)1424_storage"
      },
      "t_mapping(t_string_memory_ptr,t_bool)": {
        "encoding": "mapping",
        "key": "t_string_memory_ptr",
        "label": "mapping(string => bool)",
        "numberOfBytes": "32",
        "value": "t_bool"
      },
      "t_mapping(t_uint256,t_address)": {
        "encoding": "mapping",
        "key": "t_uint256",
        "label": "mapping(uint256 => address)",
        "numberOfBytes": "32",
        "value": "t_address"
      },
      "t_mapping(t_uint256,t_struct(TokenOwnership)1415_storage)": {
        "encoding": "mapping",
        "key": "t_uint256",
        "label": "mapping(uint256 => struct ERC721A.TokenOwnership)",
        "numberOfBytes": "32",
        "value": "t_struct(TokenOwnership)1415_storage"
      },
      "t_string_memory_ptr": {
        "encoding": "bytes",
        "label": "string",
        "numberOfBytes": "32"
      },
      "t_string_storage": {
        "encoding": "bytes",
        "label": "string",
        "numberOfBytes": "32"
      },
      "t_struct(AddressData)1424_storage": {
        "encoding": "inplace",
        "label": "struct ERC721A.AddressData",
        "members": [
          {
            "astId": 1417,
            "contract": "contracts/CollectibleERC721ASecurity.sol:CollectibleERC721ASecurity",
            "label": "balance",
            "offset": 0,
            "slot": "0",
            "type": "t_uint64"
          },
          {
            "astId": 1419,
            "contract": "contracts/CollectibleERC721ASecurity.sol:CollectibleERC721ASecurity",
            "label": "numberMinted",
            "offset": 8,
            "slot": "0",
            "type": "t_uint64"
          },
          {
            "astId": 1421,
            "contract": "contracts/CollectibleERC721ASecurity.sol:CollectibleERC721ASecurity",
            "label": "numberBurned",
            "offset": 16,
            "slot": "0",
            "type": "t_uint64"
          },
          {
            "astId": 1423,
            "contract": "contracts/CollectibleERC721ASecurity.sol:CollectibleERC721ASecurity",
            "label": "aux",
            "offset": 24,
            "slot": "0",
            "type": "t_uint64"
          }
        ],
        "numberOfBytes": "32"
      },
      "t_struct(TokenOwnership)1415_storage": {
        "encoding": "inplace",
        "label": "struct ERC721A.TokenOwnership",
        "members": [
          {
            "astId": 1410,
            "contract": "contracts/CollectibleERC721ASecurity.sol:CollectibleERC721ASecurity",
            "label": "addr",
            "offset": 0,
            "slot": "0",
            "type": "t_address"
          },
          {
            "astId": 1412,
            "contract": "contracts/CollectibleERC721ASecurity.sol:CollectibleERC721ASecurity",
            "label": "startTimestamp",
            "offset": 20,
            "slot": "0",
            "type": "t_uint64"
          },
          {
            "astId": 1414,
            "contract": "contracts/CollectibleERC721ASecurity.sol:CollectibleERC721ASecurity",
            "label": "burned",
            "offset": 28,
            "slot": "0",
            "type": "t_bool"
          }
        ],
        "numberOfBytes": "32"
      },
      "t_uint256": {
        "encoding": "inplace",
        "label": "uint256",
        "numberOfBytes": "32"
      },
      "t_uint64": {
        "encoding": "inplace",
        "label": "uint64",
        "numberOfBytes": "8"
      }
    }
  }
}