{
  "address": "0xf1c9e1fab220eD874A170322C9d7A077D3Ad7Abb",
  "abi": [
    {
      "inputs": [],
      "stateMutability": "nonpayable",
      "type": "constructor"
    },
    {
      "anonymous": false,
      "inputs": [
        {
          "indexed": true,
          "internalType": "address",
          "name": "owner",
          "type": "address"
        },
        {
          "indexed": true,
          "internalType": "address",
          "name": "approved",
          "type": "address"
        },
        {
          "indexed": true,
          "internalType": "uint256",
          "name": "tokenId",
          "type": "uint256"
        }
      ],
      "name": "Approval",
      "type": "event"
    },
    {
      "anonymous": false,
      "inputs": [
        {
          "indexed": true,
          "internalType": "address",
          "name": "owner",
          "type": "address"
        },
        {
          "indexed": true,
          "internalType": "address",
          "name": "operator",
          "type": "address"
        },
        {
          "indexed": false,
          "internalType": "bool",
          "name": "approved",
          "type": "bool"
        }
      ],
      "name": "ApprovalForAll",
      "type": "event"
    },
    {
      "anonymous": false,
      "inputs": [
        {
          "indexed": true,
          "internalType": "bytes32",
          "name": "role",
          "type": "bytes32"
        },
        {
          "indexed": true,
          "internalType": "bytes32",
          "name": "previousAdminRole",
          "type": "bytes32"
        },
        {
          "indexed": true,
          "internalType": "bytes32",
          "name": "newAdminRole",
          "type": "bytes32"
        }
      ],
      "name": "RoleAdminChanged",
      "type": "event"
    },
    {
      "anonymous": false,
      "inputs": [
        {
          "indexed": true,
          "internalType": "bytes32",
          "name": "role",
          "type": "bytes32"
        },
        {
          "indexed": true,
          "internalType": "address",
          "name": "account",
          "type": "address"
        },
        {
          "indexed": true,
          "internalType": "address",
          "name": "sender",
          "type": "address"
        }
      ],
      "name": "RoleGranted",
      "type": "event"
    },
    {
      "anonymous": false,
      "inputs": [
        {
          "indexed": true,
          "internalType": "bytes32",
          "name": "role",
          "type": "bytes32"
        },
        {
          "indexed": true,
          "internalType": "address",
          "name": "account",
          "type": "address"
        },
        {
          "indexed": true,
          "internalType": "address",
          "name": "sender",
          "type": "address"
        }
      ],
      "name": "RoleRevoked",
      "type": "event"
    },
    {
      "anonymous": false,
      "inputs": [
        {
          "indexed": true,
          "internalType": "address",
          "name": "from",
          "type": "address"
        },
        {
          "indexed": true,
          "internalType": "address",
          "name": "to",
          "type": "address"
        },
        {
          "indexed": true,
          "internalType": "uint256",
          "name": "tokenId",
          "type": "uint256"
        }
      ],
      "name": "Transfer",
      "type": "event"
    },
    {
      "inputs": [],
      "name": "DEFAULT_ADMIN_ROLE",
      "outputs": [
        {
          "internalType": "bytes32",
          "name": "",
          "type": "bytes32"
        }
      ],
      "stateMutability": "view",
      "type": "function"
    },
    {
      "inputs": [],
      "name": "MAX_TOKENS",
      "outputs": [
        {
          "internalType": "uint256",
          "name": "",
          "type": "uint256"
        }
      ],
      "stateMutability": "view",
      "type": "function"
    },
    {
      "inputs": [],
      "name": "MINTER_ROLE",
      "outputs": [
        {
          "internalType": "bytes32",
          "name": "",
          "type": "bytes32"
        }
      ],
      "stateMutability": "view",
      "type": "function"
    },
    {
      "inputs": [
        {
          "internalType": "address",
          "name": "to",
          "type": "address"
        },
        {
          "internalType": "uint256",
          "name": "tokenId",
          "type": "uint256"
        }
      ],
      "name": "approve",
      "outputs": [],
      "stateMutability": "nonpayable",
      "type": "function"
    },
    {
      "inputs": [
        {
          "internalType": "address",
          "name": "owner",
          "type": "address"
        }
      ],
      "name": "balanceOf",
      "outputs": [
        {
          "internalType": "uint256",
          "name": "",
          "type": "uint256"
        }
      ],
      "stateMutability": "view",
      "type": "function"
    },
    {
      "inputs": [
        {
          "internalType": "uint256",
          "name": "tokenId",
          "type": "uint256"
        }
      ],
      "name": "getApproved",
      "outputs": [
        {
          "internalType": "address",
          "name": "",
          "type": "address"
        }
      ],
      "stateMutability": "view",
      "type": "function"
    },
    {
      "inputs": [
        {
          "internalType": "bytes32",
          "name": "role",
          "type": "bytes32"
        }
      ],
      "name": "getRoleAdmin",
      "outputs": [
        {
          "internalType": "bytes32",
          "name": "",
          "type": "bytes32"
        }
      ],
      "stateMutability": "view",
      "type": "function"
    },
    {
      "inputs": [
        {
          "internalType": "bytes32",
          "name": "role",
          "type": "bytes32"
        },
        {
          "internalType": "address",
          "name": "account",
          "type": "address"
        }
      ],
      "name": "grantRole",
      "outputs": [],
      "stateMutability": "nonpayable",
      "type": "function"
    },
    {
      "inputs": [
        {
          "internalType": "bytes32",
          "name": "role",
          "type": "bytes32"
        },
        {
          "internalType": "address",
          "name": "account",
          "type": "address"
        }
      ],
      "name": "hasRole",
      "outputs": [
        {
          "internalType": "bool",
          "name": "",
          "type": "bool"
        }
      ],
      "stateMutability": "view",
      "type": "function"
    },
    {
      "inputs": [
        {
          "internalType": "address",
          "name": "owner",
          "type": "address"
        },
        {
          "internalType": "address",
          "name": "operator",
          "type": "address"
        }
      ],
      "name": "isApprovedForAll",
      "outputs": [
        {
          "internalType": "bool",
          "name": "",
          "type": "bool"
        }
      ],
      "stateMutability": "view",
      "type": "function"
    },
    {
      "inputs": [
        {
          "components": [
            {
              "internalType": "uint256",
              "name": "id",
              "type": "uint256"
            },
            {
              "internalType": "string",
              "name": "metadataUrl",
              "type": "string"
            }
          ],
          "internalType": "struct Collectible.TokenData[]",
          "name": "_tokensData",
          "type": "tuple[]"
        }
      ],
      "name": "mint",
      "outputs": [],
      "stateMutability": "nonpayable",
      "type": "function"
    },
    {
      "inputs": [],
      "name": "name",
      "outputs": [
        {
          "internalType": "string",
          "name": "",
          "type": "string"
        }
      ],
      "stateMutability": "view",
      "type": "function"
    },
    {
      "inputs": [
        {
          "internalType": "uint256",
          "name": "tokenId",
          "type": "uint256"
        }
      ],
      "name": "ownerOf",
      "outputs": [
        {
          "internalType": "address",
          "name": "",
          "type": "address"
        }
      ],
      "stateMutability": "view",
      "type": "function"
    },
    {
      "inputs": [
        {
          "internalType": "bytes32",
          "name": "role",
          "type": "bytes32"
        },
        {
          "internalType": "address",
          "name": "account",
          "type": "address"
        }
      ],
      "name": "renounceRole",
      "outputs": [],
      "stateMutability": "nonpayable",
      "type": "function"
    },
    {
      "inputs": [
        {
          "internalType": "bytes32",
          "name": "role",
          "type": "bytes32"
        },
        {
          "internalType": "address",
          "name": "account",
          "type": "address"
        }
      ],
      "name": "revokeRole",
      "outputs": [],
      "stateMutability": "nonpayable",
      "type": "function"
    },
    {
      "inputs": [
        {
          "internalType": "address",
          "name": "from",
          "type": "address"
        },
        {
          "internalType": "address",
          "name": "to",
          "type": "address"
        },
        {
          "internalType": "uint256",
          "name": "tokenId",
          "type": "uint256"
        }
      ],
      "name": "safeTransferFrom",
      "outputs": [],
      "stateMutability": "nonpayable",
      "type": "function"
    },
    {
      "inputs": [
        {
          "internalType": "address",
          "name": "from",
          "type": "address"
        },
        {
          "internalType": "address",
          "name": "to",
          "type": "address"
        },
        {
          "internalType": "uint256",
          "name": "tokenId",
          "type": "uint256"
        },
        {
          "internalType": "bytes",
          "name": "_data",
          "type": "bytes"
        }
      ],
      "name": "safeTransferFrom",
      "outputs": [],
      "stateMutability": "nonpayable",
      "type": "function"
    },
    {
      "inputs": [
        {
          "internalType": "address",
          "name": "operator",
          "type": "address"
        },
        {
          "internalType": "bool",
          "name": "approved",
          "type": "bool"
        }
      ],
      "name": "setApprovalForAll",
      "outputs": [],
      "stateMutability": "nonpayable",
      "type": "function"
    },
    {
      "inputs": [
        {
          "internalType": "bytes4",
          "name": "interfaceId",
          "type": "bytes4"
        }
      ],
      "name": "supportsInterface",
      "outputs": [
        {
          "internalType": "bool",
          "name": "",
          "type": "bool"
        }
      ],
      "stateMutability": "view",
      "type": "function"
    },
    {
      "inputs": [],
      "name": "symbol",
      "outputs": [
        {
          "internalType": "string",
          "name": "",
          "type": "string"
        }
      ],
      "stateMutability": "view",
      "type": "function"
    },
    {
      "inputs": [
        {
          "internalType": "uint256",
          "name": "tokenId",
          "type": "uint256"
        }
      ],
      "name": "tokenURI",
      "outputs": [
        {
          "internalType": "string",
          "name": "",
          "type": "string"
        }
      ],
      "stateMutability": "view",
      "type": "function"
    },
    {
      "inputs": [],
      "name": "totalSupply",
      "outputs": [
        {
          "internalType": "uint256",
          "name": "",
          "type": "uint256"
        }
      ],
      "stateMutability": "view",
      "type": "function"
    },
    {
      "inputs": [
        {
          "internalType": "address",
          "name": "from",
          "type": "address"
        },
        {
          "internalType": "address",
          "name": "to",
          "type": "address"
        },
        {
          "internalType": "uint256",
          "name": "tokenId",
          "type": "uint256"
        }
      ],
      "name": "transferFrom",
      "outputs": [],
      "stateMutability": "nonpayable",
      "type": "function"
    }
  ],
  "transactionHash": "0x376625e12623c901b3baaec9a6532ec1f8c12948437e459acd07a293483b4ab8",
  "args": [],
  "numDeployments": 1,
  "solcInputHash": "09bbf4d41f63a06b64ca9fbf6e42d71a",
  "bytecode": "0x60806040523480156200001157600080fd5b506040518060400160405280600f81526020017f4a616d33436f6c6c65637469626c6500000000000000000000000000000000008152506040518060400160405280600481526020017f4a414d330000000000000000000000000000000000000000000000000000000081525081600090805190602001906200009692919062000250565b508060019080519060200190620000af92919062000250565b505050620000c76000801b33620000d560201b60201c565b600060088190555062000365565b620000e78282620000eb60201b60201c565b5050565b620000fd8282620001dd60201b60201c565b620001d95760016007600084815260200190815260200160002060000160008373ffffffffffffffffffffffffffffffffffffffff1673ffffffffffffffffffffffffffffffffffffffff16815260200190815260200160002060006101000a81548160ff0219169083151502179055506200017e6200024860201b60201c565b73ffffffffffffffffffffffffffffffffffffffff168173ffffffffffffffffffffffffffffffffffffffff16837f2f8788117e7eff1d82e926ec794901d17c78024a50270940304540a733656f0d60405160405180910390a45b5050565b60006007600084815260200190815260200160002060000160008373ffffffffffffffffffffffffffffffffffffffff1673ffffffffffffffffffffffffffffffffffffffff16815260200190815260200160002060009054906101000a900460ff16905092915050565b600033905090565b8280546200025e9062000300565b90600052602060002090601f016020900481019282620002825760008555620002ce565b82601f106200029d57805160ff1916838001178555620002ce565b82800160010185558215620002ce579182015b82811115620002cd578251825591602001919060010190620002b0565b5b509050620002dd9190620002e1565b5090565b5b80821115620002fc576000816000905550600101620002e2565b5090565b600060028204905060018216806200031957607f821691505b6020821081141562000330576200032f62000336565b5b50919050565b7f4e487b7100000000000000000000000000000000000000000000000000000000600052602260045260246000fd5b613b0480620003756000396000f3fe608060405234801561001057600080fd5b506004361061014d5760003560e01c80636352211e116100c3578063b88d4fde1161007c578063b88d4fde146103ae578063c87b56dd146103ca578063d5391393146103fa578063d547741f14610418578063e985e9c514610434578063f47c84c5146104645761014d565b80636352211e146102c657806370a08231146102f657806391d148541461032657806395d89b4114610356578063a217fddf14610374578063a22cb465146103925761014d565b806323b872dd1161011557806323b872dd1461020a578063248a9ca3146102265780632f2ff15d1461025657806336568abe146102725780633aee2c4d1461028e57806342842e0e146102aa5761014d565b806301ffc9a71461015257806306fdde0314610182578063081812fc146101a0578063095ea7b3146101d057806318160ddd146101ec575b600080fd5b61016c6004803603810190610167919061287a565b610482565b6040516101799190612d78565b60405180910390f35b61018a610494565b6040516101979190612dae565b60405180910390f35b6101ba60048036038101906101b591906128cc565b610526565b6040516101c79190612d11565b60405180910390f35b6101ea60048036038101906101e59190612798565b6105ab565b005b6101f46106c3565b6040516102019190613030565b60405180910390f35b610224600480360381019061021f9190612692565b6106c9565b005b610240600480360381019061023b9190612815565b610729565b60405161024d9190612d93565b60405180910390f35b610270600480360381019061026b919061283e565b610749565b005b61028c6004803603810190610287919061283e565b610772565b005b6102a860048036038101906102a391906127d4565b6107f5565b005b6102c460048036038101906102bf9190612692565b6109ac565b005b6102e060048036038101906102db91906128cc565b6109cc565b6040516102ed9190612d11565b60405180910390f35b610310600480360381019061030b919061262d565b610a7e565b60405161031d9190613030565b60405180910390f35b610340600480360381019061033b919061283e565b610b36565b60405161034d9190612d78565b60405180910390f35b61035e610ba1565b60405161036b9190612dae565b60405180910390f35b61037c610c33565b6040516103899190612d93565b60405180910390f35b6103ac60048036038101906103a7919061275c565b610c3a565b005b6103c860048036038101906103c391906126e1565b610c50565b005b6103e460048036038101906103df91906128cc565b610cb2565b6040516103f19190612dae565b60405180910390f35b610402610e04565b60405161040f9190612d93565b60405180910390f35b610432600480360381019061042d919061283e565b610e28565b005b61044e60048036038101906104499190612656565b610e51565b60405161045b9190612d78565b60405180910390f35b61046c610ee5565b6040516104799190613030565b60405180910390f35b600061048d82610eea565b9050919050565b6060600080546104a390613340565b80601f01602080910402602001604051908101604052809291908181526020018280546104cf90613340565b801561051c5780601f106104f15761010080835404028352916020019161051c565b820191906000526020600020905b8154815290600101906020018083116104ff57829003601f168201915b5050505050905090565b600061053182610f64565b610570576040517f08c379a000000000000000000000000000000000000000000000000000000000815260040161056790612f90565b60405180910390fd5b6004600083815260200190815260200160002060009054906101000a900473ffffffffffffffffffffffffffffffffffffffff169050919050565b60006105b6826109cc565b90508073ffffffffffffffffffffffffffffffffffffffff168373ffffffffffffffffffffffffffffffffffffffff161415610627576040517f08c379a000000000000000000000000000000000000000000000000000000000815260040161061e90612fd0565b60405180910390fd5b8073ffffffffffffffffffffffffffffffffffffffff16610646610fd0565b73ffffffffffffffffffffffffffffffffffffffff16148061067557506106748161066f610fd0565b610e51565b5b6106b4576040517f08c379a00000000000000000000000000000000000000000000000000000000081526004016106ab90612eb0565b60405180910390fd5b6106be8383610fd8565b505050565b60085481565b6106da6106d4610fd0565b82611091565b610719576040517f08c379a000000000000000000000000000000000000000000000000000000000815260040161071090612ff0565b60405180910390fd5b61072483838361116f565b505050565b600060076000838152602001908152602001600020600101549050919050565b61075282610729565b6107638161075e610fd0565b6113d6565b61076d8383611473565b505050565b61077a610fd0565b73ffffffffffffffffffffffffffffffffffffffff168173ffffffffffffffffffffffffffffffffffffffff16146107e7576040517f08c379a00000000000000000000000000000000000000000000000000000000081526004016107de90613010565b60405180910390fd5b6107f18282611554565b5050565b7f9f2df0fed2c77648de5860a4cc508cd0818c85b8b8a1ab4ceeef8d981c8956a661082781610822610fd0565b6113d6565b600261083f835160085461163690919063ffffffff16565b1115610880576040517f08c379a000000000000000000000000000000000000000000000000000000000815260040161087790612f30565b60405180910390fd5b60005b82518110156109a75760026008541015610994576108e5338483815181106108d4577f4e487b7100000000000000000000000000000000000000000000000000000000600052603260045260246000fd5b60200260200101516000015161164c565b610977838281518110610921577f4e487b7100000000000000000000000000000000000000000000000000000000600052603260045260246000fd5b602002602001015160000151848381518110610966577f4e487b7100000000000000000000000000000000000000000000000000000000600052603260045260246000fd5b60200260200101516020015161166a565b61098d600160085461163690919063ffffffff16565b6008819055505b808061099f906133a3565b915050610883565b505050565b6109c783838360405180602001604052806000815250610c50565b505050565b6000806002600084815260200190815260200160002060009054906101000a900473ffffffffffffffffffffffffffffffffffffffff169050600073ffffffffffffffffffffffffffffffffffffffff168173ffffffffffffffffffffffffffffffffffffffff161415610a75576040517f08c379a0000000000000000000000000000000000000000000000000000000008152600401610a6c90612ef0565b60405180910390fd5b80915050919050565b60008073ffffffffffffffffffffffffffffffffffffffff168273ffffffffffffffffffffffffffffffffffffffff161415610aef576040517f08c379a0000000000000000000000000000000000000000000000000000000008152600401610ae690612ed0565b60405180910390fd5b600360008373ffffffffffffffffffffffffffffffffffffffff1673ffffffffffffffffffffffffffffffffffffffff168152602001908152602001600020549050919050565b60006007600084815260200190815260200160002060000160008373ffffffffffffffffffffffffffffffffffffffff1673ffffffffffffffffffffffffffffffffffffffff16815260200190815260200160002060009054906101000a900460ff16905092915050565b606060018054610bb090613340565b80601f0160208091040260200160405190810160405280929190818152602001828054610bdc90613340565b8015610c295780601f10610bfe57610100808354040283529160200191610c29565b820191906000526020600020905b815481529060010190602001808311610c0c57829003601f168201915b5050505050905090565b6000801b81565b610c4c610c45610fd0565b83836116de565b5050565b610c61610c5b610fd0565b83611091565b610ca0576040517f08c379a0000000000000000000000000000000000000000000000000000000008152600401610c9790612ff0565b60405180910390fd5b610cac8484848461184b565b50505050565b6060610cbd82610f64565b610cfc576040517f08c379a0000000000000000000000000000000000000000000000000000000008152600401610cf390612f70565b60405180910390fd5b6000600660008481526020019081526020016000208054610d1c90613340565b80601f0160208091040260200160405190810160405280929190818152602001828054610d4890613340565b8015610d955780601f10610d6a57610100808354040283529160200191610d95565b820191906000526020600020905b815481529060010190602001808311610d7857829003601f168201915b505050505090506000610da66118a7565b9050600081511415610dbc578192505050610dff565b600082511115610df1578082604051602001610dd9929190612cb3565b60405160208183030381529060405292505050610dff565b610dfa846118be565b925050505b919050565b7f9f2df0fed2c77648de5860a4cc508cd0818c85b8b8a1ab4ceeef8d981c8956a681565b610e3182610729565b610e4281610e3d610fd0565b6113d6565b610e4c8383611554565b505050565b6000600560008473ffffffffffffffffffffffffffffffffffffffff1673ffffffffffffffffffffffffffffffffffffffff16815260200190815260200160002060008373ffffffffffffffffffffffffffffffffffffffff1673ffffffffffffffffffffffffffffffffffffffff16815260200190815260200160002060009054906101000a900460ff16905092915050565b600281565b60007f7965db0b000000000000000000000000000000000000000000000000000000007bffffffffffffffffffffffffffffffffffffffffffffffffffffffff1916827bffffffffffffffffffffffffffffffffffffffffffffffffffffffff19161480610f5d5750610f5c82611965565b5b9050919050565b60008073ffffffffffffffffffffffffffffffffffffffff166002600084815260200190815260200160002060009054906101000a900473ffffffffffffffffffffffffffffffffffffffff1673ffffffffffffffffffffffffffffffffffffffff1614159050919050565b600033905090565b816004600083815260200190815260200160002060006101000a81548173ffffffffffffffffffffffffffffffffffffffff021916908373ffffffffffffffffffffffffffffffffffffffff160217905550808273ffffffffffffffffffffffffffffffffffffffff1661104b836109cc565b73ffffffffffffffffffffffffffffffffffffffff167f8c5be1e5ebec7d5bd14f71427d1e84f3dd0314c0f7b2291e5b200ac8c7c3b92560405160405180910390a45050565b600061109c82610f64565b6110db576040517f08c379a00000000000000000000000000000000000000000000000000000000081526004016110d290612e90565b60405180910390fd5b60006110e6836109cc565b90508073ffffffffffffffffffffffffffffffffffffffff168473ffffffffffffffffffffffffffffffffffffffff16148061115557508373ffffffffffffffffffffffffffffffffffffffff1661113d84610526565b73ffffffffffffffffffffffffffffffffffffffff16145b8061116657506111658185610e51565b5b91505092915050565b8273ffffffffffffffffffffffffffffffffffffffff1661118f826109cc565b73ffffffffffffffffffffffffffffffffffffffff16146111e5576040517f08c379a00000000000000000000000000000000000000000000000000000000081526004016111dc90612e10565b60405180910390fd5b600073ffffffffffffffffffffffffffffffffffffffff168273ffffffffffffffffffffffffffffffffffffffff161415611255576040517f08c379a000000000000000000000000000000000000000000000000000000000815260040161124c90612e50565b60405180910390fd5b611260838383611a47565b61126b600082610fd8565b6001600360008573ffffffffffffffffffffffffffffffffffffffff1673ffffffffffffffffffffffffffffffffffffffff16815260200190815260200160002060008282546112bb9190613222565b925050819055506001600360008473ffffffffffffffffffffffffffffffffffffffff1673ffffffffffffffffffffffffffffffffffffffff16815260200190815260200160002060008282546113129190613141565b92505081905550816002600083815260200190815260200160002060006101000a81548173ffffffffffffffffffffffffffffffffffffffff021916908373ffffffffffffffffffffffffffffffffffffffff160217905550808273ffffffffffffffffffffffffffffffffffffffff168473ffffffffffffffffffffffffffffffffffffffff167fddf252ad1be2c89b69c2b068fc378daa952ba7f163c4a11628f55a4df523b3ef60405160405180910390a46113d1838383611a4c565b505050565b6113e08282610b36565b61146f576114058173ffffffffffffffffffffffffffffffffffffffff166014611a51565b6114138360001c6020611a51565b604051602001611424929190612cd7565b6040516020818303038152906040526040517f08c379a00000000000000000000000000000000000000000000000000000000081526004016114669190612dae565b60405180910390fd5b5050565b61147d8282610b36565b6115505760016007600084815260200190815260200160002060000160008373ffffffffffffffffffffffffffffffffffffffff1673ffffffffffffffffffffffffffffffffffffffff16815260200190815260200160002060006101000a81548160ff0219169083151502179055506114f5610fd0565b73ffffffffffffffffffffffffffffffffffffffff168173ffffffffffffffffffffffffffffffffffffffff16837f2f8788117e7eff1d82e926ec794901d17c78024a50270940304540a733656f0d60405160405180910390a45b5050565b61155e8282610b36565b156116325760006007600084815260200190815260200160002060000160008373ffffffffffffffffffffffffffffffffffffffff1673ffffffffffffffffffffffffffffffffffffffff16815260200190815260200160002060006101000a81548160ff0219169083151502179055506115d7610fd0565b73ffffffffffffffffffffffffffffffffffffffff168173ffffffffffffffffffffffffffffffffffffffff16837ff6391f5c32d9c69d2a47ea670b442974b53935d1edc7fd64eb21e047a839171b60405160405180910390a45b5050565b600081836116449190613141565b905092915050565b611666828260405180602001604052806000815250611d4b565b5050565b61167382610f64565b6116b2576040517f08c379a00000000000000000000000000000000000000000000000000000000081526004016116a990612f10565b60405180910390fd5b806006600084815260200190815260200160002090805190602001906116d9929190612351565b505050565b8173ffffffffffffffffffffffffffffffffffffffff168373ffffffffffffffffffffffffffffffffffffffff16141561174d576040517f08c379a000000000000000000000000000000000000000000000000000000000815260040161174490612e70565b60405180910390fd5b80600560008573ffffffffffffffffffffffffffffffffffffffff1673ffffffffffffffffffffffffffffffffffffffff16815260200190815260200160002060008473ffffffffffffffffffffffffffffffffffffffff1673ffffffffffffffffffffffffffffffffffffffff16815260200190815260200160002060006101000a81548160ff0219169083151502179055508173ffffffffffffffffffffffffffffffffffffffff168373ffffffffffffffffffffffffffffffffffffffff167f17307eab39ab6107e8899845ad3d59bd9653f200f220920489ca2b5937696c318360405161183e9190612d78565b60405180910390a3505050565b61185684848461116f565b61186284848484611da6565b6118a1576040517f08c379a000000000000000000000000000000000000000000000000000000000815260040161189890612df0565b60405180910390fd5b50505050565b606060405180602001604052806000815250905090565b60606118c982610f64565b611908576040517f08c379a00000000000000000000000000000000000000000000000000000000081526004016118ff90612fb0565b60405180910390fd5b60006119126118a7565b90506000815111611932576040518060200160405280600081525061195d565b8061193c84611f3d565b60405160200161194d929190612cb3565b6040516020818303038152906040525b915050919050565b60007f80ac58cd000000000000000000000000000000000000000000000000000000007bffffffffffffffffffffffffffffffffffffffffffffffffffffffff1916827bffffffffffffffffffffffffffffffffffffffffffffffffffffffff19161480611a3057507f5b5e139f000000000000000000000000000000000000000000000000000000007bffffffffffffffffffffffffffffffffffffffffffffffffffffffff1916827bffffffffffffffffffffffffffffffffffffffffffffffffffffffff1916145b80611a405750611a3f826120ea565b5b9050919050565b505050565b505050565b606060006002836002611a6491906131c8565b611a6e9190613141565b67ffffffffffffffff811115611aad577f4e487b7100000000000000000000000000000000000000000000000000000000600052604160045260246000fd5b6040519080825280601f01601f191660200182016040528015611adf5781602001600182028036833780820191505090505b5090507f300000000000000000000000000000000000000000000000000000000000000081600081518110611b3d577f4e487b7100000000000000000000000000000000000000000000000000000000600052603260045260246000fd5b60200101907effffffffffffffffffffffffffffffffffffffffffffffffffffffffffffff1916908160001a9053507f780000000000000000000000000000000000000000000000000000000000000081600181518110611bc7577f4e487b7100000000000000000000000000000000000000000000000000000000600052603260045260246000fd5b60200101907effffffffffffffffffffffffffffffffffffffffffffffffffffffffffffff1916908160001a90535060006001846002611c0791906131c8565b611c119190613141565b90505b6001811115611cfd577f3031323334353637383961626364656600000000000000000000000000000000600f861660108110611c79577f4e487b7100000000000000000000000000000000000000000000000000000000600052603260045260246000fd5b1a60f81b828281518110611cb6577f4e487b7100000000000000000000000000000000000000000000000000000000600052603260045260246000fd5b60200101907effffffffffffffffffffffffffffffffffffffffffffffffffffffffffffff1916908160001a905350600485901c945080611cf690613316565b9050611c14565b5060008414611d41576040517f08c379a0000000000000000000000000000000000000000000000000000000008152600401611d3890612dd0565b60405180910390fd5b8091505092915050565b611d558383612154565b611d626000848484611da6565b611da1576040517f08c379a0000000000000000000000000000000000000000000000000000000008152600401611d9890612df0565b60405180910390fd5b505050565b6000611dc78473ffffffffffffffffffffffffffffffffffffffff1661232e565b15611f30578373ffffffffffffffffffffffffffffffffffffffff1663150b7a02611df0610fd0565b8786866040518563ffffffff1660e01b8152600401611e129493929190612d2c565b602060405180830381600087803b158015611e2c57600080fd5b505af1925050508015611e5d57506040513d601f19601f82011682018060405250810190611e5a91906128a3565b60015b611ee0573d8060008114611e8d576040519150601f19603f3d011682016040523d82523d6000602084013e611e92565b606091505b50600081511415611ed8576040517f08c379a0000000000000000000000000000000000000000000000000000000008152600401611ecf90612df0565b60405180910390fd5b805181602001fd5b63150b7a0260e01b7bffffffffffffffffffffffffffffffffffffffffffffffffffffffff1916817bffffffffffffffffffffffffffffffffffffffffffffffffffffffff191614915050611f35565b600190505b949350505050565b60606000821415611f85576040518060400160405280600181526020017f300000000000000000000000000000000000000000000000000000000000000081525090506120e5565b600082905060005b60008214611fb7578080611fa0906133a3565b915050600a82611fb09190613197565b9150611f8d565b60008167ffffffffffffffff811115611ff9577f4e487b7100000000000000000000000000000000000000000000000000000000600052604160045260246000fd5b6040519080825280601f01601f19166020018201604052801561202b5781602001600182028036833780820191505090505b5090505b600085146120de576001826120449190613222565b9150600a8561205391906133ec565b603061205f9190613141565b60f81b81838151811061209b577f4e487b7100000000000000000000000000000000000000000000000000000000600052603260045260246000fd5b60200101907effffffffffffffffffffffffffffffffffffffffffffffffffffffffffffff1916908160001a905350600a856120d79190613197565b945061202f565b8093505050505b919050565b60007f01ffc9a7000000000000000000000000000000000000000000000000000000007bffffffffffffffffffffffffffffffffffffffffffffffffffffffff1916827bffffffffffffffffffffffffffffffffffffffffffffffffffffffff1916149050919050565b600073ffffffffffffffffffffffffffffffffffffffff168273ffffffffffffffffffffffffffffffffffffffff1614156121c4576040517f08c379a00000000000000000000000000000000000000000000000000000000081526004016121bb90612f50565b60405180910390fd5b6121cd81610f64565b1561220d576040517f08c379a000000000000000000000000000000000000000000000000000000000815260040161220490612e30565b60405180910390fd5b61221960008383611a47565b6001600360008473ffffffffffffffffffffffffffffffffffffffff1673ffffffffffffffffffffffffffffffffffffffff16815260200190815260200160002060008282546122699190613141565b92505081905550816002600083815260200190815260200160002060006101000a81548173ffffffffffffffffffffffffffffffffffffffff021916908373ffffffffffffffffffffffffffffffffffffffff160217905550808273ffffffffffffffffffffffffffffffffffffffff16600073ffffffffffffffffffffffffffffffffffffffff167fddf252ad1be2c89b69c2b068fc378daa952ba7f163c4a11628f55a4df523b3ef60405160405180910390a461232a60008383611a4c565b5050565b6000808273ffffffffffffffffffffffffffffffffffffffff163b119050919050565b82805461235d90613340565b90600052602060002090601f01602090048101928261237f57600085556123c6565b82601f1061239857805160ff19168380011785556123c6565b828001600101855582156123c6579182015b828111156123c55782518255916020019190600101906123aa565b5b5090506123d391906123d7565b5090565b5b808211156123f05760008160009055506001016123d8565b5090565b600061240761240284613070565b61304b565b9050808382526020820190508260005b85811015612447578135850161242d88826125b4565b845260208401935060208301925050600181019050612417565b5050509392505050565b600061246461245f8461309c565b61304b565b90508281526020810184848401111561247c57600080fd5b6124878482856132d4565b509392505050565b60006124a261249d846130cd565b61304b565b9050828152602081018484840111156124ba57600080fd5b6124c58482856132d4565b509392505050565b6000813590506124dc81613a5b565b92915050565b600082601f8301126124f357600080fd5b81356125038482602086016123f4565b91505092915050565b60008135905061251b81613a72565b92915050565b60008135905061253081613a89565b92915050565b60008135905061254581613aa0565b92915050565b60008151905061255a81613aa0565b92915050565b600082601f83011261257157600080fd5b8135612581848260208601612451565b91505092915050565b600082601f83011261259b57600080fd5b81356125ab84826020860161248f565b91505092915050565b6000604082840312156125c657600080fd5b6125d0604061304b565b905060006125e084828501612618565b600083015250602082013567ffffffffffffffff81111561260057600080fd5b61260c8482850161258a565b60208301525092915050565b60008135905061262781613ab7565b92915050565b60006020828403121561263f57600080fd5b600061264d848285016124cd565b91505092915050565b6000806040838503121561266957600080fd5b6000612677858286016124cd565b9250506020612688858286016124cd565b9150509250929050565b6000806000606084860312156126a757600080fd5b60006126b5868287016124cd565b93505060206126c6868287016124cd565b92505060406126d786828701612618565b9150509250925092565b600080600080608085870312156126f757600080fd5b6000612705878288016124cd565b9450506020612716878288016124cd565b935050604061272787828801612618565b925050606085013567ffffffffffffffff81111561274457600080fd5b61275087828801612560565b91505092959194509250565b6000806040838503121561276f57600080fd5b600061277d858286016124cd565b925050602061278e8582860161250c565b9150509250929050565b600080604083850312156127ab57600080fd5b60006127b9858286016124cd565b92505060206127ca85828601612618565b9150509250929050565b6000602082840312156127e657600080fd5b600082013567ffffffffffffffff81111561280057600080fd5b61280c848285016124e2565b91505092915050565b60006020828403121561282757600080fd5b600061283584828501612521565b91505092915050565b6000806040838503121561285157600080fd5b600061285f85828601612521565b9250506020612870858286016124cd565b9150509250929050565b60006020828403121561288c57600080fd5b600061289a84828501612536565b91505092915050565b6000602082840312156128b557600080fd5b60006128c38482850161254b565b91505092915050565b6000602082840312156128de57600080fd5b60006128ec84828501612618565b91505092915050565b6128fe81613256565b82525050565b61290d81613268565b82525050565b61291c81613274565b82525050565b600061292d826130fe565b6129378185613114565b93506129478185602086016132e3565b612950816134d9565b840191505092915050565b600061296682613109565b6129708185613125565b93506129808185602086016132e3565b612989816134d9565b840191505092915050565b600061299f82613109565b6129a98185613136565b93506129b98185602086016132e3565b80840191505092915050565b60006129d2602083613125565b91506129dd826134ea565b602082019050919050565b60006129f5603283613125565b9150612a0082613513565b604082019050919050565b6000612a18602583613125565b9150612a2382613562565b604082019050919050565b6000612a3b601c83613125565b9150612a46826135b1565b602082019050919050565b6000612a5e602483613125565b9150612a69826135da565b604082019050919050565b6000612a81601983613125565b9150612a8c82613629565b602082019050919050565b6000612aa4602c83613125565b9150612aaf82613652565b604082019050919050565b6000612ac7603883613125565b9150612ad2826136a1565b604082019050919050565b6000612aea602a83613125565b9150612af5826136f0565b604082019050919050565b6000612b0d602983613125565b9150612b188261373f565b604082019050919050565b6000612b30602e83613125565b9150612b3b8261378e565b604082019050919050565b6000612b53602083613125565b9150612b5e826137dd565b602082019050919050565b6000612b76602083613125565b9150612b8182613806565b602082019050919050565b6000612b99603183613125565b9150612ba48261382f565b604082019050919050565b6000612bbc602c83613125565b9150612bc78261387e565b604082019050919050565b6000612bdf602f83613125565b9150612bea826138cd565b604082019050919050565b6000612c02602183613125565b9150612c0d8261391c565b604082019050919050565b6000612c25603183613125565b9150612c308261396b565b604082019050919050565b6000612c48601783613136565b9150612c53826139ba565b601782019050919050565b6000612c6b601183613136565b9150612c76826139e3565b601182019050919050565b6000612c8e602f83613125565b9150612c9982613a0c565b604082019050919050565b612cad816132ca565b82525050565b6000612cbf8285612994565b9150612ccb8284612994565b91508190509392505050565b6000612ce282612c3b565b9150612cee8285612994565b9150612cf982612c5e565b9150612d058284612994565b91508190509392505050565b6000602082019050612d2660008301846128f5565b92915050565b6000608082019050612d4160008301876128f5565b612d4e60208301866128f5565b612d5b6040830185612ca4565b8181036060830152612d6d8184612922565b905095945050505050565b6000602082019050612d8d6000830184612904565b92915050565b6000602082019050612da86000830184612913565b92915050565b60006020820190508181036000830152612dc8818461295b565b905092915050565b60006020820190508181036000830152612de9816129c5565b9050919050565b60006020820190508181036000830152612e09816129e8565b9050919050565b60006020820190508181036000830152612e2981612a0b565b9050919050565b60006020820190508181036000830152612e4981612a2e565b9050919050565b60006020820190508181036000830152612e6981612a51565b9050919050565b60006020820190508181036000830152612e8981612a74565b9050919050565b60006020820190508181036000830152612ea981612a97565b9050919050565b60006020820190508181036000830152612ec981612aba565b9050919050565b60006020820190508181036000830152612ee981612add565b9050919050565b60006020820190508181036000830152612f0981612b00565b9050919050565b60006020820190508181036000830152612f2981612b23565b9050919050565b60006020820190508181036000830152612f4981612b46565b9050919050565b60006020820190508181036000830152612f6981612b69565b9050919050565b60006020820190508181036000830152612f8981612b8c565b9050919050565b60006020820190508181036000830152612fa981612baf565b9050919050565b60006020820190508181036000830152612fc981612bd2565b9050919050565b60006020820190508181036000830152612fe981612bf5565b9050919050565b6000602082019050818103600083015261300981612c18565b9050919050565b6000602082019050818103600083015261302981612c81565b9050919050565b60006020820190506130456000830184612ca4565b92915050565b6000613055613066565b90506130618282613372565b919050565b6000604051905090565b600067ffffffffffffffff82111561308b5761308a6134aa565b5b602082029050602081019050919050565b600067ffffffffffffffff8211156130b7576130b66134aa565b5b6130c0826134d9565b9050602081019050919050565b600067ffffffffffffffff8211156130e8576130e76134aa565b5b6130f1826134d9565b9050602081019050919050565b600081519050919050565b600081519050919050565b600082825260208201905092915050565b600082825260208201905092915050565b600081905092915050565b600061314c826132ca565b9150613157836132ca565b9250827fffffffffffffffffffffffffffffffffffffffffffffffffffffffffffffffff0382111561318c5761318b61341d565b5b828201905092915050565b60006131a2826132ca565b91506131ad836132ca565b9250826131bd576131bc61344c565b5b828204905092915050565b60006131d3826132ca565b91506131de836132ca565b9250817fffffffffffffffffffffffffffffffffffffffffffffffffffffffffffffffff04831182151516156132175761321661341d565b5b828202905092915050565b600061322d826132ca565b9150613238836132ca565b92508282101561324b5761324a61341d565b5b828203905092915050565b6000613261826132aa565b9050919050565b60008115159050919050565b6000819050919050565b60007fffffffff0000000000000000000000000000000000000000000000000000000082169050919050565b600073ffffffffffffffffffffffffffffffffffffffff82169050919050565b6000819050919050565b82818337600083830152505050565b60005b838110156133015780820151818401526020810190506132e6565b83811115613310576000848401525b50505050565b6000613321826132ca565b915060008214156133355761333461341d565b5b600182039050919050565b6000600282049050600182168061335857607f821691505b6020821081141561336c5761336b61347b565b5b50919050565b61337b826134d9565b810181811067ffffffffffffffff8211171561339a576133996134aa565b5b80604052505050565b60006133ae826132ca565b91507fffffffffffffffffffffffffffffffffffffffffffffffffffffffffffffffff8214156133e1576133e061341d565b5b600182019050919050565b60006133f7826132ca565b9150613402836132ca565b9250826134125761341161344c565b5b828206905092915050565b7f4e487b7100000000000000000000000000000000000000000000000000000000600052601160045260246000fd5b7f4e487b7100000000000000000000000000000000000000000000000000000000600052601260045260246000fd5b7f4e487b7100000000000000000000000000000000000000000000000000000000600052602260045260246000fd5b7f4e487b7100000000000000000000000000000000000000000000000000000000600052604160045260246000fd5b6000601f19601f8301169050919050565b7f537472696e67733a20686578206c656e67746820696e73756666696369656e74600082015250565b7f4552433732313a207472616e7366657220746f206e6f6e20455243373231526560008201527f63656976657220696d706c656d656e7465720000000000000000000000000000602082015250565b7f4552433732313a207472616e736665722066726f6d20696e636f72726563742060008201527f6f776e6572000000000000000000000000000000000000000000000000000000602082015250565b7f4552433732313a20746f6b656e20616c7265616479206d696e74656400000000600082015250565b7f4552433732313a207472616e7366657220746f20746865207a65726f2061646460008201527f7265737300000000000000000000000000000000000000000000000000000000602082015250565b7f4552433732313a20617070726f766520746f2063616c6c657200000000000000600082015250565b7f4552433732313a206f70657261746f7220717565727920666f72206e6f6e657860008201527f697374656e7420746f6b656e0000000000000000000000000000000000000000602082015250565b7f4552433732313a20617070726f76652063616c6c6572206973206e6f74206f7760008201527f6e6572206e6f7220617070726f76656420666f7220616c6c0000000000000000602082015250565b7f4552433732313a2062616c616e636520717565727920666f7220746865207a6560008201527f726f206164647265737300000000000000000000000000000000000000000000602082015250565b7f4552433732313a206f776e657220717565727920666f72206e6f6e657869737460008201527f656e7420746f6b656e0000000000000000000000000000000000000000000000602082015250565b7f45524337323155524953746f726167653a2055524920736574206f66206e6f6e60008201527f6578697374656e7420746f6b656e000000000000000000000000000000000000602082015250565b7f507572636861736520776f756c6420657863656564206d617820737570706c79600082015250565b7f4552433732313a206d696e7420746f20746865207a65726f2061646472657373600082015250565b7f45524337323155524953746f726167653a2055524920717565727920666f722060008201527f6e6f6e6578697374656e7420746f6b656e000000000000000000000000000000602082015250565b7f4552433732313a20617070726f76656420717565727920666f72206e6f6e657860008201527f697374656e7420746f6b656e0000000000000000000000000000000000000000602082015250565b7f4552433732314d657461646174613a2055524920717565727920666f72206e6f60008201527f6e6578697374656e7420746f6b656e0000000000000000000000000000000000602082015250565b7f4552433732313a20617070726f76616c20746f2063757272656e74206f776e6560008201527f7200000000000000000000000000000000000000000000000000000000000000602082015250565b7f4552433732313a207472616e736665722063616c6c6572206973206e6f74206f60008201527f776e6572206e6f7220617070726f766564000000000000000000000000000000602082015250565b7f416363657373436f6e74726f6c3a206163636f756e7420000000000000000000600082015250565b7f206973206d697373696e6720726f6c6520000000000000000000000000000000600082015250565b7f416363657373436f6e74726f6c3a2063616e206f6e6c792072656e6f756e636560008201527f20726f6c657320666f722073656c660000000000000000000000000000000000602082015250565b613a6481613256565b8114613a6f57600080fd5b50565b613a7b81613268565b8114613a8657600080fd5b50565b613a9281613274565b8114613a9d57600080fd5b50565b613aa98161327e565b8114613ab457600080fd5b50565b613ac0816132ca565b8114613acb57600080fd5b5056fea26469706673582212206d007a7f3babb814bbec1ba21a8bc4ccea053ce1580ac59278178d0cdda9ed5264736f6c63430008010033",
  "devdoc": {
    "kind": "dev",
    "methods": {
      "approve(address,uint256)": {
        "details": "See {IERC721-approve}."
      },
      "balanceOf(address)": {
        "details": "See {IERC721-balanceOf}."
      },
      "getApproved(uint256)": {
        "details": "See {IERC721-getApproved}."
      },
      "getRoleAdmin(bytes32)": {
        "details": "Returns the admin role that controls `role`. See {grantRole} and {revokeRole}. To change a role's admin, use {_setRoleAdmin}."
      },
      "grantRole(bytes32,address)": {
        "details": "Grants `role` to `account`. If `account` had not been already granted `role`, emits a {RoleGranted} event. Requirements: - the caller must have ``role``'s admin role."
      },
      "hasRole(bytes32,address)": {
        "details": "Returns `true` if `account` has been granted `role`."
      },
      "isApprovedForAll(address,address)": {
        "details": "See {IERC721-isApprovedForAll}."
      },
      "name()": {
        "details": "See {IERC721Metadata-name}."
      },
      "ownerOf(uint256)": {
        "details": "See {IERC721-ownerOf}."
      },
      "renounceRole(bytes32,address)": {
        "details": "Revokes `role` from the calling account. Roles are often managed via {grantRole} and {revokeRole}: this function's purpose is to provide a mechanism for accounts to lose their privileges if they are compromised (such as when a trusted device is misplaced). If the calling account had been revoked `role`, emits a {RoleRevoked} event. Requirements: - the caller must be `account`."
      },
      "revokeRole(bytes32,address)": {
        "details": "Revokes `role` from `account`. If `account` had been granted `role`, emits a {RoleRevoked} event. Requirements: - the caller must have ``role``'s admin role."
      },
      "safeTransferFrom(address,address,uint256)": {
        "details": "See {IERC721-safeTransferFrom}."
      },
      "safeTransferFrom(address,address,uint256,bytes)": {
        "details": "See {IERC721-safeTransferFrom}."
      },
      "setApprovalForAll(address,bool)": {
        "details": "See {IERC721-setApprovalForAll}."
      },
      "symbol()": {
        "details": "See {IERC721Metadata-symbol}."
      },
      "tokenURI(uint256)": {
        "details": "See {IERC721Metadata-tokenURI}."
      },
      "transferFrom(address,address,uint256)": {
        "details": "See {IERC721-transferFrom}."
      }
    },
    "version": 1
  },
  "userdoc": {
    "kind": "user",
    "methods": {},
    "version": 1
  },
  "storageLayout": {
    "storage": [
      {
        "astId": 407,
        "contract": "contracts/Collectible.sol:Collectible",
        "label": "_name",
        "offset": 0,
        "slot": "0",
        "type": "t_string_storage"
      },
      {
        "astId": 409,
        "contract": "contracts/Collectible.sol:Collectible",
        "label": "_symbol",
        "offset": 0,
        "slot": "1",
        "type": "t_string_storage"
      },
      {
        "astId": 413,
        "contract": "contracts/Collectible.sol:Collectible",
        "label": "_owners",
        "offset": 0,
        "slot": "2",
        "type": "t_mapping(t_uint256,t_address)"
      },
      {
        "astId": 417,
        "contract": "contracts/Collectible.sol:Collectible",
        "label": "_balances",
        "offset": 0,
        "slot": "3",
        "type": "t_mapping(t_address,t_uint256)"
      },
      {
        "astId": 421,
        "contract": "contracts/Collectible.sol:Collectible",
        "label": "_tokenApprovals",
        "offset": 0,
        "slot": "4",
        "type": "t_mapping(t_uint256,t_address)"
      },
      {
        "astId": 427,
        "contract": "contracts/Collectible.sol:Collectible",
        "label": "_operatorApprovals",
        "offset": 0,
        "slot": "5",
        "type": "t_mapping(t_address,t_mapping(t_address,t_bool))"
      },
      {
        "astId": 1394,
        "contract": "contracts/Collectible.sol:Collectible",
        "label": "_tokenURIs",
        "offset": 0,
        "slot": "6",
        "type": "t_mapping(t_uint256,t_string_storage)"
      },
      {
        "astId": 24,
        "contract": "contracts/Collectible.sol:Collectible",
        "label": "_roles",
        "offset": 0,
        "slot": "7",
        "type": "t_mapping(t_bytes32,t_struct(RoleData)19_storage)"
      },
      {
        "astId": 2432,
        "contract": "contracts/Collectible.sol:Collectible",
        "label": "totalSupply",
        "offset": 0,
        "slot": "8",
        "type": "t_uint256"
      }
    ],
    "types": {
      "t_address": {
        "encoding": "inplace",
        "label": "address",
        "numberOfBytes": "20"
      },
      "t_bool": {
        "encoding": "inplace",
        "label": "bool",
        "numberOfBytes": "1"
      },
      "t_bytes32": {
        "encoding": "inplace",
        "label": "bytes32",
        "numberOfBytes": "32"
      },
      "t_mapping(t_address,t_bool)": {
        "encoding": "mapping",
        "key": "t_address",
        "label": "mapping(address => bool)",
        "numberOfBytes": "32",
        "value": "t_bool"
      },
      "t_mapping(t_address,t_mapping(t_address,t_bool))": {
        "encoding": "mapping",
        "key": "t_address",
        "label": "mapping(address => mapping(address => bool))",
        "numberOfBytes": "32",
        "value": "t_mapping(t_address,t_bool)"
      },
      "t_mapping(t_address,t_uint256)": {
        "encoding": "mapping",
        "key": "t_address",
        "label": "mapping(address => uint256)",
        "numberOfBytes": "32",
        "value": "t_uint256"
      },
      "t_mapping(t_bytes32,t_struct(RoleData)19_storage)": {
        "encoding": "mapping",
        "key": "t_bytes32",
        "label": "mapping(bytes32 => struct AccessControl.RoleData)",
        "numberOfBytes": "32",
        "value": "t_struct(RoleData)19_storage"
      },
      "t_mapping(t_uint256,t_address)": {
        "encoding": "mapping",
        "key": "t_uint256",
        "label": "mapping(uint256 => address)",
        "numberOfBytes": "32",
        "value": "t_address"
      },
      "t_mapping(t_uint256,t_string_storage)": {
        "encoding": "mapping",
        "key": "t_uint256",
        "label": "mapping(uint256 => string)",
        "numberOfBytes": "32",
        "value": "t_string_storage"
      },
      "t_string_storage": {
        "encoding": "bytes",
        "label": "string",
        "numberOfBytes": "32"
      },
      "t_struct(RoleData)19_storage": {
        "encoding": "inplace",
        "label": "struct AccessControl.RoleData",
        "members": [
          {
            "astId": 16,
            "contract": "contracts/Collectible.sol:Collectible",
            "label": "members",
            "offset": 0,
            "slot": "0",
            "type": "t_mapping(t_address,t_bool)"
          },
          {
            "astId": 18,
            "contract": "contracts/Collectible.sol:Collectible",
            "label": "adminRole",
            "offset": 0,
            "slot": "1",
            "type": "t_bytes32"
          }
        ],
        "numberOfBytes": "64"
      },
      "t_uint256": {
        "encoding": "inplace",
        "label": "uint256",
        "numberOfBytes": "32"
      }
    }
  }
}