{
  "address": "0xd2fd48098d27DacC1878C231bEE3a34eD5154F63",
  "abi": [
    {
      "inputs": [
        {
          "internalType": "string",
          "name": "baseURI",
          "type": "string"
        }
      ],
      "stateMutability": "nonpayable",
      "type": "constructor"
    },
    {
      "inputs": [],
      "name": "ApprovalCallerNotOwnerNorApproved",
      "type": "error"
    },
    {
      "inputs": [],
      "name": "ApprovalQueryForNonexistentToken",
      "type": "error"
    },
    {
      "inputs": [],
      "name": "ApprovalToCurrentOwner",
      "type": "error"
    },
    {
      "inputs": [],
      "name": "ApproveToCaller",
      "type": "error"
    },
    {
      "inputs": [],
      "name": "BalanceQueryForZeroAddress",
      "type": "error"
    },
    {
      "inputs": [],
      "name": "MintToZeroAddress",
      "type": "error"
    },
    {
      "inputs": [],
      "name": "MintZeroQuantity",
      "type": "error"
    },
    {
      "inputs": [],
      "name": "OwnerQueryForNonexistentToken",
      "type": "error"
    },
    {
      "inputs": [],
      "name": "TransferCallerNotOwnerNorApproved",
      "type": "error"
    },
    {
      "inputs": [],
      "name": "TransferFromIncorrectOwner",
      "type": "error"
    },
    {
      "inputs": [],
      "name": "TransferToNonERC721ReceiverImplementer",
      "type": "error"
    },
    {
      "inputs": [],
      "name": "TransferToZeroAddress",
      "type": "error"
    },
    {
      "inputs": [],
      "name": "URIQueryForNonexistentToken",
      "type": "error"
    },
    {
      "anonymous": false,
      "inputs": [
        {
          "indexed": true,
          "internalType": "address",
          "name": "owner",
          "type": "address"
        },
        {
          "indexed": true,
          "internalType": "address",
          "name": "approved",
          "type": "address"
        },
        {
          "indexed": true,
          "internalType": "uint256",
          "name": "tokenId",
          "type": "uint256"
        }
      ],
      "name": "Approval",
      "type": "event"
    },
    {
      "anonymous": false,
      "inputs": [
        {
          "indexed": true,
          "internalType": "address",
          "name": "owner",
          "type": "address"
        },
        {
          "indexed": true,
          "internalType": "address",
          "name": "operator",
          "type": "address"
        },
        {
          "indexed": false,
          "internalType": "bool",
          "name": "approved",
          "type": "bool"
        }
      ],
      "name": "ApprovalForAll",
      "type": "event"
    },
    {
      "anonymous": false,
      "inputs": [
        {
          "indexed": true,
          "internalType": "address",
          "name": "from",
          "type": "address"
        },
        {
          "indexed": true,
          "internalType": "address",
          "name": "to",
          "type": "address"
        },
        {
          "indexed": true,
          "internalType": "uint256",
          "name": "tokenId",
          "type": "uint256"
        }
      ],
      "name": "Transfer",
      "type": "event"
    },
    {
      "inputs": [],
      "name": "MAX_SUPPLY",
      "outputs": [
        {
          "internalType": "uint256",
          "name": "",
          "type": "uint256"
        }
      ],
      "stateMutability": "view",
      "type": "function"
    },
    {
      "inputs": [],
      "name": "TOKEN_PRICE",
      "outputs": [
        {
          "internalType": "uint256",
          "name": "",
          "type": "uint256"
        }
      ],
      "stateMutability": "view",
      "type": "function"
    },
    {
      "inputs": [
        {
          "internalType": "address",
          "name": "to",
          "type": "address"
        },
        {
          "internalType": "uint256",
          "name": "tokenId",
          "type": "uint256"
        }
      ],
      "name": "approve",
      "outputs": [],
      "stateMutability": "nonpayable",
      "type": "function"
    },
    {
      "inputs": [
        {
          "internalType": "address",
          "name": "owner",
          "type": "address"
        }
      ],
      "name": "balanceOf",
      "outputs": [
        {
          "internalType": "uint256",
          "name": "",
          "type": "uint256"
        }
      ],
      "stateMutability": "view",
      "type": "function"
    },
    {
      "inputs": [
        {
          "internalType": "uint256",
          "name": "tokenId",
          "type": "uint256"
        }
      ],
      "name": "getApproved",
      "outputs": [
        {
          "internalType": "address",
          "name": "",
          "type": "address"
        }
      ],
      "stateMutability": "view",
      "type": "function"
    },
    {
      "inputs": [
        {
          "internalType": "address",
          "name": "owner",
          "type": "address"
        },
        {
          "internalType": "address",
          "name": "operator",
          "type": "address"
        }
      ],
      "name": "isApprovedForAll",
      "outputs": [
        {
          "internalType": "bool",
          "name": "",
          "type": "bool"
        }
      ],
      "stateMutability": "view",
      "type": "function"
    },
    {
      "inputs": [
        {
          "internalType": "bytes32",
          "name": "hash",
          "type": "bytes32"
        },
        {
          "internalType": "bytes",
          "name": "signature",
          "type": "bytes"
        },
        {
          "internalType": "string",
          "name": "nonce",
          "type": "string"
        },
        {
          "internalType": "uint256",
          "name": "quantity",
          "type": "uint256"
        }
      ],
      "name": "mint",
      "outputs": [],
      "stateMutability": "payable",
      "type": "function"
    },
    {
      "inputs": [],
      "name": "name",
      "outputs": [
        {
          "internalType": "string",
          "name": "",
          "type": "string"
        }
      ],
      "stateMutability": "view",
      "type": "function"
    },
    {
      "inputs": [
        {
          "internalType": "uint256",
          "name": "tokenId",
          "type": "uint256"
        }
      ],
      "name": "ownerOf",
      "outputs": [
        {
          "internalType": "address",
          "name": "",
          "type": "address"
        }
      ],
      "stateMutability": "view",
      "type": "function"
    },
    {
      "inputs": [
        {
          "internalType": "address",
          "name": "from",
          "type": "address"
        },
        {
          "internalType": "address",
          "name": "to",
          "type": "address"
        },
        {
          "internalType": "uint256",
          "name": "tokenId",
          "type": "uint256"
        }
      ],
      "name": "safeTransferFrom",
      "outputs": [],
      "stateMutability": "nonpayable",
      "type": "function"
    },
    {
      "inputs": [
        {
          "internalType": "address",
          "name": "from",
          "type": "address"
        },
        {
          "internalType": "address",
          "name": "to",
          "type": "address"
        },
        {
          "internalType": "uint256",
          "name": "tokenId",
          "type": "uint256"
        },
        {
          "internalType": "bytes",
          "name": "_data",
          "type": "bytes"
        }
      ],
      "name": "safeTransferFrom",
      "outputs": [],
      "stateMutability": "nonpayable",
      "type": "function"
    },
    {
      "inputs": [
        {
          "internalType": "address",
          "name": "operator",
          "type": "address"
        },
        {
          "internalType": "bool",
          "name": "approved",
          "type": "bool"
        }
      ],
      "name": "setApprovalForAll",
      "outputs": [],
      "stateMutability": "nonpayable",
      "type": "function"
    },
    {
      "inputs": [
        {
          "internalType": "string",
          "name": "baseURI",
          "type": "string"
        }
      ],
      "name": "setBaseURI",
      "outputs": [],
      "stateMutability": "nonpayable",
      "type": "function"
    },
    {
      "inputs": [
        {
          "internalType": "bytes4",
          "name": "interfaceId",
          "type": "bytes4"
        }
      ],
      "name": "supportsInterface",
      "outputs": [
        {
          "internalType": "bool",
          "name": "",
          "type": "bool"
        }
      ],
      "stateMutability": "view",
      "type": "function"
    },
    {
      "inputs": [],
      "name": "symbol",
      "outputs": [
        {
          "internalType": "string",
          "name": "",
          "type": "string"
        }
      ],
      "stateMutability": "view",
      "type": "function"
    },
    {
      "inputs": [
        {
          "internalType": "uint256",
          "name": "tokenId",
          "type": "uint256"
        }
      ],
      "name": "tokenURI",
      "outputs": [
        {
          "internalType": "string",
          "name": "",
          "type": "string"
        }
      ],
      "stateMutability": "view",
      "type": "function"
    },
    {
      "inputs": [],
      "name": "totalSupply",
      "outputs": [
        {
          "internalType": "uint256",
          "name": "",
          "type": "uint256"
        }
      ],
      "stateMutability": "view",
      "type": "function"
    },
    {
      "inputs": [
        {
          "internalType": "address",
          "name": "from",
          "type": "address"
        },
        {
          "internalType": "address",
          "name": "to",
          "type": "address"
        },
        {
          "internalType": "uint256",
          "name": "tokenId",
          "type": "uint256"
        }
      ],
      "name": "transferFrom",
      "outputs": [],
      "stateMutability": "nonpayable",
      "type": "function"
    }
  ],
  "transactionHash": "0x526ef74fdf3af737f76995a2263bda91e6ddc1a729bd8f054520c5ba409b56e9",
  "args": [
    "ipfs://bafybeiexk35logx4qjqpvkvoi5q7zji34ulh42gb4wxwmmh5ofxr2fwsre/"
  ],
  "numDeployments": 1,
  "solcInputHash": "60b13413c188eeaa8b9214161bf6ce1f",
  "bytecode": "0x60806040523480156200001157600080fd5b5060405162003b4838038062003b48833981810160405281019062000037919062000275565b6040518060400160405280600881526020017f4f70656e204172740000000000000000000000000000000000000000000000008152506040518060400160405280600581526020017f4f504152540000000000000000000000000000000000000000000000000000008152508160029080519060200190620000bb92919062000153565b508060039080519060200190620000d492919062000153565b50620000e56200014e60201b60201c565b600081905550505080600890805190602001906200010592919062000153565b5033600a60006101000a81548173ffffffffffffffffffffffffffffffffffffffff021916908373ffffffffffffffffffffffffffffffffffffffff160217905550506200042a565b600090565b82805462000161906200034f565b90600052602060002090601f016020900481019282620001855760008555620001d1565b82601f10620001a057805160ff1916838001178555620001d1565b82800160010185558215620001d1579182015b82811115620001d0578251825591602001919060010190620001b3565b5b509050620001e09190620001e4565b5090565b5b80821115620001ff576000816000905550600101620001e5565b5090565b60006200021a6200021484620002e3565b620002ba565b9050828152602081018484840111156200023357600080fd5b6200024084828562000319565b509392505050565b600082601f8301126200025a57600080fd5b81516200026c84826020860162000203565b91505092915050565b6000602082840312156200028857600080fd5b600082015167ffffffffffffffff811115620002a357600080fd5b620002b18482850162000248565b91505092915050565b6000620002c6620002d9565b9050620002d4828262000385565b919050565b6000604051905090565b600067ffffffffffffffff821115620003015762000300620003ea565b5b6200030c8262000419565b9050602081019050919050565b60005b83811015620003395780820151818401526020810190506200031c565b8381111562000349576000848401525b50505050565b600060028204905060018216806200036857607f821691505b602082108114156200037f576200037e620003bb565b5b50919050565b620003908262000419565b810181811067ffffffffffffffff82111715620003b257620003b1620003ea565b5b80604052505050565b7f4e487b7100000000000000000000000000000000000000000000000000000000600052602260045260246000fd5b7f4e487b7100000000000000000000000000000000000000000000000000000000600052604160045260246000fd5b6000601f19601f8301169050919050565b61370e806200043a6000396000f3fe6080604052600436106101095760003560e01c806355f804b311610095578063a22cb46511610064578063a22cb4651461036e578063b88d4fde14610397578063c87b56dd146103c0578063d2d8cb67146103fd578063e985e9c51461042857610109565b806355f804b3146102a05780636352211e146102c957806370a082311461030657806395d89b411461034357610109565b806318160ddd116100dc57806318160ddd146101dc5780631a2bf8c41461020757806323b872dd1461022357806332cb6b0c1461024c57806342842e0e1461027757610109565b806301ffc9a71461010e57806306fdde031461014b578063081812fc14610176578063095ea7b3146101b3575b600080fd5b34801561011a57600080fd5b50610135600480360381019061013091906129d9565b610465565b6040516101429190612e27565b60405180910390f35b34801561015757600080fd5b50610160610477565b60405161016d9190612e87565b60405180910390f35b34801561018257600080fd5b5061019d60048036038101906101989190612a6c565b610509565b6040516101aa9190612dc0565b60405180910390f35b3480156101bf57600080fd5b506101da60048036038101906101d5919061290a565b610585565b005b3480156101e857600080fd5b506101f1610690565b6040516101fe9190612fc9565b60405180910390f35b610221600480360381019061021c9190612946565b6106a7565b005b34801561022f57600080fd5b5061024a60048036038101906102459190612804565b610899565b005b34801561025857600080fd5b506102616108a9565b60405161026e9190612fc9565b60405180910390f35b34801561028357600080fd5b5061029e60048036038101906102999190612804565b6108ae565b005b3480156102ac57600080fd5b506102c760048036038101906102c29190612a2b565b6108ce565b005b3480156102d557600080fd5b506102f060048036038101906102eb9190612a6c565b6108e8565b6040516102fd9190612dc0565b60405180910390f35b34801561031257600080fd5b5061032d6004803603810190610328919061279f565b6108fe565b60405161033a9190612fc9565b60405180910390f35b34801561034f57600080fd5b506103586109ce565b6040516103659190612e87565b60405180910390f35b34801561037a57600080fd5b50610395600480360381019061039091906128ce565b610a60565b005b3480156103a357600080fd5b506103be60048036038101906103b99190612853565b610bd8565b005b3480156103cc57600080fd5b506103e760048036038101906103e29190612a6c565b610c54565b6040516103f49190612e87565b60405180910390f35b34801561040957600080fd5b50610412610cf3565b60405161041f9190612fc9565b60405180910390f35b34801561043457600080fd5b5061044f600480360381019061044a91906127c8565b610cfd565b60405161045c9190612e27565b60405180910390f35b600061047082610d91565b9050919050565b60606002805461048690613290565b80601f01602080910402602001604051908101604052809291908181526020018280546104b290613290565b80156104ff5780601f106104d4576101008083540402835291602001916104ff565b820191906000526020600020905b8154815290600101906020018083116104e257829003601f168201915b5050505050905090565b600061051482610e73565b61054a576040517fcf4700e400000000000000000000000000000000000000000000000000000000815260040160405180910390fd5b6006600083815260200190815260200160002060009054906101000a900473ffffffffffffffffffffffffffffffffffffffff169050919050565b6000610590826108e8565b90508073ffffffffffffffffffffffffffffffffffffffff168373ffffffffffffffffffffffffffffffffffffffff1614156105f8576040517f943f7b8c00000000000000000000000000000000000000000000000000000000815260040160405180910390fd5b8073ffffffffffffffffffffffffffffffffffffffff16610617610ec1565b73ffffffffffffffffffffffffffffffffffffffff1614158015610649575061064781610642610ec1565b610cfd565b155b15610680576040517fcfb3b94200000000000000000000000000000000000000000000000000000000815260040160405180910390fd5b61068b838383610ec9565b505050565b600061069a610f7b565b6001546000540303905090565b6019816106b2610690565b6106bc91906130ae565b11156106fd576040517f08c379a00000000000000000000000000000000000000000000000000000000081526004016106f490612f69565b60405180910390fd5b806512309ce5400061070f9190613135565b341015610751576040517f08c379a000000000000000000000000000000000000000000000000000000000815260040161074890612ee9565b60405180910390fd5b8361075d338385610f80565b1461079d576040517f08c379a000000000000000000000000000000000000000000000000000000000815260040161079490612ec9565b60405180910390fd5b6009826040516107ad9190612d5f565b908152602001604051809103902060009054906101000a900460ff1615610809576040517f08c379a000000000000000000000000000000000000000000000000000000000815260040161080090612fa9565b60405180910390fd5b6108138484610fe1565b610852576040517f08c379a000000000000000000000000000000000000000000000000000000000815260040161084990612f29565b60405180910390fd5b61085c338261104e565b600160098360405161086e9190612d5f565b908152602001604051809103902060006101000a81548160ff02191690831515021790555050505050565b6108a483838361106c565b505050565b601981565b6108c983838360405180602001604052806000815250610bd8565b505050565b80600890805190602001906108e492919061256b565b5050565b60006108f38261155d565b600001519050919050565b60008073ffffffffffffffffffffffffffffffffffffffff168273ffffffffffffffffffffffffffffffffffffffff161415610966576040517f8f4eb60400000000000000000000000000000000000000000000000000000000815260040160405180910390fd5b600560008373ffffffffffffffffffffffffffffffffffffffff1673ffffffffffffffffffffffffffffffffffffffff16815260200190815260200160002060000160009054906101000a900467ffffffffffffffff1667ffffffffffffffff169050919050565b6060600380546109dd90613290565b80601f0160208091040260200160405190810160405280929190818152602001828054610a0990613290565b8015610a565780601f10610a2b57610100808354040283529160200191610a56565b820191906000526020600020905b815481529060010190602001808311610a3957829003601f168201915b5050505050905090565b610a68610ec1565b73ffffffffffffffffffffffffffffffffffffffff168273ffffffffffffffffffffffffffffffffffffffff161415610acd576040517fb06307db00000000000000000000000000000000000000000000000000000000815260040160405180910390fd5b8060076000610ada610ec1565b73ffffffffffffffffffffffffffffffffffffffff1673ffffffffffffffffffffffffffffffffffffffff16815260200190815260200160002060008473ffffffffffffffffffffffffffffffffffffffff1673ffffffffffffffffffffffffffffffffffffffff16815260200190815260200160002060006101000a81548160ff0219169083151502179055508173ffffffffffffffffffffffffffffffffffffffff16610b87610ec1565b73ffffffffffffffffffffffffffffffffffffffff167f17307eab39ab6107e8899845ad3d59bd9653f200f220920489ca2b5937696c3183604051610bcc9190612e27565b60405180910390a35050565b610be384848461106c565b610c028373ffffffffffffffffffffffffffffffffffffffff166117ec565b8015610c175750610c158484848461180f565b155b15610c4e576040517fd1a57ed600000000000000000000000000000000000000000000000000000000815260040160405180910390fd5b50505050565b6060610c5f82610e73565b610c95576040517fa14c4b5000000000000000000000000000000000000000000000000000000000815260040160405180910390fd5b6000610c9f61196f565b9050600081511415610cc05760405180602001604052806000815250610ceb565b80610cca84611a01565b604051602001610cdb929190612d76565b6040516020818303038152906040525b915050919050565b6512309ce5400081565b6000600760008473ffffffffffffffffffffffffffffffffffffffff1673ffffffffffffffffffffffffffffffffffffffff16815260200190815260200160002060008373ffffffffffffffffffffffffffffffffffffffff1673ffffffffffffffffffffffffffffffffffffffff16815260200190815260200160002060009054906101000a900460ff16905092915050565b60007f80ac58cd000000000000000000000000000000000000000000000000000000007bffffffffffffffffffffffffffffffffffffffffffffffffffffffff1916827bffffffffffffffffffffffffffffffffffffffffffffffffffffffff19161480610e5c57507f5b5e139f000000000000000000000000000000000000000000000000000000007bffffffffffffffffffffffffffffffffffffffffffffffffffffffff1916827bffffffffffffffffffffffffffffffffffffffffffffffffffffffff1916145b80610e6c5750610e6b82611bae565b5b9050919050565b600081610e7e610f7b565b11158015610e8d575060005482105b8015610eba575060046000838152602001908152602001600020600001601c9054906101000a900460ff16155b9050919050565b600033905090565b826006600084815260200190815260200160002060006101000a81548173ffffffffffffffffffffffffffffffffffffffff021916908373ffffffffffffffffffffffffffffffffffffffff160217905550818373ffffffffffffffffffffffffffffffffffffffff168273ffffffffffffffffffffffffffffffffffffffff167f8c5be1e5ebec7d5bd14f71427d1e84f3dd0314c0f7b2291e5b200ac8c7c3b92560405160405180910390a4505050565b600090565b600080848484604051602001610f9893929190612d26565b60405160208183030381529060405280519060200120604051602001610fbe9190612d9a565b604051602081830303815290604052805190602001209050809150509392505050565b6000610ff68284611c1890919063ffffffff16565b73ffffffffffffffffffffffffffffffffffffffff16600a60009054906101000a900473ffffffffffffffffffffffffffffffffffffffff1673ffffffffffffffffffffffffffffffffffffffff1614905092915050565b611068828260405180602001604052806000815250611c3f565b5050565b60006110778261155d565b90506000816000015173ffffffffffffffffffffffffffffffffffffffff1661109e610ec1565b73ffffffffffffffffffffffffffffffffffffffff1614806110d157506110d082600001516110cb610ec1565b610cfd565b5b8061111657506110df610ec1565b73ffffffffffffffffffffffffffffffffffffffff166110fe84610509565b73ffffffffffffffffffffffffffffffffffffffff16145b90508061114f576040517f59c896be00000000000000000000000000000000000000000000000000000000815260040160405180910390fd5b8473ffffffffffffffffffffffffffffffffffffffff16826000015173ffffffffffffffffffffffffffffffffffffffff16146111b8576040517fa114810000000000000000000000000000000000000000000000000000000000815260040160405180910390fd5b600073ffffffffffffffffffffffffffffffffffffffff168473ffffffffffffffffffffffffffffffffffffffff16141561121f576040517fea553b3400000000000000000000000000000000000000000000000000000000815260040160405180910390fd5b61122c8585856001611c51565b61123c6000848460000151610ec9565b6001600560008773ffffffffffffffffffffffffffffffffffffffff1673ffffffffffffffffffffffffffffffffffffffff16815260200190815260200160002060000160008282829054906101000a900467ffffffffffffffff160392506101000a81548167ffffffffffffffff021916908367ffffffffffffffff1602179055506001600560008673ffffffffffffffffffffffffffffffffffffffff1673ffffffffffffffffffffffffffffffffffffffff16815260200190815260200160002060000160008282829054906101000a900467ffffffffffffffff160192506101000a81548167ffffffffffffffff021916908367ffffffffffffffff160217905550836004600085815260200190815260200160002060000160006101000a81548173ffffffffffffffffffffffffffffffffffffffff021916908373ffffffffffffffffffffffffffffffffffffffff160217905550426004600085815260200190815260200160002060000160146101000a81548167ffffffffffffffff021916908367ffffffffffffffff1602179055506000600184019050600073ffffffffffffffffffffffffffffffffffffffff166004600083815260200190815260200160002060000160009054906101000a900473ffffffffffffffffffffffffffffffffffffffff1673ffffffffffffffffffffffffffffffffffffffff1614156114ed576000548110156114ec5782600001516004600083815260200190815260200160002060000160006101000a81548173ffffffffffffffffffffffffffffffffffffffff021916908373ffffffffffffffffffffffffffffffffffffffff16021790555082602001516004600083815260200190815260200160002060000160146101000a81548167ffffffffffffffff021916908367ffffffffffffffff1602179055505b5b50828473ffffffffffffffffffffffffffffffffffffffff168673ffffffffffffffffffffffffffffffffffffffff167fddf252ad1be2c89b69c2b068fc378daa952ba7f163c4a11628f55a4df523b3ef60405160405180910390a46115568585856001611c57565b5050505050565b6115656125f1565b600082905080611573610f7b565b11158015611582575060005481105b156117b5576000600460008381526020019081526020016000206040518060600160405290816000820160009054906101000a900473ffffffffffffffffffffffffffffffffffffffff1673ffffffffffffffffffffffffffffffffffffffff1673ffffffffffffffffffffffffffffffffffffffff1681526020016000820160149054906101000a900467ffffffffffffffff1667ffffffffffffffff1667ffffffffffffffff16815260200160008201601c9054906101000a900460ff161515151581525050905080604001516117b357600073ffffffffffffffffffffffffffffffffffffffff16816000015173ffffffffffffffffffffffffffffffffffffffff16146116975780925050506117e7565b5b6001156117b257818060019003925050600460008381526020019081526020016000206040518060600160405290816000820160009054906101000a900473ffffffffffffffffffffffffffffffffffffffff1673ffffffffffffffffffffffffffffffffffffffff1673ffffffffffffffffffffffffffffffffffffffff1681526020016000820160149054906101000a900467ffffffffffffffff1667ffffffffffffffff1667ffffffffffffffff16815260200160008201601c9054906101000a900460ff1615151515815250509050600073ffffffffffffffffffffffffffffffffffffffff16816000015173ffffffffffffffffffffffffffffffffffffffff16146117ad5780925050506117e7565b611698565b5b505b6040517fdf2d9b4200000000000000000000000000000000000000000000000000000000815260040160405180910390fd5b919050565b6000808273ffffffffffffffffffffffffffffffffffffffff163b119050919050565b60008373ffffffffffffffffffffffffffffffffffffffff1663150b7a02611835610ec1565b8786866040518563ffffffff1660e01b81526004016118579493929190612ddb565b602060405180830381600087803b15801561187157600080fd5b505af19250505080156118a257506040513d601f19601f8201168201806040525081019061189f9190612a02565b60015b61191c573d80600081146118d2576040519150601f19603f3d011682016040523d82523d6000602084013e6118d7565b606091505b50600081511415611914576040517fd1a57ed600000000000000000000000000000000000000000000000000000000815260040160405180910390fd5b805181602001fd5b63150b7a0260e01b7bffffffffffffffffffffffffffffffffffffffffffffffffffffffff1916817bffffffffffffffffffffffffffffffffffffffffffffffffffffffff191614915050949350505050565b60606008805461197e90613290565b80601f01602080910402602001604051908101604052809291908181526020018280546119aa90613290565b80156119f75780601f106119cc576101008083540402835291602001916119f7565b820191906000526020600020905b8154815290600101906020018083116119da57829003601f168201915b5050505050905090565b60606000821415611a49576040518060400160405280600181526020017f30000000000000000000000000000000000000000000000000000000000000008152509050611ba9565b600082905060005b60008214611a7b578080611a64906132f3565b915050600a82611a749190613104565b9150611a51565b60008167ffffffffffffffff811115611abd577f4e487b7100000000000000000000000000000000000000000000000000000000600052604160045260246000fd5b6040519080825280601f01601f191660200182016040528015611aef5781602001600182028036833780820191505090505b5090505b60008514611ba257600182611b08919061318f565b9150600a85611b179190613374565b6030611b2391906130ae565b60f81b818381518110611b5f577f4e487b7100000000000000000000000000000000000000000000000000000000600052603260045260246000fd5b60200101907effffffffffffffffffffffffffffffffffffffffffffffffffffffffffffff1916908160001a905350600a85611b9b9190613104565b9450611af3565b8093505050505b919050565b60007f01ffc9a7000000000000000000000000000000000000000000000000000000007bffffffffffffffffffffffffffffffffffffffffffffffffffffffff1916827bffffffffffffffffffffffffffffffffffffffffffffffffffffffff1916149050919050565b6000806000611c278585611c5d565b91509150611c3481611ce0565b819250505092915050565b611c4c8383836001612031565b505050565b50505050565b50505050565b600080604183511415611c9f5760008060006020860151925060408601519150606086015160001a9050611c93878285856123ff565b94509450505050611cd9565b604083511415611cd0576000806020850151915060408501519050611cc586838361250c565b935093505050611cd9565b60006002915091505b9250929050565b60006004811115611d1a577f4e487b7100000000000000000000000000000000000000000000000000000000600052602160045260246000fd5b816004811115611d53577f4e487b7100000000000000000000000000000000000000000000000000000000600052602160045260246000fd5b1415611d5e5761202e565b60016004811115611d98577f4e487b7100000000000000000000000000000000000000000000000000000000600052602160045260246000fd5b816004811115611dd1577f4e487b7100000000000000000000000000000000000000000000000000000000600052602160045260246000fd5b1415611e12576040517f08c379a0000000000000000000000000000000000000000000000000000000008152600401611e0990612ea9565b60405180910390fd5b60026004811115611e4c577f4e487b7100000000000000000000000000000000000000000000000000000000600052602160045260246000fd5b816004811115611e85577f4e487b7100000000000000000000000000000000000000000000000000000000600052602160045260246000fd5b1415611ec6576040517f08c379a0000000000000000000000000000000000000000000000000000000008152600401611ebd90612f09565b60405180910390fd5b60036004811115611f00577f4e487b7100000000000000000000000000000000000000000000000000000000600052602160045260246000fd5b816004811115611f39577f4e487b7100000000000000000000000000000000000000000000000000000000600052602160045260246000fd5b1415611f7a576040517f08c379a0000000000000000000000000000000000000000000000000000000008152600401611f7190612f49565b60405180910390fd5b600480811115611fb3577f4e487b7100000000000000000000000000000000000000000000000000000000600052602160045260246000fd5b816004811115611fec577f4e487b7100000000000000000000000000000000000000000000000000000000600052602160045260246000fd5b141561202d576040517f08c379a000000000000000000000000000000000000000000000000000000000815260040161202490612f89565b60405180910390fd5b5b50565b600080549050600073ffffffffffffffffffffffffffffffffffffffff168573ffffffffffffffffffffffffffffffffffffffff16141561209e576040517f2e07630000000000000000000000000000000000000000000000000000000000815260040160405180910390fd5b60008414156120d9576040517fb562e8dd00000000000000000000000000000000000000000000000000000000815260040160405180910390fd5b6120e66000868387611c51565b83600560008773ffffffffffffffffffffffffffffffffffffffff1673ffffffffffffffffffffffffffffffffffffffff16815260200190815260200160002060000160008282829054906101000a900467ffffffffffffffff160192506101000a81548167ffffffffffffffff021916908367ffffffffffffffff16021790555083600560008773ffffffffffffffffffffffffffffffffffffffff1673ffffffffffffffffffffffffffffffffffffffff16815260200190815260200160002060000160088282829054906101000a900467ffffffffffffffff160192506101000a81548167ffffffffffffffff021916908367ffffffffffffffff160217905550846004600083815260200190815260200160002060000160006101000a81548173ffffffffffffffffffffffffffffffffffffffff021916908373ffffffffffffffffffffffffffffffffffffffff160217905550426004600083815260200190815260200160002060000160146101000a81548167ffffffffffffffff021916908367ffffffffffffffff1602179055506000819050600085820190508380156122b057506122af8773ffffffffffffffffffffffffffffffffffffffff166117ec565b5b15612376575b818773ffffffffffffffffffffffffffffffffffffffff16600073ffffffffffffffffffffffffffffffffffffffff167fddf252ad1be2c89b69c2b068fc378daa952ba7f163c4a11628f55a4df523b3ef60405160405180910390a4612325600088848060010195508861180f565b61235b576040517fd1a57ed600000000000000000000000000000000000000000000000000000000815260040160405180910390fd5b808214156122b657826000541461237157600080fd5b6123e2565b5b818060010192508773ffffffffffffffffffffffffffffffffffffffff16600073ffffffffffffffffffffffffffffffffffffffff167fddf252ad1be2c89b69c2b068fc378daa952ba7f163c4a11628f55a4df523b3ef60405160405180910390a480821415612377575b8160008190555050506123f86000868387611c57565b5050505050565b6000807f7fffffffffffffffffffffffffffffff5d576e7357a4501ddfe92f46681b20a08360001c111561243a576000600391509150612503565b601b8560ff16141580156124525750601c8560ff1614155b15612464576000600491509150612503565b6000600187878787604051600081526020016040526040516124899493929190612e42565b6020604051602081039080840390855afa1580156124ab573d6000803e3d6000fd5b505050602060405103519050600073ffffffffffffffffffffffffffffffffffffffff168173ffffffffffffffffffffffffffffffffffffffff1614156124fa57600060019250925050612503565b80600092509250505b94509492505050565b60008060007f7fffffffffffffffffffffffffffffffffffffffffffffffffffffffffffffff60001b841690506000601b60ff8660001c901c61254f91906130ae565b905061255d878288856123ff565b935093505050935093915050565b82805461257790613290565b90600052602060002090601f01602090048101928261259957600085556125e0565b82601f106125b257805160ff19168380011785556125e0565b828001600101855582156125e0579182015b828111156125df5782518255916020019190600101906125c4565b5b5090506125ed9190612634565b5090565b6040518060600160405280600073ffffffffffffffffffffffffffffffffffffffff168152602001600067ffffffffffffffff1681526020016000151581525090565b5b8082111561264d576000816000905550600101612635565b5090565b600061266461265f84613009565b612fe4565b90508281526020810184848401111561267c57600080fd5b61268784828561324e565b509392505050565b60006126a261269d8461303a565b612fe4565b9050828152602081018484840111156126ba57600080fd5b6126c584828561324e565b509392505050565b6000813590506126dc81613665565b92915050565b6000813590506126f18161367c565b92915050565b60008135905061270681613693565b92915050565b60008135905061271b816136aa565b92915050565b600081519050612730816136aa565b92915050565b600082601f83011261274757600080fd5b8135612757848260208601612651565b91505092915050565b600082601f83011261277157600080fd5b813561278184826020860161268f565b91505092915050565b600081359050612799816136c1565b92915050565b6000602082840312156127b157600080fd5b60006127bf848285016126cd565b91505092915050565b600080604083850312156127db57600080fd5b60006127e9858286016126cd565b92505060206127fa858286016126cd565b9150509250929050565b60008060006060848603121561281957600080fd5b6000612827868287016126cd565b9350506020612838868287016126cd565b92505060406128498682870161278a565b9150509250925092565b6000806000806080858703121561286957600080fd5b6000612877878288016126cd565b9450506020612888878288016126cd565b93505060406128998782880161278a565b925050606085013567ffffffffffffffff8111156128b657600080fd5b6128c287828801612736565b91505092959194509250565b600080604083850312156128e157600080fd5b60006128ef858286016126cd565b9250506020612900858286016126e2565b9150509250929050565b6000806040838503121561291d57600080fd5b600061292b858286016126cd565b925050602061293c8582860161278a565b9150509250929050565b6000806000806080858703121561295c57600080fd5b600061296a878288016126f7565b945050602085013567ffffffffffffffff81111561298757600080fd5b61299387828801612736565b935050604085013567ffffffffffffffff8111156129b057600080fd5b6129bc87828801612760565b92505060606129cd8782880161278a565b91505092959194509250565b6000602082840312156129eb57600080fd5b60006129f98482850161270c565b91505092915050565b600060208284031215612a1457600080fd5b6000612a2284828501612721565b91505092915050565b600060208284031215612a3d57600080fd5b600082013567ffffffffffffffff811115612a5757600080fd5b612a6384828501612760565b91505092915050565b600060208284031215612a7e57600080fd5b6000612a8c8482850161278a565b91505092915050565b612a9e816131c3565b82525050565b612ab5612ab0826131c3565b61333c565b82525050565b612ac4816131d5565b82525050565b612ad3816131e1565b82525050565b612aea612ae5826131e1565b61334e565b82525050565b6000612afb8261306b565b612b058185613081565b9350612b1581856020860161325d565b612b1e81613461565b840191505092915050565b6000612b3482613076565b612b3e8185613092565b9350612b4e81856020860161325d565b612b5781613461565b840191505092915050565b6000612b6d82613076565b612b7781856130a3565b9350612b8781856020860161325d565b80840191505092915050565b6000612ba0601883613092565b9150612bab8261347f565b602082019050919050565b6000612bc3601683613092565b9150612bce826134a8565b602082019050919050565b6000612be6601983613092565b9150612bf1826134d1565b602082019050919050565b6000612c09601f83613092565b9150612c14826134fa565b602082019050919050565b6000612c2c601c836130a3565b9150612c3782613523565b601c82019050919050565b6000612c4f601683613092565b9150612c5a8261354c565b602082019050919050565b6000612c72602283613092565b9150612c7d82613575565b604082019050919050565b6000612c95602083613092565b9150612ca0826135c4565b602082019050919050565b6000612cb8602283613092565b9150612cc3826135ed565b604082019050919050565b6000612cdb601183613092565b9150612ce68261363c565b602082019050919050565b612cfa81613237565b82525050565b612d11612d0c82613237565b61336a565b82525050565b612d2081613241565b82525050565b6000612d328286612aa4565b601482019150612d428285612d00565b602082019150612d528284612b62565b9150819050949350505050565b6000612d6b8284612b62565b915081905092915050565b6000612d828285612b62565b9150612d8e8284612b62565b91508190509392505050565b6000612da582612c1f565b9150612db18284612ad9565b60208201915081905092915050565b6000602082019050612dd56000830184612a95565b92915050565b6000608082019050612df06000830187612a95565b612dfd6020830186612a95565b612e0a6040830185612cf1565b8181036060830152612e1c8184612af0565b905095945050505050565b6000602082019050612e3c6000830184612abb565b92915050565b6000608082019050612e576000830187612aca565b612e646020830186612d17565b612e716040830185612aca565b612e7e6060830184612aca565b95945050505050565b60006020820190508181036000830152612ea18184612b29565b905092915050565b60006020820190508181036000830152612ec281612b93565b9050919050565b60006020820190508181036000830152612ee281612bb6565b9050919050565b60006020820190508181036000830152612f0281612bd9565b9050919050565b60006020820190508181036000830152612f2281612bfc565b9050919050565b60006020820190508181036000830152612f4281612c42565b9050919050565b60006020820190508181036000830152612f6281612c65565b9050919050565b60006020820190508181036000830152612f8281612c88565b9050919050565b60006020820190508181036000830152612fa281612cab565b9050919050565b60006020820190508181036000830152612fc281612cce565b9050919050565b6000602082019050612fde6000830184612cf1565b92915050565b6000612fee612fff565b9050612ffa82826132c2565b919050565b6000604051905090565b600067ffffffffffffffff82111561302457613023613432565b5b61302d82613461565b9050602081019050919050565b600067ffffffffffffffff82111561305557613054613432565b5b61305e82613461565b9050602081019050919050565b600081519050919050565b600081519050919050565b600082825260208201905092915050565b600082825260208201905092915050565b600081905092915050565b60006130b982613237565b91506130c483613237565b9250827fffffffffffffffffffffffffffffffffffffffffffffffffffffffffffffffff038211156130f9576130f86133a5565b5b828201905092915050565b600061310f82613237565b915061311a83613237565b92508261312a576131296133d4565b5b828204905092915050565b600061314082613237565b915061314b83613237565b9250817fffffffffffffffffffffffffffffffffffffffffffffffffffffffffffffffff0483118215151615613184576131836133a5565b5b828202905092915050565b600061319a82613237565b91506131a583613237565b9250828210156131b8576131b76133a5565b5b828203905092915050565b60006131ce82613217565b9050919050565b60008115159050919050565b6000819050919050565b60007fffffffff0000000000000000000000000000000000000000000000000000000082169050919050565b600073ffffffffffffffffffffffffffffffffffffffff82169050919050565b6000819050919050565b600060ff82169050919050565b82818337600083830152505050565b60005b8381101561327b578082015181840152602081019050613260565b8381111561328a576000848401525b50505050565b600060028204905060018216806132a857607f821691505b602082108114156132bc576132bb613403565b5b50919050565b6132cb82613461565b810181811067ffffffffffffffff821117156132ea576132e9613432565b5b80604052505050565b60006132fe82613237565b91507fffffffffffffffffffffffffffffffffffffffffffffffffffffffffffffffff821415613331576133306133a5565b5b600182019050919050565b600061334782613358565b9050919050565b6000819050919050565b600061336382613472565b9050919050565b6000819050919050565b600061337f82613237565b915061338a83613237565b92508261339a576133996133d4565b5b828206905092915050565b7f4e487b7100000000000000000000000000000000000000000000000000000000600052601160045260246000fd5b7f4e487b7100000000000000000000000000000000000000000000000000000000600052601260045260246000fd5b7f4e487b7100000000000000000000000000000000000000000000000000000000600052602260045260246000fd5b7f4e487b7100000000000000000000000000000000000000000000000000000000600052604160045260246000fd5b6000601f19601f8301169050919050565b60008160601b9050919050565b7f45434453413a20696e76616c6964207369676e61747572650000000000000000600082015250565b7f4661696c65642076616c69646174696e67206861736800000000000000000000600082015250565b7f4e6f7420656e6f75676820657468207472616e73666572656400000000000000600082015250565b7f45434453413a20696e76616c6964207369676e6174757265206c656e67746800600082015250565b7f19457468657265756d205369676e6564204d6573736167653a0a333200000000600082015250565b7f446972656374206d696e7420646973616c6c6f77656400000000000000000000600082015250565b7f45434453413a20696e76616c6964207369676e6174757265202773272076616c60008201527f7565000000000000000000000000000000000000000000000000000000000000602082015250565b7f507572636861736520776f756c6420657863656564206d617820737570706c79600082015250565b7f45434453413a20696e76616c6964207369676e6174757265202776272076616c60008201527f7565000000000000000000000000000000000000000000000000000000000000602082015250565b7f4861736820616c72656164792075736564000000000000000000000000000000600082015250565b61366e816131c3565b811461367957600080fd5b50565b613685816131d5565b811461369057600080fd5b50565b61369c816131e1565b81146136a757600080fd5b50565b6136b3816131eb565b81146136be57600080fd5b50565b6136ca81613237565b81146136d557600080fd5b5056fea2646970667358221220709d7e6d40e8062a1be2417b613580451429c33ba5b64ec3f241b0a75afc77a264736f6c63430008040033",
  "devdoc": {
    "kind": "dev",
    "methods": {
      "approve(address,uint256)": {
        "details": "See {IERC721-approve}."
      },
      "balanceOf(address)": {
        "details": "See {IERC721-balanceOf}."
      },
      "getApproved(uint256)": {
        "details": "See {IERC721-getApproved}."
      },
      "isApprovedForAll(address,address)": {
        "details": "See {IERC721-isApprovedForAll}."
      },
      "name()": {
        "details": "See {IERC721Metadata-name}."
      },
      "ownerOf(uint256)": {
        "details": "See {IERC721-ownerOf}."
      },
      "safeTransferFrom(address,address,uint256)": {
        "details": "See {IERC721-safeTransferFrom}."
      },
      "safeTransferFrom(address,address,uint256,bytes)": {
        "details": "See {IERC721-safeTransferFrom}."
      },
      "setApprovalForAll(address,bool)": {
        "details": "See {IERC721-setApprovalForAll}."
      },
      "supportsInterface(bytes4)": {
        "details": "See {IERC165-supportsInterface}."
      },
      "symbol()": {
        "details": "See {IERC721Metadata-symbol}."
      },
      "tokenURI(uint256)": {
        "details": "See {IERC721Metadata-tokenURI}."
      },
      "totalSupply()": {
        "details": "See {IERC721Enumerable-totalSupply}.Burned tokens are calculated here, use _totalMinted() if you want to count just minted tokens."
      },
      "transferFrom(address,address,uint256)": {
        "details": "See {IERC721-transferFrom}."
      }
    },
    "version": 1
  },
  "userdoc": {
    "kind": "user",
    "methods": {},
    "version": 1
  },
  "storageLayout": {
    "storage": [
      {
        "astId": 1431,
        "contract": "contracts/CollectibleERC721ASecurity.sol:CollectibleERC721ASecurity",
        "label": "_currentIndex",
        "offset": 0,
        "slot": "0",
        "type": "t_uint256"
      },
      {
        "astId": 1433,
        "contract": "contracts/CollectibleERC721ASecurity.sol:CollectibleERC721ASecurity",
        "label": "_burnCounter",
        "offset": 0,
        "slot": "1",
        "type": "t_uint256"
      },
      {
        "astId": 1435,
        "contract": "contracts/CollectibleERC721ASecurity.sol:CollectibleERC721ASecurity",
        "label": "_name",
        "offset": 0,
        "slot": "2",
        "type": "t_string_storage"
      },
      {
        "astId": 1437,
        "contract": "contracts/CollectibleERC721ASecurity.sol:CollectibleERC721ASecurity",
        "label": "_symbol",
        "offset": 0,
        "slot": "3",
        "type": "t_string_storage"
      },
      {
        "astId": 1442,
        "contract": "contracts/CollectibleERC721ASecurity.sol:CollectibleERC721ASecurity",
        "label": "_ownerships",
        "offset": 0,
        "slot": "4",
        "type": "t_mapping(t_uint256,t_struct(TokenOwnership)1420_storage)"
      },
      {
        "astId": 1447,
        "contract": "contracts/CollectibleERC721ASecurity.sol:CollectibleERC721ASecurity",
        "label": "_addressData",
        "offset": 0,
        "slot": "5",
        "type": "t_mapping(t_address,t_struct(AddressData)1429_storage)"
      },
      {
        "astId": 1451,
        "contract": "contracts/CollectibleERC721ASecurity.sol:CollectibleERC721ASecurity",
        "label": "_tokenApprovals",
        "offset": 0,
        "slot": "6",
        "type": "t_mapping(t_uint256,t_address)"
      },
      {
        "astId": 1457,
        "contract": "contracts/CollectibleERC721ASecurity.sol:CollectibleERC721ASecurity",
        "label": "_operatorApprovals",
        "offset": 0,
        "slot": "7",
        "type": "t_mapping(t_address,t_mapping(t_address,t_bool))"
      },
      {
        "astId": 1172,
        "contract": "contracts/CollectibleERC721ASecurity.sol:CollectibleERC721ASecurity",
        "label": "_baseURIValue",
        "offset": 0,
        "slot": "8",
        "type": "t_string_storage"
      },
      {
        "astId": 1176,
        "contract": "contracts/CollectibleERC721ASecurity.sol:CollectibleERC721ASecurity",
        "label": "_usedNonces",
        "offset": 0,
        "slot": "9",
        "type": "t_mapping(t_string_memory_ptr,t_bool)"
      },
      {
        "astId": 1178,
        "contract": "contracts/CollectibleERC721ASecurity.sol:CollectibleERC721ASecurity",
        "label": "_signerAddress",
        "offset": 0,
        "slot": "10",
        "type": "t_address"
      }
    ],
    "types": {
      "t_address": {
        "encoding": "inplace",
        "label": "address",
        "numberOfBytes": "20"
      },
      "t_bool": {
        "encoding": "inplace",
        "label": "bool",
        "numberOfBytes": "1"
      },
      "t_mapping(t_address,t_bool)": {
        "encoding": "mapping",
        "key": "t_address",
        "label": "mapping(address => bool)",
        "numberOfBytes": "32",
        "value": "t_bool"
      },
      "t_mapping(t_address,t_mapping(t_address,t_bool))": {
        "encoding": "mapping",
        "key": "t_address",
        "label": "mapping(address => mapping(address => bool))",
        "numberOfBytes": "32",
        "value": "t_mapping(t_address,t_bool)"
      },
      "t_mapping(t_address,t_struct(AddressData)1429_storage)": {
        "encoding": "mapping",
        "key": "t_address",
        "label": "mapping(address => struct ERC721A.AddressData)",
        "numberOfBytes": "32",
        "value": "t_struct(AddressData)1429_storage"
      },
      "t_mapping(t_string_memory_ptr,t_bool)": {
        "encoding": "mapping",
        "key": "t_string_memory_ptr",
        "label": "mapping(string => bool)",
        "numberOfBytes": "32",
        "value": "t_bool"
      },
      "t_mapping(t_uint256,t_address)": {
        "encoding": "mapping",
        "key": "t_uint256",
        "label": "mapping(uint256 => address)",
        "numberOfBytes": "32",
        "value": "t_address"
      },
      "t_mapping(t_uint256,t_struct(TokenOwnership)1420_storage)": {
        "encoding": "mapping",
        "key": "t_uint256",
        "label": "mapping(uint256 => struct ERC721A.TokenOwnership)",
        "numberOfBytes": "32",
        "value": "t_struct(TokenOwnership)1420_storage"
      },
      "t_string_memory_ptr": {
        "encoding": "bytes",
        "label": "string",
        "numberOfBytes": "32"
      },
      "t_string_storage": {
        "encoding": "bytes",
        "label": "string",
        "numberOfBytes": "32"
      },
      "t_struct(AddressData)1429_storage": {
        "encoding": "inplace",
        "label": "struct ERC721A.AddressData",
        "members": [
          {
            "astId": 1422,
            "contract": "contracts/CollectibleERC721ASecurity.sol:CollectibleERC721ASecurity",
            "label": "balance",
            "offset": 0,
            "slot": "0",
            "type": "t_uint64"
          },
          {
            "astId": 1424,
            "contract": "contracts/CollectibleERC721ASecurity.sol:CollectibleERC721ASecurity",
            "label": "numberMinted",
            "offset": 8,
            "slot": "0",
            "type": "t_uint64"
          },
          {
            "astId": 1426,
            "contract": "contracts/CollectibleERC721ASecurity.sol:CollectibleERC721ASecurity",
            "label": "numberBurned",
            "offset": 16,
            "slot": "0",
            "type": "t_uint64"
          },
          {
            "astId": 1428,
            "contract": "contracts/CollectibleERC721ASecurity.sol:CollectibleERC721ASecurity",
            "label": "aux",
            "offset": 24,
            "slot": "0",
            "type": "t_uint64"
          }
        ],
        "numberOfBytes": "32"
      },
      "t_struct(TokenOwnership)1420_storage": {
        "encoding": "inplace",
        "label": "struct ERC721A.TokenOwnership",
        "members": [
          {
            "astId": 1415,
            "contract": "contracts/CollectibleERC721ASecurity.sol:CollectibleERC721ASecurity",
            "label": "addr",
            "offset": 0,
            "slot": "0",
            "type": "t_address"
          },
          {
            "astId": 1417,
            "contract": "contracts/CollectibleERC721ASecurity.sol:CollectibleERC721ASecurity",
            "label": "startTimestamp",
            "offset": 20,
            "slot": "0",
            "type": "t_uint64"
          },
          {
            "astId": 1419,
            "contract": "contracts/CollectibleERC721ASecurity.sol:CollectibleERC721ASecurity",
            "label": "burned",
            "offset": 28,
            "slot": "0",
            "type": "t_bool"
          }
        ],
        "numberOfBytes": "32"
      },
      "t_uint256": {
        "encoding": "inplace",
        "label": "uint256",
        "numberOfBytes": "32"
      },
      "t_uint64": {
        "encoding": "inplace",
        "label": "uint64",
        "numberOfBytes": "8"
      }
    }
  }
}